{"contracts/PoolFactory.sol":{"PoolFactory":{"abi":[{"inputs":[{"internalType":"contract VerifyToken","name":"_token","type":"address"},{"internalType":"address","name":"_oracle","type":"address"}],"stateMutability":"nonpayable","type":"constructor"},{"inputs":[{"internalType":"address","name":"owner","type":"address"}],"name":"OwnableInvalidOwner","type":"error"},{"inputs":[{"internalType":"address","name":"account","type":"address"}],"name":"OwnableUnauthorizedAccount","type":"error"},{"inputs":[],"name":"ReentrancyGuardReentrantCall","type":"error"},{"anonymous":false,"inputs":[{"indexed":true,"internalType":"bytes32","name":"newsHash","type":"bytes32"},{"indexed":false,"internalType":"uint8","name":"consensusPercent","type":"uint8"},{"indexed":false,"internalType":"bool","name":"skipZK","type":"bool"}],"name":"MicroConsensusReached","type":"event"},{"anonymous":false,"inputs":[{"indexed":true,"internalType":"address","name":"previousOwner","type":"address"},{"indexed":true,"internalType":"address","name":"newOwner","type":"address"}],"name":"OwnershipTransferred","type":"event"},{"anonymous":false,"inputs":[{"indexed":true,"internalType":"bytes32","name":"newsHash","type":"bytes32"},{"indexed":false,"internalType":"address","name":"poolAddress","type":"address"},{"indexed":false,"internalType":"bool","name":"earlyClosure","type":"bool"}],"name":"PoolClosed","type":"event"},{"anonymous":false,"inputs":[{"indexed":true,"internalType":"bytes32","name":"newsHash","type":"bytes32"},{"indexed":false,"internalType":"address","name":"poolAddress","type":"address"},{"indexed":false,"internalType":"uint256","name":"startTime","type":"uint256"},{"indexed":false,"internalType":"bool","name":"fromOracle","type":"bool"}],"name":"PoolCreated","type":"event"},{"inputs":[{"internalType":"bytes32","name":"_newsHash","type":"bytes32"}],"name":"closePool","outputs":[],"stateMutability":"nonpayable","type":"function"},{"inputs":[{"internalType":"bytes32","name":"_newsHash","type":"bytes32"}],"name":"createPool","outputs":[],"stateMutability":"nonpayable","type":"function"},{"inputs":[{"internalType":"bytes32","name":"_newsHash","type":"bytes32"}],"name":"createPoolFromOracle","outputs":[],"stateMutability":"nonpayable","type":"function"},{"inputs":[{"internalType":"bytes32","name":"","type":"bytes32"}],"name":"easilyVerifiable","outputs":[{"internalType":"bool","name":"","type":"bool"}],"stateMutability":"view","type":"function"},{"inputs":[],"name":"mainPoolDuration","outputs":[{"internalType":"uint256","name":"","type":"uint256"}],"stateMutability":"view","type":"function"},{"inputs":[],"name":"microPoolDuration","outputs":[{"internalType":"uint256","name":"","type":"uint256"}],"stateMutability":"view","type":"function"},{"inputs":[],"name":"oracleAddress","outputs":[{"internalType":"address","name":"","type":"address"}],"stateMutability":"view","type":"function"},{"inputs":[],"name":"owner","outputs":[{"internalType":"address","name":"","type":"address"}],"stateMutability":"view","type":"function"},{"inputs":[],"name":"poolCreationFee","outputs":[{"internalType":"uint256","name":"","type":"uint256"}],"stateMutability":"view","type":"function"},{"inputs":[{"internalType":"bytes32","name":"","type":"bytes32"}],"name":"pools","outputs":[{"internalType":"address","name":"","type":"address"}],"stateMutability":"view","type":"function"},{"inputs":[],"name":"renounceOwnership","outputs":[],"stateMutability":"nonpayable","type":"function"},{"inputs":[{"internalType":"bytes32","name":"_newsHash","type":"bytes32"},{"internalType":"uint8","name":"consensusPercent","type":"uint8"}],"name":"resolveMicroPool","outputs":[],"stateMutability":"nonpayable","type":"function"},{"inputs":[{"internalType":"uint256","name":"_newFee","type":"uint256"}],"name":"setCreationFee","outputs":[],"stateMutability":"nonpayable","type":"function"},{"inputs":[{"internalType":"uint256","name":"_micro","type":"uint256"},{"internalType":"uint256","name":"_main","type":"uint256"}],"name":"setDurations","outputs":[],"stateMutability":"nonpayable","type":"function"},{"inputs":[{"internalType":"address","name":"_newOracle","type":"address"}],"name":"setOracle","outputs":[],"stateMutability":"nonpayable","type":"function"},{"inputs":[{"internalType":"uint256","name":"_newThreshold","type":"uint256"}],"name":"setThreshold","outputs":[],"stateMutability":"nonpayable","type":"function"},{"inputs":[],"name":"token","outputs":[{"internalType":"contract VerifyToken","name":"","type":"address"}],"stateMutability":"view","type":"function"},{"inputs":[{"internalType":"address","name":"newOwner","type":"address"}],"name":"transferOwnership","outputs":[],"stateMutability":"nonpayable","type":"function"},{"inputs":[],"name":"verifiableThreshold","outputs":[{"internalType":"uint256","name":"","type":"uint256"}],"stateMutability":"view","type":"function"},{"inputs":[],"name":"withdrawFees","outputs":[],"stateMutability":"nonpayable","type":"function"}],"evm":{"bytecode":{"linkReferences":{},"object":"60803461011b57601f611fde38819003918201601f19168301916001600160401b0383118484101761012057808492604094855283398101031261011b5780516001600160a01b038116919082900361011b57602001516001600160a01b0381169081900361011b5733156101055760008054336001600160a01b0319821681178355604051949290916001600160a01b0316907f8be0079c531659141344cd1fd0a4f28419497f9722a3daafe3b4186f6b6457e09080a360018055678ac7230489e80000600355611c2060045562015180600555605060065560018060a01b0319600254161760025560018060a01b03196007541617600755611ea790816101378239f35b631e4fbdf760e01b600052600060045260246000fd5b600080fd5b634e487b7160e01b600052604160045260246000fdfe608080604052600436101561001357600080fd5b600090813560e01c908163352669ac14610d1757508063476343ee14610c3b5780635edf30eb146109c7578063649c81751461087a578063715018a6146108205780637adbf973146107d65780638da5cb5b146107af578063960bfe041461078c578063a40b399814610763578063a89ae4ba1461073a578063b5217bb414610707578063b7d86225146106e4578063be74615f146106c6578063c843784114610697578063d9d78cab14610679578063ea5b09671461065b578063ee12b96f14610379578063ee2373e9146101b6578063f2fde38b146101285763fc0c546a146100fd57600080fd5b346101255780600319360112610125576002546040516001600160a01b039091168152602090f35b80fd5b5034610125576020366003190112610125576004356001600160a01b038116908190036101b257610157610e1e565b801561019e5781546001600160a01b03198116821783556001600160a01b03167f8be0079c531659141344cd1fd0a4f28419497f9722a3daafe3b4186f6b6457e08380a380f35b631e4fbdf760e01b82526004829052602482fd5b5080fd5b50346101255760203660031901126101255760043560026001541461036a576002600155808252600860205260408220546101fa906001600160a01b031615610de4565b81602060018060a01b0360025416606460035460405194859384926323b872dd60e01b845233600485015230602485015260448401525af1801561035f57610332575b5060018060a01b036002541661025560055442610dc1565b6040519161102a8084019084821067ffffffffffffffff83111761031e5761029f928594928792610e488739604091949392606082019560018060a01b0316825260208201520152565b039083f080156103135781835260086020908152604080852080546001600160a01b0319166001600160a01b0390941693841790558051928352429183019190915281018390527fb0be558f6172b4d2ba7b895c3cc156cfd751b2fadf853fc0ca3da01fff90566190606090a26001805580f35b6040513d84823e3d90fd5b634e487b7160e01b87526041600452602487fd5b6103539060203d602011610358575b61034b8183610d33565b810190610d6b565b61023d565b503d610341565b6040513d85823e3d90fd5b633ee5aeb560e01b8252600482fd5b503461012557602036600319011261012557600435808252600860205260408220546001600160a01b03166103af811515610d83565b6040516318cbe5db60e11b8152602081600481855afa9081156104ed578491610629575b504210801590610613575b8015610600575b156105cd5782546001600160a01b03163314806105b6575b80610557575b1561051157803b1561050d57604051639dbe0a8960e01b8152600160048201528390818160248183875af18015610313576104f8575b50505b6040516318cbe5db60e11b8152602081600481855afa9081156104ed578491610496575b507f72ad63be17059b58d74f6b6fc4f92a111485a83ae4b418512cf542cf04e47a5091604091825191825242106020820152a280f35b90506020813d6020116104e5575b816104b160209383610d33565b810103126104e057517f72ad63be17059b58d74f6b6fc4f92a111485a83ae4b418512cf542cf04e47a50610460565b600080fd5b3d91506104a4565b6040513d86823e3d90fd5b8161050291610d33565b61050d578238610439565b8280fd5b803b1561050d576040516349b65e5f60e11b81528390818160048183875af1801561031357610542575b505061043c565b8161054c91610d33565b61050d57823861053b565b506040516318cbe5db60e11b8152602081600481855afa9081156104ed578491610584575b504210610403565b90506020813d6020116105ae575b8161059f60209383610d33565b810103126104e057513861057c565b3d9150610592565b50818352600960205260ff604084205416156103fd565b60405162461bcd60e51b815260206004820152600b60248201526a506f6f6c2061637469766560a81b6044820152606490fd5b5082546001600160a01b031633146103e5565b50818352600960205260ff6040842054166103de565b90506020813d602011610653575b8161064460209383610d33565b810103126104e05751386103d3565b3d9150610637565b50346101255780600319360112610125576020600454604051908152f35b50346101255780600319360112610125576020600654604051908152f35b50346101255760203660031901126101255760ff60406020926004358152600984522054166040519015158152f35b50346101255780600319360112610125576020600354604051908152f35b5034610125576020366003190112610125576106fe610e1e565b60043560035580f35b503461012557602036600319011261012557602090600435815260088252604060018060a01b0391205416604051908152f35b50346101255780600319360112610125576007546040516001600160a01b039091168152602090f35b50346101255760403660031901126101255761077d610e1e565b60043560045560243560055580f35b5034610125576020366003190112610125576107a6610e1e565b60043560065580f35b5034610125578060031936011261012557546040516001600160a01b039091168152602090f35b5034610125576020366003190112610125576004356001600160a01b038116908190036101b257610805610e1e565b6bffffffffffffffffffffffff60a01b600754161760075580f35b5034610125578060031936011261012557610839610e1e565b80546001600160a01b03198116825581906001600160a01b03167f8be0079c531659141344cd1fd0a4f28419497f9722a3daafe3b4186f6b6457e08280a380f35b503461012557602036600319011261012557600754600435906001600160a01b0316330361099457808252600860205260408220546108c2906001600160a01b031615610de4565b60018060a01b03600254166108d960055442610dc1565b6040519161102a8084019084821067ffffffffffffffff83111761031e57610923928594928792610e488739604091949392606082019560018060a01b0316825260208201520152565b039083f080156103135781835260086020908152604080852080546001600160a01b0319166001600160a01b039094169384179055805192835242918301919091526001908201527fb0be558f6172b4d2ba7b895c3cc156cfd751b2fadf853fc0ca3da01fff90566190606090a280f35b60405162461bcd60e51b815260206004820152600b60248201526a4f6e6c79206f7261636c6560a81b6044820152606490fd5b50346101255760403660031901126101255760043560243560ff811680910361050d576007546001600160a01b031633148015610c28575b15610bef5781835260086020526040832054610a25906001600160a01b03161515610d83565b8183526008602090815260408085205490516318cbe5db60e11b81529190829060049082906001600160a01b03165afa9081156104ed578491610bb9575b506005548103908111610ba557600454610a7c91610dc1565b4211610b6d57600654811015610ad0575b60407f9e9777e0565cd124d0abe1950a20cf2f373d735485e59457960ba50572fc389c91838552600960205260ff8286205416825191825215156020820152a280f35b818352600960209081526040808520805460ff19166001179055838552600890915283205483906001600160a01b0316803b156101b2578190602460405180948193639dbe0a8960e01b8352600160048401525af180156104ed57610b36575b50610a8d565b83610b657f9e9777e0565cd124d0abe1950a20cf2f373d735485e59457960ba50572fc389c9395604093610d33565b939150610b30565b60405162461bcd60e51b815260206004820152601060248201526f135a58dc9bcb5c1bdbdb08195b99195960821b6044820152606490fd5b634e487b7160e01b84526011600452602484fd5b90506020813d602011610be7575b81610bd460209383610d33565b81010312610be3575138610a63565b8380fd5b3d9150610bc7565b60405162461bcd60e51b815260206004820152601160248201527027b7363c9037b930b1b63297b7bbb732b960791b6044820152606490fd5b5082546001600160a01b031633146109ff565b5034610125578060031936011261012557610c54610e1e565b60025481546040516370a0823160e01b81523060048201526001600160a01b0392831692909116602082602481865afa9182156104ed578492610ce2575b5090604460209285604051958694859363a9059cbb60e01b8552600485015260248401525af1801561031357610cc6575080f35b610cde9060203d6020116103585761034b8183610d33565b5080f35b91506020823d602011610d0f575b81610cfd60209383610d33565b81010312610be3579051906044610c92565b3d9150610cf0565b9050346101b257816003193601126101b2576020906005548152f35b90601f8019910116810190811067ffffffffffffffff821117610d5557604052565b634e487b7160e01b600052604160045260246000fd5b908160209103126104e0575180151581036104e05790565b15610d8a57565b60405162461bcd60e51b815260206004820152600f60248201526e506f6f6c206e6f742065786973747360881b6044820152606490fd5b91908201809211610dce57565b634e487b7160e01b600052601160045260246000fd5b15610deb57565b60405162461bcd60e51b815260206004820152600b60248201526a506f6f6c2065786973747360a81b6044820152606490fd5b6000546001600160a01b03163303610e3257565b63118cdaa760e01b6000523360045260246000fdfe60803461010357601f61102a38819003918201601f19168301916001600160401b03831184841017610108578084926060946040528339810103126101035780516001600160a01b038116919082900361010357604060208201519101519033156100ed5760008054336001600160a01b0319821681178355604051959290916001600160a01b0316907f8be0079c531659141344cd1fd0a4f28419497f9722a3daafe3b4186f6b6457e09080a36001805561ffff1960055416600555600060085560006009556000600b5560018060a01b03196002541617600255600355600455610f0b908161011f8239f35b631e4fbdf760e01b600052600060045260246000fd5b600080fd5b634e487b7160e01b600052604160045260246000fdfe608080604052600436101561001357600080fd5b60003560e01c9081630508d2f314610592575080630d15fd77146105745780630de519b414610556578063168299f3146105385780631a411f4f146104fa5780633197cbb6146104dc57806335c1d3491461049a578063597e1fb5146104775780636ab3846b14610456578063715018a6146103fd5780637ad24fe2146103d75780637f79496c1461036e5780638da5cb5b14610345578063936cbcbe146102cf5780639dbe0a8914610288578063b4fb3ee314610245578063c610ab7714610227578063c747367014610204578063d8bff5a5146101c1578063f2fde38b146101345763fc0c546a1461010657600080fd5b3461012f57600036600319011261012f576002546040516001600160a01b039091168152602090f35b600080fd5b3461012f57602036600319011261012f576004356001600160a01b0381169081900361012f5761016261098d565b80156101ab57600080546001600160a01b03198116831782556001600160a01b0316907f8be0079c531659141344cd1fd0a4f28419497f9722a3daafe3b4186f6b6457e09080a3005b631e4fbdf760e01b600052600060045260246000fd5b3461012f57602036600319011261012f576004356001600160a01b0381169081900361012f576000526006602052602060ff604060002054166040519015158152f35b3461012f57600036600319011261012f57602060ff600a54166040519015158152f35b3461012f57600036600319011261012f576020600854604051908152f35b3461012f57602036600319011261012f576004356001600160a01b0381169081900361012f57600052600d602052602060ff604060002054166040519015158152f35b3461012f57602036600319011261012f576102a16108f9565b6102a961098d565b6005805461ff00191682151560081b61ff00161790556102c557005b6102cd6109b6565b005b3461012f57600036600319011261012f576102e861098d565b6004544210801590610336575b15610302576102cd6109b6565b60405162461bcd60e51b815260206004820152600c60248201526b4e6f7420636c6f7361626c6560a01b6044820152606490fd5b5060ff60055460081c166102f5565b3461012f57600036600319011261012f576000546040516001600160a01b039091168152602090f35b3461012f57600036600319011261012f576004548042106000146103cd5761039960a0914290610980565b600554906008546009549060ff604051948181161515865260081c1615156020850152604084015260608301526080820152f35b5060a06000610399565b3461012f57600036600319011261012f57602060ff60055460081c166040519015158152f35b3461012f57600036600319011261012f5761041661098d565b600080546001600160a01b0319811682556001600160a01b03167f8be0079c531659141344cd1fd0a4f28419497f9722a3daafe3b4186f6b6457e08280a3005b3461012f57602036600319011261012f5761046f61098d565b600480359055005b3461012f57600036600319011261012f57602060ff600554166040519015158152f35b3461012f57602036600319011261012f57600435600c5481101561012f576104c3602091610908565b905460405160039290921b1c6001600160a01b03168152f35b3461012f57600036600319011261012f576020600454604051908152f35b3461012f57602036600319011261012f576004356001600160a01b0381169081900361012f5760005260076020526020604060002054604051908152f35b3461012f57600036600319011261012f576020600354604051908152f35b3461012f57600036600319011261012f576020600954604051908152f35b3461012f57600036600319011261012f576020600b54604051908152f35b3461012f57606036600319011261012f576105ab6108f9565b906024356044359160ff831680930361012f576002600154146108e857600260015560ff600554166108b857506004544210156108865780156108485733600052600760205260406000205461081357600182101580610808575b156107d2576002546040516323b872dd60e01b81523360048201523060248201526044810183905290602090829060649082906000906001600160a01b03165af180156107c657610799575b50336000526007602052806040600020553360005260066020526040600020928015159360ff1981541660ff8616179055600b54600019811461078357600101600b5533600052600d60205260ff6040600020541615610712575b156106fe576106be81600854610973565b6008555b604051928352602083015260408201527fa1abc530141f38947876d13989074bbb38a85d7b115374388952db2799ee017260603392a260018055005b61070a81600954610973565b6009556106c2565b600c546801000000000000000081101561076d578060016107369201600c55610908565b81549060031b9033821b9160018060a01b03901b191617905533600052600d6020526040600020600160ff198254161790556106ad565b634e487b7160e01b600052604160045260246000fd5b634e487b7160e01b600052601160045260246000fd5b6107ba9060203d6020116107bf575b6107b28183610939565b81019061095b565b610652565b503d6107a8565b6040513d6000823e3d90fd5b60405162461bcd60e51b815260206004820152600e60248201526d496e76616c69642064656772656560901b6044820152606490fd5b506003821115610606565b60405162461bcd60e51b815260206004820152600d60248201526c105b1c9958591e481d9bdd1959609a1b6044820152606490fd5b60405162461bcd60e51b81526020600482015260166024820152755374616b65206d75737420626520706f73697469766560501b6044820152606490fd5b60405162461bcd60e51b815260206004820152600a602482015269141bdbdb08195b99195960b21b6044820152606490fd5b62461bcd60e51b815260206004820152600b60248201526a141bdbdb0818db1bdcd95960aa1b6044820152606490fd5b633ee5aeb560e01b60005260046000fd5b60043590811515820361012f57565b600c5481101561092357600c60005260206000200190600090565b634e487b7160e01b600052603260045260246000fd5b90601f8019910116810190811067ffffffffffffffff82111761076d57604052565b9081602091031261012f5751801515810361012f5790565b9190820180921161078357565b9190820391821161078357565b6000546001600160a01b031633036109a157565b63118cdaa760e01b6000523360045260246000fd5b60055460ff8116610e6c5760ff19166001176005556008546009541015610c6e57600160ff19600a541617600a55600854906000916000600c54905b818110610bd457505060005b600c54811015610b8757610a1181610908565b60018060a01b0391549060031b1c1690816000526007602052604060002054610a3f575b60019150016109fe565b81600052600660205260ff6040600020541691806000526007602052600160406000205493151514600014610b18576020610ad184610a9e610a8c88610a878c60009a610ea2565b610eb5565b6002546001600160a01b031692610973565b60405163a9059cbb60e01b81526001600160a01b0386166004820152602481019190915295869283919082906044820190565b03925af19283156107c657600193610afa575b505b600052600760205260006040812055610a35565b610b119060203d81116107bf576107b28183610939565b5038610ae4565b606483028381046064148415171561078357600254600094602092610b50926001600160a01b031691610a9e91612710900490610980565b03925af19283156107c657600193610b69575b50610ae6565b610b809060203d81116107bf576107b28183610939565b5038610b63565b505090505b6003547f1fac53a191157c168930e8243c9ef26bfeb54d57359284ff5e216a65cd227804606060ff600a541660085460095490604051921515835260208301526040820152a2565b610bdd81610908565b905460039190911b1c6001600160a01b0316600081815260076020526040902054151580610c50575b610c14575b506001016109f2565b600095919552600760205260406000205460648102908082046064149015171561078357600191612710610c49920490610973565b9490610c0b565b50806000526006602052600160ff6040600020541615151415610c06565b60ff19600a5416600a55600954906000916000600c54905b818110610dd657505060005b600c54811015610dcd57610ca581610908565b60018060a01b0391549060031b1c1690816000526007602052604060002054610cd3575b6001915001610c92565b81600052600660205260ff60406000205416918060005260076020526040600020549215600014610d5e576020610d1784610a9e610a8c88610a878c60009a610ea2565b03925af19283156107c657600193610d40575b505b600052600760205260006040812055610cc9565b610d579060203d81116107bf576107b28183610939565b5038610d2a565b606483028381046064148415171561078357600254600094602092610d96926001600160a01b031691610a9e91612710900490610980565b03925af19283156107c657600193610daf575b50610d2c565b610dc69060203d81116107bf576107b28183610939565b5038610da9565b50509050610b8c565b610ddf81610908565b905460039190911b1c6001600160a01b0316600081815260076020526040902054151580610e52575b610e16575b50600101610c86565b600095919552600760205260406000205460648102908082046064149015171561078357600191612710610e4b920490610973565b9490610e0d565b5080600052600660205260ff604060002054161515610e08565b60405162461bcd60e51b815260206004820152600e60248201526d105b1c9958591e4818db1bdcd95960921b6044820152606490fd5b8181029291811591840414171561078357565b8115610ebf570490565b634e487b7160e01b600052601260045260246000fdfea26469706673582212204018eb5c9a1d66050c349c27257302a2b6eaf6655b8d901e4268b25e1adbd1b664736f6c634300081c0033a264697066735822122041327ad59d57393e708563de51e3f34b557211da20ea4831a254955dff62df8364736f6c634300081c0033","opcodes":"PUSH1 0x80 CALLVALUE PUSH2 0x11B JUMPI PUSH1 0x1F PUSH2 0x1FDE CODESIZE DUP2 SWAP1 SUB SWAP2 DUP3 ADD PUSH1 0x1F NOT AND DUP4 ADD SWAP2 PUSH1 0x1 PUSH1 0x1 PUSH1 0x40 SHL SUB DUP4 GT DUP5 DUP5 LT OR PUSH2 0x120 JUMPI DUP1 DUP5 SWAP3 PUSH1 0x40 SWAP5 DUP6 MSTORE DUP4 CODECOPY DUP2 ADD SUB SLT PUSH2 0x11B JUMPI DUP1 MLOAD PUSH1 0x1 PUSH1 0x1 PUSH1 0xA0 SHL SUB DUP2 AND SWAP2 SWAP1 DUP3 SWAP1 SUB PUSH2 0x11B JUMPI PUSH1 0x20 ADD MLOAD PUSH1 0x1 PUSH1 0x1 PUSH1 0xA0 SHL SUB DUP2 AND SWAP1 DUP2 SWAP1 SUB PUSH2 0x11B JUMPI CALLER ISZERO PUSH2 0x105 JUMPI PUSH1 0x0 DUP1 SLOAD CALLER PUSH1 0x1 PUSH1 0x1 PUSH1 0xA0 SHL SUB NOT DUP3 AND DUP2 OR DUP4 SSTORE PUSH1 0x40 MLOAD SWAP5 SWAP3 SWAP1 SWAP2 PUSH1 0x1 PUSH1 0x1 PUSH1 0xA0 SHL SUB AND SWAP1 PUSH32 0x8BE0079C531659141344CD1FD0A4F28419497F9722A3DAAFE3B4186F6B6457E0 SWAP1 DUP1 LOG3 PUSH1 0x1 DUP1 SSTORE PUSH8 0x8AC7230489E80000 PUSH1 0x3 SSTORE PUSH2 0x1C20 PUSH1 0x4 SSTORE PUSH3 0x15180 PUSH1 0x5 SSTORE PUSH1 0x50 PUSH1 0x6 SSTORE PUSH1 0x1 DUP1 PUSH1 0xA0 SHL SUB NOT PUSH1 0x2 SLOAD AND OR PUSH1 0x2 SSTORE PUSH1 0x1 DUP1 PUSH1 0xA0 SHL SUB NOT PUSH1 0x7 SLOAD AND OR PUSH1 0x7 SSTORE PUSH2 0x1EA7 SWAP1 DUP2 PUSH2 0x137 DUP3 CODECOPY RETURN JUMPDEST PUSH4 0x1E4FBDF7 PUSH1 0xE0 SHL PUSH1 0x0 MSTORE PUSH1 0x0 PUSH1 0x4 MSTORE PUSH1 0x24 PUSH1 0x0 REVERT JUMPDEST PUSH1 0x0 DUP1 REVERT JUMPDEST PUSH4 0x4E487B71 PUSH1 0xE0 SHL PUSH1 0x0 MSTORE PUSH1 0x41 PUSH1 0x4 MSTORE PUSH1 0x24 PUSH1 0x0 REVERT INVALID PUSH1 0x80 DUP1 PUSH1 0x40 MSTORE PUSH1 0x4 CALLDATASIZE LT ISZERO PUSH2 0x13 JUMPI PUSH1 0x0 DUP1 REVERT JUMPDEST PUSH1 0x0 SWAP1 DUP2 CALLDATALOAD PUSH1 0xE0 SHR SWAP1 DUP2 PUSH4 0x352669AC EQ PUSH2 0xD17 JUMPI POP DUP1 PUSH4 0x476343EE EQ PUSH2 0xC3B JUMPI DUP1 PUSH4 0x5EDF30EB EQ PUSH2 0x9C7 JUMPI DUP1 PUSH4 0x649C8175 EQ PUSH2 0x87A JUMPI DUP1 PUSH4 0x715018A6 EQ PUSH2 0x820 JUMPI DUP1 PUSH4 0x7ADBF973 EQ PUSH2 0x7D6 JUMPI DUP1 PUSH4 0x8DA5CB5B EQ PUSH2 0x7AF JUMPI DUP1 PUSH4 0x960BFE04 EQ PUSH2 0x78C JUMPI DUP1 PUSH4 0xA40B3998 EQ PUSH2 0x763 JUMPI DUP1 PUSH4 0xA89AE4BA EQ PUSH2 0x73A JUMPI DUP1 PUSH4 0xB5217BB4 EQ PUSH2 0x707 JUMPI DUP1 PUSH4 0xB7D86225 EQ PUSH2 0x6E4 JUMPI DUP1 PUSH4 0xBE74615F EQ PUSH2 0x6C6 JUMPI DUP1 PUSH4 0xC8437841 EQ PUSH2 0x697 JUMPI DUP1 PUSH4 0xD9D78CAB EQ PUSH2 0x679 JUMPI DUP1 PUSH4 0xEA5B0967 EQ PUSH2 0x65B JUMPI DUP1 PUSH4 0xEE12B96F EQ PUSH2 0x379 JUMPI DUP1 PUSH4 0xEE2373E9 EQ PUSH2 0x1B6 JUMPI DUP1 PUSH4 0xF2FDE38B EQ PUSH2 0x128 JUMPI PUSH4 0xFC0C546A EQ PUSH2 0xFD JUMPI PUSH1 0x0 DUP1 REVERT JUMPDEST CALLVALUE PUSH2 0x125 JUMPI DUP1 PUSH1 0x3 NOT CALLDATASIZE ADD SLT PUSH2 0x125 JUMPI PUSH1 0x2 SLOAD PUSH1 0x40 MLOAD PUSH1 0x1 PUSH1 0x1 PUSH1 0xA0 SHL SUB SWAP1 SWAP2 AND DUP2 MSTORE PUSH1 0x20 SWAP1 RETURN JUMPDEST DUP1 REVERT JUMPDEST POP CALLVALUE PUSH2 0x125 JUMPI PUSH1 0x20 CALLDATASIZE PUSH1 0x3 NOT ADD SLT PUSH2 0x125 JUMPI PUSH1 0x4 CALLDATALOAD PUSH1 0x1 PUSH1 0x1 PUSH1 0xA0 SHL SUB DUP2 AND SWAP1 DUP2 SWAP1 SUB PUSH2 0x1B2 JUMPI PUSH2 0x157 PUSH2 0xE1E JUMP JUMPDEST DUP1 ISZERO PUSH2 0x19E JUMPI DUP2 SLOAD PUSH1 0x1 PUSH1 0x1 PUSH1 0xA0 SHL SUB NOT DUP2 AND DUP3 OR DUP4 SSTORE PUSH1 0x1 PUSH1 0x1 PUSH1 0xA0 SHL SUB AND PUSH32 0x8BE0079C531659141344CD1FD0A4F28419497F9722A3DAAFE3B4186F6B6457E0 DUP4 DUP1 LOG3 DUP1 RETURN JUMPDEST PUSH4 0x1E4FBDF7 PUSH1 0xE0 SHL DUP3 MSTORE PUSH1 0x4 DUP3 SWAP1 MSTORE PUSH1 0x24 DUP3 REVERT JUMPDEST POP DUP1 REVERT JUMPDEST POP CALLVALUE PUSH2 0x125 JUMPI PUSH1 0x20 CALLDATASIZE PUSH1 0x3 NOT ADD SLT PUSH2 0x125 JUMPI PUSH1 0x4 CALLDATALOAD PUSH1 0x2 PUSH1 0x1 SLOAD EQ PUSH2 0x36A JUMPI PUSH1 0x2 PUSH1 0x1 SSTORE DUP1 DUP3 MSTORE PUSH1 0x8 PUSH1 0x20 MSTORE PUSH1 0x40 DUP3 KECCAK256 SLOAD PUSH2 0x1FA SWAP1 PUSH1 0x1 PUSH1 0x1 PUSH1 0xA0 SHL SUB AND ISZERO PUSH2 0xDE4 JUMP JUMPDEST DUP2 PUSH1 0x20 PUSH1 0x1 DUP1 PUSH1 0xA0 SHL SUB PUSH1 0x2 SLOAD AND PUSH1 0x64 PUSH1 0x3 SLOAD PUSH1 0x40 MLOAD SWAP5 DUP6 SWAP4 DUP5 SWAP3 PUSH4 0x23B872DD PUSH1 0xE0 SHL DUP5 MSTORE CALLER PUSH1 0x4 DUP6 ADD MSTORE ADDRESS PUSH1 0x24 DUP6 ADD MSTORE PUSH1 0x44 DUP5 ADD MSTORE GAS CALL DUP1 ISZERO PUSH2 0x35F JUMPI PUSH2 0x332 JUMPI JUMPDEST POP PUSH1 0x1 DUP1 PUSH1 0xA0 SHL SUB PUSH1 0x2 SLOAD AND PUSH2 0x255 PUSH1 0x5 SLOAD TIMESTAMP PUSH2 0xDC1 JUMP JUMPDEST PUSH1 0x40 MLOAD SWAP2 PUSH2 0x102A DUP1 DUP5 ADD SWAP1 DUP5 DUP3 LT PUSH8 0xFFFFFFFFFFFFFFFF DUP4 GT OR PUSH2 0x31E JUMPI PUSH2 0x29F SWAP3 DUP6 SWAP5 SWAP3 DUP8 SWAP3 PUSH2 0xE48 DUP8 CODECOPY PUSH1 0x40 SWAP2 SWAP5 SWAP4 SWAP3 PUSH1 0x60 DUP3 ADD SWAP6 PUSH1 0x1 DUP1 PUSH1 0xA0 SHL SUB AND DUP3 MSTORE PUSH1 0x20 DUP3 ADD MSTORE ADD MSTORE JUMP JUMPDEST SUB SWAP1 DUP4 CREATE DUP1 ISZERO PUSH2 0x313 JUMPI DUP2 DUP4 MSTORE PUSH1 0x8 PUSH1 0x20 SWAP1 DUP2 MSTORE PUSH1 0x40 DUP1 DUP6 KECCAK256 DUP1 SLOAD PUSH1 0x1 PUSH1 0x1 PUSH1 0xA0 SHL SUB NOT AND PUSH1 0x1 PUSH1 0x1 PUSH1 0xA0 SHL SUB SWAP1 SWAP5 AND SWAP4 DUP5 OR SWAP1 SSTORE DUP1 MLOAD SWAP3 DUP4 MSTORE TIMESTAMP SWAP2 DUP4 ADD SWAP2 SWAP1 SWAP2 MSTORE DUP2 ADD DUP4 SWAP1 MSTORE PUSH32 0xB0BE558F6172B4D2BA7B895C3CC156CFD751B2FADF853FC0CA3DA01FFF905661 SWAP1 PUSH1 0x60 SWAP1 LOG2 PUSH1 0x1 DUP1 SSTORE DUP1 RETURN JUMPDEST PUSH1 0x40 MLOAD RETURNDATASIZE DUP5 DUP3 RETURNDATACOPY RETURNDATASIZE SWAP1 REVERT JUMPDEST PUSH4 0x4E487B71 PUSH1 0xE0 SHL DUP8 MSTORE PUSH1 0x41 PUSH1 0x4 MSTORE PUSH1 0x24 DUP8 REVERT JUMPDEST PUSH2 0x353 SWAP1 PUSH1 0x20 RETURNDATASIZE PUSH1 0x20 GT PUSH2 0x358 JUMPI JUMPDEST PUSH2 0x34B DUP2 DUP4 PUSH2 0xD33 JUMP JUMPDEST DUP2 ADD SWAP1 PUSH2 0xD6B JUMP JUMPDEST PUSH2 0x23D JUMP JUMPDEST POP RETURNDATASIZE PUSH2 0x341 JUMP JUMPDEST PUSH1 0x40 MLOAD RETURNDATASIZE DUP6 DUP3 RETURNDATACOPY RETURNDATASIZE SWAP1 REVERT JUMPDEST PUSH4 0x3EE5AEB5 PUSH1 0xE0 SHL DUP3 MSTORE PUSH1 0x4 DUP3 REVERT JUMPDEST POP CALLVALUE PUSH2 0x125 JUMPI PUSH1 0x20 CALLDATASIZE PUSH1 0x3 NOT ADD SLT PUSH2 0x125 JUMPI PUSH1 0x4 CALLDATALOAD DUP1 DUP3 MSTORE PUSH1 0x8 PUSH1 0x20 MSTORE PUSH1 0x40 DUP3 KECCAK256 SLOAD PUSH1 0x1 PUSH1 0x1 PUSH1 0xA0 SHL SUB AND PUSH2 0x3AF DUP2 ISZERO ISZERO PUSH2 0xD83 JUMP JUMPDEST PUSH1 0x40 MLOAD PUSH4 0x18CBE5DB PUSH1 0xE1 SHL DUP2 MSTORE PUSH1 0x20 DUP2 PUSH1 0x4 DUP2 DUP6 GAS STATICCALL SWAP1 DUP2 ISZERO PUSH2 0x4ED JUMPI DUP5 SWAP2 PUSH2 0x629 JUMPI JUMPDEST POP TIMESTAMP LT DUP1 ISZERO SWAP1 PUSH2 0x613 JUMPI JUMPDEST DUP1 ISZERO PUSH2 0x600 JUMPI JUMPDEST ISZERO PUSH2 0x5CD JUMPI DUP3 SLOAD PUSH1 0x1 PUSH1 0x1 PUSH1 0xA0 SHL SUB AND CALLER EQ DUP1 PUSH2 0x5B6 JUMPI JUMPDEST DUP1 PUSH2 0x557 JUMPI JUMPDEST ISZERO PUSH2 0x511 JUMPI DUP1 EXTCODESIZE ISZERO PUSH2 0x50D JUMPI PUSH1 0x40 MLOAD PUSH4 0x9DBE0A89 PUSH1 0xE0 SHL DUP2 MSTORE PUSH1 0x1 PUSH1 0x4 DUP3 ADD MSTORE DUP4 SWAP1 DUP2 DUP2 PUSH1 0x24 DUP2 DUP4 DUP8 GAS CALL DUP1 ISZERO PUSH2 0x313 JUMPI PUSH2 0x4F8 JUMPI JUMPDEST POP POP JUMPDEST PUSH1 0x40 MLOAD PUSH4 0x18CBE5DB PUSH1 0xE1 SHL DUP2 MSTORE PUSH1 0x20 DUP2 PUSH1 0x4 DUP2 DUP6 GAS STATICCALL SWAP1 DUP2 ISZERO PUSH2 0x4ED JUMPI DUP5 SWAP2 PUSH2 0x496 JUMPI JUMPDEST POP PUSH32 0x72AD63BE17059B58D74F6B6FC4F92A111485A83AE4B418512CF542CF04E47A50 SWAP2 PUSH1 0x40 SWAP2 DUP3 MLOAD SWAP2 DUP3 MSTORE TIMESTAMP LT PUSH1 0x20 DUP3 ADD MSTORE LOG2 DUP1 RETURN JUMPDEST SWAP1 POP PUSH1 0x20 DUP2 RETURNDATASIZE PUSH1 0x20 GT PUSH2 0x4E5 JUMPI JUMPDEST DUP2 PUSH2 0x4B1 PUSH1 0x20 SWAP4 DUP4 PUSH2 0xD33 JUMP JUMPDEST DUP2 ADD SUB SLT PUSH2 0x4E0 JUMPI MLOAD PUSH32 0x72AD63BE17059B58D74F6B6FC4F92A111485A83AE4B418512CF542CF04E47A50 PUSH2 0x460 JUMP JUMPDEST PUSH1 0x0 DUP1 REVERT JUMPDEST RETURNDATASIZE SWAP2 POP PUSH2 0x4A4 JUMP JUMPDEST PUSH1 0x40 MLOAD RETURNDATASIZE DUP7 DUP3 RETURNDATACOPY RETURNDATASIZE SWAP1 REVERT JUMPDEST DUP2 PUSH2 0x502 SWAP2 PUSH2 0xD33 JUMP JUMPDEST PUSH2 0x50D JUMPI DUP3 CODESIZE PUSH2 0x439 JUMP JUMPDEST DUP3 DUP1 REVERT JUMPDEST DUP1 EXTCODESIZE ISZERO PUSH2 0x50D JUMPI PUSH1 0x40 MLOAD PUSH4 0x49B65E5F PUSH1 0xE1 SHL DUP2 MSTORE DUP4 SWAP1 DUP2 DUP2 PUSH1 0x4 DUP2 DUP4 DUP8 GAS CALL DUP1 ISZERO PUSH2 0x313 JUMPI PUSH2 0x542 JUMPI JUMPDEST POP POP PUSH2 0x43C JUMP JUMPDEST DUP2 PUSH2 0x54C SWAP2 PUSH2 0xD33 JUMP JUMPDEST PUSH2 0x50D JUMPI DUP3 CODESIZE PUSH2 0x53B JUMP JUMPDEST POP PUSH1 0x40 MLOAD PUSH4 0x18CBE5DB PUSH1 0xE1 SHL DUP2 MSTORE PUSH1 0x20 DUP2 PUSH1 0x4 DUP2 DUP6 GAS STATICCALL SWAP1 DUP2 ISZERO PUSH2 0x4ED JUMPI DUP5 SWAP2 PUSH2 0x584 JUMPI JUMPDEST POP TIMESTAMP LT PUSH2 0x403 JUMP JUMPDEST SWAP1 POP PUSH1 0x20 DUP2 RETURNDATASIZE PUSH1 0x20 GT PUSH2 0x5AE JUMPI JUMPDEST DUP2 PUSH2 0x59F PUSH1 0x20 SWAP4 DUP4 PUSH2 0xD33 JUMP JUMPDEST DUP2 ADD SUB SLT PUSH2 0x4E0 JUMPI MLOAD CODESIZE PUSH2 0x57C JUMP JUMPDEST RETURNDATASIZE SWAP2 POP PUSH2 0x592 JUMP JUMPDEST POP DUP2 DUP4 MSTORE PUSH1 0x9 PUSH1 0x20 MSTORE PUSH1 0xFF PUSH1 0x40 DUP5 KECCAK256 SLOAD AND ISZERO PUSH2 0x3FD JUMP JUMPDEST PUSH1 0x40 MLOAD PUSH3 0x461BCD PUSH1 0xE5 SHL DUP2 MSTORE PUSH1 0x20 PUSH1 0x4 DUP3 ADD MSTORE PUSH1 0xB PUSH1 0x24 DUP3 ADD MSTORE PUSH11 0x506F6F6C20616374697665 PUSH1 0xA8 SHL PUSH1 0x44 DUP3 ADD MSTORE PUSH1 0x64 SWAP1 REVERT JUMPDEST POP DUP3 SLOAD PUSH1 0x1 PUSH1 0x1 PUSH1 0xA0 SHL SUB AND CALLER EQ PUSH2 0x3E5 JUMP JUMPDEST POP DUP2 DUP4 MSTORE PUSH1 0x9 PUSH1 0x20 MSTORE PUSH1 0xFF PUSH1 0x40 DUP5 KECCAK256 SLOAD AND PUSH2 0x3DE JUMP JUMPDEST SWAP1 POP PUSH1 0x20 DUP2 RETURNDATASIZE PUSH1 0x20 GT PUSH2 0x653 JUMPI JUMPDEST DUP2 PUSH2 0x644 PUSH1 0x20 SWAP4 DUP4 PUSH2 0xD33 JUMP JUMPDEST DUP2 ADD SUB SLT PUSH2 0x4E0 JUMPI MLOAD CODESIZE PUSH2 0x3D3 JUMP JUMPDEST RETURNDATASIZE SWAP2 POP PUSH2 0x637 JUMP JUMPDEST POP CALLVALUE PUSH2 0x125 JUMPI DUP1 PUSH1 0x3 NOT CALLDATASIZE ADD SLT PUSH2 0x125 JUMPI PUSH1 0x20 PUSH1 0x4 SLOAD PUSH1 0x40 MLOAD SWAP1 DUP2 MSTORE RETURN JUMPDEST POP CALLVALUE PUSH2 0x125 JUMPI DUP1 PUSH1 0x3 NOT CALLDATASIZE ADD SLT PUSH2 0x125 JUMPI PUSH1 0x20 PUSH1 0x6 SLOAD PUSH1 0x40 MLOAD SWAP1 DUP2 MSTORE RETURN JUMPDEST POP CALLVALUE PUSH2 0x125 JUMPI PUSH1 0x20 CALLDATASIZE PUSH1 0x3 NOT ADD SLT PUSH2 0x125 JUMPI PUSH1 0xFF PUSH1 0x40 PUSH1 0x20 SWAP3 PUSH1 0x4 CALLDATALOAD DUP2 MSTORE PUSH1 0x9 DUP5 MSTORE KECCAK256 SLOAD AND PUSH1 0x40 MLOAD SWAP1 ISZERO ISZERO DUP2 MSTORE RETURN JUMPDEST POP CALLVALUE PUSH2 0x125 JUMPI DUP1 PUSH1 0x3 NOT CALLDATASIZE ADD SLT PUSH2 0x125 JUMPI PUSH1 0x20 PUSH1 0x3 SLOAD PUSH1 0x40 MLOAD SWAP1 DUP2 MSTORE RETURN JUMPDEST POP CALLVALUE PUSH2 0x125 JUMPI PUSH1 0x20 CALLDATASIZE PUSH1 0x3 NOT ADD SLT PUSH2 0x125 JUMPI PUSH2 0x6FE PUSH2 0xE1E JUMP JUMPDEST PUSH1 0x4 CALLDATALOAD PUSH1 0x3 SSTORE DUP1 RETURN JUMPDEST POP CALLVALUE PUSH2 0x125 JUMPI PUSH1 0x20 CALLDATASIZE PUSH1 0x3 NOT ADD SLT PUSH2 0x125 JUMPI PUSH1 0x20 SWAP1 PUSH1 0x4 CALLDATALOAD DUP2 MSTORE PUSH1 0x8 DUP3 MSTORE PUSH1 0x40 PUSH1 0x1 DUP1 PUSH1 0xA0 SHL SUB SWAP2 KECCAK256 SLOAD AND PUSH1 0x40 MLOAD SWAP1 DUP2 MSTORE RETURN JUMPDEST POP CALLVALUE PUSH2 0x125 JUMPI DUP1 PUSH1 0x3 NOT CALLDATASIZE ADD SLT PUSH2 0x125 JUMPI PUSH1 0x7 SLOAD PUSH1 0x40 MLOAD PUSH1 0x1 PUSH1 0x1 PUSH1 0xA0 SHL SUB SWAP1 SWAP2 AND DUP2 MSTORE PUSH1 0x20 SWAP1 RETURN JUMPDEST POP CALLVALUE PUSH2 0x125 JUMPI PUSH1 0x40 CALLDATASIZE PUSH1 0x3 NOT ADD SLT PUSH2 0x125 JUMPI PUSH2 0x77D PUSH2 0xE1E JUMP JUMPDEST PUSH1 0x4 CALLDATALOAD PUSH1 0x4 SSTORE PUSH1 0x24 CALLDATALOAD PUSH1 0x5 SSTORE DUP1 RETURN JUMPDEST POP CALLVALUE PUSH2 0x125 JUMPI PUSH1 0x20 CALLDATASIZE PUSH1 0x3 NOT ADD SLT PUSH2 0x125 JUMPI PUSH2 0x7A6 PUSH2 0xE1E JUMP JUMPDEST PUSH1 0x4 CALLDATALOAD PUSH1 0x6 SSTORE DUP1 RETURN JUMPDEST POP CALLVALUE PUSH2 0x125 JUMPI DUP1 PUSH1 0x3 NOT CALLDATASIZE ADD SLT PUSH2 0x125 JUMPI SLOAD PUSH1 0x40 MLOAD PUSH1 0x1 PUSH1 0x1 PUSH1 0xA0 SHL SUB SWAP1 SWAP2 AND DUP2 MSTORE PUSH1 0x20 SWAP1 RETURN JUMPDEST POP CALLVALUE PUSH2 0x125 JUMPI PUSH1 0x20 CALLDATASIZE PUSH1 0x3 NOT ADD SLT PUSH2 0x125 JUMPI PUSH1 0x4 CALLDATALOAD PUSH1 0x1 PUSH1 0x1 PUSH1 0xA0 SHL SUB DUP2 AND SWAP1 DUP2 SWAP1 SUB PUSH2 0x1B2 JUMPI PUSH2 0x805 PUSH2 0xE1E JUMP JUMPDEST PUSH12 0xFFFFFFFFFFFFFFFFFFFFFFFF PUSH1 0xA0 SHL PUSH1 0x7 SLOAD AND OR PUSH1 0x7 SSTORE DUP1 RETURN JUMPDEST POP CALLVALUE PUSH2 0x125 JUMPI DUP1 PUSH1 0x3 NOT CALLDATASIZE ADD SLT PUSH2 0x125 JUMPI PUSH2 0x839 PUSH2 0xE1E JUMP JUMPDEST DUP1 SLOAD PUSH1 0x1 PUSH1 0x1 PUSH1 0xA0 SHL SUB NOT DUP2 AND DUP3 SSTORE DUP2 SWAP1 PUSH1 0x1 PUSH1 0x1 PUSH1 0xA0 SHL SUB AND PUSH32 0x8BE0079C531659141344CD1FD0A4F28419497F9722A3DAAFE3B4186F6B6457E0 DUP3 DUP1 LOG3 DUP1 RETURN JUMPDEST POP CALLVALUE PUSH2 0x125 JUMPI PUSH1 0x20 CALLDATASIZE PUSH1 0x3 NOT ADD SLT PUSH2 0x125 JUMPI PUSH1 0x7 SLOAD PUSH1 0x4 CALLDATALOAD SWAP1 PUSH1 0x1 PUSH1 0x1 PUSH1 0xA0 SHL SUB AND CALLER SUB PUSH2 0x994 JUMPI DUP1 DUP3 MSTORE PUSH1 0x8 PUSH1 0x20 MSTORE PUSH1 0x40 DUP3 KECCAK256 SLOAD PUSH2 0x8C2 SWAP1 PUSH1 0x1 PUSH1 0x1 PUSH1 0xA0 SHL SUB AND ISZERO PUSH2 0xDE4 JUMP JUMPDEST PUSH1 0x1 DUP1 PUSH1 0xA0 SHL SUB PUSH1 0x2 SLOAD AND PUSH2 0x8D9 PUSH1 0x5 SLOAD TIMESTAMP PUSH2 0xDC1 JUMP JUMPDEST PUSH1 0x40 MLOAD SWAP2 PUSH2 0x102A DUP1 DUP5 ADD SWAP1 DUP5 DUP3 LT PUSH8 0xFFFFFFFFFFFFFFFF DUP4 GT OR PUSH2 0x31E JUMPI PUSH2 0x923 SWAP3 DUP6 SWAP5 SWAP3 DUP8 SWAP3 PUSH2 0xE48 DUP8 CODECOPY PUSH1 0x40 SWAP2 SWAP5 SWAP4 SWAP3 PUSH1 0x60 DUP3 ADD SWAP6 PUSH1 0x1 DUP1 PUSH1 0xA0 SHL SUB AND DUP3 MSTORE PUSH1 0x20 DUP3 ADD MSTORE ADD MSTORE JUMP JUMPDEST SUB SWAP1 DUP4 CREATE DUP1 ISZERO PUSH2 0x313 JUMPI DUP2 DUP4 MSTORE PUSH1 0x8 PUSH1 0x20 SWAP1 DUP2 MSTORE PUSH1 0x40 DUP1 DUP6 KECCAK256 DUP1 SLOAD PUSH1 0x1 PUSH1 0x1 PUSH1 0xA0 SHL SUB NOT AND PUSH1 0x1 PUSH1 0x1 PUSH1 0xA0 SHL SUB SWAP1 SWAP5 AND SWAP4 DUP5 OR SWAP1 SSTORE DUP1 MLOAD SWAP3 DUP4 MSTORE TIMESTAMP SWAP2 DUP4 ADD SWAP2 SWAP1 SWAP2 MSTORE PUSH1 0x1 SWAP1 DUP3 ADD MSTORE PUSH32 0xB0BE558F6172B4D2BA7B895C3CC156CFD751B2FADF853FC0CA3DA01FFF905661 SWAP1 PUSH1 0x60 SWAP1 LOG2 DUP1 RETURN JUMPDEST PUSH1 0x40 MLOAD PUSH3 0x461BCD PUSH1 0xE5 SHL DUP2 MSTORE PUSH1 0x20 PUSH1 0x4 DUP3 ADD MSTORE PUSH1 0xB PUSH1 0x24 DUP3 ADD MSTORE PUSH11 0x4F6E6C79206F7261636C65 PUSH1 0xA8 SHL PUSH1 0x44 DUP3 ADD MSTORE PUSH1 0x64 SWAP1 REVERT JUMPDEST POP CALLVALUE PUSH2 0x125 JUMPI PUSH1 0x40 CALLDATASIZE PUSH1 0x3 NOT ADD SLT PUSH2 0x125 JUMPI PUSH1 0x4 CALLDATALOAD PUSH1 0x24 CALLDATALOAD PUSH1 0xFF DUP2 AND DUP1 SWAP2 SUB PUSH2 0x50D JUMPI PUSH1 0x7 SLOAD PUSH1 0x1 PUSH1 0x1 PUSH1 0xA0 SHL SUB AND CALLER EQ DUP1 ISZERO PUSH2 0xC28 JUMPI JUMPDEST ISZERO PUSH2 0xBEF JUMPI DUP2 DUP4 MSTORE PUSH1 0x8 PUSH1 0x20 MSTORE PUSH1 0x40 DUP4 KECCAK256 SLOAD PUSH2 0xA25 SWAP1 PUSH1 0x1 PUSH1 0x1 PUSH1 0xA0 SHL SUB AND ISZERO ISZERO PUSH2 0xD83 JUMP JUMPDEST DUP2 DUP4 MSTORE PUSH1 0x8 PUSH1 0x20 SWAP1 DUP2 MSTORE PUSH1 0x40 DUP1 DUP6 KECCAK256 SLOAD SWAP1 MLOAD PUSH4 0x18CBE5DB PUSH1 0xE1 SHL DUP2 MSTORE SWAP2 SWAP1 DUP3 SWAP1 PUSH1 0x4 SWAP1 DUP3 SWAP1 PUSH1 0x1 PUSH1 0x1 PUSH1 0xA0 SHL SUB AND GAS STATICCALL SWAP1 DUP2 ISZERO PUSH2 0x4ED JUMPI DUP5 SWAP2 PUSH2 0xBB9 JUMPI JUMPDEST POP PUSH1 0x5 SLOAD DUP2 SUB SWAP1 DUP2 GT PUSH2 0xBA5 JUMPI PUSH1 0x4 SLOAD PUSH2 0xA7C SWAP2 PUSH2 0xDC1 JUMP JUMPDEST TIMESTAMP GT PUSH2 0xB6D JUMPI PUSH1 0x6 SLOAD DUP2 LT ISZERO PUSH2 0xAD0 JUMPI JUMPDEST PUSH1 0x40 PUSH32 0x9E9777E0565CD124D0ABE1950A20CF2F373D735485E59457960BA50572FC389C SWAP2 DUP4 DUP6 MSTORE PUSH1 0x9 PUSH1 0x20 MSTORE PUSH1 0xFF DUP3 DUP7 KECCAK256 SLOAD AND DUP3 MLOAD SWAP2 DUP3 MSTORE ISZERO ISZERO PUSH1 0x20 DUP3 ADD MSTORE LOG2 DUP1 RETURN JUMPDEST DUP2 DUP4 MSTORE PUSH1 0x9 PUSH1 0x20 SWAP1 DUP2 MSTORE PUSH1 0x40 DUP1 DUP6 KECCAK256 DUP1 SLOAD PUSH1 0xFF NOT AND PUSH1 0x1 OR SWAP1 SSTORE DUP4 DUP6 MSTORE PUSH1 0x8 SWAP1 SWAP2 MSTORE DUP4 KECCAK256 SLOAD DUP4 SWAP1 PUSH1 0x1 PUSH1 0x1 PUSH1 0xA0 SHL SUB AND DUP1 EXTCODESIZE ISZERO PUSH2 0x1B2 JUMPI DUP2 SWAP1 PUSH1 0x24 PUSH1 0x40 MLOAD DUP1 SWAP5 DUP2 SWAP4 PUSH4 0x9DBE0A89 PUSH1 0xE0 SHL DUP4 MSTORE PUSH1 0x1 PUSH1 0x4 DUP5 ADD MSTORE GAS CALL DUP1 ISZERO PUSH2 0x4ED JUMPI PUSH2 0xB36 JUMPI JUMPDEST POP PUSH2 0xA8D JUMP JUMPDEST DUP4 PUSH2 0xB65 PUSH32 0x9E9777E0565CD124D0ABE1950A20CF2F373D735485E59457960BA50572FC389C SWAP4 SWAP6 PUSH1 0x40 SWAP4 PUSH2 0xD33 JUMP JUMPDEST SWAP4 SWAP2 POP PUSH2 0xB30 JUMP JUMPDEST PUSH1 0x40 MLOAD PUSH3 0x461BCD PUSH1 0xE5 SHL DUP2 MSTORE PUSH1 0x20 PUSH1 0x4 DUP3 ADD MSTORE PUSH1 0x10 PUSH1 0x24 DUP3 ADD MSTORE PUSH16 0x135A58DC9BCB5C1BDBDB08195B991959 PUSH1 0x82 SHL PUSH1 0x44 DUP3 ADD MSTORE PUSH1 0x64 SWAP1 REVERT JUMPDEST PUSH4 0x4E487B71 PUSH1 0xE0 SHL DUP5 MSTORE PUSH1 0x11 PUSH1 0x4 MSTORE PUSH1 0x24 DUP5 REVERT JUMPDEST SWAP1 POP PUSH1 0x20 DUP2 RETURNDATASIZE PUSH1 0x20 GT PUSH2 0xBE7 JUMPI JUMPDEST DUP2 PUSH2 0xBD4 PUSH1 0x20 SWAP4 DUP4 PUSH2 0xD33 JUMP JUMPDEST DUP2 ADD SUB SLT PUSH2 0xBE3 JUMPI MLOAD CODESIZE PUSH2 0xA63 JUMP JUMPDEST DUP4 DUP1 REVERT JUMPDEST RETURNDATASIZE SWAP2 POP PUSH2 0xBC7 JUMP JUMPDEST PUSH1 0x40 MLOAD PUSH3 0x461BCD PUSH1 0xE5 SHL DUP2 MSTORE PUSH1 0x20 PUSH1 0x4 DUP3 ADD MSTORE PUSH1 0x11 PUSH1 0x24 DUP3 ADD MSTORE PUSH17 0x27B7363C9037B930B1B63297B7BBB732B9 PUSH1 0x79 SHL PUSH1 0x44 DUP3 ADD MSTORE PUSH1 0x64 SWAP1 REVERT JUMPDEST POP DUP3 SLOAD PUSH1 0x1 PUSH1 0x1 PUSH1 0xA0 SHL SUB AND CALLER EQ PUSH2 0x9FF JUMP JUMPDEST POP CALLVALUE PUSH2 0x125 JUMPI DUP1 PUSH1 0x3 NOT CALLDATASIZE ADD SLT PUSH2 0x125 JUMPI PUSH2 0xC54 PUSH2 0xE1E JUMP JUMPDEST PUSH1 0x2 SLOAD DUP2 SLOAD PUSH1 0x40 MLOAD PUSH4 0x70A08231 PUSH1 0xE0 SHL DUP2 MSTORE ADDRESS PUSH1 0x4 DUP3 ADD MSTORE PUSH1 0x1 PUSH1 0x1 PUSH1 0xA0 SHL SUB SWAP3 DUP4 AND SWAP3 SWAP1 SWAP2 AND PUSH1 0x20 DUP3 PUSH1 0x24 DUP2 DUP7 GAS STATICCALL SWAP2 DUP3 ISZERO PUSH2 0x4ED JUMPI DUP5 SWAP3 PUSH2 0xCE2 JUMPI JUMPDEST POP SWAP1 PUSH1 0x44 PUSH1 0x20 SWAP3 DUP6 PUSH1 0x40 MLOAD SWAP6 DUP7 SWAP5 DUP6 SWAP4 PUSH4 0xA9059CBB PUSH1 0xE0 SHL DUP6 MSTORE PUSH1 0x4 DUP6 ADD MSTORE PUSH1 0x24 DUP5 ADD MSTORE GAS CALL DUP1 ISZERO PUSH2 0x313 JUMPI PUSH2 0xCC6 JUMPI POP DUP1 RETURN JUMPDEST PUSH2 0xCDE SWAP1 PUSH1 0x20 RETURNDATASIZE PUSH1 0x20 GT PUSH2 0x358 JUMPI PUSH2 0x34B DUP2 DUP4 PUSH2 0xD33 JUMP JUMPDEST POP DUP1 RETURN JUMPDEST SWAP2 POP PUSH1 0x20 DUP3 RETURNDATASIZE PUSH1 0x20 GT PUSH2 0xD0F JUMPI JUMPDEST DUP2 PUSH2 0xCFD PUSH1 0x20 SWAP4 DUP4 PUSH2 0xD33 JUMP JUMPDEST DUP2 ADD SUB SLT PUSH2 0xBE3 JUMPI SWAP1 MLOAD SWAP1 PUSH1 0x44 PUSH2 0xC92 JUMP JUMPDEST RETURNDATASIZE SWAP2 POP PUSH2 0xCF0 JUMP JUMPDEST SWAP1 POP CALLVALUE PUSH2 0x1B2 JUMPI DUP2 PUSH1 0x3 NOT CALLDATASIZE ADD SLT PUSH2 0x1B2 JUMPI PUSH1 0x20 SWAP1 PUSH1 0x5 SLOAD DUP2 MSTORE RETURN JUMPDEST SWAP1 PUSH1 0x1F DUP1 NOT SWAP2 ADD AND DUP2 ADD SWAP1 DUP2 LT PUSH8 0xFFFFFFFFFFFFFFFF DUP3 GT OR PUSH2 0xD55 JUMPI PUSH1 0x40 MSTORE JUMP JUMPDEST PUSH4 0x4E487B71 PUSH1 0xE0 SHL PUSH1 0x0 MSTORE PUSH1 0x41 PUSH1 0x4 MSTORE PUSH1 0x24 PUSH1 0x0 REVERT JUMPDEST SWAP1 DUP2 PUSH1 0x20 SWAP2 SUB SLT PUSH2 0x4E0 JUMPI MLOAD DUP1 ISZERO ISZERO DUP2 SUB PUSH2 0x4E0 JUMPI SWAP1 JUMP JUMPDEST ISZERO PUSH2 0xD8A JUMPI JUMP JUMPDEST PUSH1 0x40 MLOAD PUSH3 0x461BCD PUSH1 0xE5 SHL DUP2 MSTORE PUSH1 0x20 PUSH1 0x4 DUP3 ADD MSTORE PUSH1 0xF PUSH1 0x24 DUP3 ADD MSTORE PUSH15 0x506F6F6C206E6F7420657869737473 PUSH1 0x88 SHL PUSH1 0x44 DUP3 ADD MSTORE PUSH1 0x64 SWAP1 REVERT JUMPDEST SWAP2 SWAP1 DUP3 ADD DUP1 SWAP3 GT PUSH2 0xDCE JUMPI JUMP JUMPDEST PUSH4 0x4E487B71 PUSH1 0xE0 SHL PUSH1 0x0 MSTORE PUSH1 0x11 PUSH1 0x4 MSTORE PUSH1 0x24 PUSH1 0x0 REVERT JUMPDEST ISZERO PUSH2 0xDEB JUMPI JUMP JUMPDEST PUSH1 0x40 MLOAD PUSH3 0x461BCD PUSH1 0xE5 SHL DUP2 MSTORE PUSH1 0x20 PUSH1 0x4 DUP3 ADD MSTORE PUSH1 0xB PUSH1 0x24 DUP3 ADD MSTORE PUSH11 0x506F6F6C20657869737473 PUSH1 0xA8 SHL PUSH1 0x44 DUP3 ADD MSTORE PUSH1 0x64 SWAP1 REVERT JUMPDEST PUSH1 0x0 SLOAD PUSH1 0x1 PUSH1 0x1 PUSH1 0xA0 SHL SUB AND CALLER SUB PUSH2 0xE32 JUMPI JUMP JUMPDEST PUSH4 0x118CDAA7 PUSH1 0xE0 SHL PUSH1 0x0 MSTORE CALLER PUSH1 0x4 MSTORE PUSH1 0x24 PUSH1 0x0 REVERT INVALID PUSH1 0x80 CALLVALUE PUSH2 0x103 JUMPI PUSH1 0x1F PUSH2 0x102A CODESIZE DUP2 SWAP1 SUB SWAP2 DUP3 ADD PUSH1 0x1F NOT AND DUP4 ADD SWAP2 PUSH1 0x1 PUSH1 0x1 PUSH1 0x40 SHL SUB DUP4 GT DUP5 DUP5 LT OR PUSH2 0x108 JUMPI DUP1 DUP5 SWAP3 PUSH1 0x60 SWAP5 PUSH1 0x40 MSTORE DUP4 CODECOPY DUP2 ADD SUB SLT PUSH2 0x103 JUMPI DUP1 MLOAD PUSH1 0x1 PUSH1 0x1 PUSH1 0xA0 SHL SUB DUP2 AND SWAP2 SWAP1 DUP3 SWAP1 SUB PUSH2 0x103 JUMPI PUSH1 0x40 PUSH1 0x20 DUP3 ADD MLOAD SWAP2 ADD MLOAD SWAP1 CALLER ISZERO PUSH2 0xED JUMPI PUSH1 0x0 DUP1 SLOAD CALLER PUSH1 0x1 PUSH1 0x1 PUSH1 0xA0 SHL SUB NOT DUP3 AND DUP2 OR DUP4 SSTORE PUSH1 0x40 MLOAD SWAP6 SWAP3 SWAP1 SWAP2 PUSH1 0x1 PUSH1 0x1 PUSH1 0xA0 SHL SUB AND SWAP1 PUSH32 0x8BE0079C531659141344CD1FD0A4F28419497F9722A3DAAFE3B4186F6B6457E0 SWAP1 DUP1 LOG3 PUSH1 0x1 DUP1 SSTORE PUSH2 0xFFFF NOT PUSH1 0x5 SLOAD AND PUSH1 0x5 SSTORE PUSH1 0x0 PUSH1 0x8 SSTORE PUSH1 0x0 PUSH1 0x9 SSTORE PUSH1 0x0 PUSH1 0xB SSTORE PUSH1 0x1 DUP1 PUSH1 0xA0 SHL SUB NOT PUSH1 0x2 SLOAD AND OR PUSH1 0x2 SSTORE PUSH1 0x3 SSTORE PUSH1 0x4 SSTORE PUSH2 0xF0B SWAP1 DUP2 PUSH2 0x11F DUP3 CODECOPY RETURN JUMPDEST PUSH4 0x1E4FBDF7 PUSH1 0xE0 SHL PUSH1 0x0 MSTORE PUSH1 0x0 PUSH1 0x4 MSTORE PUSH1 0x24 PUSH1 0x0 REVERT JUMPDEST PUSH1 0x0 DUP1 REVERT JUMPDEST PUSH4 0x4E487B71 PUSH1 0xE0 SHL PUSH1 0x0 MSTORE PUSH1 0x41 PUSH1 0x4 MSTORE PUSH1 0x24 PUSH1 0x0 REVERT INVALID PUSH1 0x80 DUP1 PUSH1 0x40 MSTORE PUSH1 0x4 CALLDATASIZE LT ISZERO PUSH2 0x13 JUMPI PUSH1 0x0 DUP1 REVERT JUMPDEST PUSH1 0x0 CALLDATALOAD PUSH1 0xE0 SHR SWAP1 DUP2 PUSH4 0x508D2F3 EQ PUSH2 0x592 JUMPI POP DUP1 PUSH4 0xD15FD77 EQ PUSH2 0x574 JUMPI DUP1 PUSH4 0xDE519B4 EQ PUSH2 0x556 JUMPI DUP1 PUSH4 0x168299F3 EQ PUSH2 0x538 JUMPI DUP1 PUSH4 0x1A411F4F EQ PUSH2 0x4FA JUMPI DUP1 PUSH4 0x3197CBB6 EQ PUSH2 0x4DC JUMPI DUP1 PUSH4 0x35C1D349 EQ PUSH2 0x49A JUMPI DUP1 PUSH4 0x597E1FB5 EQ PUSH2 0x477 JUMPI DUP1 PUSH4 0x6AB3846B EQ PUSH2 0x456 JUMPI DUP1 PUSH4 0x715018A6 EQ PUSH2 0x3FD JUMPI DUP1 PUSH4 0x7AD24FE2 EQ PUSH2 0x3D7 JUMPI DUP1 PUSH4 0x7F79496C EQ PUSH2 0x36E JUMPI DUP1 PUSH4 0x8DA5CB5B EQ PUSH2 0x345 JUMPI DUP1 PUSH4 0x936CBCBE EQ PUSH2 0x2CF JUMPI DUP1 PUSH4 0x9DBE0A89 EQ PUSH2 0x288 JUMPI DUP1 PUSH4 0xB4FB3EE3 EQ PUSH2 0x245 JUMPI DUP1 PUSH4 0xC610AB77 EQ PUSH2 0x227 JUMPI DUP1 PUSH4 0xC7473670 EQ PUSH2 0x204 JUMPI DUP1 PUSH4 0xD8BFF5A5 EQ PUSH2 0x1C1 JUMPI DUP1 PUSH4 0xF2FDE38B EQ PUSH2 0x134 JUMPI PUSH4 0xFC0C546A EQ PUSH2 0x106 JUMPI PUSH1 0x0 DUP1 REVERT JUMPDEST CALLVALUE PUSH2 0x12F JUMPI PUSH1 0x0 CALLDATASIZE PUSH1 0x3 NOT ADD SLT PUSH2 0x12F JUMPI PUSH1 0x2 SLOAD PUSH1 0x40 MLOAD PUSH1 0x1 PUSH1 0x1 PUSH1 0xA0 SHL SUB SWAP1 SWAP2 AND DUP2 MSTORE PUSH1 0x20 SWAP1 RETURN JUMPDEST PUSH1 0x0 DUP1 REVERT JUMPDEST CALLVALUE PUSH2 0x12F JUMPI PUSH1 0x20 CALLDATASIZE PUSH1 0x3 NOT ADD SLT PUSH2 0x12F JUMPI PUSH1 0x4 CALLDATALOAD PUSH1 0x1 PUSH1 0x1 PUSH1 0xA0 SHL SUB DUP2 AND SWAP1 DUP2 SWAP1 SUB PUSH2 0x12F JUMPI PUSH2 0x162 PUSH2 0x98D JUMP JUMPDEST DUP1 ISZERO PUSH2 0x1AB JUMPI PUSH1 0x0 DUP1 SLOAD PUSH1 0x1 PUSH1 0x1 PUSH1 0xA0 SHL SUB NOT DUP2 AND DUP4 OR DUP3 SSTORE PUSH1 0x1 PUSH1 0x1 PUSH1 0xA0 SHL SUB AND SWAP1 PUSH32 0x8BE0079C531659141344CD1FD0A4F28419497F9722A3DAAFE3B4186F6B6457E0 SWAP1 DUP1 LOG3 STOP JUMPDEST PUSH4 0x1E4FBDF7 PUSH1 0xE0 SHL PUSH1 0x0 MSTORE PUSH1 0x0 PUSH1 0x4 MSTORE PUSH1 0x24 PUSH1 0x0 REVERT JUMPDEST CALLVALUE PUSH2 0x12F JUMPI PUSH1 0x20 CALLDATASIZE PUSH1 0x3 NOT ADD SLT PUSH2 0x12F JUMPI PUSH1 0x4 CALLDATALOAD PUSH1 0x1 PUSH1 0x1 PUSH1 0xA0 SHL SUB DUP2 AND SWAP1 DUP2 SWAP1 SUB PUSH2 0x12F JUMPI PUSH1 0x0 MSTORE PUSH1 0x6 PUSH1 0x20 MSTORE PUSH1 0x20 PUSH1 0xFF PUSH1 0x40 PUSH1 0x0 KECCAK256 SLOAD AND PUSH1 0x40 MLOAD SWAP1 ISZERO ISZERO DUP2 MSTORE RETURN JUMPDEST CALLVALUE PUSH2 0x12F JUMPI PUSH1 0x0 CALLDATASIZE PUSH1 0x3 NOT ADD SLT PUSH2 0x12F JUMPI PUSH1 0x20 PUSH1 0xFF PUSH1 0xA SLOAD AND PUSH1 0x40 MLOAD SWAP1 ISZERO ISZERO DUP2 MSTORE RETURN JUMPDEST CALLVALUE PUSH2 0x12F JUMPI PUSH1 0x0 CALLDATASIZE PUSH1 0x3 NOT ADD SLT PUSH2 0x12F JUMPI PUSH1 0x20 PUSH1 0x8 SLOAD PUSH1 0x40 MLOAD SWAP1 DUP2 MSTORE RETURN JUMPDEST CALLVALUE PUSH2 0x12F JUMPI PUSH1 0x20 CALLDATASIZE PUSH1 0x3 NOT ADD SLT PUSH2 0x12F JUMPI PUSH1 0x4 CALLDATALOAD PUSH1 0x1 PUSH1 0x1 PUSH1 0xA0 SHL SUB DUP2 AND SWAP1 DUP2 SWAP1 SUB PUSH2 0x12F JUMPI PUSH1 0x0 MSTORE PUSH1 0xD PUSH1 0x20 MSTORE PUSH1 0x20 PUSH1 0xFF PUSH1 0x40 PUSH1 0x0 KECCAK256 SLOAD AND PUSH1 0x40 MLOAD SWAP1 ISZERO ISZERO DUP2 MSTORE RETURN JUMPDEST CALLVALUE PUSH2 0x12F JUMPI PUSH1 0x20 CALLDATASIZE PUSH1 0x3 NOT ADD SLT PUSH2 0x12F JUMPI PUSH2 0x2A1 PUSH2 0x8F9 JUMP JUMPDEST PUSH2 0x2A9 PUSH2 0x98D JUMP JUMPDEST PUSH1 0x5 DUP1 SLOAD PUSH2 0xFF00 NOT AND DUP3 ISZERO ISZERO PUSH1 0x8 SHL PUSH2 0xFF00 AND OR SWAP1 SSTORE PUSH2 0x2C5 JUMPI STOP JUMPDEST PUSH2 0x2CD PUSH2 0x9B6 JUMP JUMPDEST STOP JUMPDEST CALLVALUE PUSH2 0x12F JUMPI PUSH1 0x0 CALLDATASIZE PUSH1 0x3 NOT ADD SLT PUSH2 0x12F JUMPI PUSH2 0x2E8 PUSH2 0x98D JUMP JUMPDEST PUSH1 0x4 SLOAD TIMESTAMP LT DUP1 ISZERO SWAP1 PUSH2 0x336 JUMPI JUMPDEST ISZERO PUSH2 0x302 JUMPI PUSH2 0x2CD PUSH2 0x9B6 JUMP JUMPDEST PUSH1 0x40 MLOAD PUSH3 0x461BCD PUSH1 0xE5 SHL DUP2 MSTORE PUSH1 0x20 PUSH1 0x4 DUP3 ADD MSTORE PUSH1 0xC PUSH1 0x24 DUP3 ADD MSTORE PUSH12 0x4E6F7420636C6F7361626C65 PUSH1 0xA0 SHL PUSH1 0x44 DUP3 ADD MSTORE PUSH1 0x64 SWAP1 REVERT JUMPDEST POP PUSH1 0xFF PUSH1 0x5 SLOAD PUSH1 0x8 SHR AND PUSH2 0x2F5 JUMP JUMPDEST CALLVALUE PUSH2 0x12F JUMPI PUSH1 0x0 CALLDATASIZE PUSH1 0x3 NOT ADD SLT PUSH2 0x12F JUMPI PUSH1 0x0 SLOAD PUSH1 0x40 MLOAD PUSH1 0x1 PUSH1 0x1 PUSH1 0xA0 SHL SUB SWAP1 SWAP2 AND DUP2 MSTORE PUSH1 0x20 SWAP1 RETURN JUMPDEST CALLVALUE PUSH2 0x12F JUMPI PUSH1 0x0 CALLDATASIZE PUSH1 0x3 NOT ADD SLT PUSH2 0x12F JUMPI PUSH1 0x4 SLOAD DUP1 TIMESTAMP LT PUSH1 0x0 EQ PUSH2 0x3CD JUMPI PUSH2 0x399 PUSH1 0xA0 SWAP2 TIMESTAMP SWAP1 PUSH2 0x980 JUMP JUMPDEST PUSH1 0x5 SLOAD SWAP1 PUSH1 0x8 SLOAD PUSH1 0x9 SLOAD SWAP1 PUSH1 0xFF PUSH1 0x40 MLOAD SWAP5 DUP2 DUP2 AND ISZERO ISZERO DUP7 MSTORE PUSH1 0x8 SHR AND ISZERO ISZERO PUSH1 0x20 DUP6 ADD MSTORE PUSH1 0x40 DUP5 ADD MSTORE PUSH1 0x60 DUP4 ADD MSTORE PUSH1 0x80 DUP3 ADD MSTORE RETURN JUMPDEST POP PUSH1 0xA0 PUSH1 0x0 PUSH2 0x399 JUMP JUMPDEST CALLVALUE PUSH2 0x12F JUMPI PUSH1 0x0 CALLDATASIZE PUSH1 0x3 NOT ADD SLT PUSH2 0x12F JUMPI PUSH1 0x20 PUSH1 0xFF PUSH1 0x5 SLOAD PUSH1 0x8 SHR AND PUSH1 0x40 MLOAD SWAP1 ISZERO ISZERO DUP2 MSTORE RETURN JUMPDEST CALLVALUE PUSH2 0x12F JUMPI PUSH1 0x0 CALLDATASIZE PUSH1 0x3 NOT ADD SLT PUSH2 0x12F JUMPI PUSH2 0x416 PUSH2 0x98D JUMP JUMPDEST PUSH1 0x0 DUP1 SLOAD PUSH1 0x1 PUSH1 0x1 PUSH1 0xA0 SHL SUB NOT DUP2 AND DUP3 SSTORE PUSH1 0x1 PUSH1 0x1 PUSH1 0xA0 SHL SUB AND PUSH32 0x8BE0079C531659141344CD1FD0A4F28419497F9722A3DAAFE3B4186F6B6457E0 DUP3 DUP1 LOG3 STOP JUMPDEST CALLVALUE PUSH2 0x12F JUMPI PUSH1 0x20 CALLDATASIZE PUSH1 0x3 NOT ADD SLT PUSH2 0x12F JUMPI PUSH2 0x46F PUSH2 0x98D JUMP JUMPDEST PUSH1 0x4 DUP1 CALLDATALOAD SWAP1 SSTORE STOP JUMPDEST CALLVALUE PUSH2 0x12F JUMPI PUSH1 0x0 CALLDATASIZE PUSH1 0x3 NOT ADD SLT PUSH2 0x12F JUMPI PUSH1 0x20 PUSH1 0xFF PUSH1 0x5 SLOAD AND PUSH1 0x40 MLOAD SWAP1 ISZERO ISZERO DUP2 MSTORE RETURN JUMPDEST CALLVALUE PUSH2 0x12F JUMPI PUSH1 0x20 CALLDATASIZE PUSH1 0x3 NOT ADD SLT PUSH2 0x12F JUMPI PUSH1 0x4 CALLDATALOAD PUSH1 0xC SLOAD DUP2 LT ISZERO PUSH2 0x12F JUMPI PUSH2 0x4C3 PUSH1 0x20 SWAP2 PUSH2 0x908 JUMP JUMPDEST SWAP1 SLOAD PUSH1 0x40 MLOAD PUSH1 0x3 SWAP3 SWAP1 SWAP3 SHL SHR PUSH1 0x1 PUSH1 0x1 PUSH1 0xA0 SHL SUB AND DUP2 MSTORE RETURN JUMPDEST CALLVALUE PUSH2 0x12F JUMPI PUSH1 0x0 CALLDATASIZE PUSH1 0x3 NOT ADD SLT PUSH2 0x12F JUMPI PUSH1 0x20 PUSH1 0x4 SLOAD PUSH1 0x40 MLOAD SWAP1 DUP2 MSTORE RETURN JUMPDEST CALLVALUE PUSH2 0x12F JUMPI PUSH1 0x20 CALLDATASIZE PUSH1 0x3 NOT ADD SLT PUSH2 0x12F JUMPI PUSH1 0x4 CALLDATALOAD PUSH1 0x1 PUSH1 0x1 PUSH1 0xA0 SHL SUB DUP2 AND SWAP1 DUP2 SWAP1 SUB PUSH2 0x12F JUMPI PUSH1 0x0 MSTORE PUSH1 0x7 PUSH1 0x20 MSTORE PUSH1 0x20 PUSH1 0x40 PUSH1 0x0 KECCAK256 SLOAD PUSH1 0x40 MLOAD SWAP1 DUP2 MSTORE RETURN JUMPDEST CALLVALUE PUSH2 0x12F JUMPI PUSH1 0x0 CALLDATASIZE PUSH1 0x3 NOT ADD SLT PUSH2 0x12F JUMPI PUSH1 0x20 PUSH1 0x3 SLOAD PUSH1 0x40 MLOAD SWAP1 DUP2 MSTORE RETURN JUMPDEST CALLVALUE PUSH2 0x12F JUMPI PUSH1 0x0 CALLDATASIZE PUSH1 0x3 NOT ADD SLT PUSH2 0x12F JUMPI PUSH1 0x20 PUSH1 0x9 SLOAD PUSH1 0x40 MLOAD SWAP1 DUP2 MSTORE RETURN JUMPDEST CALLVALUE PUSH2 0x12F JUMPI PUSH1 0x0 CALLDATASIZE PUSH1 0x3 NOT ADD SLT PUSH2 0x12F JUMPI PUSH1 0x20 PUSH1 0xB SLOAD PUSH1 0x40 MLOAD SWAP1 DUP2 MSTORE RETURN JUMPDEST CALLVALUE PUSH2 0x12F JUMPI PUSH1 0x60 CALLDATASIZE PUSH1 0x3 NOT ADD SLT PUSH2 0x12F JUMPI PUSH2 0x5AB PUSH2 0x8F9 JUMP JUMPDEST SWAP1 PUSH1 0x24 CALLDATALOAD PUSH1 0x44 CALLDATALOAD SWAP2 PUSH1 0xFF DUP4 AND DUP1 SWAP4 SUB PUSH2 0x12F JUMPI PUSH1 0x2 PUSH1 0x1 SLOAD EQ PUSH2 0x8E8 JUMPI PUSH1 0x2 PUSH1 0x1 SSTORE PUSH1 0xFF PUSH1 0x5 SLOAD AND PUSH2 0x8B8 JUMPI POP PUSH1 0x4 SLOAD TIMESTAMP LT ISZERO PUSH2 0x886 JUMPI DUP1 ISZERO PUSH2 0x848 JUMPI CALLER PUSH1 0x0 MSTORE PUSH1 0x7 PUSH1 0x20 MSTORE PUSH1 0x40 PUSH1 0x0 KECCAK256 SLOAD PUSH2 0x813 JUMPI PUSH1 0x1 DUP3 LT ISZERO DUP1 PUSH2 0x808 JUMPI JUMPDEST ISZERO PUSH2 0x7D2 JUMPI PUSH1 0x2 SLOAD PUSH1 0x40 MLOAD PUSH4 0x23B872DD PUSH1 0xE0 SHL DUP2 MSTORE CALLER PUSH1 0x4 DUP3 ADD MSTORE ADDRESS PUSH1 0x24 DUP3 ADD MSTORE PUSH1 0x44 DUP2 ADD DUP4 SWAP1 MSTORE SWAP1 PUSH1 0x20 SWAP1 DUP3 SWAP1 PUSH1 0x64 SWAP1 DUP3 SWAP1 PUSH1 0x0 SWAP1 PUSH1 0x1 PUSH1 0x1 PUSH1 0xA0 SHL SUB AND GAS CALL DUP1 ISZERO PUSH2 0x7C6 JUMPI PUSH2 0x799 JUMPI JUMPDEST POP CALLER PUSH1 0x0 MSTORE PUSH1 0x7 PUSH1 0x20 MSTORE DUP1 PUSH1 0x40 PUSH1 0x0 KECCAK256 SSTORE CALLER PUSH1 0x0 MSTORE PUSH1 0x6 PUSH1 0x20 MSTORE PUSH1 0x40 PUSH1 0x0 KECCAK256 SWAP3 DUP1 ISZERO ISZERO SWAP4 PUSH1 0xFF NOT DUP2 SLOAD AND PUSH1 0xFF DUP7 AND OR SWAP1 SSTORE PUSH1 0xB SLOAD PUSH1 0x0 NOT DUP2 EQ PUSH2 0x783 JUMPI PUSH1 0x1 ADD PUSH1 0xB SSTORE CALLER PUSH1 0x0 MSTORE PUSH1 0xD PUSH1 0x20 MSTORE PUSH1 0xFF PUSH1 0x40 PUSH1 0x0 KECCAK256 SLOAD AND ISZERO PUSH2 0x712 JUMPI JUMPDEST ISZERO PUSH2 0x6FE JUMPI PUSH2 0x6BE DUP2 PUSH1 0x8 SLOAD PUSH2 0x973 JUMP JUMPDEST PUSH1 0x8 SSTORE JUMPDEST PUSH1 0x40 MLOAD SWAP3 DUP4 MSTORE PUSH1 0x20 DUP4 ADD MSTORE PUSH1 0x40 DUP3 ADD MSTORE PUSH32 0xA1ABC530141F38947876D13989074BBB38A85D7B115374388952DB2799EE0172 PUSH1 0x60 CALLER SWAP3 LOG2 PUSH1 0x1 DUP1 SSTORE STOP JUMPDEST PUSH2 0x70A DUP2 PUSH1 0x9 SLOAD PUSH2 0x973 JUMP JUMPDEST PUSH1 0x9 SSTORE PUSH2 0x6C2 JUMP JUMPDEST PUSH1 0xC SLOAD PUSH9 0x10000000000000000 DUP2 LT ISZERO PUSH2 0x76D JUMPI DUP1 PUSH1 0x1 PUSH2 0x736 SWAP3 ADD PUSH1 0xC SSTORE PUSH2 0x908 JUMP JUMPDEST DUP2 SLOAD SWAP1 PUSH1 0x3 SHL SWAP1 CALLER DUP3 SHL SWAP2 PUSH1 0x1 DUP1 PUSH1 0xA0 SHL SUB SWAP1 SHL NOT AND OR SWAP1 SSTORE CALLER PUSH1 0x0 MSTORE PUSH1 0xD PUSH1 0x20 MSTORE PUSH1 0x40 PUSH1 0x0 KECCAK256 PUSH1 0x1 PUSH1 0xFF NOT DUP3 SLOAD AND OR SWAP1 SSTORE PUSH2 0x6AD JUMP JUMPDEST PUSH4 0x4E487B71 PUSH1 0xE0 SHL PUSH1 0x0 MSTORE PUSH1 0x41 PUSH1 0x4 MSTORE PUSH1 0x24 PUSH1 0x0 REVERT JUMPDEST PUSH4 0x4E487B71 PUSH1 0xE0 SHL PUSH1 0x0 MSTORE PUSH1 0x11 PUSH1 0x4 MSTORE PUSH1 0x24 PUSH1 0x0 REVERT JUMPDEST PUSH2 0x7BA SWAP1 PUSH1 0x20 RETURNDATASIZE PUSH1 0x20 GT PUSH2 0x7BF JUMPI JUMPDEST PUSH2 0x7B2 DUP2 DUP4 PUSH2 0x939 JUMP JUMPDEST DUP2 ADD SWAP1 PUSH2 0x95B JUMP JUMPDEST PUSH2 0x652 JUMP JUMPDEST POP RETURNDATASIZE PUSH2 0x7A8 JUMP JUMPDEST PUSH1 0x40 MLOAD RETURNDATASIZE PUSH1 0x0 DUP3 RETURNDATACOPY RETURNDATASIZE SWAP1 REVERT JUMPDEST PUSH1 0x40 MLOAD PUSH3 0x461BCD PUSH1 0xE5 SHL DUP2 MSTORE PUSH1 0x20 PUSH1 0x4 DUP3 ADD MSTORE PUSH1 0xE PUSH1 0x24 DUP3 ADD MSTORE PUSH14 0x496E76616C696420646567726565 PUSH1 0x90 SHL PUSH1 0x44 DUP3 ADD MSTORE PUSH1 0x64 SWAP1 REVERT JUMPDEST POP PUSH1 0x3 DUP3 GT ISZERO PUSH2 0x606 JUMP JUMPDEST PUSH1 0x40 MLOAD PUSH3 0x461BCD PUSH1 0xE5 SHL DUP2 MSTORE PUSH1 0x20 PUSH1 0x4 DUP3 ADD MSTORE PUSH1 0xD PUSH1 0x24 DUP3 ADD MSTORE PUSH13 0x105B1C9958591E481D9BDD1959 PUSH1 0x9A SHL PUSH1 0x44 DUP3 ADD MSTORE PUSH1 0x64 SWAP1 REVERT JUMPDEST PUSH1 0x40 MLOAD PUSH3 0x461BCD PUSH1 0xE5 SHL DUP2 MSTORE PUSH1 0x20 PUSH1 0x4 DUP3 ADD MSTORE PUSH1 0x16 PUSH1 0x24 DUP3 ADD MSTORE PUSH22 0x5374616B65206D75737420626520706F736974697665 PUSH1 0x50 SHL PUSH1 0x44 DUP3 ADD MSTORE PUSH1 0x64 SWAP1 REVERT JUMPDEST PUSH1 0x40 MLOAD PUSH3 0x461BCD PUSH1 0xE5 SHL DUP2 MSTORE PUSH1 0x20 PUSH1 0x4 DUP3 ADD MSTORE PUSH1 0xA PUSH1 0x24 DUP3 ADD MSTORE PUSH10 0x141BDBDB08195B991959 PUSH1 0xB2 SHL PUSH1 0x44 DUP3 ADD MSTORE PUSH1 0x64 SWAP1 REVERT JUMPDEST PUSH3 0x461BCD PUSH1 0xE5 SHL DUP2 MSTORE PUSH1 0x20 PUSH1 0x4 DUP3 ADD MSTORE PUSH1 0xB PUSH1 0x24 DUP3 ADD MSTORE PUSH11 0x141BDBDB0818DB1BDCD959 PUSH1 0xAA SHL PUSH1 0x44 DUP3 ADD MSTORE PUSH1 0x64 SWAP1 REVERT JUMPDEST PUSH4 0x3EE5AEB5 PUSH1 0xE0 SHL PUSH1 0x0 MSTORE PUSH1 0x4 PUSH1 0x0 REVERT JUMPDEST PUSH1 0x4 CALLDATALOAD SWAP1 DUP2 ISZERO ISZERO DUP3 SUB PUSH2 0x12F JUMPI JUMP JUMPDEST PUSH1 0xC SLOAD DUP2 LT ISZERO PUSH2 0x923 JUMPI PUSH1 0xC PUSH1 0x0 MSTORE PUSH1 0x20 PUSH1 0x0 KECCAK256 ADD SWAP1 PUSH1 0x0 SWAP1 JUMP JUMPDEST PUSH4 0x4E487B71 PUSH1 0xE0 SHL PUSH1 0x0 MSTORE PUSH1 0x32 PUSH1 0x4 MSTORE PUSH1 0x24 PUSH1 0x0 REVERT JUMPDEST SWAP1 PUSH1 0x1F DUP1 NOT SWAP2 ADD AND DUP2 ADD SWAP1 DUP2 LT PUSH8 0xFFFFFFFFFFFFFFFF DUP3 GT OR PUSH2 0x76D JUMPI PUSH1 0x40 MSTORE JUMP JUMPDEST SWAP1 DUP2 PUSH1 0x20 SWAP2 SUB SLT PUSH2 0x12F JUMPI MLOAD DUP1 ISZERO ISZERO DUP2 SUB PUSH2 0x12F JUMPI SWAP1 JUMP JUMPDEST SWAP2 SWAP1 DUP3 ADD DUP1 SWAP3 GT PUSH2 0x783 JUMPI JUMP JUMPDEST SWAP2 SWAP1 DUP3 SUB SWAP2 DUP3 GT PUSH2 0x783 JUMPI JUMP JUMPDEST PUSH1 0x0 SLOAD PUSH1 0x1 PUSH1 0x1 PUSH1 0xA0 SHL SUB AND CALLER SUB PUSH2 0x9A1 JUMPI JUMP JUMPDEST PUSH4 0x118CDAA7 PUSH1 0xE0 SHL PUSH1 0x0 MSTORE CALLER PUSH1 0x4 MSTORE PUSH1 0x24 PUSH1 0x0 REVERT JUMPDEST PUSH1 0x5 SLOAD PUSH1 0xFF DUP2 AND PUSH2 0xE6C JUMPI PUSH1 0xFF NOT AND PUSH1 0x1 OR PUSH1 0x5 SSTORE PUSH1 0x8 SLOAD PUSH1 0x9 SLOAD LT ISZERO PUSH2 0xC6E JUMPI PUSH1 0x1 PUSH1 0xFF NOT PUSH1 0xA SLOAD AND OR PUSH1 0xA SSTORE PUSH1 0x8 SLOAD SWAP1 PUSH1 0x0 SWAP2 PUSH1 0x0 PUSH1 0xC SLOAD SWAP1 JUMPDEST DUP2 DUP2 LT PUSH2 0xBD4 JUMPI POP POP PUSH1 0x0 JUMPDEST PUSH1 0xC SLOAD DUP2 LT ISZERO PUSH2 0xB87 JUMPI PUSH2 0xA11 DUP2 PUSH2 0x908 JUMP JUMPDEST PUSH1 0x1 DUP1 PUSH1 0xA0 SHL SUB SWAP2 SLOAD SWAP1 PUSH1 0x3 SHL SHR AND SWAP1 DUP2 PUSH1 0x0 MSTORE PUSH1 0x7 PUSH1 0x20 MSTORE PUSH1 0x40 PUSH1 0x0 KECCAK256 SLOAD PUSH2 0xA3F JUMPI JUMPDEST PUSH1 0x1 SWAP2 POP ADD PUSH2 0x9FE JUMP JUMPDEST DUP2 PUSH1 0x0 MSTORE PUSH1 0x6 PUSH1 0x20 MSTORE PUSH1 0xFF PUSH1 0x40 PUSH1 0x0 KECCAK256 SLOAD AND SWAP2 DUP1 PUSH1 0x0 MSTORE PUSH1 0x7 PUSH1 0x20 MSTORE PUSH1 0x1 PUSH1 0x40 PUSH1 0x0 KECCAK256 SLOAD SWAP4 ISZERO ISZERO EQ PUSH1 0x0 EQ PUSH2 0xB18 JUMPI PUSH1 0x20 PUSH2 0xAD1 DUP5 PUSH2 0xA9E PUSH2 0xA8C DUP9 PUSH2 0xA87 DUP13 PUSH1 0x0 SWAP11 PUSH2 0xEA2 JUMP JUMPDEST PUSH2 0xEB5 JUMP JUMPDEST PUSH1 0x2 SLOAD PUSH1 0x1 PUSH1 0x1 PUSH1 0xA0 SHL SUB AND SWAP3 PUSH2 0x973 JUMP JUMPDEST PUSH1 0x40 MLOAD PUSH4 0xA9059CBB PUSH1 0xE0 SHL DUP2 MSTORE PUSH1 0x1 PUSH1 0x1 PUSH1 0xA0 SHL SUB DUP7 AND PUSH1 0x4 DUP3 ADD MSTORE PUSH1 0x24 DUP2 ADD SWAP2 SWAP1 SWAP2 MSTORE SWAP6 DUP7 SWAP3 DUP4 SWAP2 SWAP1 DUP3 SWAP1 PUSH1 0x44 DUP3 ADD SWAP1 JUMP JUMPDEST SUB SWAP3 GAS CALL SWAP3 DUP4 ISZERO PUSH2 0x7C6 JUMPI PUSH1 0x1 SWAP4 PUSH2 0xAFA JUMPI JUMPDEST POP JUMPDEST PUSH1 0x0 MSTORE PUSH1 0x7 PUSH1 0x20 MSTORE PUSH1 0x0 PUSH1 0x40 DUP2 KECCAK256 SSTORE PUSH2 0xA35 JUMP JUMPDEST PUSH2 0xB11 SWAP1 PUSH1 0x20 RETURNDATASIZE DUP2 GT PUSH2 0x7BF JUMPI PUSH2 0x7B2 DUP2 DUP4 PUSH2 0x939 JUMP JUMPDEST POP CODESIZE PUSH2 0xAE4 JUMP JUMPDEST PUSH1 0x64 DUP4 MUL DUP4 DUP2 DIV PUSH1 0x64 EQ DUP5 ISZERO OR ISZERO PUSH2 0x783 JUMPI PUSH1 0x2 SLOAD PUSH1 0x0 SWAP5 PUSH1 0x20 SWAP3 PUSH2 0xB50 SWAP3 PUSH1 0x1 PUSH1 0x1 PUSH1 0xA0 SHL SUB AND SWAP2 PUSH2 0xA9E SWAP2 PUSH2 0x2710 SWAP1 DIV SWAP1 PUSH2 0x980 JUMP JUMPDEST SUB SWAP3 GAS CALL SWAP3 DUP4 ISZERO PUSH2 0x7C6 JUMPI PUSH1 0x1 SWAP4 PUSH2 0xB69 JUMPI JUMPDEST POP PUSH2 0xAE6 JUMP JUMPDEST PUSH2 0xB80 SWAP1 PUSH1 0x20 RETURNDATASIZE DUP2 GT PUSH2 0x7BF JUMPI PUSH2 0x7B2 DUP2 DUP4 PUSH2 0x939 JUMP JUMPDEST POP CODESIZE PUSH2 0xB63 JUMP JUMPDEST POP POP SWAP1 POP JUMPDEST PUSH1 0x3 SLOAD PUSH32 0x1FAC53A191157C168930E8243C9EF26BFEB54D57359284FF5E216A65CD227804 PUSH1 0x60 PUSH1 0xFF PUSH1 0xA SLOAD AND PUSH1 0x8 SLOAD PUSH1 0x9 SLOAD SWAP1 PUSH1 0x40 MLOAD SWAP3 ISZERO ISZERO DUP4 MSTORE PUSH1 0x20 DUP4 ADD MSTORE PUSH1 0x40 DUP3 ADD MSTORE LOG2 JUMP JUMPDEST PUSH2 0xBDD DUP2 PUSH2 0x908 JUMP JUMPDEST SWAP1 SLOAD PUSH1 0x3 SWAP2 SWAP1 SWAP2 SHL SHR PUSH1 0x1 PUSH1 0x1 PUSH1 0xA0 SHL SUB AND PUSH1 0x0 DUP2 DUP2 MSTORE PUSH1 0x7 PUSH1 0x20 MSTORE PUSH1 0x40 SWAP1 KECCAK256 SLOAD ISZERO ISZERO DUP1 PUSH2 0xC50 JUMPI JUMPDEST PUSH2 0xC14 JUMPI JUMPDEST POP PUSH1 0x1 ADD PUSH2 0x9F2 JUMP JUMPDEST PUSH1 0x0 SWAP6 SWAP2 SWAP6 MSTORE PUSH1 0x7 PUSH1 0x20 MSTORE PUSH1 0x40 PUSH1 0x0 KECCAK256 SLOAD PUSH1 0x64 DUP2 MUL SWAP1 DUP1 DUP3 DIV PUSH1 0x64 EQ SWAP1 ISZERO OR ISZERO PUSH2 0x783 JUMPI PUSH1 0x1 SWAP2 PUSH2 0x2710 PUSH2 0xC49 SWAP3 DIV SWAP1 PUSH2 0x973 JUMP JUMPDEST SWAP5 SWAP1 PUSH2 0xC0B JUMP JUMPDEST POP DUP1 PUSH1 0x0 MSTORE PUSH1 0x6 PUSH1 0x20 MSTORE PUSH1 0x1 PUSH1 0xFF PUSH1 0x40 PUSH1 0x0 KECCAK256 SLOAD AND ISZERO ISZERO EQ ISZERO PUSH2 0xC06 JUMP JUMPDEST PUSH1 0xFF NOT PUSH1 0xA SLOAD AND PUSH1 0xA SSTORE PUSH1 0x9 SLOAD SWAP1 PUSH1 0x0 SWAP2 PUSH1 0x0 PUSH1 0xC SLOAD SWAP1 JUMPDEST DUP2 DUP2 LT PUSH2 0xDD6 JUMPI POP POP PUSH1 0x0 JUMPDEST PUSH1 0xC SLOAD DUP2 LT ISZERO PUSH2 0xDCD JUMPI PUSH2 0xCA5 DUP2 PUSH2 0x908 JUMP JUMPDEST PUSH1 0x1 DUP1 PUSH1 0xA0 SHL SUB SWAP2 SLOAD SWAP1 PUSH1 0x3 SHL SHR AND SWAP1 DUP2 PUSH1 0x0 MSTORE PUSH1 0x7 PUSH1 0x20 MSTORE PUSH1 0x40 PUSH1 0x0 KECCAK256 SLOAD PUSH2 0xCD3 JUMPI JUMPDEST PUSH1 0x1 SWAP2 POP ADD PUSH2 0xC92 JUMP JUMPDEST DUP2 PUSH1 0x0 MSTORE PUSH1 0x6 PUSH1 0x20 MSTORE PUSH1 0xFF PUSH1 0x40 PUSH1 0x0 KECCAK256 SLOAD AND SWAP2 DUP1 PUSH1 0x0 MSTORE PUSH1 0x7 PUSH1 0x20 MSTORE PUSH1 0x40 PUSH1 0x0 KECCAK256 SLOAD SWAP3 ISZERO PUSH1 0x0 EQ PUSH2 0xD5E JUMPI PUSH1 0x20 PUSH2 0xD17 DUP5 PUSH2 0xA9E PUSH2 0xA8C DUP9 PUSH2 0xA87 DUP13 PUSH1 0x0 SWAP11 PUSH2 0xEA2 JUMP JUMPDEST SUB SWAP3 GAS CALL SWAP3 DUP4 ISZERO PUSH2 0x7C6 JUMPI PUSH1 0x1 SWAP4 PUSH2 0xD40 JUMPI JUMPDEST POP JUMPDEST PUSH1 0x0 MSTORE PUSH1 0x7 PUSH1 0x20 MSTORE PUSH1 0x0 PUSH1 0x40 DUP2 KECCAK256 SSTORE PUSH2 0xCC9 JUMP JUMPDEST PUSH2 0xD57 SWAP1 PUSH1 0x20 RETURNDATASIZE DUP2 GT PUSH2 0x7BF JUMPI PUSH2 0x7B2 DUP2 DUP4 PUSH2 0x939 JUMP JUMPDEST POP CODESIZE PUSH2 0xD2A JUMP JUMPDEST PUSH1 0x64 DUP4 MUL DUP4 DUP2 DIV PUSH1 0x64 EQ DUP5 ISZERO OR ISZERO PUSH2 0x783 JUMPI PUSH1 0x2 SLOAD PUSH1 0x0 SWAP5 PUSH1 0x20 SWAP3 PUSH2 0xD96 SWAP3 PUSH1 0x1 PUSH1 0x1 PUSH1 0xA0 SHL SUB AND SWAP2 PUSH2 0xA9E SWAP2 PUSH2 0x2710 SWAP1 DIV SWAP1 PUSH2 0x980 JUMP JUMPDEST SUB SWAP3 GAS CALL SWAP3 DUP4 ISZERO PUSH2 0x7C6 JUMPI PUSH1 0x1 SWAP4 PUSH2 0xDAF JUMPI JUMPDEST POP PUSH2 0xD2C JUMP JUMPDEST PUSH2 0xDC6 SWAP1 PUSH1 0x20 RETURNDATASIZE DUP2 GT PUSH2 0x7BF JUMPI PUSH2 0x7B2 DUP2 DUP4 PUSH2 0x939 JUMP JUMPDEST POP CODESIZE PUSH2 0xDA9 JUMP JUMPDEST POP POP SWAP1 POP PUSH2 0xB8C JUMP JUMPDEST PUSH2 0xDDF DUP2 PUSH2 0x908 JUMP JUMPDEST SWAP1 SLOAD PUSH1 0x3 SWAP2 SWAP1 SWAP2 SHL SHR PUSH1 0x1 PUSH1 0x1 PUSH1 0xA0 SHL SUB AND PUSH1 0x0 DUP2 DUP2 MSTORE PUSH1 0x7 PUSH1 0x20 MSTORE PUSH1 0x40 SWAP1 KECCAK256 SLOAD ISZERO ISZERO DUP1 PUSH2 0xE52 JUMPI JUMPDEST PUSH2 0xE16 JUMPI JUMPDEST POP PUSH1 0x1 ADD PUSH2 0xC86 JUMP JUMPDEST PUSH1 0x0 SWAP6 SWAP2 SWAP6 MSTORE PUSH1 0x7 PUSH1 0x20 MSTORE PUSH1 0x40 PUSH1 0x0 KECCAK256 SLOAD PUSH1 0x64 DUP2 MUL SWAP1 DUP1 DUP3 DIV PUSH1 0x64 EQ SWAP1 ISZERO OR ISZERO PUSH2 0x783 JUMPI PUSH1 0x1 SWAP2 PUSH2 0x2710 PUSH2 0xE4B SWAP3 DIV SWAP1 PUSH2 0x973 JUMP JUMPDEST SWAP5 SWAP1 PUSH2 0xE0D JUMP JUMPDEST POP DUP1 PUSH1 0x0 MSTORE PUSH1 0x6 PUSH1 0x20 MSTORE PUSH1 0xFF PUSH1 0x40 PUSH1 0x0 KECCAK256 SLOAD AND ISZERO ISZERO PUSH2 0xE08 JUMP JUMPDEST PUSH1 0x40 MLOAD PUSH3 0x461BCD PUSH1 0xE5 SHL DUP2 MSTORE PUSH1 0x20 PUSH1 0x4 DUP3 ADD MSTORE PUSH1 0xE PUSH1 0x24 DUP3 ADD MSTORE PUSH14 0x105B1C9958591E4818DB1BDCD959 PUSH1 0x92 SHL PUSH1 0x44 DUP3 ADD MSTORE PUSH1 0x64 SWAP1 REVERT JUMPDEST DUP2 DUP2 MUL SWAP3 SWAP2 DUP2 ISZERO SWAP2 DUP5 DIV EQ OR ISZERO PUSH2 0x783 JUMPI JUMP JUMPDEST DUP2 ISZERO PUSH2 0xEBF JUMPI DIV SWAP1 JUMP JUMPDEST PUSH4 0x4E487B71 PUSH1 0xE0 SHL PUSH1 0x0 MSTORE PUSH1 0x12 PUSH1 0x4 MSTORE PUSH1 0x24 PUSH1 0x0 REVERT INVALID LOG2 PUSH5 0x6970667358 0x22 SLT KECCAK256 BLOCKHASH XOR 0xEB TLOAD SWAP11 SAR PUSH7 0x50C349C272573 MUL LOG2 0xB6 0xEA 0xF6 PUSH6 0x5B8D901E4268 0xB2 MCOPY BYTE 0xDB 0xD1 0xB6 PUSH5 0x736F6C6343 STOP ADDMOD SHR STOP CALLER LOG2 PUSH5 0x6970667358 0x22 SLT KECCAK256 COINBASE ORIGIN PUSH27 0xD59D57393E708563DE51E3F34B557211DA20EA4831A254955DFF62 0xDF DUP4 PUSH5 0x736F6C6343 STOP ADDMOD SHR STOP CALLER "},"methodIdentifiers":{"closePool(bytes32)":"ee12b96f","createPool(bytes32)":"ee2373e9","createPoolFromOracle(bytes32)":"649c8175","easilyVerifiable(bytes32)":"c8437841","mainPoolDuration()":"352669ac","microPoolDuration()":"ea5b0967","oracleAddress()":"a89ae4ba","owner()":"8da5cb5b","poolCreationFee()":"be74615f","pools(bytes32)":"b5217bb4","renounceOwnership()":"715018a6","resolveMicroPool(bytes32,uint8)":"5edf30eb","setCreationFee(uint256)":"b7d86225","setDurations(uint256,uint256)":"a40b3998","setOracle(address)":"7adbf973","setThreshold(uint256)":"960bfe04","token()":"fc0c546a","transferOwnership(address)":"f2fde38b","verifiableThreshold()":"d9d78cab","withdrawFees()":"476343ee"}}}}}