{"contracts/ValidationPool.sol":{"ValidationPool":{"abi":[{"inputs":[{"internalType":"contract VerifyToken","name":"_token","type":"address"},{"internalType":"bytes32","name":"_newsHash","type":"bytes32"},{"internalType":"uint256","name":"_endTime","type":"uint256"}],"stateMutability":"nonpayable","type":"constructor"},{"inputs":[{"internalType":"address","name":"owner","type":"address"}],"name":"OwnableInvalidOwner","type":"error"},{"inputs":[{"internalType":"address","name":"account","type":"address"}],"name":"OwnableUnauthorizedAccount","type":"error"},{"inputs":[],"name":"ReentrancyGuardReentrantCall","type":"error"},{"anonymous":false,"inputs":[{"indexed":true,"internalType":"address","name":"previousOwner","type":"address"},{"indexed":true,"internalType":"address","name":"newOwner","type":"address"}],"name":"OwnershipTransferred","type":"event"},{"anonymous":false,"inputs":[{"indexed":true,"internalType":"bytes32","name":"newsHash","type":"bytes32"},{"indexed":false,"internalType":"bool","name":"consensus","type":"bool"},{"indexed":false,"internalType":"uint256","name":"verifyStake","type":"uint256"},{"indexed":false,"internalType":"uint256","name":"discountStake","type":"uint256"}],"name":"PoolClosed","type":"event"},{"anonymous":false,"inputs":[{"indexed":true,"internalType":"address","name":"verifier","type":"address"},{"indexed":false,"internalType":"bool","name":"vote","type":"bool"},{"indexed":false,"internalType":"uint256","name":"stake","type":"uint256"},{"indexed":false,"internalType":"uint8","name":"degree","type":"uint8"}],"name":"VoteCast","type":"event"},{"inputs":[{"internalType":"bool","name":"_vote","type":"bool"},{"internalType":"uint256","name":"_stakeAmount","type":"uint256"},{"internalType":"uint8","name":"_degree","type":"uint8"}],"name":"castVote","outputs":[],"stateMutability":"nonpayable","type":"function"},{"inputs":[],"name":"closeAndDistribute","outputs":[],"stateMutability":"nonpayable","type":"function"},{"inputs":[],"name":"closed","outputs":[{"internalType":"bool","name":"","type":"bool"}],"stateMutability":"view","type":"function"},{"inputs":[],"name":"easilyVerifiable","outputs":[{"internalType":"bool","name":"","type":"bool"}],"stateMutability":"view","type":"function"},{"inputs":[],"name":"endTime","outputs":[{"internalType":"uint256","name":"","type":"uint256"}],"stateMutability":"view","type":"function"},{"inputs":[],"name":"finalConsensus","outputs":[{"internalType":"bool","name":"","type":"bool"}],"stateMutability":"view","type":"function"},{"inputs":[],"name":"getPoolStatus","outputs":[{"internalType":"bool","name":"isClosed","type":"bool"},{"internalType":"bool","name":"isVerifiable","type":"bool"},{"internalType":"uint256","name":"verifyStake","type":"uint256"},{"internalType":"uint256","name":"discountStake","type":"uint256"},{"internalType":"uint256","name":"remainingTime","type":"uint256"}],"stateMutability":"view","type":"function"},{"inputs":[{"internalType":"address","name":"","type":"address"}],"name":"hasParticipated","outputs":[{"internalType":"bool","name":"","type":"bool"}],"stateMutability":"view","type":"function"},{"inputs":[],"name":"newsHash","outputs":[{"internalType":"bytes32","name":"","type":"bytes32"}],"stateMutability":"view","type":"function"},{"inputs":[],"name":"owner","outputs":[{"internalType":"address","name":"","type":"address"}],"stateMutability":"view","type":"function"},{"inputs":[{"internalType":"uint256","name":"","type":"uint256"}],"name":"participants","outputs":[{"internalType":"address","name":"","type":"address"}],"stateMutability":"view","type":"function"},{"inputs":[],"name":"renounceOwnership","outputs":[],"stateMutability":"nonpayable","type":"function"},{"inputs":[{"internalType":"bool","name":"_flag","type":"bool"}],"name":"setEasilyVerifiable","outputs":[],"stateMutability":"nonpayable","type":"function"},{"inputs":[{"internalType":"address","name":"","type":"address"}],"name":"stakesInPool","outputs":[{"internalType":"uint256","name":"","type":"uint256"}],"stateMutability":"view","type":"function"},{"inputs":[],"name":"token","outputs":[{"internalType":"contract VerifyToken","name":"","type":"address"}],"stateMutability":"view","type":"function"},{"inputs":[],"name":"totalDiscountStake","outputs":[{"internalType":"uint256","name":"","type":"uint256"}],"stateMutability":"view","type":"function"},{"inputs":[],"name":"totalVerifyStake","outputs":[{"internalType":"uint256","name":"","type":"uint256"}],"stateMutability":"view","type":"function"},{"inputs":[],"name":"totalVotes","outputs":[{"internalType":"uint256","name":"","type":"uint256"}],"stateMutability":"view","type":"function"},{"inputs":[{"internalType":"address","name":"newOwner","type":"address"}],"name":"transferOwnership","outputs":[],"stateMutability":"nonpayable","type":"function"},{"inputs":[{"internalType":"uint256","name":"_newEndTime","type":"uint256"}],"name":"updateEndTime","outputs":[],"stateMutability":"nonpayable","type":"function"},{"inputs":[{"internalType":"address","name":"","type":"address"}],"name":"votes","outputs":[{"internalType":"bool","name":"","type":"bool"}],"stateMutability":"view","type":"function"}],"evm":{"bytecode":{"linkReferences":{},"object":"60803461010357601f61102a38819003918201601f19168301916001600160401b03831184841017610108578084926060946040528339810103126101035780516001600160a01b038116919082900361010357604060208201519101519033156100ed5760008054336001600160a01b0319821681178355604051959290916001600160a01b0316907f8be0079c531659141344cd1fd0a4f28419497f9722a3daafe3b4186f6b6457e09080a36001805561ffff1960055416600555600060085560006009556000600b5560018060a01b03196002541617600255600355600455610f0b908161011f8239f35b631e4fbdf760e01b600052600060045260246000fd5b600080fd5b634e487b7160e01b600052604160045260246000fdfe608080604052600436101561001357600080fd5b60003560e01c9081630508d2f314610592575080630d15fd77146105745780630de519b414610556578063168299f3146105385780631a411f4f146104fa5780633197cbb6146104dc57806335c1d3491461049a578063597e1fb5146104775780636ab3846b14610456578063715018a6146103fd5780637ad24fe2146103d75780637f79496c1461036e5780638da5cb5b14610345578063936cbcbe146102cf5780639dbe0a8914610288578063b4fb3ee314610245578063c610ab7714610227578063c747367014610204578063d8bff5a5146101c1578063f2fde38b146101345763fc0c546a1461010657600080fd5b3461012f57600036600319011261012f576002546040516001600160a01b039091168152602090f35b600080fd5b3461012f57602036600319011261012f576004356001600160a01b0381169081900361012f5761016261098d565b80156101ab57600080546001600160a01b03198116831782556001600160a01b0316907f8be0079c531659141344cd1fd0a4f28419497f9722a3daafe3b4186f6b6457e09080a3005b631e4fbdf760e01b600052600060045260246000fd5b3461012f57602036600319011261012f576004356001600160a01b0381169081900361012f576000526006602052602060ff604060002054166040519015158152f35b3461012f57600036600319011261012f57602060ff600a54166040519015158152f35b3461012f57600036600319011261012f576020600854604051908152f35b3461012f57602036600319011261012f576004356001600160a01b0381169081900361012f57600052600d602052602060ff604060002054166040519015158152f35b3461012f57602036600319011261012f576102a16108f9565b6102a961098d565b6005805461ff00191682151560081b61ff00161790556102c557005b6102cd6109b6565b005b3461012f57600036600319011261012f576102e861098d565b6004544210801590610336575b15610302576102cd6109b6565b60405162461bcd60e51b815260206004820152600c60248201526b4e6f7420636c6f7361626c6560a01b6044820152606490fd5b5060ff60055460081c166102f5565b3461012f57600036600319011261012f576000546040516001600160a01b039091168152602090f35b3461012f57600036600319011261012f576004548042106000146103cd5761039960a0914290610980565b600554906008546009549060ff604051948181161515865260081c1615156020850152604084015260608301526080820152f35b5060a06000610399565b3461012f57600036600319011261012f57602060ff60055460081c166040519015158152f35b3461012f57600036600319011261012f5761041661098d565b600080546001600160a01b0319811682556001600160a01b03167f8be0079c531659141344cd1fd0a4f28419497f9722a3daafe3b4186f6b6457e08280a3005b3461012f57602036600319011261012f5761046f61098d565b600480359055005b3461012f57600036600319011261012f57602060ff600554166040519015158152f35b3461012f57602036600319011261012f57600435600c5481101561012f576104c3602091610908565b905460405160039290921b1c6001600160a01b03168152f35b3461012f57600036600319011261012f576020600454604051908152f35b3461012f57602036600319011261012f576004356001600160a01b0381169081900361012f5760005260076020526020604060002054604051908152f35b3461012f57600036600319011261012f576020600354604051908152f35b3461012f57600036600319011261012f576020600954604051908152f35b3461012f57600036600319011261012f576020600b54604051908152f35b3461012f57606036600319011261012f576105ab6108f9565b906024356044359160ff831680930361012f576002600154146108e857600260015560ff600554166108b857506004544210156108865780156108485733600052600760205260406000205461081357600182101580610808575b156107d2576002546040516323b872dd60e01b81523360048201523060248201526044810183905290602090829060649082906000906001600160a01b03165af180156107c657610799575b50336000526007602052806040600020553360005260066020526040600020928015159360ff1981541660ff8616179055600b54600019811461078357600101600b5533600052600d60205260ff6040600020541615610712575b156106fe576106be81600854610973565b6008555b604051928352602083015260408201527fa1abc530141f38947876d13989074bbb38a85d7b115374388952db2799ee017260603392a260018055005b61070a81600954610973565b6009556106c2565b600c546801000000000000000081101561076d578060016107369201600c55610908565b81549060031b9033821b9160018060a01b03901b191617905533600052600d6020526040600020600160ff198254161790556106ad565b634e487b7160e01b600052604160045260246000fd5b634e487b7160e01b600052601160045260246000fd5b6107ba9060203d6020116107bf575b6107b28183610939565b81019061095b565b610652565b503d6107a8565b6040513d6000823e3d90fd5b60405162461bcd60e51b815260206004820152600e60248201526d496e76616c69642064656772656560901b6044820152606490fd5b506003821115610606565b60405162461bcd60e51b815260206004820152600d60248201526c105b1c9958591e481d9bdd1959609a1b6044820152606490fd5b60405162461bcd60e51b81526020600482015260166024820152755374616b65206d75737420626520706f73697469766560501b6044820152606490fd5b60405162461bcd60e51b815260206004820152600a602482015269141bdbdb08195b99195960b21b6044820152606490fd5b62461bcd60e51b815260206004820152600b60248201526a141bdbdb0818db1bdcd95960aa1b6044820152606490fd5b633ee5aeb560e01b60005260046000fd5b60043590811515820361012f57565b600c5481101561092357600c60005260206000200190600090565b634e487b7160e01b600052603260045260246000fd5b90601f8019910116810190811067ffffffffffffffff82111761076d57604052565b9081602091031261012f5751801515810361012f5790565b9190820180921161078357565b9190820391821161078357565b6000546001600160a01b031633036109a157565b63118cdaa760e01b6000523360045260246000fd5b60055460ff8116610e6c5760ff19166001176005556008546009541015610c6e57600160ff19600a541617600a55600854906000916000600c54905b818110610bd457505060005b600c54811015610b8757610a1181610908565b60018060a01b0391549060031b1c1690816000526007602052604060002054610a3f575b60019150016109fe565b81600052600660205260ff6040600020541691806000526007602052600160406000205493151514600014610b18576020610ad184610a9e610a8c88610a878c60009a610ea2565b610eb5565b6002546001600160a01b031692610973565b60405163a9059cbb60e01b81526001600160a01b0386166004820152602481019190915295869283919082906044820190565b03925af19283156107c657600193610afa575b505b600052600760205260006040812055610a35565b610b119060203d81116107bf576107b28183610939565b5038610ae4565b606483028381046064148415171561078357600254600094602092610b50926001600160a01b031691610a9e91612710900490610980565b03925af19283156107c657600193610b69575b50610ae6565b610b809060203d81116107bf576107b28183610939565b5038610b63565b505090505b6003547f1fac53a191157c168930e8243c9ef26bfeb54d57359284ff5e216a65cd227804606060ff600a541660085460095490604051921515835260208301526040820152a2565b610bdd81610908565b905460039190911b1c6001600160a01b0316600081815260076020526040902054151580610c50575b610c14575b506001016109f2565b600095919552600760205260406000205460648102908082046064149015171561078357600191612710610c49920490610973565b9490610c0b565b50806000526006602052600160ff6040600020541615151415610c06565b60ff19600a5416600a55600954906000916000600c54905b818110610dd657505060005b600c54811015610dcd57610ca581610908565b60018060a01b0391549060031b1c1690816000526007602052604060002054610cd3575b6001915001610c92565b81600052600660205260ff60406000205416918060005260076020526040600020549215600014610d5e576020610d1784610a9e610a8c88610a878c60009a610ea2565b03925af19283156107c657600193610d40575b505b600052600760205260006040812055610cc9565b610d579060203d81116107bf576107b28183610939565b5038610d2a565b606483028381046064148415171561078357600254600094602092610d96926001600160a01b031691610a9e91612710900490610980565b03925af19283156107c657600193610daf575b50610d2c565b610dc69060203d81116107bf576107b28183610939565b5038610da9565b50509050610b8c565b610ddf81610908565b905460039190911b1c6001600160a01b0316600081815260076020526040902054151580610e52575b610e16575b50600101610c86565b600095919552600760205260406000205460648102908082046064149015171561078357600191612710610e4b920490610973565b9490610e0d565b5080600052600660205260ff604060002054161515610e08565b60405162461bcd60e51b815260206004820152600e60248201526d105b1c9958591e4818db1bdcd95960921b6044820152606490fd5b8181029291811591840414171561078357565b8115610ebf570490565b634e487b7160e01b600052601260045260246000fdfea26469706673582212204018eb5c9a1d66050c349c27257302a2b6eaf6655b8d901e4268b25e1adbd1b664736f6c634300081c0033","opcodes":"PUSH1 0x80 CALLVALUE PUSH2 0x103 JUMPI PUSH1 0x1F PUSH2 0x102A CODESIZE DUP2 SWAP1 SUB SWAP2 DUP3 ADD PUSH1 0x1F NOT AND DUP4 ADD SWAP2 PUSH1 0x1 PUSH1 0x1 PUSH1 0x40 SHL SUB DUP4 GT DUP5 DUP5 LT OR PUSH2 0x108 JUMPI DUP1 DUP5 SWAP3 PUSH1 0x60 SWAP5 PUSH1 0x40 MSTORE DUP4 CODECOPY DUP2 ADD SUB SLT PUSH2 0x103 JUMPI DUP1 MLOAD PUSH1 0x1 PUSH1 0x1 PUSH1 0xA0 SHL SUB DUP2 AND SWAP2 SWAP1 DUP3 SWAP1 SUB PUSH2 0x103 JUMPI PUSH1 0x40 PUSH1 0x20 DUP3 ADD MLOAD SWAP2 ADD MLOAD SWAP1 CALLER ISZERO PUSH2 0xED JUMPI PUSH1 0x0 DUP1 SLOAD CALLER PUSH1 0x1 PUSH1 0x1 PUSH1 0xA0 SHL SUB NOT DUP3 AND DUP2 OR DUP4 SSTORE PUSH1 0x40 MLOAD SWAP6 SWAP3 SWAP1 SWAP2 PUSH1 0x1 PUSH1 0x1 PUSH1 0xA0 SHL SUB AND SWAP1 PUSH32 0x8BE0079C531659141344CD1FD0A4F28419497F9722A3DAAFE3B4186F6B6457E0 SWAP1 DUP1 LOG3 PUSH1 0x1 DUP1 SSTORE PUSH2 0xFFFF NOT PUSH1 0x5 SLOAD AND PUSH1 0x5 SSTORE PUSH1 0x0 PUSH1 0x8 SSTORE PUSH1 0x0 PUSH1 0x9 SSTORE PUSH1 0x0 PUSH1 0xB SSTORE PUSH1 0x1 DUP1 PUSH1 0xA0 SHL SUB NOT PUSH1 0x2 SLOAD AND OR PUSH1 0x2 SSTORE PUSH1 0x3 SSTORE PUSH1 0x4 SSTORE PUSH2 0xF0B SWAP1 DUP2 PUSH2 0x11F DUP3 CODECOPY RETURN JUMPDEST PUSH4 0x1E4FBDF7 PUSH1 0xE0 SHL PUSH1 0x0 MSTORE PUSH1 0x0 PUSH1 0x4 MSTORE PUSH1 0x24 PUSH1 0x0 REVERT JUMPDEST PUSH1 0x0 DUP1 REVERT JUMPDEST PUSH4 0x4E487B71 PUSH1 0xE0 SHL PUSH1 0x0 MSTORE PUSH1 0x41 PUSH1 0x4 MSTORE PUSH1 0x24 PUSH1 0x0 REVERT INVALID PUSH1 0x80 DUP1 PUSH1 0x40 MSTORE PUSH1 0x4 CALLDATASIZE LT ISZERO PUSH2 0x13 JUMPI PUSH1 0x0 DUP1 REVERT JUMPDEST PUSH1 0x0 CALLDATALOAD PUSH1 0xE0 SHR SWAP1 DUP2 PUSH4 0x508D2F3 EQ PUSH2 0x592 JUMPI POP DUP1 PUSH4 0xD15FD77 EQ PUSH2 0x574 JUMPI DUP1 PUSH4 0xDE519B4 EQ PUSH2 0x556 JUMPI DUP1 PUSH4 0x168299F3 EQ PUSH2 0x538 JUMPI DUP1 PUSH4 0x1A411F4F EQ PUSH2 0x4FA JUMPI DUP1 PUSH4 0x3197CBB6 EQ PUSH2 0x4DC JUMPI DUP1 PUSH4 0x35C1D349 EQ PUSH2 0x49A JUMPI DUP1 PUSH4 0x597E1FB5 EQ PUSH2 0x477 JUMPI DUP1 PUSH4 0x6AB3846B EQ PUSH2 0x456 JUMPI DUP1 PUSH4 0x715018A6 EQ PUSH2 0x3FD JUMPI DUP1 PUSH4 0x7AD24FE2 EQ PUSH2 0x3D7 JUMPI DUP1 PUSH4 0x7F79496C EQ PUSH2 0x36E JUMPI DUP1 PUSH4 0x8DA5CB5B EQ PUSH2 0x345 JUMPI DUP1 PUSH4 0x936CBCBE EQ PUSH2 0x2CF JUMPI DUP1 PUSH4 0x9DBE0A89 EQ PUSH2 0x288 JUMPI DUP1 PUSH4 0xB4FB3EE3 EQ PUSH2 0x245 JUMPI DUP1 PUSH4 0xC610AB77 EQ PUSH2 0x227 JUMPI DUP1 PUSH4 0xC7473670 EQ PUSH2 0x204 JUMPI DUP1 PUSH4 0xD8BFF5A5 EQ PUSH2 0x1C1 JUMPI DUP1 PUSH4 0xF2FDE38B EQ PUSH2 0x134 JUMPI PUSH4 0xFC0C546A EQ PUSH2 0x106 JUMPI PUSH1 0x0 DUP1 REVERT JUMPDEST CALLVALUE PUSH2 0x12F JUMPI PUSH1 0x0 CALLDATASIZE PUSH1 0x3 NOT ADD SLT PUSH2 0x12F JUMPI PUSH1 0x2 SLOAD PUSH1 0x40 MLOAD PUSH1 0x1 PUSH1 0x1 PUSH1 0xA0 SHL SUB SWAP1 SWAP2 AND DUP2 MSTORE PUSH1 0x20 SWAP1 RETURN JUMPDEST PUSH1 0x0 DUP1 REVERT JUMPDEST CALLVALUE PUSH2 0x12F JUMPI PUSH1 0x20 CALLDATASIZE PUSH1 0x3 NOT ADD SLT PUSH2 0x12F JUMPI PUSH1 0x4 CALLDATALOAD PUSH1 0x1 PUSH1 0x1 PUSH1 0xA0 SHL SUB DUP2 AND SWAP1 DUP2 SWAP1 SUB PUSH2 0x12F JUMPI PUSH2 0x162 PUSH2 0x98D JUMP JUMPDEST DUP1 ISZERO PUSH2 0x1AB JUMPI PUSH1 0x0 DUP1 SLOAD PUSH1 0x1 PUSH1 0x1 PUSH1 0xA0 SHL SUB NOT DUP2 AND DUP4 OR DUP3 SSTORE PUSH1 0x1 PUSH1 0x1 PUSH1 0xA0 SHL SUB AND SWAP1 PUSH32 0x8BE0079C531659141344CD1FD0A4F28419497F9722A3DAAFE3B4186F6B6457E0 SWAP1 DUP1 LOG3 STOP JUMPDEST PUSH4 0x1E4FBDF7 PUSH1 0xE0 SHL PUSH1 0x0 MSTORE PUSH1 0x0 PUSH1 0x4 MSTORE PUSH1 0x24 PUSH1 0x0 REVERT JUMPDEST CALLVALUE PUSH2 0x12F JUMPI PUSH1 0x20 CALLDATASIZE PUSH1 0x3 NOT ADD SLT PUSH2 0x12F JUMPI PUSH1 0x4 CALLDATALOAD PUSH1 0x1 PUSH1 0x1 PUSH1 0xA0 SHL SUB DUP2 AND SWAP1 DUP2 SWAP1 SUB PUSH2 0x12F JUMPI PUSH1 0x0 MSTORE PUSH1 0x6 PUSH1 0x20 MSTORE PUSH1 0x20 PUSH1 0xFF PUSH1 0x40 PUSH1 0x0 KECCAK256 SLOAD AND PUSH1 0x40 MLOAD SWAP1 ISZERO ISZERO DUP2 MSTORE RETURN JUMPDEST CALLVALUE PUSH2 0x12F JUMPI PUSH1 0x0 CALLDATASIZE PUSH1 0x3 NOT ADD SLT PUSH2 0x12F JUMPI PUSH1 0x20 PUSH1 0xFF PUSH1 0xA SLOAD AND PUSH1 0x40 MLOAD SWAP1 ISZERO ISZERO DUP2 MSTORE RETURN JUMPDEST CALLVALUE PUSH2 0x12F JUMPI PUSH1 0x0 CALLDATASIZE PUSH1 0x3 NOT ADD SLT PUSH2 0x12F JUMPI PUSH1 0x20 PUSH1 0x8 SLOAD PUSH1 0x40 MLOAD SWAP1 DUP2 MSTORE RETURN JUMPDEST CALLVALUE PUSH2 0x12F JUMPI PUSH1 0x20 CALLDATASIZE PUSH1 0x3 NOT ADD SLT PUSH2 0x12F JUMPI PUSH1 0x4 CALLDATALOAD PUSH1 0x1 PUSH1 0x1 PUSH1 0xA0 SHL SUB DUP2 AND SWAP1 DUP2 SWAP1 SUB PUSH2 0x12F JUMPI PUSH1 0x0 MSTORE PUSH1 0xD PUSH1 0x20 MSTORE PUSH1 0x20 PUSH1 0xFF PUSH1 0x40 PUSH1 0x0 KECCAK256 SLOAD AND PUSH1 0x40 MLOAD SWAP1 ISZERO ISZERO DUP2 MSTORE RETURN JUMPDEST CALLVALUE PUSH2 0x12F JUMPI PUSH1 0x20 CALLDATASIZE PUSH1 0x3 NOT ADD SLT PUSH2 0x12F JUMPI PUSH2 0x2A1 PUSH2 0x8F9 JUMP JUMPDEST PUSH2 0x2A9 PUSH2 0x98D JUMP JUMPDEST PUSH1 0x5 DUP1 SLOAD PUSH2 0xFF00 NOT AND DUP3 ISZERO ISZERO PUSH1 0x8 SHL PUSH2 0xFF00 AND OR SWAP1 SSTORE PUSH2 0x2C5 JUMPI STOP JUMPDEST PUSH2 0x2CD PUSH2 0x9B6 JUMP JUMPDEST STOP JUMPDEST CALLVALUE PUSH2 0x12F JUMPI PUSH1 0x0 CALLDATASIZE PUSH1 0x3 NOT ADD SLT PUSH2 0x12F JUMPI PUSH2 0x2E8 PUSH2 0x98D JUMP JUMPDEST PUSH1 0x4 SLOAD TIMESTAMP LT DUP1 ISZERO SWAP1 PUSH2 0x336 JUMPI JUMPDEST ISZERO PUSH2 0x302 JUMPI PUSH2 0x2CD PUSH2 0x9B6 JUMP JUMPDEST PUSH1 0x40 MLOAD PUSH3 0x461BCD PUSH1 0xE5 SHL DUP2 MSTORE PUSH1 0x20 PUSH1 0x4 DUP3 ADD MSTORE PUSH1 0xC PUSH1 0x24 DUP3 ADD MSTORE PUSH12 0x4E6F7420636C6F7361626C65 PUSH1 0xA0 SHL PUSH1 0x44 DUP3 ADD MSTORE PUSH1 0x64 SWAP1 REVERT JUMPDEST POP PUSH1 0xFF PUSH1 0x5 SLOAD PUSH1 0x8 SHR AND PUSH2 0x2F5 JUMP JUMPDEST CALLVALUE PUSH2 0x12F JUMPI PUSH1 0x0 CALLDATASIZE PUSH1 0x3 NOT ADD SLT PUSH2 0x12F JUMPI PUSH1 0x0 SLOAD PUSH1 0x40 MLOAD PUSH1 0x1 PUSH1 0x1 PUSH1 0xA0 SHL SUB SWAP1 SWAP2 AND DUP2 MSTORE PUSH1 0x20 SWAP1 RETURN JUMPDEST CALLVALUE PUSH2 0x12F JUMPI PUSH1 0x0 CALLDATASIZE PUSH1 0x3 NOT ADD SLT PUSH2 0x12F JUMPI PUSH1 0x4 SLOAD DUP1 TIMESTAMP LT PUSH1 0x0 EQ PUSH2 0x3CD JUMPI PUSH2 0x399 PUSH1 0xA0 SWAP2 TIMESTAMP SWAP1 PUSH2 0x980 JUMP JUMPDEST PUSH1 0x5 SLOAD SWAP1 PUSH1 0x8 SLOAD PUSH1 0x9 SLOAD SWAP1 PUSH1 0xFF PUSH1 0x40 MLOAD SWAP5 DUP2 DUP2 AND ISZERO ISZERO DUP7 MSTORE PUSH1 0x8 SHR AND ISZERO ISZERO PUSH1 0x20 DUP6 ADD MSTORE PUSH1 0x40 DUP5 ADD MSTORE PUSH1 0x60 DUP4 ADD MSTORE PUSH1 0x80 DUP3 ADD MSTORE RETURN JUMPDEST POP PUSH1 0xA0 PUSH1 0x0 PUSH2 0x399 JUMP JUMPDEST CALLVALUE PUSH2 0x12F JUMPI PUSH1 0x0 CALLDATASIZE PUSH1 0x3 NOT ADD SLT PUSH2 0x12F JUMPI PUSH1 0x20 PUSH1 0xFF PUSH1 0x5 SLOAD PUSH1 0x8 SHR AND PUSH1 0x40 MLOAD SWAP1 ISZERO ISZERO DUP2 MSTORE RETURN JUMPDEST CALLVALUE PUSH2 0x12F JUMPI PUSH1 0x0 CALLDATASIZE PUSH1 0x3 NOT ADD SLT PUSH2 0x12F JUMPI PUSH2 0x416 PUSH2 0x98D JUMP JUMPDEST PUSH1 0x0 DUP1 SLOAD PUSH1 0x1 PUSH1 0x1 PUSH1 0xA0 SHL SUB NOT DUP2 AND DUP3 SSTORE PUSH1 0x1 PUSH1 0x1 PUSH1 0xA0 SHL SUB AND PUSH32 0x8BE0079C531659141344CD1FD0A4F28419497F9722A3DAAFE3B4186F6B6457E0 DUP3 DUP1 LOG3 STOP JUMPDEST CALLVALUE PUSH2 0x12F JUMPI PUSH1 0x20 CALLDATASIZE PUSH1 0x3 NOT ADD SLT PUSH2 0x12F JUMPI PUSH2 0x46F PUSH2 0x98D JUMP JUMPDEST PUSH1 0x4 DUP1 CALLDATALOAD SWAP1 SSTORE STOP JUMPDEST CALLVALUE PUSH2 0x12F JUMPI PUSH1 0x0 CALLDATASIZE PUSH1 0x3 NOT ADD SLT PUSH2 0x12F JUMPI PUSH1 0x20 PUSH1 0xFF PUSH1 0x5 SLOAD AND PUSH1 0x40 MLOAD SWAP1 ISZERO ISZERO DUP2 MSTORE RETURN JUMPDEST CALLVALUE PUSH2 0x12F JUMPI PUSH1 0x20 CALLDATASIZE PUSH1 0x3 NOT ADD SLT PUSH2 0x12F JUMPI PUSH1 0x4 CALLDATALOAD PUSH1 0xC SLOAD DUP2 LT ISZERO PUSH2 0x12F JUMPI PUSH2 0x4C3 PUSH1 0x20 SWAP2 PUSH2 0x908 JUMP JUMPDEST SWAP1 SLOAD PUSH1 0x40 MLOAD PUSH1 0x3 SWAP3 SWAP1 SWAP3 SHL SHR PUSH1 0x1 PUSH1 0x1 PUSH1 0xA0 SHL SUB AND DUP2 MSTORE RETURN JUMPDEST CALLVALUE PUSH2 0x12F JUMPI PUSH1 0x0 CALLDATASIZE PUSH1 0x3 NOT ADD SLT PUSH2 0x12F JUMPI PUSH1 0x20 PUSH1 0x4 SLOAD PUSH1 0x40 MLOAD SWAP1 DUP2 MSTORE RETURN JUMPDEST CALLVALUE PUSH2 0x12F JUMPI PUSH1 0x20 CALLDATASIZE PUSH1 0x3 NOT ADD SLT PUSH2 0x12F JUMPI PUSH1 0x4 CALLDATALOAD PUSH1 0x1 PUSH1 0x1 PUSH1 0xA0 SHL SUB DUP2 AND SWAP1 DUP2 SWAP1 SUB PUSH2 0x12F JUMPI PUSH1 0x0 MSTORE PUSH1 0x7 PUSH1 0x20 MSTORE PUSH1 0x20 PUSH1 0x40 PUSH1 0x0 KECCAK256 SLOAD PUSH1 0x40 MLOAD SWAP1 DUP2 MSTORE RETURN JUMPDEST CALLVALUE PUSH2 0x12F JUMPI PUSH1 0x0 CALLDATASIZE PUSH1 0x3 NOT ADD SLT PUSH2 0x12F JUMPI PUSH1 0x20 PUSH1 0x3 SLOAD PUSH1 0x40 MLOAD SWAP1 DUP2 MSTORE RETURN JUMPDEST CALLVALUE PUSH2 0x12F JUMPI PUSH1 0x0 CALLDATASIZE PUSH1 0x3 NOT ADD SLT PUSH2 0x12F JUMPI PUSH1 0x20 PUSH1 0x9 SLOAD PUSH1 0x40 MLOAD SWAP1 DUP2 MSTORE RETURN JUMPDEST CALLVALUE PUSH2 0x12F JUMPI PUSH1 0x0 CALLDATASIZE PUSH1 0x3 NOT ADD SLT PUSH2 0x12F JUMPI PUSH1 0x20 PUSH1 0xB SLOAD PUSH1 0x40 MLOAD SWAP1 DUP2 MSTORE RETURN JUMPDEST CALLVALUE PUSH2 0x12F JUMPI PUSH1 0x60 CALLDATASIZE PUSH1 0x3 NOT ADD SLT PUSH2 0x12F JUMPI PUSH2 0x5AB PUSH2 0x8F9 JUMP JUMPDEST SWAP1 PUSH1 0x24 CALLDATALOAD PUSH1 0x44 CALLDATALOAD SWAP2 PUSH1 0xFF DUP4 AND DUP1 SWAP4 SUB PUSH2 0x12F JUMPI PUSH1 0x2 PUSH1 0x1 SLOAD EQ PUSH2 0x8E8 JUMPI PUSH1 0x2 PUSH1 0x1 SSTORE PUSH1 0xFF PUSH1 0x5 SLOAD AND PUSH2 0x8B8 JUMPI POP PUSH1 0x4 SLOAD TIMESTAMP LT ISZERO PUSH2 0x886 JUMPI DUP1 ISZERO PUSH2 0x848 JUMPI CALLER PUSH1 0x0 MSTORE PUSH1 0x7 PUSH1 0x20 MSTORE PUSH1 0x40 PUSH1 0x0 KECCAK256 SLOAD PUSH2 0x813 JUMPI PUSH1 0x1 DUP3 LT ISZERO DUP1 PUSH2 0x808 JUMPI JUMPDEST ISZERO PUSH2 0x7D2 JUMPI PUSH1 0x2 SLOAD PUSH1 0x40 MLOAD PUSH4 0x23B872DD PUSH1 0xE0 SHL DUP2 MSTORE CALLER PUSH1 0x4 DUP3 ADD MSTORE ADDRESS PUSH1 0x24 DUP3 ADD MSTORE PUSH1 0x44 DUP2 ADD DUP4 SWAP1 MSTORE SWAP1 PUSH1 0x20 SWAP1 DUP3 SWAP1 PUSH1 0x64 SWAP1 DUP3 SWAP1 PUSH1 0x0 SWAP1 PUSH1 0x1 PUSH1 0x1 PUSH1 0xA0 SHL SUB AND GAS CALL DUP1 ISZERO PUSH2 0x7C6 JUMPI PUSH2 0x799 JUMPI JUMPDEST POP CALLER PUSH1 0x0 MSTORE PUSH1 0x7 PUSH1 0x20 MSTORE DUP1 PUSH1 0x40 PUSH1 0x0 KECCAK256 SSTORE CALLER PUSH1 0x0 MSTORE PUSH1 0x6 PUSH1 0x20 MSTORE PUSH1 0x40 PUSH1 0x0 KECCAK256 SWAP3 DUP1 ISZERO ISZERO SWAP4 PUSH1 0xFF NOT DUP2 SLOAD AND PUSH1 0xFF DUP7 AND OR SWAP1 SSTORE PUSH1 0xB SLOAD PUSH1 0x0 NOT DUP2 EQ PUSH2 0x783 JUMPI PUSH1 0x1 ADD PUSH1 0xB SSTORE CALLER PUSH1 0x0 MSTORE PUSH1 0xD PUSH1 0x20 MSTORE PUSH1 0xFF PUSH1 0x40 PUSH1 0x0 KECCAK256 SLOAD AND ISZERO PUSH2 0x712 JUMPI JUMPDEST ISZERO PUSH2 0x6FE JUMPI PUSH2 0x6BE DUP2 PUSH1 0x8 SLOAD PUSH2 0x973 JUMP JUMPDEST PUSH1 0x8 SSTORE JUMPDEST PUSH1 0x40 MLOAD SWAP3 DUP4 MSTORE PUSH1 0x20 DUP4 ADD MSTORE PUSH1 0x40 DUP3 ADD MSTORE PUSH32 0xA1ABC530141F38947876D13989074BBB38A85D7B115374388952DB2799EE0172 PUSH1 0x60 CALLER SWAP3 LOG2 PUSH1 0x1 DUP1 SSTORE STOP JUMPDEST PUSH2 0x70A DUP2 PUSH1 0x9 SLOAD PUSH2 0x973 JUMP JUMPDEST PUSH1 0x9 SSTORE PUSH2 0x6C2 JUMP JUMPDEST PUSH1 0xC SLOAD PUSH9 0x10000000000000000 DUP2 LT ISZERO PUSH2 0x76D JUMPI DUP1 PUSH1 0x1 PUSH2 0x736 SWAP3 ADD PUSH1 0xC SSTORE PUSH2 0x908 JUMP JUMPDEST DUP2 SLOAD SWAP1 PUSH1 0x3 SHL SWAP1 CALLER DUP3 SHL SWAP2 PUSH1 0x1 DUP1 PUSH1 0xA0 SHL SUB SWAP1 SHL NOT AND OR SWAP1 SSTORE CALLER PUSH1 0x0 MSTORE PUSH1 0xD PUSH1 0x20 MSTORE PUSH1 0x40 PUSH1 0x0 KECCAK256 PUSH1 0x1 PUSH1 0xFF NOT DUP3 SLOAD AND OR SWAP1 SSTORE PUSH2 0x6AD JUMP JUMPDEST PUSH4 0x4E487B71 PUSH1 0xE0 SHL PUSH1 0x0 MSTORE PUSH1 0x41 PUSH1 0x4 MSTORE PUSH1 0x24 PUSH1 0x0 REVERT JUMPDEST PUSH4 0x4E487B71 PUSH1 0xE0 SHL PUSH1 0x0 MSTORE PUSH1 0x11 PUSH1 0x4 MSTORE PUSH1 0x24 PUSH1 0x0 REVERT JUMPDEST PUSH2 0x7BA SWAP1 PUSH1 0x20 RETURNDATASIZE PUSH1 0x20 GT PUSH2 0x7BF JUMPI JUMPDEST PUSH2 0x7B2 DUP2 DUP4 PUSH2 0x939 JUMP JUMPDEST DUP2 ADD SWAP1 PUSH2 0x95B JUMP JUMPDEST PUSH2 0x652 JUMP JUMPDEST POP RETURNDATASIZE PUSH2 0x7A8 JUMP JUMPDEST PUSH1 0x40 MLOAD RETURNDATASIZE PUSH1 0x0 DUP3 RETURNDATACOPY RETURNDATASIZE SWAP1 REVERT JUMPDEST PUSH1 0x40 MLOAD PUSH3 0x461BCD PUSH1 0xE5 SHL DUP2 MSTORE PUSH1 0x20 PUSH1 0x4 DUP3 ADD MSTORE PUSH1 0xE PUSH1 0x24 DUP3 ADD MSTORE PUSH14 0x496E76616C696420646567726565 PUSH1 0x90 SHL PUSH1 0x44 DUP3 ADD MSTORE PUSH1 0x64 SWAP1 REVERT JUMPDEST POP PUSH1 0x3 DUP3 GT ISZERO PUSH2 0x606 JUMP JUMPDEST PUSH1 0x40 MLOAD PUSH3 0x461BCD PUSH1 0xE5 SHL DUP2 MSTORE PUSH1 0x20 PUSH1 0x4 DUP3 ADD MSTORE PUSH1 0xD PUSH1 0x24 DUP3 ADD MSTORE PUSH13 0x105B1C9958591E481D9BDD1959 PUSH1 0x9A SHL PUSH1 0x44 DUP3 ADD MSTORE PUSH1 0x64 SWAP1 REVERT JUMPDEST PUSH1 0x40 MLOAD PUSH3 0x461BCD PUSH1 0xE5 SHL DUP2 MSTORE PUSH1 0x20 PUSH1 0x4 DUP3 ADD MSTORE PUSH1 0x16 PUSH1 0x24 DUP3 ADD MSTORE PUSH22 0x5374616B65206D75737420626520706F736974697665 PUSH1 0x50 SHL PUSH1 0x44 DUP3 ADD MSTORE PUSH1 0x64 SWAP1 REVERT JUMPDEST PUSH1 0x40 MLOAD PUSH3 0x461BCD PUSH1 0xE5 SHL DUP2 MSTORE PUSH1 0x20 PUSH1 0x4 DUP3 ADD MSTORE PUSH1 0xA PUSH1 0x24 DUP3 ADD MSTORE PUSH10 0x141BDBDB08195B991959 PUSH1 0xB2 SHL PUSH1 0x44 DUP3 ADD MSTORE PUSH1 0x64 SWAP1 REVERT JUMPDEST PUSH3 0x461BCD PUSH1 0xE5 SHL DUP2 MSTORE PUSH1 0x20 PUSH1 0x4 DUP3 ADD MSTORE PUSH1 0xB PUSH1 0x24 DUP3 ADD MSTORE PUSH11 0x141BDBDB0818DB1BDCD959 PUSH1 0xAA SHL PUSH1 0x44 DUP3 ADD MSTORE PUSH1 0x64 SWAP1 REVERT JUMPDEST PUSH4 0x3EE5AEB5 PUSH1 0xE0 SHL PUSH1 0x0 MSTORE PUSH1 0x4 PUSH1 0x0 REVERT JUMPDEST PUSH1 0x4 CALLDATALOAD SWAP1 DUP2 ISZERO ISZERO DUP3 SUB PUSH2 0x12F JUMPI JUMP JUMPDEST PUSH1 0xC SLOAD DUP2 LT ISZERO PUSH2 0x923 JUMPI PUSH1 0xC PUSH1 0x0 MSTORE PUSH1 0x20 PUSH1 0x0 KECCAK256 ADD SWAP1 PUSH1 0x0 SWAP1 JUMP JUMPDEST PUSH4 0x4E487B71 PUSH1 0xE0 SHL PUSH1 0x0 MSTORE PUSH1 0x32 PUSH1 0x4 MSTORE PUSH1 0x24 PUSH1 0x0 REVERT JUMPDEST SWAP1 PUSH1 0x1F DUP1 NOT SWAP2 ADD AND DUP2 ADD SWAP1 DUP2 LT PUSH8 0xFFFFFFFFFFFFFFFF DUP3 GT OR PUSH2 0x76D JUMPI PUSH1 0x40 MSTORE JUMP JUMPDEST SWAP1 DUP2 PUSH1 0x20 SWAP2 SUB SLT PUSH2 0x12F JUMPI MLOAD DUP1 ISZERO ISZERO DUP2 SUB PUSH2 0x12F JUMPI SWAP1 JUMP JUMPDEST SWAP2 SWAP1 DUP3 ADD DUP1 SWAP3 GT PUSH2 0x783 JUMPI JUMP JUMPDEST SWAP2 SWAP1 DUP3 SUB SWAP2 DUP3 GT PUSH2 0x783 JUMPI JUMP JUMPDEST PUSH1 0x0 SLOAD PUSH1 0x1 PUSH1 0x1 PUSH1 0xA0 SHL SUB AND CALLER SUB PUSH2 0x9A1 JUMPI JUMP JUMPDEST PUSH4 0x118CDAA7 PUSH1 0xE0 SHL PUSH1 0x0 MSTORE CALLER PUSH1 0x4 MSTORE PUSH1 0x24 PUSH1 0x0 REVERT JUMPDEST PUSH1 0x5 SLOAD PUSH1 0xFF DUP2 AND PUSH2 0xE6C JUMPI PUSH1 0xFF NOT AND PUSH1 0x1 OR PUSH1 0x5 SSTORE PUSH1 0x8 SLOAD PUSH1 0x9 SLOAD LT ISZERO PUSH2 0xC6E JUMPI PUSH1 0x1 PUSH1 0xFF NOT PUSH1 0xA SLOAD AND OR PUSH1 0xA SSTORE PUSH1 0x8 SLOAD SWAP1 PUSH1 0x0 SWAP2 PUSH1 0x0 PUSH1 0xC SLOAD SWAP1 JUMPDEST DUP2 DUP2 LT PUSH2 0xBD4 JUMPI POP POP PUSH1 0x0 JUMPDEST PUSH1 0xC SLOAD DUP2 LT ISZERO PUSH2 0xB87 JUMPI PUSH2 0xA11 DUP2 PUSH2 0x908 JUMP JUMPDEST PUSH1 0x1 DUP1 PUSH1 0xA0 SHL SUB SWAP2 SLOAD SWAP1 PUSH1 0x3 SHL SHR AND SWAP1 DUP2 PUSH1 0x0 MSTORE PUSH1 0x7 PUSH1 0x20 MSTORE PUSH1 0x40 PUSH1 0x0 KECCAK256 SLOAD PUSH2 0xA3F JUMPI JUMPDEST PUSH1 0x1 SWAP2 POP ADD PUSH2 0x9FE JUMP JUMPDEST DUP2 PUSH1 0x0 MSTORE PUSH1 0x6 PUSH1 0x20 MSTORE PUSH1 0xFF PUSH1 0x40 PUSH1 0x0 KECCAK256 SLOAD AND SWAP2 DUP1 PUSH1 0x0 MSTORE PUSH1 0x7 PUSH1 0x20 MSTORE PUSH1 0x1 PUSH1 0x40 PUSH1 0x0 KECCAK256 SLOAD SWAP4 ISZERO ISZERO EQ PUSH1 0x0 EQ PUSH2 0xB18 JUMPI PUSH1 0x20 PUSH2 0xAD1 DUP5 PUSH2 0xA9E PUSH2 0xA8C DUP9 PUSH2 0xA87 DUP13 PUSH1 0x0 SWAP11 PUSH2 0xEA2 JUMP JUMPDEST PUSH2 0xEB5 JUMP JUMPDEST PUSH1 0x2 SLOAD PUSH1 0x1 PUSH1 0x1 PUSH1 0xA0 SHL SUB AND SWAP3 PUSH2 0x973 JUMP JUMPDEST PUSH1 0x40 MLOAD PUSH4 0xA9059CBB PUSH1 0xE0 SHL DUP2 MSTORE PUSH1 0x1 PUSH1 0x1 PUSH1 0xA0 SHL SUB DUP7 AND PUSH1 0x4 DUP3 ADD MSTORE PUSH1 0x24 DUP2 ADD SWAP2 SWAP1 SWAP2 MSTORE SWAP6 DUP7 SWAP3 DUP4 SWAP2 SWAP1 DUP3 SWAP1 PUSH1 0x44 DUP3 ADD SWAP1 JUMP JUMPDEST SUB SWAP3 GAS CALL SWAP3 DUP4 ISZERO PUSH2 0x7C6 JUMPI PUSH1 0x1 SWAP4 PUSH2 0xAFA JUMPI JUMPDEST POP JUMPDEST PUSH1 0x0 MSTORE PUSH1 0x7 PUSH1 0x20 MSTORE PUSH1 0x0 PUSH1 0x40 DUP2 KECCAK256 SSTORE PUSH2 0xA35 JUMP JUMPDEST PUSH2 0xB11 SWAP1 PUSH1 0x20 RETURNDATASIZE DUP2 GT PUSH2 0x7BF JUMPI PUSH2 0x7B2 DUP2 DUP4 PUSH2 0x939 JUMP JUMPDEST POP CODESIZE PUSH2 0xAE4 JUMP JUMPDEST PUSH1 0x64 DUP4 MUL DUP4 DUP2 DIV PUSH1 0x64 EQ DUP5 ISZERO OR ISZERO PUSH2 0x783 JUMPI PUSH1 0x2 SLOAD PUSH1 0x0 SWAP5 PUSH1 0x20 SWAP3 PUSH2 0xB50 SWAP3 PUSH1 0x1 PUSH1 0x1 PUSH1 0xA0 SHL SUB AND SWAP2 PUSH2 0xA9E SWAP2 PUSH2 0x2710 SWAP1 DIV SWAP1 PUSH2 0x980 JUMP JUMPDEST SUB SWAP3 GAS CALL SWAP3 DUP4 ISZERO PUSH2 0x7C6 JUMPI PUSH1 0x1 SWAP4 PUSH2 0xB69 JUMPI JUMPDEST POP PUSH2 0xAE6 JUMP JUMPDEST PUSH2 0xB80 SWAP1 PUSH1 0x20 RETURNDATASIZE DUP2 GT PUSH2 0x7BF JUMPI PUSH2 0x7B2 DUP2 DUP4 PUSH2 0x939 JUMP JUMPDEST POP CODESIZE PUSH2 0xB63 JUMP JUMPDEST POP POP SWAP1 POP JUMPDEST PUSH1 0x3 SLOAD PUSH32 0x1FAC53A191157C168930E8243C9EF26BFEB54D57359284FF5E216A65CD227804 PUSH1 0x60 PUSH1 0xFF PUSH1 0xA SLOAD AND PUSH1 0x8 SLOAD PUSH1 0x9 SLOAD SWAP1 PUSH1 0x40 MLOAD SWAP3 ISZERO ISZERO DUP4 MSTORE PUSH1 0x20 DUP4 ADD MSTORE PUSH1 0x40 DUP3 ADD MSTORE LOG2 JUMP JUMPDEST PUSH2 0xBDD DUP2 PUSH2 0x908 JUMP JUMPDEST SWAP1 SLOAD PUSH1 0x3 SWAP2 SWAP1 SWAP2 SHL SHR PUSH1 0x1 PUSH1 0x1 PUSH1 0xA0 SHL SUB AND PUSH1 0x0 DUP2 DUP2 MSTORE PUSH1 0x7 PUSH1 0x20 MSTORE PUSH1 0x40 SWAP1 KECCAK256 SLOAD ISZERO ISZERO DUP1 PUSH2 0xC50 JUMPI JUMPDEST PUSH2 0xC14 JUMPI JUMPDEST POP PUSH1 0x1 ADD PUSH2 0x9F2 JUMP JUMPDEST PUSH1 0x0 SWAP6 SWAP2 SWAP6 MSTORE PUSH1 0x7 PUSH1 0x20 MSTORE PUSH1 0x40 PUSH1 0x0 KECCAK256 SLOAD PUSH1 0x64 DUP2 MUL SWAP1 DUP1 DUP3 DIV PUSH1 0x64 EQ SWAP1 ISZERO OR ISZERO PUSH2 0x783 JUMPI PUSH1 0x1 SWAP2 PUSH2 0x2710 PUSH2 0xC49 SWAP3 DIV SWAP1 PUSH2 0x973 JUMP JUMPDEST SWAP5 SWAP1 PUSH2 0xC0B JUMP JUMPDEST POP DUP1 PUSH1 0x0 MSTORE PUSH1 0x6 PUSH1 0x20 MSTORE PUSH1 0x1 PUSH1 0xFF PUSH1 0x40 PUSH1 0x0 KECCAK256 SLOAD AND ISZERO ISZERO EQ ISZERO PUSH2 0xC06 JUMP JUMPDEST PUSH1 0xFF NOT PUSH1 0xA SLOAD AND PUSH1 0xA SSTORE PUSH1 0x9 SLOAD SWAP1 PUSH1 0x0 SWAP2 PUSH1 0x0 PUSH1 0xC SLOAD SWAP1 JUMPDEST DUP2 DUP2 LT PUSH2 0xDD6 JUMPI POP POP PUSH1 0x0 JUMPDEST PUSH1 0xC SLOAD DUP2 LT ISZERO PUSH2 0xDCD JUMPI PUSH2 0xCA5 DUP2 PUSH2 0x908 JUMP JUMPDEST PUSH1 0x1 DUP1 PUSH1 0xA0 SHL SUB SWAP2 SLOAD SWAP1 PUSH1 0x3 SHL SHR AND SWAP1 DUP2 PUSH1 0x0 MSTORE PUSH1 0x7 PUSH1 0x20 MSTORE PUSH1 0x40 PUSH1 0x0 KECCAK256 SLOAD PUSH2 0xCD3 JUMPI JUMPDEST PUSH1 0x1 SWAP2 POP ADD PUSH2 0xC92 JUMP JUMPDEST DUP2 PUSH1 0x0 MSTORE PUSH1 0x6 PUSH1 0x20 MSTORE PUSH1 0xFF PUSH1 0x40 PUSH1 0x0 KECCAK256 SLOAD AND SWAP2 DUP1 PUSH1 0x0 MSTORE PUSH1 0x7 PUSH1 0x20 MSTORE PUSH1 0x40 PUSH1 0x0 KECCAK256 SLOAD SWAP3 ISZERO PUSH1 0x0 EQ PUSH2 0xD5E JUMPI PUSH1 0x20 PUSH2 0xD17 DUP5 PUSH2 0xA9E PUSH2 0xA8C DUP9 PUSH2 0xA87 DUP13 PUSH1 0x0 SWAP11 PUSH2 0xEA2 JUMP JUMPDEST SUB SWAP3 GAS CALL SWAP3 DUP4 ISZERO PUSH2 0x7C6 JUMPI PUSH1 0x1 SWAP4 PUSH2 0xD40 JUMPI JUMPDEST POP JUMPDEST PUSH1 0x0 MSTORE PUSH1 0x7 PUSH1 0x20 MSTORE PUSH1 0x0 PUSH1 0x40 DUP2 KECCAK256 SSTORE PUSH2 0xCC9 JUMP JUMPDEST PUSH2 0xD57 SWAP1 PUSH1 0x20 RETURNDATASIZE DUP2 GT PUSH2 0x7BF JUMPI PUSH2 0x7B2 DUP2 DUP4 PUSH2 0x939 JUMP JUMPDEST POP CODESIZE PUSH2 0xD2A JUMP JUMPDEST PUSH1 0x64 DUP4 MUL DUP4 DUP2 DIV PUSH1 0x64 EQ DUP5 ISZERO OR ISZERO PUSH2 0x783 JUMPI PUSH1 0x2 SLOAD PUSH1 0x0 SWAP5 PUSH1 0x20 SWAP3 PUSH2 0xD96 SWAP3 PUSH1 0x1 PUSH1 0x1 PUSH1 0xA0 SHL SUB AND SWAP2 PUSH2 0xA9E SWAP2 PUSH2 0x2710 SWAP1 DIV SWAP1 PUSH2 0x980 JUMP JUMPDEST SUB SWAP3 GAS CALL SWAP3 DUP4 ISZERO PUSH2 0x7C6 JUMPI PUSH1 0x1 SWAP4 PUSH2 0xDAF JUMPI JUMPDEST POP PUSH2 0xD2C JUMP JUMPDEST PUSH2 0xDC6 SWAP1 PUSH1 0x20 RETURNDATASIZE DUP2 GT PUSH2 0x7BF JUMPI PUSH2 0x7B2 DUP2 DUP4 PUSH2 0x939 JUMP JUMPDEST POP CODESIZE PUSH2 0xDA9 JUMP JUMPDEST POP POP SWAP1 POP PUSH2 0xB8C JUMP JUMPDEST PUSH2 0xDDF DUP2 PUSH2 0x908 JUMP JUMPDEST SWAP1 SLOAD PUSH1 0x3 SWAP2 SWAP1 SWAP2 SHL SHR PUSH1 0x1 PUSH1 0x1 PUSH1 0xA0 SHL SUB AND PUSH1 0x0 DUP2 DUP2 MSTORE PUSH1 0x7 PUSH1 0x20 MSTORE PUSH1 0x40 SWAP1 KECCAK256 SLOAD ISZERO ISZERO DUP1 PUSH2 0xE52 JUMPI JUMPDEST PUSH2 0xE16 JUMPI JUMPDEST POP PUSH1 0x1 ADD PUSH2 0xC86 JUMP JUMPDEST PUSH1 0x0 SWAP6 SWAP2 SWAP6 MSTORE PUSH1 0x7 PUSH1 0x20 MSTORE PUSH1 0x40 PUSH1 0x0 KECCAK256 SLOAD PUSH1 0x64 DUP2 MUL SWAP1 DUP1 DUP3 DIV PUSH1 0x64 EQ SWAP1 ISZERO OR ISZERO PUSH2 0x783 JUMPI PUSH1 0x1 SWAP2 PUSH2 0x2710 PUSH2 0xE4B SWAP3 DIV SWAP1 PUSH2 0x973 JUMP JUMPDEST SWAP5 SWAP1 PUSH2 0xE0D JUMP JUMPDEST POP DUP1 PUSH1 0x0 MSTORE PUSH1 0x6 PUSH1 0x20 MSTORE PUSH1 0xFF PUSH1 0x40 PUSH1 0x0 KECCAK256 SLOAD AND ISZERO ISZERO PUSH2 0xE08 JUMP JUMPDEST PUSH1 0x40 MLOAD PUSH3 0x461BCD PUSH1 0xE5 SHL DUP2 MSTORE PUSH1 0x20 PUSH1 0x4 DUP3 ADD MSTORE PUSH1 0xE PUSH1 0x24 DUP3 ADD MSTORE PUSH14 0x105B1C9958591E4818DB1BDCD959 PUSH1 0x92 SHL PUSH1 0x44 DUP3 ADD MSTORE PUSH1 0x64 SWAP1 REVERT JUMPDEST DUP2 DUP2 MUL SWAP3 SWAP2 DUP2 ISZERO SWAP2 DUP5 DIV EQ OR ISZERO PUSH2 0x783 JUMPI JUMP JUMPDEST DUP2 ISZERO PUSH2 0xEBF JUMPI DIV SWAP1 JUMP JUMPDEST PUSH4 0x4E487B71 PUSH1 0xE0 SHL PUSH1 0x0 MSTORE PUSH1 0x12 PUSH1 0x4 MSTORE PUSH1 0x24 PUSH1 0x0 REVERT INVALID LOG2 PUSH5 0x6970667358 0x22 SLT KECCAK256 BLOCKHASH XOR 0xEB TLOAD SWAP11 SAR PUSH7 0x50C349C272573 MUL LOG2 0xB6 0xEA 0xF6 PUSH6 0x5B8D901E4268 0xB2 MCOPY BYTE 0xDB 0xD1 0xB6 PUSH5 0x736F6C6343 STOP ADDMOD SHR STOP CALLER "},"methodIdentifiers":{"castVote(bool,uint256,uint8)":"0508d2f3","closeAndDistribute()":"936cbcbe","closed()":"597e1fb5","easilyVerifiable()":"7ad24fe2","endTime()":"3197cbb6","finalConsensus()":"c7473670","getPoolStatus()":"7f79496c","hasParticipated(address)":"b4fb3ee3","newsHash()":"168299f3","owner()":"8da5cb5b","participants(uint256)":"35c1d349","renounceOwnership()":"715018a6","setEasilyVerifiable(bool)":"9dbe0a89","stakesInPool(address)":"1a411f4f","token()":"fc0c546a","totalDiscountStake()":"0de519b4","totalVerifyStake()":"c610ab77","totalVotes()":"0d15fd77","transferOwnership(address)":"f2fde38b","updateEndTime(uint256)":"6ab3846b","votes(address)":"d8bff5a5"}}}}}