{"contracts/TruthForgeToken.sol":{"VerifyToken":{"abi":[{"inputs":[{"internalType":"address","name":"initialOwner","type":"address"}],"stateMutability":"nonpayable","type":"constructor"},{"inputs":[{"internalType":"address","name":"spender","type":"address"},{"internalType":"uint256","name":"allowance","type":"uint256"},{"internalType":"uint256","name":"needed","type":"uint256"}],"name":"ERC20InsufficientAllowance","type":"error"},{"inputs":[{"internalType":"address","name":"sender","type":"address"},{"internalType":"uint256","name":"balance","type":"uint256"},{"internalType":"uint256","name":"needed","type":"uint256"}],"name":"ERC20InsufficientBalance","type":"error"},{"inputs":[{"internalType":"address","name":"approver","type":"address"}],"name":"ERC20InvalidApprover","type":"error"},{"inputs":[{"internalType":"address","name":"receiver","type":"address"}],"name":"ERC20InvalidReceiver","type":"error"},{"inputs":[{"internalType":"address","name":"sender","type":"address"}],"name":"ERC20InvalidSender","type":"error"},{"inputs":[{"internalType":"address","name":"spender","type":"address"}],"name":"ERC20InvalidSpender","type":"error"},{"inputs":[],"name":"EnforcedPause","type":"error"},{"inputs":[],"name":"ExpectedPause","type":"error"},{"inputs":[{"internalType":"address","name":"owner","type":"address"}],"name":"OwnableInvalidOwner","type":"error"},{"inputs":[{"internalType":"address","name":"account","type":"address"}],"name":"OwnableUnauthorizedAccount","type":"error"},{"inputs":[],"name":"ReentrancyGuardReentrantCall","type":"error"},{"anonymous":false,"inputs":[{"indexed":true,"internalType":"address","name":"owner","type":"address"},{"indexed":true,"internalType":"address","name":"spender","type":"address"},{"indexed":false,"internalType":"uint256","name":"value","type":"uint256"}],"name":"Approval","type":"event"},{"anonymous":false,"inputs":[{"indexed":true,"internalType":"address","name":"from","type":"address"},{"indexed":false,"internalType":"uint256","name":"amount","type":"uint256"}],"name":"BurnedOnTransfer","type":"event"},{"anonymous":false,"inputs":[{"indexed":true,"internalType":"address","name":"previousOwner","type":"address"},{"indexed":true,"internalType":"address","name":"newOwner","type":"address"}],"name":"OwnershipTransferred","type":"event"},{"anonymous":false,"inputs":[{"indexed":false,"internalType":"address","name":"account","type":"address"}],"name":"Paused","type":"event"},{"anonymous":false,"inputs":[{"indexed":true,"internalType":"address","name":"verifier","type":"address"},{"indexed":true,"internalType":"bytes32","name":"proofHash","type":"bytes32"},{"indexed":false,"internalType":"uint256","name":"reward","type":"uint256"}],"name":"ProofVerified","type":"event"},{"anonymous":false,"inputs":[{"indexed":true,"internalType":"address","name":"staker","type":"address"},{"indexed":false,"internalType":"uint256","name":"reward","type":"uint256"}],"name":"StakingRewardsClaimed","type":"event"},{"anonymous":false,"inputs":[{"indexed":true,"internalType":"address","name":"staker","type":"address"},{"indexed":false,"internalType":"uint256","name":"amount","type":"uint256"},{"indexed":false,"internalType":"uint8","name":"degree","type":"uint8"}],"name":"TokensStaked","type":"event"},{"anonymous":false,"inputs":[{"indexed":true,"internalType":"address","name":"staker","type":"address"},{"indexed":false,"internalType":"uint256","name":"amount","type":"uint256"},{"indexed":false,"internalType":"uint256","name":"reward","type":"uint256"}],"name":"TokensUnstaked","type":"event"},{"anonymous":false,"inputs":[{"indexed":true,"internalType":"address","name":"from","type":"address"},{"indexed":true,"internalType":"address","name":"to","type":"address"},{"indexed":false,"internalType":"uint256","name":"value","type":"uint256"}],"name":"Transfer","type":"event"},{"anonymous":false,"inputs":[{"indexed":false,"internalType":"address","name":"account","type":"address"}],"name":"Unpaused","type":"event"},{"inputs":[],"name":"EMERGENCY_TIMELOCK","outputs":[{"internalType":"uint256","name":"","type":"uint256"}],"stateMutability":"view","type":"function"},{"inputs":[],"name":"TOTAL_SUPPLY_CAP","outputs":[{"internalType":"uint256","name":"","type":"uint256"}],"stateMutability":"view","type":"function"},{"inputs":[{"internalType":"address","name":"owner","type":"address"},{"internalType":"address","name":"spender","type":"address"}],"name":"allowance","outputs":[{"internalType":"uint256","name":"","type":"uint256"}],"stateMutability":"view","type":"function"},{"inputs":[{"internalType":"address","name":"spender","type":"address"},{"internalType":"uint256","name":"value","type":"uint256"}],"name":"approve","outputs":[{"internalType":"bool","name":"","type":"bool"}],"stateMutability":"nonpayable","type":"function"},{"inputs":[{"internalType":"address","name":"account","type":"address"}],"name":"balanceOf","outputs":[{"internalType":"uint256","name":"","type":"uint256"}],"stateMutability":"view","type":"function"},{"inputs":[{"internalType":"uint256","name":"value","type":"uint256"}],"name":"burn","outputs":[],"stateMutability":"nonpayable","type":"function"},{"inputs":[{"internalType":"address","name":"account","type":"address"},{"internalType":"uint256","name":"value","type":"uint256"}],"name":"burnFrom","outputs":[],"stateMutability":"nonpayable","type":"function"},{"inputs":[{"internalType":"address","name":"_staker","type":"address"}],"name":"calculateStakingReward","outputs":[{"internalType":"uint256","name":"","type":"uint256"}],"stateMutability":"view","type":"function"},{"inputs":[],"name":"claimStakingRewards","outputs":[],"stateMutability":"nonpayable","type":"function"},{"inputs":[],"name":"decimals","outputs":[{"internalType":"uint8","name":"","type":"uint8"}],"stateMutability":"view","type":"function"},{"inputs":[],"name":"deflationBurnRate","outputs":[{"internalType":"uint256","name":"","type":"uint256"}],"stateMutability":"view","type":"function"},{"inputs":[],"name":"distributedRewards","outputs":[{"internalType":"uint256","name":"","type":"uint256"}],"stateMutability":"view","type":"function"},{"inputs":[],"name":"emergencyWithdrawTimestamp","outputs":[{"internalType":"uint256","name":"","type":"uint256"}],"stateMutability":"view","type":"function"},{"inputs":[{"internalType":"address","name":"_token","type":"address"},{"internalType":"uint256","name":"_amount","type":"uint256"}],"name":"executeEmergencyWithdraw","outputs":[],"stateMutability":"nonpayable","type":"function"},{"inputs":[{"internalType":"address","name":"_staker","type":"address"}],"name":"getStakeInfo","outputs":[{"internalType":"uint256","name":"amount","type":"uint256"},{"internalType":"uint256","name":"startTime","type":"uint256"},{"internalType":"uint256","name":"pendingReward","type":"uint256"},{"internalType":"bool","name":"active","type":"bool"},{"internalType":"uint8","name":"degree","type":"uint8"}],"stateMutability":"view","type":"function"},{"inputs":[{"internalType":"address","name":"_token","type":"address"},{"internalType":"uint256","name":"_amount","type":"uint256"}],"name":"initiateEmergencyWithdraw","outputs":[],"stateMutability":"nonpayable","type":"function"},{"inputs":[],"name":"maxRewardPool","outputs":[{"internalType":"uint256","name":"","type":"uint256"}],"stateMutability":"view","type":"function"},{"inputs":[],"name":"minimumStakePeriod","outputs":[{"internalType":"uint256","name":"","type":"uint256"}],"stateMutability":"view","type":"function"},{"inputs":[],"name":"mintedSupply","outputs":[{"internalType":"uint256","name":"","type":"uint256"}],"stateMutability":"view","type":"function"},{"inputs":[],"name":"name","outputs":[{"internalType":"string","name":"","type":"string"}],"stateMutability":"view","type":"function"},{"inputs":[],"name":"owner","outputs":[{"internalType":"address","name":"","type":"address"}],"stateMutability":"view","type":"function"},{"inputs":[],"name":"pause","outputs":[],"stateMutability":"nonpayable","type":"function"},{"inputs":[],"name":"paused","outputs":[{"internalType":"bool","name":"","type":"bool"}],"stateMutability":"view","type":"function"},{"inputs":[],"name":"renounceOwnership","outputs":[],"stateMutability":"nonpayable","type":"function"},{"inputs":[{"internalType":"uint256","name":"_newRate","type":"uint256"}],"name":"setDeflationBurnRate","outputs":[],"stateMutability":"nonpayable","type":"function"},{"inputs":[{"internalType":"uint256","name":"_newPeriod","type":"uint256"}],"name":"setMinimumStakePeriod","outputs":[],"stateMutability":"nonpayable","type":"function"},{"inputs":[{"internalType":"uint256","name":"_newRate","type":"uint256"}],"name":"setStakingRewardRate","outputs":[],"stateMutability":"nonpayable","type":"function"},{"inputs":[{"internalType":"uint256","name":"_newReward","type":"uint256"}],"name":"setVerificationReward","outputs":[],"stateMutability":"nonpayable","type":"function"},{"inputs":[{"internalType":"uint256","name":"_amount","type":"uint256"},{"internalType":"uint8","name":"_degree","type":"uint8"}],"name":"stake","outputs":[],"stateMutability":"nonpayable","type":"function"},{"inputs":[{"internalType":"address","name":"","type":"address"}],"name":"stakes","outputs":[{"internalType":"uint256","name":"amount","type":"uint256"},{"internalType":"uint256","name":"startTime","type":"uint256"},{"internalType":"uint256","name":"lastRewardTime","type":"uint256"},{"internalType":"bool","name":"active","type":"bool"},{"internalType":"uint8","name":"proximityDegree","type":"uint8"}],"stateMutability":"view","type":"function"},{"inputs":[],"name":"stakingRewardRate","outputs":[{"internalType":"uint256","name":"","type":"uint256"}],"stateMutability":"view","type":"function"},{"inputs":[{"internalType":"address","name":"","type":"address"}],"name":"stakingRewards","outputs":[{"internalType":"uint256","name":"","type":"uint256"}],"stateMutability":"view","type":"function"},{"inputs":[],"name":"symbol","outputs":[{"internalType":"string","name":"","type":"string"}],"stateMutability":"view","type":"function"},{"inputs":[],"name":"totalStaked","outputs":[{"internalType":"uint256","name":"","type":"uint256"}],"stateMutability":"view","type":"function"},{"inputs":[],"name":"totalSupply","outputs":[{"internalType":"uint256","name":"","type":"uint256"}],"stateMutability":"view","type":"function"},{"inputs":[{"internalType":"address","name":"to","type":"address"},{"internalType":"uint256","name":"value","type":"uint256"}],"name":"transfer","outputs":[{"internalType":"bool","name":"","type":"bool"}],"stateMutability":"nonpayable","type":"function"},{"inputs":[{"internalType":"address","name":"from","type":"address"},{"internalType":"address","name":"to","type":"address"},{"internalType":"uint256","name":"value","type":"uint256"}],"name":"transferFrom","outputs":[{"internalType":"bool","name":"","type":"bool"}],"stateMutability":"nonpayable","type":"function"},{"inputs":[{"internalType":"address","name":"newOwner","type":"address"}],"name":"transferOwnership","outputs":[],"stateMutability":"nonpayable","type":"function"},{"inputs":[],"name":"unpause","outputs":[],"stateMutability":"nonpayable","type":"function"},{"inputs":[],"name":"unstake","outputs":[],"stateMutability":"nonpayable","type":"function"},{"inputs":[],"name":"verificationRewardAmount","outputs":[{"internalType":"uint256","name":"","type":"uint256"}],"stateMutability":"view","type":"function"},{"inputs":[{"internalType":"address","name":"","type":"address"}],"name":"verificationRewards","outputs":[{"internalType":"uint256","name":"","type":"uint256"}],"stateMutability":"view","type":"function"},{"inputs":[{"internalType":"bytes32","name":"","type":"bytes32"}],"name":"verifiedProofs","outputs":[{"internalType":"bool","name":"","type":"bool"}],"stateMutability":"view","type":"function"},{"inputs":[{"internalType":"bytes32","name":"_proofHash","type":"bytes32"},{"internalType":"address","name":"_verifier","type":"address"}],"name":"verifyProofAndReward","outputs":[],"stateMutability":"nonpayable","type":"function"},{"stateMutability":"payable","type":"receive"}],"evm":{"bytecode":{"linkReferences":{},"object":"6080604052346104ab57611e0b6020813803918261001c816104b0565b9384928339810103126104ab57516001600160a01b038116908181036104ab5761004660406104b0565b91600683526556657269667960d01b602084015261006460406104b0565b600681526556455249465960d01b602082015283519092906001600160401b0381116103b457600354600181811c911680156104a1575b602082101461039457601f811161043c575b50602094601f82116001146103d5579481929394956000926103ca575b50508160011b916000199060031b1c1916176003555b82516001600160401b0381116103b457600454600181811c911680156103aa575b602082101461039457601f811161032f575b506020601f82116001146102c857819293946000926102bd575b50508160011b916000199060031b1c1916176004555b81156102a75760058054610100600160a81b03198116600893841b610100600160a81b03161790915590829082901c6001600160a01b03167f8be0079c531659141344cd1fd0a4f28419497f9722a3daafe3b4186f6b6457e0600080a360016006556064600a5562278d00600b556000600c556032600d5568056bc75e2d631000006010556b204fce5e3e25026110000000601155600060125560006013556c01431e0fae6d7217caa000000060075560ff60009116610298576002546c01431e0fae6d7217caa00000008101809111610284576002555080600052600060205260406000206c01431e0fae6d7217caa0000000815401905560007fddf252ad1be2c89b69c2b068fc378daa952ba7f163c4a11628f55a4df523b3ef60206040516c01431e0fae6d7217caa00000008152a360405161193590816104d68239f35b634e487b7160e01b82526011600452602482fd5b63d93c066560e01b8152600490fd5b631e4fbdf760e01b600052600060045260246000fd5b01519050388061012d565b601f198216906004600052806000209160005b818110610317575095836001959697106102fe575b505050811b01600455610143565b015160001960f88460031b161c191690553880806102f0565b9192602060018192868b0151815501940192016102db565b60046000527f8a35acfbc15ff81a39ae7d344fd709f28e8600b4aa8c65c6b64bfe7fe36bd19b601f830160051c8101916020841061038a575b601f0160051c01905b81811061037e5750610113565b60008155600101610371565b9091508190610368565b634e487b7160e01b600052602260045260246000fd5b90607f1690610101565b634e487b7160e01b600052604160045260246000fd5b0151905038806100ca565b601f198216956003600052806000209160005b8881106104245750836001959697981061040b575b505050811b016003556100e0565b015160001960f88460031b161c191690553880806103fd565b919260206001819286850151815501940192016103e8565b60036000527fc2575a0e9e593c00f959f8c92f12db2869c3395a3b0502d05e2516446f71f85b601f830160051c81019160208410610497575b601f0160051c01905b81811061048b57506100ad565b6000815560010161047e565b9091508190610475565b90607f169061009b565b600080fd5b6040519190601f01601f191682016001600160401b038111838210176103b45760405256fe608080604052600436101561001d575b50361561001b57600080fd5b005b60003560e01c908163046dfb20146113ad57508063069260d61461138f57806306fdde03146112d0578063095ea7b31461121e5780630d505541146111f357806310087fb114610fcd578063118bdb2e14610f6e57806316934fc414610f02578063176d80c414610ed157806318160ddd14610eb357806323383e8a14610e9557806323b872dd14610e5d5780632def662014610c9d5780632f89695a14610c53578063313ce56714610c3757806331ce8ee114610c165780633766d94e14610aea5780633f4ba83a14610a8157806342966c6814610a645780634893135214610a3c578063499d7f9614610a025780634f0788941461080b5780634f3fc2df146107ed5780635c975abb146107ca57806360d7442b146107ac5780636a08a86e1461078e5780636b69e05b146107745780636e902e311461075357806370a0823114610719578063715018a6146106b857806379cc679014610688578063817b1cd21461066a5780638456cb59146106105780638da5cb5b146105e357806395d89b41146104df578063a9059cbb146104ae578063b7d6851914610452578063c1bd8cf914610434578063c345315314610377578063c7e4aa3c14610359578063dd62ed3e14610308578063f2fde38b1461026b578063f3e14f1e1461024d5763f574a1d61461020e573861000f565b34610248576020366003190112610248576001600160a01b0361022f611411565b16600052600e6020526020604060002054604051908152f35b600080fd5b34610248576000366003190112610248576020601254604051908152f35b3461024857602036600319011261024857610284611411565b61028c6117a5565b6001600160a01b0381169081156102f25760058054610100600160a81b03198116600893841b610100600160a81b031617909155901c6001600160a01b03167f8be0079c531659141344cd1fd0a4f28419497f9722a3daafe3b4186f6b6457e0600080a3005b631e4fbdf760e01b600052600060045260246000fd5b3461024857604036600319011261024857610321611411565b610329611427565b6001600160a01b039182166000908152600160209081526040808320949093168252928352819020549051908152f35b34610248576000366003190112610248576020601154604051908152f35b3461024857602036600319011261024857610390611411565b60018060a01b03811660005260086020526040600020906104306040516103b68161143d565b83549283825260ff6103f8600360018801549788602087015260028101546040870152015492826080606087019682871615158852019460081c16845261149b565b9251151591511691604051958695869360809360ff939796929760a08701988752602087015260408601521515606085015216910152565b0390f35b34610248576000366003190112610248576020600754604051908152f35b346102485760203660031901126102485760043561046e6117a5565b6103e8811161047c57600a55005b60405162461bcd60e51b815260206004820152600a60248201526952617465203c3d31302560b01b6044820152606490fd5b34610248576040366003190112610248576104d46104ca611411565b60243590336116ee565b602060405160018152f35b346102485760003660031901126102485760405160006004548060011c906001811680156105d9575b6020831081146105c5578285529081156105a15750600114610541575b6104308361053581850382611459565b604051918291826113c8565b91905060046000527f8a35acfbc15ff81a39ae7d344fd709f28e8600b4aa8c65c6b64bfe7fe36bd19b916000905b80821061058757509091508101602001610535610525565b91926001816020925483858801015201910190929161056f565b60ff191660208086019190915291151560051b840190910191506105359050610525565b634e487b7160e01b84526022600452602484fd5b91607f1691610508565b346102485760003660031901126102485760055460405160089190911c6001600160a01b03168152602090f35b34610248576000366003190112610248576106296117a5565b6106316118e2565b600160ff1960055416176005557f62e78cea01bee320cd4e420270b5ea74000d11b0c9f74754ebdbfc544b05a2586020604051338152a1005b34610248576000366003190112610248576020600c54604051908152f35b346102485760403660031901126102485761001b6106a4611411565b602435906106b38233836117d1565b61164f565b34610248576000366003190112610248576106d16117a5565b60058054610100600160a81b0319811690915560009060081c6001600160a01b03167f8be0079c531659141344cd1fd0a4f28419497f9722a3daafe3b4186f6b6457e08280a3005b34610248576020366003190112610248576001600160a01b0361073a611411565b1660005260006020526020604060002054604051908152f35b346102485760203660031901126102485761076c6117a5565b600435601055005b346102485760003660031901126102485761001b336115b3565b34610248576000366003190112610248576020601054604051908152f35b34610248576000366003190112610248576020604051620151808152f35b3461024857600036600319011261024857602060ff600554166040519015158152f35b34610248576000366003190112610248576020600a54604051908152f35b3461024857604036600319011261024857610824611411565b602435906108306117a5565b6013548042106109ca57156109855760006013556001600160a01b031680610905575060055460009182918291829160081c6001600160a01b03165af13d15610900573d67ffffffffffffffff81116108ea576040519061089b601f8201601f191660200183611459565b8152600060203d92013e5b156108ad57005b60405162461bcd60e51b8152602060048201526015602482015274115512081dda5d1a191c985dd85b0819985a5b1959605a1b6044820152606490fd5b634e487b7160e01b600052604160045260246000fd5b6108a6565b90602090604460018060a01b0360055460081c166000604051958694859363a9059cbb60e01b8552600485015260248401525af180156109795761094557005b6020813d602011610971575b8161095e60209383611459565b8101031261024857518015150361024857005b3d9150610951565b6040513d6000823e3d90fd5b60405162461bcd60e51b815260206004820152601760248201527f4e6f207769746864726177616c20696e697469617465640000000000000000006044820152606490fd5b60405162461bcd60e51b815260206004820152601060248201526f151a5b595b1bd8dac81b9bdd081b595d60821b6044820152606490fd5b34610248576020366003190112610248576001600160a01b03610a23611411565b1660005260096020526020604060002054604051908152f35b346102485760003660031901126102485760206040516c01431e0fae6d7217caa00000008152f35b346102485760203660031901126102485761001b6004353361164f565b3461024857600036600319011261024857610a9a6117a5565b60055460ff811615610ad95760ff19166005557f5db9ee0a495bf2e6ff9c91a7834c1ba4fdd244a5e8aa4e537bd38aeae4b073aa6020604051338152a1005b638dfc202b60e01b60005260046000fd5b3461024857604036600319011261024857600435610b06611427565b81600052600f60205260ff60406000205416610bd8576001600160a01b038116908115610ba057610b719083600052600f6020526040600020600160ff1982541617905560105483600052600e602052610b666040600020918254611562565b90556010549061187c565b7f153b480344bae969ac0b89735efbb1b52d9806699539a49ce9780bdb6e903b8e6020601054604051908152a3005b60405162461bcd60e51b815260206004820152601060248201526f24b73b30b634b2103b32b934b334b2b960811b6044820152606490fd5b60405162461bcd60e51b8152602060048201526016602482015275141c9bdbd988185b1c9958591e481d995c9a599a595960521b6044820152606490fd5b3461024857602036600319011261024857610c2f6117a5565b600435600b55005b3461024857600036600319011261024857602060405160128152f35b3461024857604036600319011261024857610c6c611411565b50610c756117a5565b620151804201804211610c8757601355005b634e487b7160e01b600052601160045260246000fd5b3461024857600036600319011261024857600260065414610e4c5760026006553360005260086020526040600020600381019081549160ff831615610e1557610ced6001830154600b5490611562565b4210610dd7578154926000610d013361149b565b935560ff19169055610d1582600c5461147b565b600c55306000526000602052604060002054828110600014610dcd57610d3d905b33306116ee565b80610d7b575b60405191825260208201527f6f2d3e000c89d37446b7c0374c0125068ff316d1e3ee302336478a8cd03c233660403392a26001600655005b610d94610d8a82601254611562565b601154101561156f565b610d9e813361187c565b610daa81601254611562565b6012553360005260096020526040600020610dc6828254611562565b9055610d43565b50610d3d82610d36565b60405162461bcd60e51b8152602060048201526016602482015275135a5b9a5b5d5b481c195c9a5bd9081b9bdd081b595d60521b6044820152606490fd5b60405162461bcd60e51b815260206004820152600f60248201526e4e6f20616374697665207374616b6560881b6044820152606490fd5b633ee5aeb560e01b60005260046000fd5b34610248576060366003190112610248576104d4610e79611411565b610e81611427565b60443591610e908333836117d1565b6116ee565b34610248576000366003190112610248576020601354604051908152f35b34610248576000366003190112610248576020600254604051908152f35b3461024857602036600319011261024857600435600052600f602052602060ff604060002054166040519015158152f35b34610248576020366003190112610248576001600160a01b03610f23611411565b166000908152600860208181526040928390208054600182015460028301546003909301548651928352938201529384015260ff80821615156060850152911c16608082015260a090f35b3461024857602036600319011261024857600435610f8a6117a5565b60648111610f9757600d55005b60405162461bcd60e51b815260206004820152600e60248201526d4275726e2072617465203c3d312560901b6044820152606490fd5b34610248576040366003190112610248576004356024359060ff8216918281036102485781156111ae57336000526000602052816040600020541061117257600183101580611167575b15611122573360005260086020526040600020906003820191825460ff81166000146111115750611047336115b3565b611052848254611562565b81555b42600182015560024291015561ff0082549160081b169061ff00191617905561108081600c54611562565b600c55612710611092600d5483611488565b049161109e833361164f565b6110b26110ab848461147b565b30336116ee565b60405191825260208201527fcd5e49a9dcd3427319023a86e83211e54b18d051f731d165337e8e164feb703d60403392a26040519081527fdc48698cfe7350ca4bbe196c89eecb267e34cc9b1fc748eab7f33fe73d7a550c60203392a2005b84825560ff19166001178355611055565b60405162461bcd60e51b815260206004820152601860248201527f496e76616c69642070726f78696d6974792064656772656500000000000000006044820152606490fd5b506003831115611017565b60405162461bcd60e51b8152602060048201526014602482015273496e73756666696369656e742062616c616e636560601b6044820152606490fd5b60405162461bcd60e51b815260206004820152601760248201527f416d6f756e74206d75737420626520706f7369746976650000000000000000006044820152606490fd5b34610248576020366003190112610248576020611216611211611411565b61149b565b604051908152f35b3461024857604036600319011261024857611237611411565b6024359033156112ba576001600160a01b03169081156112a457336000526001602052604060002082600052602052806040600020556040519081527f8c5be1e5ebec7d5bd14f71427d1e84f3dd0314c0f7b2291e5b200ac8c7c3b92560203392a3602060405160018152f35b634a1406b160e11b600052600060045260246000fd5b63e602df0560e01b600052600060045260246000fd5b346102485760003660031901126102485760405160006003548060011c90600181168015611385575b6020831081146105c5578285529081156105a15750600114611325576104308361053581850382611459565b91905060036000527fc2575a0e9e593c00f959f8c92f12db2869c3395a3b0502d05e2516446f71f85b916000905b80821061136b57509091508101602001610535610525565b919260018160209254838588010152019101909291611353565b91607f16916112f9565b34610248576000366003190112610248576020600d54604051908152f35b3461024857600036600319011261024857602090600b548152f35b91909160208152825180602083015260005b8181106113fb575060409293506000838284010152601f8019910116010190565b80602080928701015160408286010152016113da565b600435906001600160a01b038216820361024857565b602435906001600160a01b038216820361024857565b60a0810190811067ffffffffffffffff8211176108ea57604052565b90601f8019910116810190811067ffffffffffffffff8211176108ea57604052565b91908203918211610c8757565b81810292918115918404141715610c8757565b60018060a01b031660005260086020526040600020604051906114bd8261143d565b80549081835260018101546020840152600360028201549182604086015201549160ff8316159081159182606087015260ff608087019560081c16855291611559575b506115515761271061152261151760ff934261147b565b9451600a5490611488565b049151166004039160ff8311610c875761154861154d9260ff6301e13380951690611488565b611488565b0490565b505050600090565b90501538611500565b91908201809211610c8757565b1561157657565b60405162461bcd60e51b815260206004820152601560248201527414995dd85c99081c1bdbdb08195e1a185d5cdd1959605a1b6044820152606490fd5b6115bc8161149b565b806115c5575050565b6020816115f8610d8a7fc727c17294ad4f040bec78be22159f993ffb0f22f4dfced8daeafc1ec2608a4c94601254611562565b61161d8160018060a01b0386169586600052600885524260026040600020015561187c565b61162981601254611562565b60125583600052600982526040600020611644828254611562565b9055604051908152a2565b6001600160a01b031680156116d8576116666118e2565b6000918183528260205260408320548181106116bf57817fddf252ad1be2c89b69c2b068fc378daa952ba7f163c4a11628f55a4df523b3ef926020928587528684520360408620558060025403600255604051908152a3565b6064939263391434e360e21b8452600452602452604452fd5b634b637e8f60e11b600052600060045260246000fd5b6001600160a01b03169081156116d8576001600160a01b031691821561178f576117166118e2565b60008281528060205260408120548281106117755791604082827fddf252ad1be2c89b69c2b068fc378daa952ba7f163c4a11628f55a4df523b3ef958760209652828652038282205586815280845220818154019055604051908152a3565b916064928463391434e360e21b8452600452602452604452fd5b63ec442f0560e01b600052600060045260246000fd5b60055460081c6001600160a01b031633036117bc57565b63118cdaa760e01b6000523360045260246000fd5b6001600160a01b03908116600081815260016020908152604080832094861683529390529190912054929190600019841061180d575b50505050565b8284106118575780156112ba576001600160a01b038216156112a457600052600160205260406000209060018060a01b031660005260205260406000209103905538808080611807565b508290637dc7a0d960e11b60005260018060a01b031660045260245260445260646000fd5b6001600160a01b031690811561178f576118946118e2565b6118a081600254611562565b6002557fddf252ad1be2c89b69c2b068fc378daa952ba7f163c4a11628f55a4df523b3ef602060009284845283825260408420818154019055604051908152a3565b60ff600554166118ee57565b63d93c066560e01b60005260046000fdfea264697066735822122002caf4b1fa2d0739e324d3a4105ef0d2abcbfc9df36629dca301e3170cf9559e64736f6c634300081c0033","opcodes":"PUSH1 0x80 PUSH1 0x40 MSTORE CALLVALUE PUSH2 0x4AB JUMPI PUSH2 0x1E0B PUSH1 0x20 DUP2 CODESIZE SUB SWAP2 DUP3 PUSH2 0x1C DUP2 PUSH2 0x4B0 JUMP JUMPDEST SWAP4 DUP5 SWAP3 DUP4 CODECOPY DUP2 ADD SUB SLT PUSH2 0x4AB JUMPI MLOAD PUSH1 0x1 PUSH1 0x1 PUSH1 0xA0 SHL SUB DUP2 AND SWAP1 DUP2 DUP2 SUB PUSH2 0x4AB JUMPI PUSH2 0x46 PUSH1 0x40 PUSH2 0x4B0 JUMP JUMPDEST SWAP2 PUSH1 0x6 DUP4 MSTORE PUSH6 0x566572696679 PUSH1 0xD0 SHL PUSH1 0x20 DUP5 ADD MSTORE PUSH2 0x64 PUSH1 0x40 PUSH2 0x4B0 JUMP JUMPDEST PUSH1 0x6 DUP2 MSTORE PUSH6 0x564552494659 PUSH1 0xD0 SHL PUSH1 0x20 DUP3 ADD MSTORE DUP4 MLOAD SWAP1 SWAP3 SWAP1 PUSH1 0x1 PUSH1 0x1 PUSH1 0x40 SHL SUB DUP2 GT PUSH2 0x3B4 JUMPI PUSH1 0x3 SLOAD PUSH1 0x1 DUP2 DUP2 SHR SWAP2 AND DUP1 ISZERO PUSH2 0x4A1 JUMPI JUMPDEST PUSH1 0x20 DUP3 LT EQ PUSH2 0x394 JUMPI PUSH1 0x1F DUP2 GT PUSH2 0x43C JUMPI JUMPDEST POP PUSH1 0x20 SWAP5 PUSH1 0x1F DUP3 GT PUSH1 0x1 EQ PUSH2 0x3D5 JUMPI SWAP5 DUP2 SWAP3 SWAP4 SWAP5 SWAP6 PUSH1 0x0 SWAP3 PUSH2 0x3CA JUMPI JUMPDEST POP POP DUP2 PUSH1 0x1 SHL SWAP2 PUSH1 0x0 NOT SWAP1 PUSH1 0x3 SHL SHR NOT AND OR PUSH1 0x3 SSTORE JUMPDEST DUP3 MLOAD PUSH1 0x1 PUSH1 0x1 PUSH1 0x40 SHL SUB DUP2 GT PUSH2 0x3B4 JUMPI PUSH1 0x4 SLOAD PUSH1 0x1 DUP2 DUP2 SHR SWAP2 AND DUP1 ISZERO PUSH2 0x3AA JUMPI JUMPDEST PUSH1 0x20 DUP3 LT EQ PUSH2 0x394 JUMPI PUSH1 0x1F DUP2 GT PUSH2 0x32F JUMPI JUMPDEST POP PUSH1 0x20 PUSH1 0x1F DUP3 GT PUSH1 0x1 EQ PUSH2 0x2C8 JUMPI DUP2 SWAP3 SWAP4 SWAP5 PUSH1 0x0 SWAP3 PUSH2 0x2BD JUMPI JUMPDEST POP POP DUP2 PUSH1 0x1 SHL SWAP2 PUSH1 0x0 NOT SWAP1 PUSH1 0x3 SHL SHR NOT AND OR PUSH1 0x4 SSTORE JUMPDEST DUP2 ISZERO PUSH2 0x2A7 JUMPI PUSH1 0x5 DUP1 SLOAD PUSH2 0x100 PUSH1 0x1 PUSH1 0xA8 SHL SUB NOT DUP2 AND PUSH1 0x8 SWAP4 DUP5 SHL PUSH2 0x100 PUSH1 0x1 PUSH1 0xA8 SHL SUB AND OR SWAP1 SWAP2 SSTORE SWAP1 DUP3 SWAP1 DUP3 SWAP1 SHR PUSH1 0x1 PUSH1 0x1 PUSH1 0xA0 SHL SUB AND PUSH32 0x8BE0079C531659141344CD1FD0A4F28419497F9722A3DAAFE3B4186F6B6457E0 PUSH1 0x0 DUP1 LOG3 PUSH1 0x1 PUSH1 0x6 SSTORE PUSH1 0x64 PUSH1 0xA SSTORE PUSH3 0x278D00 PUSH1 0xB SSTORE PUSH1 0x0 PUSH1 0xC SSTORE PUSH1 0x32 PUSH1 0xD SSTORE PUSH9 0x56BC75E2D63100000 PUSH1 0x10 SSTORE PUSH12 0x204FCE5E3E25026110000000 PUSH1 0x11 SSTORE PUSH1 0x0 PUSH1 0x12 SSTORE PUSH1 0x0 PUSH1 0x13 SSTORE PUSH13 0x1431E0FAE6D7217CAA0000000 PUSH1 0x7 SSTORE PUSH1 0xFF PUSH1 0x0 SWAP2 AND PUSH2 0x298 JUMPI PUSH1 0x2 SLOAD PUSH13 0x1431E0FAE6D7217CAA0000000 DUP2 ADD DUP1 SWAP2 GT PUSH2 0x284 JUMPI PUSH1 0x2 SSTORE POP DUP1 PUSH1 0x0 MSTORE PUSH1 0x0 PUSH1 0x20 MSTORE PUSH1 0x40 PUSH1 0x0 KECCAK256 PUSH13 0x1431E0FAE6D7217CAA0000000 DUP2 SLOAD ADD SWAP1 SSTORE PUSH1 0x0 PUSH32 0xDDF252AD1BE2C89B69C2B068FC378DAA952BA7F163C4A11628F55A4DF523B3EF PUSH1 0x20 PUSH1 0x40 MLOAD PUSH13 0x1431E0FAE6D7217CAA0000000 DUP2 MSTORE LOG3 PUSH1 0x40 MLOAD PUSH2 0x1935 SWAP1 DUP2 PUSH2 0x4D6 DUP3 CODECOPY RETURN JUMPDEST PUSH4 0x4E487B71 PUSH1 0xE0 SHL DUP3 MSTORE PUSH1 0x11 PUSH1 0x4 MSTORE PUSH1 0x24 DUP3 REVERT JUMPDEST PUSH4 0xD93C0665 PUSH1 0xE0 SHL DUP2 MSTORE PUSH1 0x4 SWAP1 REVERT JUMPDEST PUSH4 0x1E4FBDF7 PUSH1 0xE0 SHL PUSH1 0x0 MSTORE PUSH1 0x0 PUSH1 0x4 MSTORE PUSH1 0x24 PUSH1 0x0 REVERT JUMPDEST ADD MLOAD SWAP1 POP CODESIZE DUP1 PUSH2 0x12D JUMP JUMPDEST PUSH1 0x1F NOT DUP3 AND SWAP1 PUSH1 0x4 PUSH1 0x0 MSTORE DUP1 PUSH1 0x0 KECCAK256 SWAP2 PUSH1 0x0 JUMPDEST DUP2 DUP2 LT PUSH2 0x317 JUMPI POP SWAP6 DUP4 PUSH1 0x1 SWAP6 SWAP7 SWAP8 LT PUSH2 0x2FE JUMPI JUMPDEST POP POP POP DUP2 SHL ADD PUSH1 0x4 SSTORE PUSH2 0x143 JUMP JUMPDEST ADD MLOAD PUSH1 0x0 NOT PUSH1 0xF8 DUP5 PUSH1 0x3 SHL AND SHR NOT AND SWAP1 SSTORE CODESIZE DUP1 DUP1 PUSH2 0x2F0 JUMP JUMPDEST SWAP2 SWAP3 PUSH1 0x20 PUSH1 0x1 DUP2 SWAP3 DUP7 DUP12 ADD MLOAD DUP2 SSTORE ADD SWAP5 ADD SWAP3 ADD PUSH2 0x2DB JUMP JUMPDEST PUSH1 0x4 PUSH1 0x0 MSTORE PUSH32 0x8A35ACFBC15FF81A39AE7D344FD709F28E8600B4AA8C65C6B64BFE7FE36BD19B PUSH1 0x1F DUP4 ADD PUSH1 0x5 SHR DUP2 ADD SWAP2 PUSH1 0x20 DUP5 LT PUSH2 0x38A JUMPI JUMPDEST PUSH1 0x1F ADD PUSH1 0x5 SHR ADD SWAP1 JUMPDEST DUP2 DUP2 LT PUSH2 0x37E JUMPI POP PUSH2 0x113 JUMP JUMPDEST PUSH1 0x0 DUP2 SSTORE PUSH1 0x1 ADD PUSH2 0x371 JUMP JUMPDEST SWAP1 SWAP2 POP DUP2 SWAP1 PUSH2 0x368 JUMP JUMPDEST PUSH4 0x4E487B71 PUSH1 0xE0 SHL PUSH1 0x0 MSTORE PUSH1 0x22 PUSH1 0x4 MSTORE PUSH1 0x24 PUSH1 0x0 REVERT JUMPDEST SWAP1 PUSH1 0x7F AND SWAP1 PUSH2 0x101 JUMP JUMPDEST PUSH4 0x4E487B71 PUSH1 0xE0 SHL PUSH1 0x0 MSTORE PUSH1 0x41 PUSH1 0x4 MSTORE PUSH1 0x24 PUSH1 0x0 REVERT JUMPDEST ADD MLOAD SWAP1 POP CODESIZE DUP1 PUSH2 0xCA JUMP JUMPDEST PUSH1 0x1F NOT DUP3 AND SWAP6 PUSH1 0x3 PUSH1 0x0 MSTORE DUP1 PUSH1 0x0 KECCAK256 SWAP2 PUSH1 0x0 JUMPDEST DUP9 DUP2 LT PUSH2 0x424 JUMPI POP DUP4 PUSH1 0x1 SWAP6 SWAP7 SWAP8 SWAP9 LT PUSH2 0x40B JUMPI JUMPDEST POP POP POP DUP2 SHL ADD PUSH1 0x3 SSTORE PUSH2 0xE0 JUMP JUMPDEST ADD MLOAD PUSH1 0x0 NOT PUSH1 0xF8 DUP5 PUSH1 0x3 SHL AND SHR NOT AND SWAP1 SSTORE CODESIZE DUP1 DUP1 PUSH2 0x3FD JUMP JUMPDEST SWAP2 SWAP3 PUSH1 0x20 PUSH1 0x1 DUP2 SWAP3 DUP7 DUP6 ADD MLOAD DUP2 SSTORE ADD SWAP5 ADD SWAP3 ADD PUSH2 0x3E8 JUMP JUMPDEST PUSH1 0x3 PUSH1 0x0 MSTORE PUSH32 0xC2575A0E9E593C00F959F8C92F12DB2869C3395A3B0502D05E2516446F71F85B PUSH1 0x1F DUP4 ADD PUSH1 0x5 SHR DUP2 ADD SWAP2 PUSH1 0x20 DUP5 LT PUSH2 0x497 JUMPI JUMPDEST PUSH1 0x1F ADD PUSH1 0x5 SHR ADD SWAP1 JUMPDEST DUP2 DUP2 LT PUSH2 0x48B JUMPI POP PUSH2 0xAD JUMP JUMPDEST PUSH1 0x0 DUP2 SSTORE PUSH1 0x1 ADD PUSH2 0x47E JUMP JUMPDEST SWAP1 SWAP2 POP DUP2 SWAP1 PUSH2 0x475 JUMP JUMPDEST SWAP1 PUSH1 0x7F AND SWAP1 PUSH2 0x9B JUMP JUMPDEST PUSH1 0x0 DUP1 REVERT JUMPDEST PUSH1 0x40 MLOAD SWAP2 SWAP1 PUSH1 0x1F ADD PUSH1 0x1F NOT AND DUP3 ADD PUSH1 0x1 PUSH1 0x1 PUSH1 0x40 SHL SUB DUP2 GT DUP4 DUP3 LT OR PUSH2 0x3B4 JUMPI PUSH1 0x40 MSTORE JUMP INVALID PUSH1 0x80 DUP1 PUSH1 0x40 MSTORE PUSH1 0x4 CALLDATASIZE LT ISZERO PUSH2 0x1D JUMPI JUMPDEST POP CALLDATASIZE ISZERO PUSH2 0x1B JUMPI PUSH1 0x0 DUP1 REVERT JUMPDEST STOP JUMPDEST PUSH1 0x0 CALLDATALOAD PUSH1 0xE0 SHR SWAP1 DUP2 PUSH4 0x46DFB20 EQ PUSH2 0x13AD JUMPI POP DUP1 PUSH4 0x69260D6 EQ PUSH2 0x138F JUMPI DUP1 PUSH4 0x6FDDE03 EQ PUSH2 0x12D0 JUMPI DUP1 PUSH4 0x95EA7B3 EQ PUSH2 0x121E JUMPI DUP1 PUSH4 0xD505541 EQ PUSH2 0x11F3 JUMPI DUP1 PUSH4 0x10087FB1 EQ PUSH2 0xFCD JUMPI DUP1 PUSH4 0x118BDB2E EQ PUSH2 0xF6E JUMPI DUP1 PUSH4 0x16934FC4 EQ PUSH2 0xF02 JUMPI DUP1 PUSH4 0x176D80C4 EQ PUSH2 0xED1 JUMPI DUP1 PUSH4 0x18160DDD EQ PUSH2 0xEB3 JUMPI DUP1 PUSH4 0x23383E8A EQ PUSH2 0xE95 JUMPI DUP1 PUSH4 0x23B872DD EQ PUSH2 0xE5D JUMPI DUP1 PUSH4 0x2DEF6620 EQ PUSH2 0xC9D JUMPI DUP1 PUSH4 0x2F89695A EQ PUSH2 0xC53 JUMPI DUP1 PUSH4 0x313CE567 EQ PUSH2 0xC37 JUMPI DUP1 PUSH4 0x31CE8EE1 EQ PUSH2 0xC16 JUMPI DUP1 PUSH4 0x3766D94E EQ PUSH2 0xAEA JUMPI DUP1 PUSH4 0x3F4BA83A EQ PUSH2 0xA81 JUMPI DUP1 PUSH4 0x42966C68 EQ PUSH2 0xA64 JUMPI DUP1 PUSH4 0x48931352 EQ PUSH2 0xA3C JUMPI DUP1 PUSH4 0x499D7F96 EQ PUSH2 0xA02 JUMPI DUP1 PUSH4 0x4F078894 EQ PUSH2 0x80B JUMPI DUP1 PUSH4 0x4F3FC2DF EQ PUSH2 0x7ED JUMPI DUP1 PUSH4 0x5C975ABB EQ PUSH2 0x7CA JUMPI DUP1 PUSH4 0x60D7442B EQ PUSH2 0x7AC JUMPI DUP1 PUSH4 0x6A08A86E EQ PUSH2 0x78E JUMPI DUP1 PUSH4 0x6B69E05B EQ PUSH2 0x774 JUMPI DUP1 PUSH4 0x6E902E31 EQ PUSH2 0x753 JUMPI DUP1 PUSH4 0x70A08231 EQ PUSH2 0x719 JUMPI DUP1 PUSH4 0x715018A6 EQ PUSH2 0x6B8 JUMPI DUP1 PUSH4 0x79CC6790 EQ PUSH2 0x688 JUMPI DUP1 PUSH4 0x817B1CD2 EQ PUSH2 0x66A JUMPI DUP1 PUSH4 0x8456CB59 EQ PUSH2 0x610 JUMPI DUP1 PUSH4 0x8DA5CB5B EQ PUSH2 0x5E3 JUMPI DUP1 PUSH4 0x95D89B41 EQ PUSH2 0x4DF JUMPI DUP1 PUSH4 0xA9059CBB EQ PUSH2 0x4AE JUMPI DUP1 PUSH4 0xB7D68519 EQ PUSH2 0x452 JUMPI DUP1 PUSH4 0xC1BD8CF9 EQ PUSH2 0x434 JUMPI DUP1 PUSH4 0xC3453153 EQ PUSH2 0x377 JUMPI DUP1 PUSH4 0xC7E4AA3C EQ PUSH2 0x359 JUMPI DUP1 PUSH4 0xDD62ED3E EQ PUSH2 0x308 JUMPI DUP1 PUSH4 0xF2FDE38B EQ PUSH2 0x26B JUMPI DUP1 PUSH4 0xF3E14F1E EQ PUSH2 0x24D JUMPI PUSH4 0xF574A1D6 EQ PUSH2 0x20E JUMPI CODESIZE PUSH2 0xF JUMP JUMPDEST CALLVALUE PUSH2 0x248 JUMPI PUSH1 0x20 CALLDATASIZE PUSH1 0x3 NOT ADD SLT PUSH2 0x248 JUMPI PUSH1 0x1 PUSH1 0x1 PUSH1 0xA0 SHL SUB PUSH2 0x22F PUSH2 0x1411 JUMP JUMPDEST AND PUSH1 0x0 MSTORE PUSH1 0xE PUSH1 0x20 MSTORE PUSH1 0x20 PUSH1 0x40 PUSH1 0x0 KECCAK256 SLOAD PUSH1 0x40 MLOAD SWAP1 DUP2 MSTORE RETURN JUMPDEST PUSH1 0x0 DUP1 REVERT JUMPDEST CALLVALUE PUSH2 0x248 JUMPI PUSH1 0x0 CALLDATASIZE PUSH1 0x3 NOT ADD SLT PUSH2 0x248 JUMPI PUSH1 0x20 PUSH1 0x12 SLOAD PUSH1 0x40 MLOAD SWAP1 DUP2 MSTORE RETURN JUMPDEST CALLVALUE PUSH2 0x248 JUMPI PUSH1 0x20 CALLDATASIZE PUSH1 0x3 NOT ADD SLT PUSH2 0x248 JUMPI PUSH2 0x284 PUSH2 0x1411 JUMP JUMPDEST PUSH2 0x28C PUSH2 0x17A5 JUMP JUMPDEST PUSH1 0x1 PUSH1 0x1 PUSH1 0xA0 SHL SUB DUP2 AND SWAP1 DUP2 ISZERO PUSH2 0x2F2 JUMPI PUSH1 0x5 DUP1 SLOAD PUSH2 0x100 PUSH1 0x1 PUSH1 0xA8 SHL SUB NOT DUP2 AND PUSH1 0x8 SWAP4 DUP5 SHL PUSH2 0x100 PUSH1 0x1 PUSH1 0xA8 SHL SUB AND OR SWAP1 SWAP2 SSTORE SWAP1 SHR PUSH1 0x1 PUSH1 0x1 PUSH1 0xA0 SHL SUB AND PUSH32 0x8BE0079C531659141344CD1FD0A4F28419497F9722A3DAAFE3B4186F6B6457E0 PUSH1 0x0 DUP1 LOG3 STOP JUMPDEST PUSH4 0x1E4FBDF7 PUSH1 0xE0 SHL PUSH1 0x0 MSTORE PUSH1 0x0 PUSH1 0x4 MSTORE PUSH1 0x24 PUSH1 0x0 REVERT JUMPDEST CALLVALUE PUSH2 0x248 JUMPI PUSH1 0x40 CALLDATASIZE PUSH1 0x3 NOT ADD SLT PUSH2 0x248 JUMPI PUSH2 0x321 PUSH2 0x1411 JUMP JUMPDEST PUSH2 0x329 PUSH2 0x1427 JUMP JUMPDEST PUSH1 0x1 PUSH1 0x1 PUSH1 0xA0 SHL SUB SWAP2 DUP3 AND PUSH1 0x0 SWAP1 DUP2 MSTORE PUSH1 0x1 PUSH1 0x20 SWAP1 DUP2 MSTORE PUSH1 0x40 DUP1 DUP4 KECCAK256 SWAP5 SWAP1 SWAP4 AND DUP3 MSTORE SWAP3 DUP4 MSTORE DUP2 SWAP1 KECCAK256 SLOAD SWAP1 MLOAD SWAP1 DUP2 MSTORE RETURN JUMPDEST CALLVALUE PUSH2 0x248 JUMPI PUSH1 0x0 CALLDATASIZE PUSH1 0x3 NOT ADD SLT PUSH2 0x248 JUMPI PUSH1 0x20 PUSH1 0x11 SLOAD PUSH1 0x40 MLOAD SWAP1 DUP2 MSTORE RETURN JUMPDEST CALLVALUE PUSH2 0x248 JUMPI PUSH1 0x20 CALLDATASIZE PUSH1 0x3 NOT ADD SLT PUSH2 0x248 JUMPI PUSH2 0x390 PUSH2 0x1411 JUMP JUMPDEST PUSH1 0x1 DUP1 PUSH1 0xA0 SHL SUB DUP2 AND PUSH1 0x0 MSTORE PUSH1 0x8 PUSH1 0x20 MSTORE PUSH1 0x40 PUSH1 0x0 KECCAK256 SWAP1 PUSH2 0x430 PUSH1 0x40 MLOAD PUSH2 0x3B6 DUP2 PUSH2 0x143D JUMP JUMPDEST DUP4 SLOAD SWAP3 DUP4 DUP3 MSTORE PUSH1 0xFF PUSH2 0x3F8 PUSH1 0x3 PUSH1 0x1 DUP9 ADD SLOAD SWAP8 DUP9 PUSH1 0x20 DUP8 ADD MSTORE PUSH1 0x2 DUP2 ADD SLOAD PUSH1 0x40 DUP8 ADD MSTORE ADD SLOAD SWAP3 DUP3 PUSH1 0x80 PUSH1 0x60 DUP8 ADD SWAP7 DUP3 DUP8 AND ISZERO ISZERO DUP9 MSTORE ADD SWAP5 PUSH1 0x8 SHR AND DUP5 MSTORE PUSH2 0x149B JUMP JUMPDEST SWAP3 MLOAD ISZERO ISZERO SWAP2 MLOAD AND SWAP2 PUSH1 0x40 MLOAD SWAP6 DUP7 SWAP6 DUP7 SWAP4 PUSH1 0x80 SWAP4 PUSH1 0xFF SWAP4 SWAP8 SWAP7 SWAP3 SWAP8 PUSH1 0xA0 DUP8 ADD SWAP9 DUP8 MSTORE PUSH1 0x20 DUP8 ADD MSTORE PUSH1 0x40 DUP7 ADD MSTORE ISZERO ISZERO PUSH1 0x60 DUP6 ADD MSTORE AND SWAP2 ADD MSTORE JUMP JUMPDEST SUB SWAP1 RETURN JUMPDEST CALLVALUE PUSH2 0x248 JUMPI PUSH1 0x0 CALLDATASIZE PUSH1 0x3 NOT ADD SLT PUSH2 0x248 JUMPI PUSH1 0x20 PUSH1 0x7 SLOAD PUSH1 0x40 MLOAD SWAP1 DUP2 MSTORE RETURN JUMPDEST CALLVALUE PUSH2 0x248 JUMPI PUSH1 0x20 CALLDATASIZE PUSH1 0x3 NOT ADD SLT PUSH2 0x248 JUMPI PUSH1 0x4 CALLDATALOAD PUSH2 0x46E PUSH2 0x17A5 JUMP JUMPDEST PUSH2 0x3E8 DUP2 GT PUSH2 0x47C JUMPI PUSH1 0xA SSTORE STOP JUMPDEST PUSH1 0x40 MLOAD PUSH3 0x461BCD PUSH1 0xE5 SHL DUP2 MSTORE PUSH1 0x20 PUSH1 0x4 DUP3 ADD MSTORE PUSH1 0xA PUSH1 0x24 DUP3 ADD MSTORE PUSH10 0x52617465203C3D313025 PUSH1 0xB0 SHL PUSH1 0x44 DUP3 ADD MSTORE PUSH1 0x64 SWAP1 REVERT JUMPDEST CALLVALUE PUSH2 0x248 JUMPI PUSH1 0x40 CALLDATASIZE PUSH1 0x3 NOT ADD SLT PUSH2 0x248 JUMPI PUSH2 0x4D4 PUSH2 0x4CA PUSH2 0x1411 JUMP JUMPDEST PUSH1 0x24 CALLDATALOAD SWAP1 CALLER PUSH2 0x16EE JUMP JUMPDEST PUSH1 0x20 PUSH1 0x40 MLOAD PUSH1 0x1 DUP2 MSTORE RETURN JUMPDEST CALLVALUE PUSH2 0x248 JUMPI PUSH1 0x0 CALLDATASIZE PUSH1 0x3 NOT ADD SLT PUSH2 0x248 JUMPI PUSH1 0x40 MLOAD PUSH1 0x0 PUSH1 0x4 SLOAD DUP1 PUSH1 0x1 SHR SWAP1 PUSH1 0x1 DUP2 AND DUP1 ISZERO PUSH2 0x5D9 JUMPI JUMPDEST PUSH1 0x20 DUP4 LT DUP2 EQ PUSH2 0x5C5 JUMPI DUP3 DUP6 MSTORE SWAP1 DUP2 ISZERO PUSH2 0x5A1 JUMPI POP PUSH1 0x1 EQ PUSH2 0x541 JUMPI JUMPDEST PUSH2 0x430 DUP4 PUSH2 0x535 DUP2 DUP6 SUB DUP3 PUSH2 0x1459 JUMP JUMPDEST PUSH1 0x40 MLOAD SWAP2 DUP3 SWAP2 DUP3 PUSH2 0x13C8 JUMP JUMPDEST SWAP2 SWAP1 POP PUSH1 0x4 PUSH1 0x0 MSTORE PUSH32 0x8A35ACFBC15FF81A39AE7D344FD709F28E8600B4AA8C65C6B64BFE7FE36BD19B SWAP2 PUSH1 0x0 SWAP1 JUMPDEST DUP1 DUP3 LT PUSH2 0x587 JUMPI POP SWAP1 SWAP2 POP DUP2 ADD PUSH1 0x20 ADD PUSH2 0x535 PUSH2 0x525 JUMP JUMPDEST SWAP2 SWAP3 PUSH1 0x1 DUP2 PUSH1 0x20 SWAP3 SLOAD DUP4 DUP6 DUP9 ADD ADD MSTORE ADD SWAP2 ADD SWAP1 SWAP3 SWAP2 PUSH2 0x56F JUMP JUMPDEST PUSH1 0xFF NOT AND PUSH1 0x20 DUP1 DUP7 ADD SWAP2 SWAP1 SWAP2 MSTORE SWAP2 ISZERO ISZERO PUSH1 0x5 SHL DUP5 ADD SWAP1 SWAP2 ADD SWAP2 POP PUSH2 0x535 SWAP1 POP PUSH2 0x525 JUMP JUMPDEST PUSH4 0x4E487B71 PUSH1 0xE0 SHL DUP5 MSTORE PUSH1 0x22 PUSH1 0x4 MSTORE PUSH1 0x24 DUP5 REVERT JUMPDEST SWAP2 PUSH1 0x7F AND SWAP2 PUSH2 0x508 JUMP JUMPDEST CALLVALUE PUSH2 0x248 JUMPI PUSH1 0x0 CALLDATASIZE PUSH1 0x3 NOT ADD SLT PUSH2 0x248 JUMPI PUSH1 0x5 SLOAD PUSH1 0x40 MLOAD PUSH1 0x8 SWAP2 SWAP1 SWAP2 SHR PUSH1 0x1 PUSH1 0x1 PUSH1 0xA0 SHL SUB AND DUP2 MSTORE PUSH1 0x20 SWAP1 RETURN JUMPDEST CALLVALUE PUSH2 0x248 JUMPI PUSH1 0x0 CALLDATASIZE PUSH1 0x3 NOT ADD SLT PUSH2 0x248 JUMPI PUSH2 0x629 PUSH2 0x17A5 JUMP JUMPDEST PUSH2 0x631 PUSH2 0x18E2 JUMP JUMPDEST PUSH1 0x1 PUSH1 0xFF NOT PUSH1 0x5 SLOAD AND OR PUSH1 0x5 SSTORE PUSH32 0x62E78CEA01BEE320CD4E420270B5EA74000D11B0C9F74754EBDBFC544B05A258 PUSH1 0x20 PUSH1 0x40 MLOAD CALLER DUP2 MSTORE LOG1 STOP JUMPDEST CALLVALUE PUSH2 0x248 JUMPI PUSH1 0x0 CALLDATASIZE PUSH1 0x3 NOT ADD SLT PUSH2 0x248 JUMPI PUSH1 0x20 PUSH1 0xC SLOAD PUSH1 0x40 MLOAD SWAP1 DUP2 MSTORE RETURN JUMPDEST CALLVALUE PUSH2 0x248 JUMPI PUSH1 0x40 CALLDATASIZE PUSH1 0x3 NOT ADD SLT PUSH2 0x248 JUMPI PUSH2 0x1B PUSH2 0x6A4 PUSH2 0x1411 JUMP JUMPDEST PUSH1 0x24 CALLDATALOAD SWAP1 PUSH2 0x6B3 DUP3 CALLER DUP4 PUSH2 0x17D1 JUMP JUMPDEST PUSH2 0x164F JUMP JUMPDEST CALLVALUE PUSH2 0x248 JUMPI PUSH1 0x0 CALLDATASIZE PUSH1 0x3 NOT ADD SLT PUSH2 0x248 JUMPI PUSH2 0x6D1 PUSH2 0x17A5 JUMP JUMPDEST PUSH1 0x5 DUP1 SLOAD PUSH2 0x100 PUSH1 0x1 PUSH1 0xA8 SHL SUB NOT DUP2 AND SWAP1 SWAP2 SSTORE PUSH1 0x0 SWAP1 PUSH1 0x8 SHR PUSH1 0x1 PUSH1 0x1 PUSH1 0xA0 SHL SUB AND PUSH32 0x8BE0079C531659141344CD1FD0A4F28419497F9722A3DAAFE3B4186F6B6457E0 DUP3 DUP1 LOG3 STOP JUMPDEST CALLVALUE PUSH2 0x248 JUMPI PUSH1 0x20 CALLDATASIZE PUSH1 0x3 NOT ADD SLT PUSH2 0x248 JUMPI PUSH1 0x1 PUSH1 0x1 PUSH1 0xA0 SHL SUB PUSH2 0x73A PUSH2 0x1411 JUMP JUMPDEST AND PUSH1 0x0 MSTORE PUSH1 0x0 PUSH1 0x20 MSTORE PUSH1 0x20 PUSH1 0x40 PUSH1 0x0 KECCAK256 SLOAD PUSH1 0x40 MLOAD SWAP1 DUP2 MSTORE RETURN JUMPDEST CALLVALUE PUSH2 0x248 JUMPI PUSH1 0x20 CALLDATASIZE PUSH1 0x3 NOT ADD SLT PUSH2 0x248 JUMPI PUSH2 0x76C PUSH2 0x17A5 JUMP JUMPDEST PUSH1 0x4 CALLDATALOAD PUSH1 0x10 SSTORE STOP JUMPDEST CALLVALUE PUSH2 0x248 JUMPI PUSH1 0x0 CALLDATASIZE PUSH1 0x3 NOT ADD SLT PUSH2 0x248 JUMPI PUSH2 0x1B CALLER PUSH2 0x15B3 JUMP JUMPDEST CALLVALUE PUSH2 0x248 JUMPI PUSH1 0x0 CALLDATASIZE PUSH1 0x3 NOT ADD SLT PUSH2 0x248 JUMPI PUSH1 0x20 PUSH1 0x10 SLOAD PUSH1 0x40 MLOAD SWAP1 DUP2 MSTORE RETURN JUMPDEST CALLVALUE PUSH2 0x248 JUMPI PUSH1 0x0 CALLDATASIZE PUSH1 0x3 NOT ADD SLT PUSH2 0x248 JUMPI PUSH1 0x20 PUSH1 0x40 MLOAD PUSH3 0x15180 DUP2 MSTORE RETURN JUMPDEST CALLVALUE PUSH2 0x248 JUMPI PUSH1 0x0 CALLDATASIZE PUSH1 0x3 NOT ADD SLT PUSH2 0x248 JUMPI PUSH1 0x20 PUSH1 0xFF PUSH1 0x5 SLOAD AND PUSH1 0x40 MLOAD SWAP1 ISZERO ISZERO DUP2 MSTORE RETURN JUMPDEST CALLVALUE PUSH2 0x248 JUMPI PUSH1 0x0 CALLDATASIZE PUSH1 0x3 NOT ADD SLT PUSH2 0x248 JUMPI PUSH1 0x20 PUSH1 0xA SLOAD PUSH1 0x40 MLOAD SWAP1 DUP2 MSTORE RETURN JUMPDEST CALLVALUE PUSH2 0x248 JUMPI PUSH1 0x40 CALLDATASIZE PUSH1 0x3 NOT ADD SLT PUSH2 0x248 JUMPI PUSH2 0x824 PUSH2 0x1411 JUMP JUMPDEST PUSH1 0x24 CALLDATALOAD SWAP1 PUSH2 0x830 PUSH2 0x17A5 JUMP JUMPDEST PUSH1 0x13 SLOAD DUP1 TIMESTAMP LT PUSH2 0x9CA JUMPI ISZERO PUSH2 0x985 JUMPI PUSH1 0x0 PUSH1 0x13 SSTORE PUSH1 0x1 PUSH1 0x1 PUSH1 0xA0 SHL SUB AND DUP1 PUSH2 0x905 JUMPI POP PUSH1 0x5 SLOAD PUSH1 0x0 SWAP2 DUP3 SWAP2 DUP3 SWAP2 DUP3 SWAP2 PUSH1 0x8 SHR PUSH1 0x1 PUSH1 0x1 PUSH1 0xA0 SHL SUB AND GAS CALL RETURNDATASIZE ISZERO PUSH2 0x900 JUMPI RETURNDATASIZE PUSH8 0xFFFFFFFFFFFFFFFF DUP2 GT PUSH2 0x8EA JUMPI PUSH1 0x40 MLOAD SWAP1 PUSH2 0x89B PUSH1 0x1F DUP3 ADD PUSH1 0x1F NOT AND PUSH1 0x20 ADD DUP4 PUSH2 0x1459 JUMP JUMPDEST DUP2 MSTORE PUSH1 0x0 PUSH1 0x20 RETURNDATASIZE SWAP3 ADD RETURNDATACOPY JUMPDEST ISZERO PUSH2 0x8AD JUMPI STOP JUMPDEST PUSH1 0x40 MLOAD PUSH3 0x461BCD PUSH1 0xE5 SHL DUP2 MSTORE PUSH1 0x20 PUSH1 0x4 DUP3 ADD MSTORE PUSH1 0x15 PUSH1 0x24 DUP3 ADD MSTORE PUSH21 0x115512081DDA5D1A191C985DD85B0819985A5B1959 PUSH1 0x5A SHL PUSH1 0x44 DUP3 ADD MSTORE PUSH1 0x64 SWAP1 REVERT JUMPDEST PUSH4 0x4E487B71 PUSH1 0xE0 SHL PUSH1 0x0 MSTORE PUSH1 0x41 PUSH1 0x4 MSTORE PUSH1 0x24 PUSH1 0x0 REVERT JUMPDEST PUSH2 0x8A6 JUMP JUMPDEST SWAP1 PUSH1 0x20 SWAP1 PUSH1 0x44 PUSH1 0x1 DUP1 PUSH1 0xA0 SHL SUB PUSH1 0x5 SLOAD PUSH1 0x8 SHR AND PUSH1 0x0 PUSH1 0x40 MLOAD SWAP6 DUP7 SWAP5 DUP6 SWAP4 PUSH4 0xA9059CBB PUSH1 0xE0 SHL DUP6 MSTORE PUSH1 0x4 DUP6 ADD MSTORE PUSH1 0x24 DUP5 ADD MSTORE GAS CALL DUP1 ISZERO PUSH2 0x979 JUMPI PUSH2 0x945 JUMPI STOP JUMPDEST PUSH1 0x20 DUP2 RETURNDATASIZE PUSH1 0x20 GT PUSH2 0x971 JUMPI JUMPDEST DUP2 PUSH2 0x95E PUSH1 0x20 SWAP4 DUP4 PUSH2 0x1459 JUMP JUMPDEST DUP2 ADD SUB SLT PUSH2 0x248 JUMPI MLOAD DUP1 ISZERO ISZERO SUB PUSH2 0x248 JUMPI STOP JUMPDEST RETURNDATASIZE SWAP2 POP PUSH2 0x951 JUMP JUMPDEST PUSH1 0x40 MLOAD RETURNDATASIZE PUSH1 0x0 DUP3 RETURNDATACOPY RETURNDATASIZE SWAP1 REVERT JUMPDEST PUSH1 0x40 MLOAD PUSH3 0x461BCD PUSH1 0xE5 SHL DUP2 MSTORE PUSH1 0x20 PUSH1 0x4 DUP3 ADD MSTORE PUSH1 0x17 PUSH1 0x24 DUP3 ADD MSTORE PUSH32 0x4E6F207769746864726177616C20696E69746961746564000000000000000000 PUSH1 0x44 DUP3 ADD MSTORE PUSH1 0x64 SWAP1 REVERT JUMPDEST PUSH1 0x40 MLOAD PUSH3 0x461BCD PUSH1 0xE5 SHL DUP2 MSTORE PUSH1 0x20 PUSH1 0x4 DUP3 ADD MSTORE PUSH1 0x10 PUSH1 0x24 DUP3 ADD MSTORE PUSH16 0x151A5B595B1BD8DAC81B9BDD081B595D PUSH1 0x82 SHL PUSH1 0x44 DUP3 ADD MSTORE PUSH1 0x64 SWAP1 REVERT JUMPDEST CALLVALUE PUSH2 0x248 JUMPI PUSH1 0x20 CALLDATASIZE PUSH1 0x3 NOT ADD SLT PUSH2 0x248 JUMPI PUSH1 0x1 PUSH1 0x1 PUSH1 0xA0 SHL SUB PUSH2 0xA23 PUSH2 0x1411 JUMP JUMPDEST AND PUSH1 0x0 MSTORE PUSH1 0x9 PUSH1 0x20 MSTORE PUSH1 0x20 PUSH1 0x40 PUSH1 0x0 KECCAK256 SLOAD PUSH1 0x40 MLOAD SWAP1 DUP2 MSTORE RETURN JUMPDEST CALLVALUE PUSH2 0x248 JUMPI PUSH1 0x0 CALLDATASIZE PUSH1 0x3 NOT ADD SLT PUSH2 0x248 JUMPI PUSH1 0x20 PUSH1 0x40 MLOAD PUSH13 0x1431E0FAE6D7217CAA0000000 DUP2 MSTORE RETURN JUMPDEST CALLVALUE PUSH2 0x248 JUMPI PUSH1 0x20 CALLDATASIZE PUSH1 0x3 NOT ADD SLT PUSH2 0x248 JUMPI PUSH2 0x1B PUSH1 0x4 CALLDATALOAD CALLER PUSH2 0x164F JUMP JUMPDEST CALLVALUE PUSH2 0x248 JUMPI PUSH1 0x0 CALLDATASIZE PUSH1 0x3 NOT ADD SLT PUSH2 0x248 JUMPI PUSH2 0xA9A PUSH2 0x17A5 JUMP JUMPDEST PUSH1 0x5 SLOAD PUSH1 0xFF DUP2 AND ISZERO PUSH2 0xAD9 JUMPI PUSH1 0xFF NOT AND PUSH1 0x5 SSTORE PUSH32 0x5DB9EE0A495BF2E6FF9C91A7834C1BA4FDD244A5E8AA4E537BD38AEAE4B073AA PUSH1 0x20 PUSH1 0x40 MLOAD CALLER DUP2 MSTORE LOG1 STOP JUMPDEST PUSH4 0x8DFC202B PUSH1 0xE0 SHL PUSH1 0x0 MSTORE PUSH1 0x4 PUSH1 0x0 REVERT JUMPDEST CALLVALUE PUSH2 0x248 JUMPI PUSH1 0x40 CALLDATASIZE PUSH1 0x3 NOT ADD SLT PUSH2 0x248 JUMPI PUSH1 0x4 CALLDATALOAD PUSH2 0xB06 PUSH2 0x1427 JUMP JUMPDEST DUP2 PUSH1 0x0 MSTORE PUSH1 0xF PUSH1 0x20 MSTORE PUSH1 0xFF PUSH1 0x40 PUSH1 0x0 KECCAK256 SLOAD AND PUSH2 0xBD8 JUMPI PUSH1 0x1 PUSH1 0x1 PUSH1 0xA0 SHL SUB DUP2 AND SWAP1 DUP2 ISZERO PUSH2 0xBA0 JUMPI PUSH2 0xB71 SWAP1 DUP4 PUSH1 0x0 MSTORE PUSH1 0xF PUSH1 0x20 MSTORE PUSH1 0x40 PUSH1 0x0 KECCAK256 PUSH1 0x1 PUSH1 0xFF NOT DUP3 SLOAD AND OR SWAP1 SSTORE PUSH1 0x10 SLOAD DUP4 PUSH1 0x0 MSTORE PUSH1 0xE PUSH1 0x20 MSTORE PUSH2 0xB66 PUSH1 0x40 PUSH1 0x0 KECCAK256 SWAP2 DUP3 SLOAD PUSH2 0x1562 JUMP JUMPDEST SWAP1 SSTORE PUSH1 0x10 SLOAD SWAP1 PUSH2 0x187C JUMP JUMPDEST PUSH32 0x153B480344BAE969AC0B89735EFBB1B52D9806699539A49CE9780BDB6E903B8E PUSH1 0x20 PUSH1 0x10 SLOAD PUSH1 0x40 MLOAD SWAP1 DUP2 MSTORE LOG3 STOP JUMPDEST PUSH1 0x40 MLOAD PUSH3 0x461BCD PUSH1 0xE5 SHL DUP2 MSTORE PUSH1 0x20 PUSH1 0x4 DUP3 ADD MSTORE PUSH1 0x10 PUSH1 0x24 DUP3 ADD MSTORE PUSH16 0x24B73B30B634B2103B32B934B334B2B9 PUSH1 0x81 SHL PUSH1 0x44 DUP3 ADD MSTORE PUSH1 0x64 SWAP1 REVERT JUMPDEST PUSH1 0x40 MLOAD PUSH3 0x461BCD PUSH1 0xE5 SHL DUP2 MSTORE PUSH1 0x20 PUSH1 0x4 DUP3 ADD MSTORE PUSH1 0x16 PUSH1 0x24 DUP3 ADD MSTORE PUSH22 0x141C9BDBD988185B1C9958591E481D995C9A599A5959 PUSH1 0x52 SHL PUSH1 0x44 DUP3 ADD MSTORE PUSH1 0x64 SWAP1 REVERT JUMPDEST CALLVALUE PUSH2 0x248 JUMPI PUSH1 0x20 CALLDATASIZE PUSH1 0x3 NOT ADD SLT PUSH2 0x248 JUMPI PUSH2 0xC2F PUSH2 0x17A5 JUMP JUMPDEST PUSH1 0x4 CALLDATALOAD PUSH1 0xB SSTORE STOP JUMPDEST CALLVALUE PUSH2 0x248 JUMPI PUSH1 0x0 CALLDATASIZE PUSH1 0x3 NOT ADD SLT PUSH2 0x248 JUMPI PUSH1 0x20 PUSH1 0x40 MLOAD PUSH1 0x12 DUP2 MSTORE RETURN JUMPDEST CALLVALUE PUSH2 0x248 JUMPI PUSH1 0x40 CALLDATASIZE PUSH1 0x3 NOT ADD SLT PUSH2 0x248 JUMPI PUSH2 0xC6C PUSH2 0x1411 JUMP JUMPDEST POP PUSH2 0xC75 PUSH2 0x17A5 JUMP JUMPDEST PUSH3 0x15180 TIMESTAMP ADD DUP1 TIMESTAMP GT PUSH2 0xC87 JUMPI PUSH1 0x13 SSTORE STOP JUMPDEST PUSH4 0x4E487B71 PUSH1 0xE0 SHL PUSH1 0x0 MSTORE PUSH1 0x11 PUSH1 0x4 MSTORE PUSH1 0x24 PUSH1 0x0 REVERT JUMPDEST CALLVALUE PUSH2 0x248 JUMPI PUSH1 0x0 CALLDATASIZE PUSH1 0x3 NOT ADD SLT PUSH2 0x248 JUMPI PUSH1 0x2 PUSH1 0x6 SLOAD EQ PUSH2 0xE4C JUMPI PUSH1 0x2 PUSH1 0x6 SSTORE CALLER PUSH1 0x0 MSTORE PUSH1 0x8 PUSH1 0x20 MSTORE PUSH1 0x40 PUSH1 0x0 KECCAK256 PUSH1 0x3 DUP2 ADD SWAP1 DUP2 SLOAD SWAP2 PUSH1 0xFF DUP4 AND ISZERO PUSH2 0xE15 JUMPI PUSH2 0xCED PUSH1 0x1 DUP4 ADD SLOAD PUSH1 0xB SLOAD SWAP1 PUSH2 0x1562 JUMP JUMPDEST TIMESTAMP LT PUSH2 0xDD7 JUMPI DUP2 SLOAD SWAP3 PUSH1 0x0 PUSH2 0xD01 CALLER PUSH2 0x149B JUMP JUMPDEST SWAP4 SSTORE PUSH1 0xFF NOT AND SWAP1 SSTORE PUSH2 0xD15 DUP3 PUSH1 0xC SLOAD PUSH2 0x147B JUMP JUMPDEST PUSH1 0xC SSTORE ADDRESS PUSH1 0x0 MSTORE PUSH1 0x0 PUSH1 0x20 MSTORE PUSH1 0x40 PUSH1 0x0 KECCAK256 SLOAD DUP3 DUP2 LT PUSH1 0x0 EQ PUSH2 0xDCD JUMPI PUSH2 0xD3D SWAP1 JUMPDEST CALLER ADDRESS PUSH2 0x16EE JUMP JUMPDEST DUP1 PUSH2 0xD7B JUMPI JUMPDEST PUSH1 0x40 MLOAD SWAP2 DUP3 MSTORE PUSH1 0x20 DUP3 ADD MSTORE PUSH32 0x6F2D3E000C89D37446B7C0374C0125068FF316D1E3EE302336478A8CD03C2336 PUSH1 0x40 CALLER SWAP3 LOG2 PUSH1 0x1 PUSH1 0x6 SSTORE STOP JUMPDEST PUSH2 0xD94 PUSH2 0xD8A DUP3 PUSH1 0x12 SLOAD PUSH2 0x1562 JUMP JUMPDEST PUSH1 0x11 SLOAD LT ISZERO PUSH2 0x156F JUMP JUMPDEST PUSH2 0xD9E DUP2 CALLER PUSH2 0x187C JUMP JUMPDEST PUSH2 0xDAA DUP2 PUSH1 0x12 SLOAD PUSH2 0x1562 JUMP JUMPDEST PUSH1 0x12 SSTORE CALLER PUSH1 0x0 MSTORE PUSH1 0x9 PUSH1 0x20 MSTORE PUSH1 0x40 PUSH1 0x0 KECCAK256 PUSH2 0xDC6 DUP3 DUP3 SLOAD PUSH2 0x1562 JUMP JUMPDEST SWAP1 SSTORE PUSH2 0xD43 JUMP JUMPDEST POP PUSH2 0xD3D DUP3 PUSH2 0xD36 JUMP JUMPDEST PUSH1 0x40 MLOAD PUSH3 0x461BCD PUSH1 0xE5 SHL DUP2 MSTORE PUSH1 0x20 PUSH1 0x4 DUP3 ADD MSTORE PUSH1 0x16 PUSH1 0x24 DUP3 ADD MSTORE PUSH22 0x135A5B9A5B5D5B481C195C9A5BD9081B9BDD081B595D PUSH1 0x52 SHL PUSH1 0x44 DUP3 ADD MSTORE PUSH1 0x64 SWAP1 REVERT JUMPDEST PUSH1 0x40 MLOAD PUSH3 0x461BCD PUSH1 0xE5 SHL DUP2 MSTORE PUSH1 0x20 PUSH1 0x4 DUP3 ADD MSTORE PUSH1 0xF PUSH1 0x24 DUP3 ADD MSTORE PUSH15 0x4E6F20616374697665207374616B65 PUSH1 0x88 SHL PUSH1 0x44 DUP3 ADD MSTORE PUSH1 0x64 SWAP1 REVERT JUMPDEST PUSH4 0x3EE5AEB5 PUSH1 0xE0 SHL PUSH1 0x0 MSTORE PUSH1 0x4 PUSH1 0x0 REVERT JUMPDEST CALLVALUE PUSH2 0x248 JUMPI PUSH1 0x60 CALLDATASIZE PUSH1 0x3 NOT ADD SLT PUSH2 0x248 JUMPI PUSH2 0x4D4 PUSH2 0xE79 PUSH2 0x1411 JUMP JUMPDEST PUSH2 0xE81 PUSH2 0x1427 JUMP JUMPDEST PUSH1 0x44 CALLDATALOAD SWAP2 PUSH2 0xE90 DUP4 CALLER DUP4 PUSH2 0x17D1 JUMP JUMPDEST PUSH2 0x16EE JUMP JUMPDEST CALLVALUE PUSH2 0x248 JUMPI PUSH1 0x0 CALLDATASIZE PUSH1 0x3 NOT ADD SLT PUSH2 0x248 JUMPI PUSH1 0x20 PUSH1 0x13 SLOAD PUSH1 0x40 MLOAD SWAP1 DUP2 MSTORE RETURN JUMPDEST CALLVALUE PUSH2 0x248 JUMPI PUSH1 0x0 CALLDATASIZE PUSH1 0x3 NOT ADD SLT PUSH2 0x248 JUMPI PUSH1 0x20 PUSH1 0x2 SLOAD PUSH1 0x40 MLOAD SWAP1 DUP2 MSTORE RETURN JUMPDEST CALLVALUE PUSH2 0x248 JUMPI PUSH1 0x20 CALLDATASIZE PUSH1 0x3 NOT ADD SLT PUSH2 0x248 JUMPI PUSH1 0x4 CALLDATALOAD PUSH1 0x0 MSTORE PUSH1 0xF PUSH1 0x20 MSTORE PUSH1 0x20 PUSH1 0xFF PUSH1 0x40 PUSH1 0x0 KECCAK256 SLOAD AND PUSH1 0x40 MLOAD SWAP1 ISZERO ISZERO DUP2 MSTORE RETURN JUMPDEST CALLVALUE PUSH2 0x248 JUMPI PUSH1 0x20 CALLDATASIZE PUSH1 0x3 NOT ADD SLT PUSH2 0x248 JUMPI PUSH1 0x1 PUSH1 0x1 PUSH1 0xA0 SHL SUB PUSH2 0xF23 PUSH2 0x1411 JUMP JUMPDEST AND PUSH1 0x0 SWAP1 DUP2 MSTORE PUSH1 0x8 PUSH1 0x20 DUP2 DUP2 MSTORE PUSH1 0x40 SWAP3 DUP4 SWAP1 KECCAK256 DUP1 SLOAD PUSH1 0x1 DUP3 ADD SLOAD PUSH1 0x2 DUP4 ADD SLOAD PUSH1 0x3 SWAP1 SWAP4 ADD SLOAD DUP7 MLOAD SWAP3 DUP4 MSTORE SWAP4 DUP3 ADD MSTORE SWAP4 DUP5 ADD MSTORE PUSH1 0xFF DUP1 DUP3 AND ISZERO ISZERO PUSH1 0x60 DUP6 ADD MSTORE SWAP2 SHR AND PUSH1 0x80 DUP3 ADD MSTORE PUSH1 0xA0 SWAP1 RETURN JUMPDEST CALLVALUE PUSH2 0x248 JUMPI PUSH1 0x20 CALLDATASIZE PUSH1 0x3 NOT ADD SLT PUSH2 0x248 JUMPI PUSH1 0x4 CALLDATALOAD PUSH2 0xF8A PUSH2 0x17A5 JUMP JUMPDEST PUSH1 0x64 DUP2 GT PUSH2 0xF97 JUMPI PUSH1 0xD SSTORE STOP JUMPDEST PUSH1 0x40 MLOAD PUSH3 0x461BCD PUSH1 0xE5 SHL DUP2 MSTORE PUSH1 0x20 PUSH1 0x4 DUP3 ADD MSTORE PUSH1 0xE PUSH1 0x24 DUP3 ADD MSTORE PUSH14 0x4275726E2072617465203C3D3125 PUSH1 0x90 SHL PUSH1 0x44 DUP3 ADD MSTORE PUSH1 0x64 SWAP1 REVERT JUMPDEST CALLVALUE PUSH2 0x248 JUMPI PUSH1 0x40 CALLDATASIZE PUSH1 0x3 NOT ADD SLT PUSH2 0x248 JUMPI PUSH1 0x4 CALLDATALOAD PUSH1 0x24 CALLDATALOAD SWAP1 PUSH1 0xFF DUP3 AND SWAP2 DUP3 DUP2 SUB PUSH2 0x248 JUMPI DUP2 ISZERO PUSH2 0x11AE JUMPI CALLER PUSH1 0x0 MSTORE PUSH1 0x0 PUSH1 0x20 MSTORE DUP2 PUSH1 0x40 PUSH1 0x0 KECCAK256 SLOAD LT PUSH2 0x1172 JUMPI PUSH1 0x1 DUP4 LT ISZERO DUP1 PUSH2 0x1167 JUMPI JUMPDEST ISZERO PUSH2 0x1122 JUMPI CALLER PUSH1 0x0 MSTORE PUSH1 0x8 PUSH1 0x20 MSTORE PUSH1 0x40 PUSH1 0x0 KECCAK256 SWAP1 PUSH1 0x3 DUP3 ADD SWAP2 DUP3 SLOAD PUSH1 0xFF DUP2 AND PUSH1 0x0 EQ PUSH2 0x1111 JUMPI POP PUSH2 0x1047 CALLER PUSH2 0x15B3 JUMP JUMPDEST PUSH2 0x1052 DUP5 DUP3 SLOAD PUSH2 0x1562 JUMP JUMPDEST DUP2 SSTORE JUMPDEST TIMESTAMP PUSH1 0x1 DUP3 ADD SSTORE PUSH1 0x2 TIMESTAMP SWAP2 ADD SSTORE PUSH2 0xFF00 DUP3 SLOAD SWAP2 PUSH1 0x8 SHL AND SWAP1 PUSH2 0xFF00 NOT AND OR SWAP1 SSTORE PUSH2 0x1080 DUP2 PUSH1 0xC SLOAD PUSH2 0x1562 JUMP JUMPDEST PUSH1 0xC SSTORE PUSH2 0x2710 PUSH2 0x1092 PUSH1 0xD SLOAD DUP4 PUSH2 0x1488 JUMP JUMPDEST DIV SWAP2 PUSH2 0x109E DUP4 CALLER PUSH2 0x164F JUMP JUMPDEST PUSH2 0x10B2 PUSH2 0x10AB DUP5 DUP5 PUSH2 0x147B JUMP JUMPDEST ADDRESS CALLER PUSH2 0x16EE JUMP JUMPDEST PUSH1 0x40 MLOAD SWAP2 DUP3 MSTORE PUSH1 0x20 DUP3 ADD MSTORE PUSH32 0xCD5E49A9DCD3427319023A86E83211E54B18D051F731D165337E8E164FEB703D PUSH1 0x40 CALLER SWAP3 LOG2 PUSH1 0x40 MLOAD SWAP1 DUP2 MSTORE PUSH32 0xDC48698CFE7350CA4BBE196C89EECB267E34CC9B1FC748EAB7F33FE73D7A550C PUSH1 0x20 CALLER SWAP3 LOG2 STOP JUMPDEST DUP5 DUP3 SSTORE PUSH1 0xFF NOT AND PUSH1 0x1 OR DUP4 SSTORE PUSH2 0x1055 JUMP JUMPDEST PUSH1 0x40 MLOAD PUSH3 0x461BCD PUSH1 0xE5 SHL DUP2 MSTORE PUSH1 0x20 PUSH1 0x4 DUP3 ADD MSTORE PUSH1 0x18 PUSH1 0x24 DUP3 ADD MSTORE PUSH32 0x496E76616C69642070726F78696D697479206465677265650000000000000000 PUSH1 0x44 DUP3 ADD MSTORE PUSH1 0x64 SWAP1 REVERT JUMPDEST POP PUSH1 0x3 DUP4 GT ISZERO PUSH2 0x1017 JUMP JUMPDEST PUSH1 0x40 MLOAD PUSH3 0x461BCD PUSH1 0xE5 SHL DUP2 MSTORE PUSH1 0x20 PUSH1 0x4 DUP3 ADD MSTORE PUSH1 0x14 PUSH1 0x24 DUP3 ADD MSTORE PUSH20 0x496E73756666696369656E742062616C616E6365 PUSH1 0x60 SHL PUSH1 0x44 DUP3 ADD MSTORE PUSH1 0x64 SWAP1 REVERT JUMPDEST PUSH1 0x40 MLOAD PUSH3 0x461BCD PUSH1 0xE5 SHL DUP2 MSTORE PUSH1 0x20 PUSH1 0x4 DUP3 ADD MSTORE PUSH1 0x17 PUSH1 0x24 DUP3 ADD MSTORE PUSH32 0x416D6F756E74206D75737420626520706F736974697665000000000000000000 PUSH1 0x44 DUP3 ADD MSTORE PUSH1 0x64 SWAP1 REVERT JUMPDEST CALLVALUE PUSH2 0x248 JUMPI PUSH1 0x20 CALLDATASIZE PUSH1 0x3 NOT ADD SLT PUSH2 0x248 JUMPI PUSH1 0x20 PUSH2 0x1216 PUSH2 0x1211 PUSH2 0x1411 JUMP JUMPDEST PUSH2 0x149B JUMP JUMPDEST PUSH1 0x40 MLOAD SWAP1 DUP2 MSTORE RETURN JUMPDEST CALLVALUE PUSH2 0x248 JUMPI PUSH1 0x40 CALLDATASIZE PUSH1 0x3 NOT ADD SLT PUSH2 0x248 JUMPI PUSH2 0x1237 PUSH2 0x1411 JUMP JUMPDEST PUSH1 0x24 CALLDATALOAD SWAP1 CALLER ISZERO PUSH2 0x12BA JUMPI PUSH1 0x1 PUSH1 0x1 PUSH1 0xA0 SHL SUB AND SWAP1 DUP2 ISZERO PUSH2 0x12A4 JUMPI CALLER PUSH1 0x0 MSTORE PUSH1 0x1 PUSH1 0x20 MSTORE PUSH1 0x40 PUSH1 0x0 KECCAK256 DUP3 PUSH1 0x0 MSTORE PUSH1 0x20 MSTORE DUP1 PUSH1 0x40 PUSH1 0x0 KECCAK256 SSTORE PUSH1 0x40 MLOAD SWAP1 DUP2 MSTORE PUSH32 0x8C5BE1E5EBEC7D5BD14F71427D1E84F3DD0314C0F7B2291E5B200AC8C7C3B925 PUSH1 0x20 CALLER SWAP3 LOG3 PUSH1 0x20 PUSH1 0x40 MLOAD PUSH1 0x1 DUP2 MSTORE RETURN JUMPDEST PUSH4 0x4A1406B1 PUSH1 0xE1 SHL PUSH1 0x0 MSTORE PUSH1 0x0 PUSH1 0x4 MSTORE PUSH1 0x24 PUSH1 0x0 REVERT JUMPDEST PUSH4 0xE602DF05 PUSH1 0xE0 SHL PUSH1 0x0 MSTORE PUSH1 0x0 PUSH1 0x4 MSTORE PUSH1 0x24 PUSH1 0x0 REVERT JUMPDEST CALLVALUE PUSH2 0x248 JUMPI PUSH1 0x0 CALLDATASIZE PUSH1 0x3 NOT ADD SLT PUSH2 0x248 JUMPI PUSH1 0x40 MLOAD PUSH1 0x0 PUSH1 0x3 SLOAD DUP1 PUSH1 0x1 SHR SWAP1 PUSH1 0x1 DUP2 AND DUP1 ISZERO PUSH2 0x1385 JUMPI JUMPDEST PUSH1 0x20 DUP4 LT DUP2 EQ PUSH2 0x5C5 JUMPI DUP3 DUP6 MSTORE SWAP1 DUP2 ISZERO PUSH2 0x5A1 JUMPI POP PUSH1 0x1 EQ PUSH2 0x1325 JUMPI PUSH2 0x430 DUP4 PUSH2 0x535 DUP2 DUP6 SUB DUP3 PUSH2 0x1459 JUMP JUMPDEST SWAP2 SWAP1 POP PUSH1 0x3 PUSH1 0x0 MSTORE PUSH32 0xC2575A0E9E593C00F959F8C92F12DB2869C3395A3B0502D05E2516446F71F85B SWAP2 PUSH1 0x0 SWAP1 JUMPDEST DUP1 DUP3 LT PUSH2 0x136B JUMPI POP SWAP1 SWAP2 POP DUP2 ADD PUSH1 0x20 ADD PUSH2 0x535 PUSH2 0x525 JUMP JUMPDEST SWAP2 SWAP3 PUSH1 0x1 DUP2 PUSH1 0x20 SWAP3 SLOAD DUP4 DUP6 DUP9 ADD ADD MSTORE ADD SWAP2 ADD SWAP1 SWAP3 SWAP2 PUSH2 0x1353 JUMP JUMPDEST SWAP2 PUSH1 0x7F AND SWAP2 PUSH2 0x12F9 JUMP JUMPDEST CALLVALUE PUSH2 0x248 JUMPI PUSH1 0x0 CALLDATASIZE PUSH1 0x3 NOT ADD SLT PUSH2 0x248 JUMPI PUSH1 0x20 PUSH1 0xD SLOAD PUSH1 0x40 MLOAD SWAP1 DUP2 MSTORE RETURN JUMPDEST CALLVALUE PUSH2 0x248 JUMPI PUSH1 0x0 CALLDATASIZE PUSH1 0x3 NOT ADD SLT PUSH2 0x248 JUMPI PUSH1 0x20 SWAP1 PUSH1 0xB SLOAD DUP2 MSTORE RETURN JUMPDEST SWAP2 SWAP1 SWAP2 PUSH1 0x20 DUP2 MSTORE DUP3 MLOAD DUP1 PUSH1 0x20 DUP4 ADD MSTORE PUSH1 0x0 JUMPDEST DUP2 DUP2 LT PUSH2 0x13FB JUMPI POP PUSH1 0x40 SWAP3 SWAP4 POP PUSH1 0x0 DUP4 DUP3 DUP5 ADD ADD MSTORE PUSH1 0x1F DUP1 NOT SWAP2 ADD AND ADD ADD SWAP1 JUMP JUMPDEST DUP1 PUSH1 0x20 DUP1 SWAP3 DUP8 ADD ADD MLOAD PUSH1 0x40 DUP3 DUP7 ADD ADD MSTORE ADD PUSH2 0x13DA JUMP JUMPDEST PUSH1 0x4 CALLDATALOAD SWAP1 PUSH1 0x1 PUSH1 0x1 PUSH1 0xA0 SHL SUB DUP3 AND DUP3 SUB PUSH2 0x248 JUMPI JUMP JUMPDEST PUSH1 0x24 CALLDATALOAD SWAP1 PUSH1 0x1 PUSH1 0x1 PUSH1 0xA0 SHL SUB DUP3 AND DUP3 SUB PUSH2 0x248 JUMPI JUMP JUMPDEST PUSH1 0xA0 DUP2 ADD SWAP1 DUP2 LT PUSH8 0xFFFFFFFFFFFFFFFF DUP3 GT OR PUSH2 0x8EA JUMPI PUSH1 0x40 MSTORE JUMP JUMPDEST SWAP1 PUSH1 0x1F DUP1 NOT SWAP2 ADD AND DUP2 ADD SWAP1 DUP2 LT PUSH8 0xFFFFFFFFFFFFFFFF DUP3 GT OR PUSH2 0x8EA JUMPI PUSH1 0x40 MSTORE JUMP JUMPDEST SWAP2 SWAP1 DUP3 SUB SWAP2 DUP3 GT PUSH2 0xC87 JUMPI JUMP JUMPDEST DUP2 DUP2 MUL SWAP3 SWAP2 DUP2 ISZERO SWAP2 DUP5 DIV EQ OR ISZERO PUSH2 0xC87 JUMPI JUMP JUMPDEST PUSH1 0x1 DUP1 PUSH1 0xA0 SHL SUB AND PUSH1 0x0 MSTORE PUSH1 0x8 PUSH1 0x20 MSTORE PUSH1 0x40 PUSH1 0x0 KECCAK256 PUSH1 0x40 MLOAD SWAP1 PUSH2 0x14BD DUP3 PUSH2 0x143D JUMP JUMPDEST DUP1 SLOAD SWAP1 DUP2 DUP4 MSTORE PUSH1 0x1 DUP2 ADD SLOAD PUSH1 0x20 DUP5 ADD MSTORE PUSH1 0x3 PUSH1 0x2 DUP3 ADD SLOAD SWAP2 DUP3 PUSH1 0x40 DUP7 ADD MSTORE ADD SLOAD SWAP2 PUSH1 0xFF DUP4 AND ISZERO SWAP1 DUP2 ISZERO SWAP2 DUP3 PUSH1 0x60 DUP8 ADD MSTORE PUSH1 0xFF PUSH1 0x80 DUP8 ADD SWAP6 PUSH1 0x8 SHR AND DUP6 MSTORE SWAP2 PUSH2 0x1559 JUMPI JUMPDEST POP PUSH2 0x1551 JUMPI PUSH2 0x2710 PUSH2 0x1522 PUSH2 0x1517 PUSH1 0xFF SWAP4 TIMESTAMP PUSH2 0x147B JUMP JUMPDEST SWAP5 MLOAD PUSH1 0xA SLOAD SWAP1 PUSH2 0x1488 JUMP JUMPDEST DIV SWAP2 MLOAD AND PUSH1 0x4 SUB SWAP2 PUSH1 0xFF DUP4 GT PUSH2 0xC87 JUMPI PUSH2 0x1548 PUSH2 0x154D SWAP3 PUSH1 0xFF PUSH4 0x1E13380 SWAP6 AND SWAP1 PUSH2 0x1488 JUMP JUMPDEST PUSH2 0x1488 JUMP JUMPDEST DIV SWAP1 JUMP JUMPDEST POP POP POP PUSH1 0x0 SWAP1 JUMP JUMPDEST SWAP1 POP ISZERO CODESIZE PUSH2 0x1500 JUMP JUMPDEST SWAP2 SWAP1 DUP3 ADD DUP1 SWAP3 GT PUSH2 0xC87 JUMPI JUMP JUMPDEST ISZERO PUSH2 0x1576 JUMPI JUMP JUMPDEST PUSH1 0x40 MLOAD PUSH3 0x461BCD PUSH1 0xE5 SHL DUP2 MSTORE PUSH1 0x20 PUSH1 0x4 DUP3 ADD MSTORE PUSH1 0x15 PUSH1 0x24 DUP3 ADD MSTORE PUSH21 0x14995DD85C99081C1BDBDB08195E1A185D5CDD1959 PUSH1 0x5A SHL PUSH1 0x44 DUP3 ADD MSTORE PUSH1 0x64 SWAP1 REVERT JUMPDEST PUSH2 0x15BC DUP2 PUSH2 0x149B JUMP JUMPDEST DUP1 PUSH2 0x15C5 JUMPI POP POP JUMP JUMPDEST PUSH1 0x20 DUP2 PUSH2 0x15F8 PUSH2 0xD8A PUSH32 0xC727C17294AD4F040BEC78BE22159F993FFB0F22F4DFCED8DAEAFC1EC2608A4C SWAP5 PUSH1 0x12 SLOAD PUSH2 0x1562 JUMP JUMPDEST PUSH2 0x161D DUP2 PUSH1 0x1 DUP1 PUSH1 0xA0 SHL SUB DUP7 AND SWAP6 DUP7 PUSH1 0x0 MSTORE PUSH1 0x8 DUP6 MSTORE TIMESTAMP PUSH1 0x2 PUSH1 0x40 PUSH1 0x0 KECCAK256 ADD SSTORE PUSH2 0x187C JUMP JUMPDEST PUSH2 0x1629 DUP2 PUSH1 0x12 SLOAD PUSH2 0x1562 JUMP JUMPDEST PUSH1 0x12 SSTORE DUP4 PUSH1 0x0 MSTORE PUSH1 0x9 DUP3 MSTORE PUSH1 0x40 PUSH1 0x0 KECCAK256 PUSH2 0x1644 DUP3 DUP3 SLOAD PUSH2 0x1562 JUMP JUMPDEST SWAP1 SSTORE PUSH1 0x40 MLOAD SWAP1 DUP2 MSTORE LOG2 JUMP JUMPDEST PUSH1 0x1 PUSH1 0x1 PUSH1 0xA0 SHL SUB AND DUP1 ISZERO PUSH2 0x16D8 JUMPI PUSH2 0x1666 PUSH2 0x18E2 JUMP JUMPDEST PUSH1 0x0 SWAP2 DUP2 DUP4 MSTORE DUP3 PUSH1 0x20 MSTORE PUSH1 0x40 DUP4 KECCAK256 SLOAD DUP2 DUP2 LT PUSH2 0x16BF JUMPI DUP2 PUSH32 0xDDF252AD1BE2C89B69C2B068FC378DAA952BA7F163C4A11628F55A4DF523B3EF SWAP3 PUSH1 0x20 SWAP3 DUP6 DUP8 MSTORE DUP7 DUP5 MSTORE SUB PUSH1 0x40 DUP7 KECCAK256 SSTORE DUP1 PUSH1 0x2 SLOAD SUB PUSH1 0x2 SSTORE PUSH1 0x40 MLOAD SWAP1 DUP2 MSTORE LOG3 JUMP JUMPDEST PUSH1 0x64 SWAP4 SWAP3 PUSH4 0x391434E3 PUSH1 0xE2 SHL DUP5 MSTORE PUSH1 0x4 MSTORE PUSH1 0x24 MSTORE PUSH1 0x44 MSTORE REVERT JUMPDEST PUSH4 0x4B637E8F PUSH1 0xE1 SHL PUSH1 0x0 MSTORE PUSH1 0x0 PUSH1 0x4 MSTORE PUSH1 0x24 PUSH1 0x0 REVERT JUMPDEST PUSH1 0x1 PUSH1 0x1 PUSH1 0xA0 SHL SUB AND SWAP1 DUP2 ISZERO PUSH2 0x16D8 JUMPI PUSH1 0x1 PUSH1 0x1 PUSH1 0xA0 SHL SUB AND SWAP2 DUP3 ISZERO PUSH2 0x178F JUMPI PUSH2 0x1716 PUSH2 0x18E2 JUMP JUMPDEST PUSH1 0x0 DUP3 DUP2 MSTORE DUP1 PUSH1 0x20 MSTORE PUSH1 0x40 DUP2 KECCAK256 SLOAD DUP3 DUP2 LT PUSH2 0x1775 JUMPI SWAP2 PUSH1 0x40 DUP3 DUP3 PUSH32 0xDDF252AD1BE2C89B69C2B068FC378DAA952BA7F163C4A11628F55A4DF523B3EF SWAP6 DUP8 PUSH1 0x20 SWAP7 MSTORE DUP3 DUP7 MSTORE SUB DUP3 DUP3 KECCAK256 SSTORE DUP7 DUP2 MSTORE DUP1 DUP5 MSTORE KECCAK256 DUP2 DUP2 SLOAD ADD SWAP1 SSTORE PUSH1 0x40 MLOAD SWAP1 DUP2 MSTORE LOG3 JUMP JUMPDEST SWAP2 PUSH1 0x64 SWAP3 DUP5 PUSH4 0x391434E3 PUSH1 0xE2 SHL DUP5 MSTORE PUSH1 0x4 MSTORE PUSH1 0x24 MSTORE PUSH1 0x44 MSTORE REVERT JUMPDEST PUSH4 0xEC442F05 PUSH1 0xE0 SHL PUSH1 0x0 MSTORE PUSH1 0x0 PUSH1 0x4 MSTORE PUSH1 0x24 PUSH1 0x0 REVERT JUMPDEST PUSH1 0x5 SLOAD PUSH1 0x8 SHR PUSH1 0x1 PUSH1 0x1 PUSH1 0xA0 SHL SUB AND CALLER SUB PUSH2 0x17BC JUMPI JUMP JUMPDEST PUSH4 0x118CDAA7 PUSH1 0xE0 SHL PUSH1 0x0 MSTORE CALLER PUSH1 0x4 MSTORE PUSH1 0x24 PUSH1 0x0 REVERT JUMPDEST PUSH1 0x1 PUSH1 0x1 PUSH1 0xA0 SHL SUB SWAP1 DUP2 AND PUSH1 0x0 DUP2 DUP2 MSTORE PUSH1 0x1 PUSH1 0x20 SWAP1 DUP2 MSTORE PUSH1 0x40 DUP1 DUP4 KECCAK256 SWAP5 DUP7 AND DUP4 MSTORE SWAP4 SWAP1 MSTORE SWAP2 SWAP1 SWAP2 KECCAK256 SLOAD SWAP3 SWAP2 SWAP1 PUSH1 0x0 NOT DUP5 LT PUSH2 0x180D JUMPI JUMPDEST POP POP POP POP JUMP JUMPDEST DUP3 DUP5 LT PUSH2 0x1857 JUMPI DUP1 ISZERO PUSH2 0x12BA JUMPI PUSH1 0x1 PUSH1 0x1 PUSH1 0xA0 SHL SUB DUP3 AND ISZERO PUSH2 0x12A4 JUMPI PUSH1 0x0 MSTORE PUSH1 0x1 PUSH1 0x20 MSTORE PUSH1 0x40 PUSH1 0x0 KECCAK256 SWAP1 PUSH1 0x1 DUP1 PUSH1 0xA0 SHL SUB AND PUSH1 0x0 MSTORE PUSH1 0x20 MSTORE PUSH1 0x40 PUSH1 0x0 KECCAK256 SWAP2 SUB SWAP1 SSTORE CODESIZE DUP1 DUP1 DUP1 PUSH2 0x1807 JUMP JUMPDEST POP DUP3 SWAP1 PUSH4 0x7DC7A0D9 PUSH1 0xE1 SHL PUSH1 0x0 MSTORE PUSH1 0x1 DUP1 PUSH1 0xA0 SHL SUB AND PUSH1 0x4 MSTORE PUSH1 0x24 MSTORE PUSH1 0x44 MSTORE PUSH1 0x64 PUSH1 0x0 REVERT JUMPDEST PUSH1 0x1 PUSH1 0x1 PUSH1 0xA0 SHL SUB AND SWAP1 DUP2 ISZERO PUSH2 0x178F JUMPI PUSH2 0x1894 PUSH2 0x18E2 JUMP JUMPDEST PUSH2 0x18A0 DUP2 PUSH1 0x2 SLOAD PUSH2 0x1562 JUMP JUMPDEST PUSH1 0x2 SSTORE PUSH32 0xDDF252AD1BE2C89B69C2B068FC378DAA952BA7F163C4A11628F55A4DF523B3EF PUSH1 0x20 PUSH1 0x0 SWAP3 DUP5 DUP5 MSTORE DUP4 DUP3 MSTORE PUSH1 0x40 DUP5 KECCAK256 DUP2 DUP2 SLOAD ADD SWAP1 SSTORE PUSH1 0x40 MLOAD SWAP1 DUP2 MSTORE LOG3 JUMP JUMPDEST PUSH1 0xFF PUSH1 0x5 SLOAD AND PUSH2 0x18EE JUMPI JUMP JUMPDEST PUSH4 0xD93C0665 PUSH1 0xE0 SHL PUSH1 0x0 MSTORE PUSH1 0x4 PUSH1 0x0 REVERT INVALID LOG2 PUSH5 0x6970667358 0x22 SLT KECCAK256 MUL 0xCA DELEGATECALL 0xB1 STATICCALL 0x2D SMOD CODECOPY 0xE3 0x24 0xD3 LOG4 LT MCOPY CREATE 0xD2 0xAB 0xCB 0xFC SWAP14 RETURN PUSH7 0x29DCA301E3170C 0xF9 SSTORE SWAP15 PUSH5 0x736F6C6343 STOP ADDMOD SHR STOP CALLER "},"methodIdentifiers":{"EMERGENCY_TIMELOCK()":"60d7442b","TOTAL_SUPPLY_CAP()":"48931352","allowance(address,address)":"dd62ed3e","approve(address,uint256)":"095ea7b3","balanceOf(address)":"70a08231","burn(uint256)":"42966c68","burnFrom(address,uint256)":"79cc6790","calculateStakingReward(address)":"0d505541","claimStakingRewards()":"6b69e05b","decimals()":"313ce567","deflationBurnRate()":"069260d6","distributedRewards()":"f3e14f1e","emergencyWithdrawTimestamp()":"23383e8a","executeEmergencyWithdraw(address,uint256)":"4f078894","getStakeInfo(address)":"c3453153","initiateEmergencyWithdraw(address,uint256)":"2f89695a","maxRewardPool()":"c7e4aa3c","minimumStakePeriod()":"046dfb20","mintedSupply()":"c1bd8cf9","name()":"06fdde03","owner()":"8da5cb5b","pause()":"8456cb59","paused()":"5c975abb","renounceOwnership()":"715018a6","setDeflationBurnRate(uint256)":"118bdb2e","setMinimumStakePeriod(uint256)":"31ce8ee1","setStakingRewardRate(uint256)":"b7d68519","setVerificationReward(uint256)":"6e902e31","stake(uint256,uint8)":"10087fb1","stakes(address)":"16934fc4","stakingRewardRate()":"4f3fc2df","stakingRewards(address)":"499d7f96","symbol()":"95d89b41","totalStaked()":"817b1cd2","totalSupply()":"18160ddd","transfer(address,uint256)":"a9059cbb","transferFrom(address,address,uint256)":"23b872dd","transferOwnership(address)":"f2fde38b","unpause()":"3f4ba83a","unstake()":"2def6620","verificationRewardAmount()":"6a08a86e","verificationRewards(address)":"f574a1d6","verifiedProofs(bytes32)":"176d80c4","verifyProofAndReward(bytes32,address)":"3766d94e"}}}}}