{"contracts/ValidationPool.sol":{"ValidationPool":{"abi":[{"inputs":[{"internalType":"contract TruthForgeToken","name":"_token","type":"address"},{"internalType":"contract ZKVerifier","name":"_zkVerifier","type":"address"},{"internalType":"bytes32","name":"_newsHash","type":"bytes32"},{"internalType":"uint256","name":"_endTime","type":"uint256"},{"internalType":"uint256[]","name":"_storyFlagWeights","type":"uint256[]"}],"stateMutability":"nonpayable","type":"constructor"},{"inputs":[],"name":"AccessControlBadConfirmation","type":"error"},{"inputs":[{"internalType":"address","name":"account","type":"address"},{"internalType":"bytes32","name":"neededRole","type":"bytes32"}],"name":"AccessControlUnauthorizedAccount","type":"error"},{"inputs":[],"name":"EnforcedPause","type":"error"},{"inputs":[],"name":"ExpectedPause","type":"error"},{"inputs":[],"name":"ReentrancyGuardReentrantCall","type":"error"},{"anonymous":false,"inputs":[{"indexed":true,"internalType":"bytes32","name":"nullifierHash","type":"bytes32"},{"indexed":true,"internalType":"bytes32","name":"domainNullifier","type":"bytes32"},{"indexed":true,"internalType":"address","name":"user","type":"address"}],"name":"NullifierGenerated","type":"event"},{"anonymous":false,"inputs":[{"indexed":false,"internalType":"address","name":"account","type":"address"}],"name":"Paused","type":"event"},{"anonymous":false,"inputs":[{"indexed":true,"internalType":"bytes32","name":"newsHash","type":"bytes32"},{"indexed":false,"internalType":"bool","name":"consensus","type":"bool"},{"indexed":false,"internalType":"uint256","name":"verifyStake","type":"uint256"},{"indexed":false,"internalType":"uint256","name":"discountStake","type":"uint256"}],"name":"PoolClosed","type":"event"},{"anonymous":false,"inputs":[{"indexed":true,"internalType":"bytes32","name":"newsHash","type":"bytes32"},{"indexed":false,"internalType":"string","name":"newState","type":"string"},{"indexed":false,"internalType":"uint256","name":"timestamp","type":"uint256"}],"name":"PoolStateChanged","type":"event"},{"anonymous":false,"inputs":[{"indexed":true,"internalType":"address","name":"participant","type":"address"},{"indexed":false,"internalType":"uint256","name":"reward","type":"uint256"},{"indexed":false,"internalType":"uint256","name":"originalStake","type":"uint256"},{"indexed":false,"internalType":"bool","name":"wasWinner","type":"bool"},{"indexed":false,"internalType":"uint256","name":"trustScore","type":"uint256"}],"name":"RewardCalculated","type":"event"},{"anonymous":false,"inputs":[{"indexed":true,"internalType":"bytes32","name":"role","type":"bytes32"},{"indexed":true,"internalType":"bytes32","name":"previousAdminRole","type":"bytes32"},{"indexed":true,"internalType":"bytes32","name":"newAdminRole","type":"bytes32"}],"name":"RoleAdminChanged","type":"event"},{"anonymous":false,"inputs":[{"indexed":true,"internalType":"bytes32","name":"role","type":"bytes32"},{"indexed":true,"internalType":"address","name":"account","type":"address"},{"indexed":true,"internalType":"address","name":"sender","type":"address"}],"name":"RoleGranted","type":"event"},{"anonymous":false,"inputs":[{"indexed":true,"internalType":"bytes32","name":"role","type":"bytes32"},{"indexed":true,"internalType":"address","name":"account","type":"address"},{"indexed":true,"internalType":"address","name":"sender","type":"address"}],"name":"RoleRevoked","type":"event"},{"anonymous":false,"inputs":[{"indexed":false,"internalType":"address","name":"account","type":"address"}],"name":"Unpaused","type":"event"},{"anonymous":false,"inputs":[{"indexed":true,"internalType":"address","name":"verifier","type":"address"},{"indexed":false,"internalType":"bool","name":"vote","type":"bool"},{"indexed":false,"internalType":"uint256","name":"stake","type":"uint256"},{"indexed":false,"internalType":"uint8","name":"degree","type":"uint8"},{"indexed":false,"internalType":"uint256","name":"weight","type":"uint256"},{"indexed":false,"internalType":"uint256","name":"gravity","type":"uint256"},{"indexed":false,"internalType":"bool","name":"flagged","type":"bool"},{"indexed":false,"internalType":"uint256","name":"totalVerifyStake","type":"uint256"},{"indexed":false,"internalType":"uint256","name":"totalDiscountStake","type":"uint256"}],"name":"VoteCast","type":"event"},{"anonymous":false,"inputs":[{"indexed":true,"internalType":"address","name":"user","type":"address"},{"indexed":false,"internalType":"uint256","name":"socialHash","type":"uint256"},{"indexed":false,"internalType":"uint256","name":"eventHash","type":"uint256"},{"indexed":false,"internalType":"string","name":"reason","type":"string"}],"name":"WeakEntropyDetected","type":"event"},{"inputs":[],"name":"DEFAULT_ADMIN_ROLE","outputs":[{"internalType":"bytes32","name":"","type":"bytes32"}],"stateMutability":"view","type":"function"},{"inputs":[],"name":"FACTORY_ROLE","outputs":[{"internalType":"bytes32","name":"","type":"bytes32"}],"stateMutability":"view","type":"function"},{"inputs":[],"name":"MAX_PARTICIPANTS","outputs":[{"internalType":"uint256","name":"","type":"uint256"}],"stateMutability":"view","type":"function"},{"inputs":[],"name":"MIN_STAKE","outputs":[{"internalType":"uint256","name":"","type":"uint256"}],"stateMutability":"view","type":"function"},{"inputs":[],"name":"POOL_ADMIN_ROLE","outputs":[{"internalType":"bytes32","name":"","type":"bytes32"}],"stateMutability":"view","type":"function"},{"inputs":[{"internalType":"address","name":"","type":"address"}],"name":"biasFlagged","outputs":[{"internalType":"bool","name":"","type":"bool"}],"stateMutability":"view","type":"function"},{"inputs":[{"internalType":"address","name":"user","type":"address"}],"name":"canUserVote","outputs":[{"internalType":"bool","name":"canVote","type":"bool"},{"internalType":"string","name":"reason","type":"string"}],"stateMutability":"view","type":"function"},{"inputs":[{"internalType":"uint256[2]","name":"a","type":"uint256[2]"},{"internalType":"uint256[2][2]","name":"b","type":"uint256[2][2]"},{"internalType":"uint256[2]","name":"c","type":"uint256[2]"},{"internalType":"uint256[5]","name":"input","type":"uint256[5]"},{"internalType":"uint256","name":"stakeAmount","type":"uint256"}],"name":"castVote","outputs":[],"stateMutability":"nonpayable","type":"function"},{"inputs":[],"name":"claimReward","outputs":[],"stateMutability":"nonpayable","type":"function"},{"inputs":[],"name":"closeAndDistribute","outputs":[],"stateMutability":"nonpayable","type":"function"},{"inputs":[],"name":"closed","outputs":[{"internalType":"bool","name":"","type":"bool"}],"stateMutability":"view","type":"function"},{"inputs":[],"name":"easilyVerifiable","outputs":[{"internalType":"bool","name":"","type":"bool"}],"stateMutability":"view","type":"function"},{"inputs":[],"name":"endTime","outputs":[{"internalType":"uint256","name":"","type":"uint256"}],"stateMutability":"view","type":"function"},{"inputs":[],"name":"finalConsensus","outputs":[{"internalType":"bool","name":"","type":"bool"}],"stateMutability":"view","type":"function"},{"inputs":[],"name":"forceClose","outputs":[],"stateMutability":"nonpayable","type":"function"},{"inputs":[{"internalType":"uint256","name":"socialHash","type":"uint256"},{"internalType":"uint256","name":"eventHash","type":"uint256"}],"name":"getNullifierInfo","outputs":[{"internalType":"bytes32","name":"nullifierHash","type":"bytes32"},{"internalType":"bytes32","name":"domainNullifier","type":"bytes32"},{"internalType":"bool","name":"isUsed","type":"bool"}],"stateMutability":"view","type":"function"},{"inputs":[],"name":"getParticipantCount","outputs":[{"internalType":"uint256","name":"","type":"uint256"}],"stateMutability":"view","type":"function"},{"inputs":[{"internalType":"uint256","name":"offset","type":"uint256"},{"internalType":"uint256","name":"limit","type":"uint256"}],"name":"getParticipantsBatch","outputs":[{"components":[{"internalType":"address","name":"participant","type":"address"},{"internalType":"bool","name":"vote","type":"bool"},{"internalType":"uint256","name":"stake","type":"uint256"},{"internalType":"uint8","name":"proximity","type":"uint8"},{"internalType":"uint256","name":"weight","type":"uint256"},{"internalType":"uint256","name":"gravity","type":"uint256"},{"internalType":"bool","name":"biasFlag","type":"bool"},{"internalType":"uint256","name":"pendingReward","type":"uint256"}],"internalType":"struct ValidationPool.ParticipantInfo[]","name":"","type":"tuple[]"}],"stateMutability":"view","type":"function"},{"inputs":[{"internalType":"address","name":"user","type":"address"}],"name":"getPendingReward","outputs":[{"internalType":"uint256","name":"","type":"uint256"}],"stateMutability":"view","type":"function"},{"inputs":[],"name":"getPoolStatus","outputs":[{"internalType":"bool","name":"isClosed","type":"bool"},{"internalType":"bool","name":"isVerifiable","type":"bool"},{"internalType":"uint256","name":"verifyStake","type":"uint256"},{"internalType":"uint256","name":"discountStake","type":"uint256"},{"internalType":"uint256","name":"remainingTime","type":"uint256"}],"stateMutability":"view","type":"function"},{"inputs":[],"name":"getPoolSummary","outputs":[{"components":[{"internalType":"bool","name":"closed","type":"bool"},{"internalType":"bool","name":"consensus","type":"bool"},{"internalType":"uint256","name":"totalParticipants","type":"uint256"},{"internalType":"uint256","name":"verifyStake","type":"uint256"},{"internalType":"uint256","name":"discountStake","type":"uint256"},{"internalType":"uint256","name":"timeRemaining","type":"uint256"},{"internalType":"uint256","name":"avgTrustScore","type":"uint256"}],"internalType":"struct ValidationPool.PoolSummary","name":"","type":"tuple"}],"stateMutability":"view","type":"function"},{"inputs":[{"internalType":"bytes32","name":"role","type":"bytes32"}],"name":"getRoleAdmin","outputs":[{"internalType":"bytes32","name":"","type":"bytes32"}],"stateMutability":"view","type":"function"},{"inputs":[{"internalType":"bytes32","name":"role","type":"bytes32"},{"internalType":"address","name":"account","type":"address"}],"name":"grantRole","outputs":[],"stateMutability":"nonpayable","type":"function"},{"inputs":[{"internalType":"address","name":"","type":"address"}],"name":"gravityScores","outputs":[{"internalType":"uint256","name":"","type":"uint256"}],"stateMutability":"view","type":"function"},{"inputs":[{"internalType":"address","name":"","type":"address"}],"name":"hasParticipated","outputs":[{"internalType":"bool","name":"","type":"bool"}],"stateMutability":"view","type":"function"},{"inputs":[{"internalType":"bytes32","name":"role","type":"bytes32"},{"internalType":"address","name":"account","type":"address"}],"name":"hasRole","outputs":[{"internalType":"bool","name":"","type":"bool"}],"stateMutability":"view","type":"function"},{"inputs":[],"name":"newsHash","outputs":[{"internalType":"bytes32","name":"","type":"bytes32"}],"stateMutability":"view","type":"function"},{"inputs":[{"internalType":"uint256","name":"","type":"uint256"}],"name":"participants","outputs":[{"internalType":"address","name":"","type":"address"}],"stateMutability":"view","type":"function"},{"inputs":[],"name":"pause","outputs":[],"stateMutability":"nonpayable","type":"function"},{"inputs":[],"name":"paused","outputs":[{"internalType":"bool","name":"","type":"bool"}],"stateMutability":"view","type":"function"},{"inputs":[{"internalType":"address","name":"","type":"address"}],"name":"pendingRewards","outputs":[{"internalType":"uint256","name":"","type":"uint256"}],"stateMutability":"view","type":"function"},{"inputs":[{"internalType":"address","name":"","type":"address"}],"name":"posteriorTrust","outputs":[{"internalType":"uint256","name":"","type":"uint256"}],"stateMutability":"view","type":"function"},{"inputs":[],"name":"preCommit","outputs":[],"stateMutability":"nonpayable","type":"function"},{"inputs":[{"internalType":"address","name":"","type":"address"}],"name":"proximityDegrees","outputs":[{"internalType":"uint8","name":"","type":"uint8"}],"stateMutability":"view","type":"function"},{"inputs":[{"internalType":"bytes32","name":"role","type":"bytes32"},{"internalType":"address","name":"callerConfirmation","type":"address"}],"name":"renounceRole","outputs":[],"stateMutability":"nonpayable","type":"function"},{"inputs":[{"internalType":"bytes32","name":"role","type":"bytes32"},{"internalType":"address","name":"account","type":"address"}],"name":"revokeRole","outputs":[],"stateMutability":"nonpayable","type":"function"},{"inputs":[{"internalType":"bool","name":"_flag","type":"bool"}],"name":"setEasilyVerifiable","outputs":[],"stateMutability":"nonpayable","type":"function"},{"inputs":[{"internalType":"address","name":"","type":"address"}],"name":"stakeTimestamp","outputs":[{"internalType":"uint256","name":"","type":"uint256"}],"stateMutability":"view","type":"function"},{"inputs":[{"internalType":"address","name":"","type":"address"}],"name":"stakesInPool","outputs":[{"internalType":"uint256","name":"","type":"uint256"}],"stateMutability":"view","type":"function"},{"inputs":[{"internalType":"uint256","name":"","type":"uint256"}],"name":"storyFlagWeights","outputs":[{"internalType":"uint256","name":"","type":"uint256"}],"stateMutability":"view","type":"function"},{"inputs":[{"internalType":"bytes4","name":"interfaceId","type":"bytes4"}],"name":"supportsInterface","outputs":[{"internalType":"bool","name":"","type":"bool"}],"stateMutability":"view","type":"function"},{"inputs":[],"name":"token","outputs":[{"internalType":"contract TruthForgeToken","name":"","type":"address"}],"stateMutability":"view","type":"function"},{"inputs":[],"name":"totalDiscountStake","outputs":[{"internalType":"uint256","name":"","type":"uint256"}],"stateMutability":"view","type":"function"},{"inputs":[],"name":"totalVerifyStake","outputs":[{"internalType":"uint256","name":"","type":"uint256"}],"stateMutability":"view","type":"function"},{"inputs":[],"name":"totalVotes","outputs":[{"internalType":"uint256","name":"","type":"uint256"}],"stateMutability":"view","type":"function"},{"inputs":[],"name":"unpause","outputs":[],"stateMutability":"nonpayable","type":"function"},{"inputs":[{"internalType":"uint256","name":"_newEndTime","type":"uint256"}],"name":"updateEndTime","outputs":[],"stateMutability":"nonpayable","type":"function"},{"inputs":[{"internalType":"bytes32","name":"","type":"bytes32"}],"name":"usedNullifiers","outputs":[{"internalType":"bool","name":"","type":"bool"}],"stateMutability":"view","type":"function"},{"inputs":[{"internalType":"address","name":"","type":"address"}],"name":"voteWeights","outputs":[{"internalType":"uint256","name":"","type":"uint256"}],"stateMutability":"view","type":"function"},{"inputs":[{"internalType":"address","name":"","type":"address"}],"name":"votes","outputs":[{"internalType":"bool","name":"","type":"bool"}],"stateMutability":"view","type":"function"},{"inputs":[],"name":"zkVerifier","outputs":[{"internalType":"contract ZKVerifier","name":"","type":"address"}],"stateMutability":"view","type":"function"}],"evm":{"bytecode":{"linkReferences":{},"object":"608060405234610313576136448038038061001981610318565b928339810160a0828203126103135781516001600160a01b03811692908381036103135760208201516001600160a01b038116908190036103135760408301516060840151608085015190949193916001600160401b03821161031357019585601f88011215610313578651956001600160401b03871161020d578660051b9760206100a6818b01610318565b8099815201906020829a82010192831161031357602001905b828210610303575050506001805562ffffff196006541660065560006009556000600a556000600b55156102ce57811561029457821561025b57428411156102235760028054610100600160a81b03191660089290921b610100600160a81b0316919091179055600380546001600160a01b03191691909117905560045560055551906001600160401b03821161020d5768010000000000000000821161020d57600754826007558083106101c7575b5090600760005260206000209160005b8281106101b35761018f3361033d565b50610199336103b9565b506101a333610451565b506040516130da90816104ea8239f35b60019060208351930192818601550161017f565b60076000527fa66cc928b5edb82af9bd49922954155ab7b0942694bea4ce44661d9a8736c6889081019083015b818110610201575061016f565b600081556001016101f4565b634e487b7160e01b600052604160045260246000fd5b60405162461bcd60e51b815260206004820152601060248201526f496e76616c696420656e642074696d6560801b6044820152606490fd5b60405162461bcd60e51b8152602060048201526011602482015270092dcecc2d8d2c840dccaeee640d0c2e6d607b1b6044820152606490fd5b60405162461bcd60e51b815260206004820152601260248201527124b73b30b634b2103d35ab32b934b334b2b960711b6044820152606490fd5b60405162461bcd60e51b815260206004820152600d60248201526c24b73b30b634b2103a37b5b2b760991b6044820152606490fd5b81518152602091820191016100bf565b600080fd5b6040519190601f01601f191682016001600160401b0381118382101761020d57604052565b6001600160a01b0381166000908152600080516020613624833981519152602052604090205460ff166103b3576001600160a01b0316600081815260008051602061362483398151915260205260408120805460ff191660011790553391906000805160206135c48339815191528180a4600190565b50600090565b6001600160a01b03811660009081526000805160206135e4833981519152602052604090205460ff166103b3576001600160a01b031660008181526000805160206135e483398151915260205260408120805460ff191660011790553391907f24e583e35a20f9ecfc1572e7cb66bcc18ad3cd1650ec40dbf6ad2290e553a9fa906000805160206135c48339815191529080a4600190565b6001600160a01b0381166000908152600080516020613604833981519152602052604090205460ff166103b3576001600160a01b0316600081815260008051602061360483398151915260205260408120805460ff191660011790553391907fdfbefbf47cfe66b701d8cfdbce1de81c821590819cb07e71cb01b6602fb0ee27906000805160206135c48339815191529080a460019056fe608080604052600436101561001357600080fd5b60003560e01c90816301ffc9a71461214f5750806303bac8801461144857806304a0fb171461140d5780630d15fd77146113ef5780630de519b4146113d1578063168299f3146113b35780631a411f4f146113795780631a55a2f51461129e578063206137aa1461126d578063248a9ca3146112385780632d5b9f89146111b75780632f2ff15d146111775780633197cbb61461115957806331d7a26214610d9d57806335c1d3491461111757806336568abe146110d15780633f4ba83a14611068578063430b007714610dd75780634df9d6ba14610d9d578063597e1fb514610d7a5780635c975abb14610d575780636513e97314610d1f57806367cc910f14610ce55780636ab3846b14610c755780637025907714610c3b5780637767841414610c225780637ad24fe214610bfc5780637f79496c14610b935780638456cb5914610b395780638ba24b4114610aff57806391d1485414610ab2578063936cbcbe14610a3c5780639dbe0a89146108b1578063a217fddf14610895578063a7f4a35614610851578063ad60572914610833578063b4fb3ee3146107f4578063b88a802f14610668578063b8f6dba71461062d578063c610ab771461060f578063c7473670146105e9578063cb1c2b5c146105c6578063d547741f1461057f578063d6df096d14610556578063d8bff5a514610517578063d97d44b1146104dd578063ddf0a8b0146104a0578063e855daa114610461578063f3baf07014610444578063fab9ac1d146102825763fc0c546a1461025057600080fd5b3461027d57600036600319011261027d5760025460405160089190911c6001600160a01b03168152602090f35b600080fd5b3461027d57600036600319011261027d57600060c06040516102a3816121bf565b8281528260208201528260408201528260608201528260808201528260a0820152015260055480421060001461043c576102de904290612434565b600c5460009182805b83811061038e575060e093801561038457610301916123f8565b905b60065492600954600a54916040519561031b876121bf565b60c060ff821615159788815260ff602082019360101c161515835260408101938452606081019485526080810195865260a081019687520195865260405196875251151560208701525160408601525160608501525160808401525160a08301525160c0820152f35b5050600090610303565b610397816122ad565b60018060a01b0391549060031b1c16600052600f6020526040600020541580159061040e575b6103ca575b6001016102e7565b93906104066104006001926103de886122ad565b858060a01b0391549060031b1c16600052601460205260406000205490612427565b92612418565b9490506103c2565b50610418816122ad565b60018060a01b0391549060031b1c16600052601660205260406000205415156103bd565b5060006102de565b3461027d57600036600319011261027d5760206040516103e88152f35b3461027d57602036600319011261027d576001600160a01b0361048261223a565b166000526013602052602060ff604060002054166040519015158152f35b3461027d57602036600319011261027d576001600160a01b036104c161223a565b166000526010602052602060ff60406000205416604051908152f35b3461027d57602036600319011261027d576001600160a01b036104fe61223a565b1660005260126020526020604060002054604051908152f35b3461027d57602036600319011261027d576001600160a01b0361053861223a565b16600052600e602052602060ff604060002054166040519015158152f35b3461027d57600036600319011261027d576003546040516001600160a01b039091168152602090f35b3461027d57604036600319011261027d576105c460043561059e612250565b906105bf6105ba82600052600060205260016040600020015490565b612667565b61272d565b005b3461027d57600036600319011261027d576020604051670de0b6b3a76400008152f35b3461027d57600036600319011261027d57602060ff60065460101c166040519015158152f35b3461027d57600036600319011261027d576020600954604051908152f35b3461027d57600036600319011261027d5760206040517f24e583e35a20f9ecfc1572e7cb66bcc18ad3cd1650ec40dbf6ad2290e553a9fa8152f35b3461027d57600036600319011261027d576106816125b6565b33600052601660205260406000205480156107c35760ff600654161561078c57336000818152601660209081526040808320839055600254905163a9059cbb60e01b8152600481019490945260248401949094529192839160449183919060081c6001600160a01b03165af190811561078057600091610746575b50156107085760018055005b60405162461bcd60e51b815260206004820152601660248201527514995dd85c99081d1c985b9cd9995c8819985a5b195960521b6044820152606490fd5b90506020813d602011610778575b81610761602093836121db565b8101031261027d57610772906123b0565b816106fc565b3d9150610754565b6040513d6000823e3d90fd5b60405162461bcd60e51b815260206004820152600f60248201526e141bdbdb081b9bdd0818db1bdcd959608a1b6044820152606490fd5b60405162461bcd60e51b8152602060048201526009602482015268139bc81c995dd85c9960ba1b6044820152606490fd5b3461027d57602036600319011261027d576001600160a01b0361081561223a565b16600052600d602052602060ff604060002054166040519015158152f35b3461027d57600036600319011261027d576020600c54604051908152f35b3461027d57602036600319011261027d5761087261086d61223a565b61246d565b90610891604051928392151583526040602084015260408301906122c8565b0390f35b3461027d57600036600319011261027d57602060405160008152f35b3461027d57602036600319011261027d5760043580151580820361027d573360009081527faae065819044e7c1f6f3a25fcf56eec95d9ef9dcbfbb8eb1f8a4a273b3bd0146602052604090205460ff1615610a035761ff006006549160081b1661ff00198216176006556004546000836000146109b857507f8c15467ff64c6763764fedbdb94b2e371391605368e0b69baf8f3702c27d67a961098e60405161095b6040826121db565b6011815270656173696c795f76657269666961626c6560781b60208201525b6040519182916040835260408301906122c8565b4260208301520390a2816109ac575b506109a457005b6105c46127af565b60ff915016158161099d565b507f8c15467ff64c6763764fedbdb94b2e371391605368e0b69baf8f3702c27d67a961098e6040516109eb6040826121db565b600681526561637469766560d01b602082015261097a565b63e2517d3f60e01b600052336004527fdfbefbf47cfe66b701d8cfdbce1de81c821590819cb07e71cb01b6602fb0ee2760245260446000fd5b3461027d57600036600319011261027d57610a556125f5565b6005544210801590610aa3575b15610a6f576105c46127af565b60405162461bcd60e51b815260206004820152600c60248201526b4e6f7420636c6f7361626c6560a01b6044820152606490fd5b5060ff60065460081c16610a62565b3461027d57604036600319011261027d57610acb612250565b600435600052600060205260406000209060018060a01b0316600052602052602060ff604060002054166040519015158152f35b3461027d57602036600319011261027d576001600160a01b03610b2061223a565b1660005260146020526020604060002054604051908152f35b3461027d57600036600319011261027d57610b526125f5565b610b5a6125d8565b600160ff1960025416176002557f62e78cea01bee320cd4e420270b5ea74000d11b0c9f74754ebdbfc544b05a2586020604051338152a1005b3461027d57600036600319011261027d57600554804210600014610bf257610bbe60a0914290612434565b60065490600954600a549060ff604051948181161515865260081c1615156020850152604084015260608301526080820152f35b5060a06000610bbe565b3461027d57600036600319011261027d57602060ff60065460081c166040519015158152f35b3461027d57600036600319011261027d576109a46125f5565b3461027d57602036600319011261027d576001600160a01b03610c5c61223a565b1660005260156020526020604060002054604051908152f35b3461027d57602036600319011261027d57600435610c916125f5565b42811115610cad57610ca860ff6006541615612309565b600555005b60405162461bcd60e51b815260206004820152601060248201526f496e76616c696420656e642074696d6560801b6044820152606490fd5b3461027d57602036600319011261027d576001600160a01b03610d0661223a565b1660005260116020526020604060002054604051908152f35b3461027d57602036600319011261027d5760043560075481101561027d57610d4860209161227c565b90549060031b1c604051908152f35b3461027d57600036600319011261027d57602060ff600254166040519015158152f35b3461027d57600036600319011261027d57602060ff600654166040519015158152f35b3461027d57602036600319011261027d576001600160a01b03610dbe61223a565b1660005260166020526020604060002054604051908152f35b3461027d57610de536612266565b600c54908183101561102c57610dfb9083612427565b90808211611024575b50610e0f8282612434565b91610e1983612441565b92610e2760405194856121db565b808452610e36601f1991612441565b0160005b818110610fd5575050805b828110610eea578360405180916020820160208352815180915260206040840192019060005b818110610e79575050500390f35b91935091602061010060019260e08751858060a01b038151168352848101511515858401526040810151604084015260ff60608201511660608401526080810151608084015260a081015160a084015260c0810151151560c0840152015160e0820152019401910191849392610e6b565b80610fce610ef96001936122ad565b848060a01b0391549060031b1c1680600052600e60205260ff6040600020541681600052600f60205260406000205482600052601060205260ff604060002054168360005260116020526040600020548460005260126020526040600020549185600052601360205260ff60406000205416938660005260166020526040600020549560405197610f89896121a2565b88521515602088015260408701526060860152608085015260a0840152151560c083015260e0820152610fbc8584612434565b90610fc78289612459565b5286612459565b5001610e45565b602090604051610fe4816121a2565b60008152600083820152600060408201526000606082015260006080820152600060a0820152600060c0820152600060e082015282828801015201610e3a565b905082610e04565b60405162461bcd60e51b81526020600482015260146024820152734f6666736574206f7574206f6620626f756e647360601b6044820152606490fd5b3461027d57600036600319011261027d576110816125f5565b60025460ff8116156110c05760ff19166002557f5db9ee0a495bf2e6ff9c91a7834c1ba4fdd244a5e8aa4e537bd38aeae4b073aa6020604051338152a1005b638dfc202b60e01b60005260046000fd5b3461027d57604036600319011261027d576110ea612250565b336001600160a01b03821603611106576105c49060043561272d565b63334bd91960e11b60005260046000fd5b3461027d57602036600319011261027d57600435600c5481101561027d576111406020916122ad565b905460405160039290921b1c6001600160a01b03168152f35b3461027d57600036600319011261027d576020600554604051908152f35b3461027d57604036600319011261027d576105c4600435611196612250565b906111b26105ba82600052600060205260016040600020015490565b6126a2565b3461027d57600036600319011261027d576111d760ff6006541615612309565b3360005260156020526040600020546111ff5733600052601560205242604060002055600080f35b60405162461bcd60e51b8152602060048201526011602482015270105b1c9958591e4818dbdb5b5a5d1d1959607a1b6044820152606490fd5b3461027d57602036600319011261027d576020611265600435600052600060205260016040600020015490565b604051908152f35b3461027d57602036600319011261027d576004356000526008602052602060ff604060002054166040519015158152f35b3461027d5760606112ae36612266565b906112cf6112dd600454936040519283916020830195873092339289612343565b03601f1981018352826121db565b519020906112cf61132e600554604051928391602083019587879160799391785452555448464f5247455f504f4f4c5f444f4d41494e5f563360381b84526019840152603983015260598201520190565b51902081600052600860205260ff6040600020541690811561135f575b604051928352602083015215156040820152f35b809150600052600860205260ff604060002054169061134b565b3461027d57602036600319011261027d576001600160a01b0361139a61223a565b16600052600f6020526020604060002054604051908152f35b3461027d57600036600319011261027d576020600454604051908152f35b3461027d57600036600319011261027d576020600a54604051908152f35b3461027d57600036600319011261027d576020600b54604051908152f35b3461027d57600036600319011261027d5760206040517fdfbefbf47cfe66b701d8cfdbce1de81c821590819cb07e71cb01b6602fb0ee278152f35b3461027d576101c036600319011261027d57366023121561027d5761146e3660046121fd565b366063121561027d57604080519061148681836121db565b813660c41161027d576044905b60c482106121285750503660e3121561027d576114b13660c46121fd565b9236610123121561027d578151906114ca60a0836121db565b81366101a41161027d57610104905b6101a482106121185750506101a435936114f16125b6565b6114f96125d8565b61150860ff6006541615612309565b6005544210156120e757670de0b6b3a764000085106120b3576103e8600c54101561207757336000526015602052836000205415612003575b60208301958651858501908151906112cf61156e600454938a519283916020830195873092339289612343565b5190209182600052600860205260ff886000205416611fd157895115611f9757805115611f5e57606087019960018b51101580611f52575b15611f1d576064608089015111611ed9575190518315611ea4576103e7821115611e61576103e7811115611e1d57808214611d6e576064820615611cb3576064810615611bf95750506112cf61163b6005548951928391602083019587879160799391785452555448464f5247455f504f4f4c5f444f4d41494e5f563360381b84526019840152603983015260598201520190565b5190209080600052600860205260ff876000205416611bbc5781600052600860205260ff876000205416611b785780600052600860205286600020600160ff1982541617905581600052600860205286600020600160ff1982541617905533600052601560205242876000205586519133917f8338cd7fc0a43668cc17e80cb2e7346731f7571425ba7bacdb6ac206579fcf47600080a4602081606481600060018060a01b0360025460081c166323b872dd60e01b83523360048401523060248401528c60448401525af1908115611b6d57600091611b33575b5015611af75760035485516388faefbf60e01b8152936001600160a01b0390911692906117469060048601906123bd565b600086604486015b60028310611ad857505050506117689060c48401906123bd565b8183600061010483015b60058210611abe575050506101a48160006080945af1918215611ab3576000809281908295611a5f575b5081928215611a2b57600160ff915114985116916007548015159081611a20575b506119ec575b5033600052600f60205286866000205533600052600e6020526117f588876000209060ff801983541691151516179055565b336000526010602052856000208260ff1982541617905533600052601160205282866000205533600052601260205283866000205533600052601360205261184c85876000209060ff801983541691151516179055565b336000526014602052808660002055611866600b54612418565b600b5533600052600d60205260ff86600020541615611976575b61188a90876123e5565b670de0b6b3a7640000810290808204670de0b6b3a764000014901517156119605768056bc75e2d63100000900484611944575b8715611930576118cf90600954612427565b6009555b60095494600a54968151988952602089015287015260608601526080850152151560a084015260c083015260e08201527ff4b2d5170cf44e4b42bb0f2013351902934868b9aa8b7a47d61db9502918c6236101003392a260018055005b61193c90600a54612427565b600a556118d3565b604b810290808204604b149015171561196057606490046118bd565b634e487b7160e01b600052601160045260246000fd5b600c5490680100000000000000008210156119d65761199e82600161188a9401600c556122ad565b81549060031b9033821b9160018060a01b03901b191617905533600052600d60205286600020600160ff198254161790559050611880565b634e487b7160e01b600052604160045260246000fd5b909250600019820160ff811161196057606491611a0b611a189261227c565b90549060031b1c906123e5565b0491886117c3565b90508311158a6117bd565b865162461bcd60e51b815260206004820152600d60248201526c24b73b30b634b210383937b7b360991b6044820152606490fd5b9350509092506080823d608011611aab575b81611a7e608093836121db565b81010312611aa857508051916020820151611a9f60608685015194016123b0565b9390928861179c565b80fd5b3d9150611a71565b83513d6000823e3d90fd5b829350602080916001939451815201930191018492611772565b60019181611ae960209387516123bd565b01930191019091879061174e565b845162461bcd60e51b815260206004820152601560248201527414dd185ad9481d1c985b9cd9995c8819985a5b1959605a1b6044820152606490fd5b90506020813d602011611b65575b81611b4e602093836121db565b8101031261027d57611b5f906123b0565b88611715565b3d9150611b41565b86513d6000823e3d90fd5b865162461bcd60e51b815260206004820152601d60248201527f446f6d61696e206e756c6c696669657220616c726561647920757365640000006044820152606490fd5b865162461bcd60e51b8152602060048201526016602482015275139d5b1b1a599a595c88185b1c9958591e481d5cd95960521b6044820152606490fd5b608491899182519182526020820152606082820152601b60608201527f4576656e74206861736820646976697369626c6520627920313030000000000060808201527fa1c909aa653deb2baca6c9f1e43fe5d6cd72becd8d9cc18203703a840320d0ec60a03392a25162461bcd60e51b815260206004820152602960248201527f4576656e7420686173682061707065617273206172746966696369616c6c792060448201526819d95b995c985d195960ba1b6064820152fd5b608491899182519182526020820152606082820152601c60608201527f536f6369616c206861736820646976697369626c65206279203130300000000060808201527fa1c909aa653deb2baca6c9f1e43fe5d6cd72becd8d9cc18203703a840320d0ec60a03392a25162461bcd60e51b815260206004820152602a60248201527f536f6369616c20686173682061707065617273206172746966696369616c6c796044820152690819d95b995c985d195960b21b6064820152fd5b608491899182519182526020820152606082820152601060608201526f4964656e746963616c2068617368657360801b60808201527fa1c909aa653deb2baca6c9f1e43fe5d6cd72becd8d9cc18203703a840320d0ec60a03392a25162461bcd60e51b815260206004820152602b60248201527f536f6369616c20616e64206576656e74206861736865732063616e6e6f74206260448201526a19481a59195b9d1a58d85b60aa1b6064820152fd5b885162461bcd60e51b815260206004820152601f60248201527f4576656e74206861736820656e74726f707920696e73756666696369656e74006044820152606490fd5b6064895162461bcd60e51b815260206004820152602060248201527f536f6369616c206861736820656e74726f707920696e73756666696369656e746044820152fd5b885162461bcd60e51b815260206004820152600e60248201526d273ab63610373ab63634b334b2b960911b6044820152606490fd5b885162461bcd60e51b815260206004820152601760248201527f496e76616c6964206576656e742072656c6576616e63650000000000000000006044820152606490fd5b885162461bcd60e51b815260206004820152600e60248201526d496e76616c69642064656772656560901b6044820152606490fd5b5060048b5111156115a6565b875162461bcd60e51b8152602060048201526012602482015271092dcecc2d8d2c840caeccadce840d0c2e6d60731b6044820152606490fd5b875162461bcd60e51b8152602060048201526013602482015272092dcecc2d8d2c840e6dec6d2c2d840d0c2e6d606b1b6044820152606490fd5b875162461bcd60e51b815260206004820152600b60248201526a446f75626c6520766f746560a81b6044820152606490fd5b637735940042101561206c5761ffff60005b16421061203057336000526015602052428460002055611541565b835162461bcd60e51b8152602060048201526015602482015274233630b9b4103637b0b710383937ba32b1ba34b7b760591b6044820152606490fd5b61ffff610e10612015565b835162461bcd60e51b8152602060048201526015602482015274546f6f206d616e79207061727469636970616e747360581b6044820152606490fd5b835162461bcd60e51b815260206004820152600d60248201526c5374616b6520746f6f206c6f7760981b6044820152606490fd5b835162461bcd60e51b815260206004820152600a602482015269141bdbdb08195b99195960b21b6044820152606490fd5b81358152602091820191016114d9565b600036601f84011215611aa857506020839161214436856121fd565b815201910190611493565b3461027d57602036600319011261027d576004359063ffffffff60e01b821680920361027d57602091637965db0b60e01b8114908115612191575b5015158152f35b6301ffc9a760e01b1490508361218a565b610100810190811067ffffffffffffffff8211176119d657604052565b60e0810190811067ffffffffffffffff8211176119d657604052565b90601f8019910116810190811067ffffffffffffffff8211176119d657604052565b919060408051939061220f90856121db565b83906040810192831161027d57905b82821061222a57505050565b813581526020918201910161221e565b600435906001600160a01b038216820361027d57565b602435906001600160a01b038216820361027d57565b604090600319011261027d576004359060243590565b60075481101561229757600760005260206000200190600090565b634e487b7160e01b600052603260045260246000fd5b600c5481101561229757600c60005260206000200190600090565b919082519283825260005b8481106122f4575050826000602080949584010152601f8019910116010190565b806020809284010151828286010152016122d3565b1561231057565b60405162461bcd60e51b815260206004820152600b60248201526a141bdbdb0818db1bdcd95960aa1b6044820152606490fd5b9391609f9593917f5452555448464f5247455f4e554c4c49464945525f563300000000000000000086526017860152603785015260578401526bffffffffffffffffffffffff199060601b1660778301526bffffffffffffffffffffffff199060601b16608b8201520190565b5190811515820361027d57565b906000905b600282106123cf57505050565b60208060019285518152019301910190916123c2565b8181029291811591840414171561196057565b8115612402570490565b634e487b7160e01b600052601260045260246000fd5b60001981146119605760010190565b9190820180921161196057565b9190820391821161196057565b67ffffffffffffffff81116119d65760051b60200190565b80518210156122975760209160051b010190565b60ff600654166125895760055442101561255d576103e8600c541015612526576001600160a01b0316600090815260156020526040902054156124c3575b6001906040516124bc6020826121db565b6000815290565b637735940042101561251b5761ffff60005b164210156124ab576000906040516124ee6040826121db565b601c81527f466c617368206c6f616e2070726f74656374696f6e2061637469766500000000602082015290565b61ffff610e106124d5565b506000906040516125386040826121db565b6015815274546f6f206d616e79207061727469636970616e747360581b602082015290565b5060009060405161256f6040826121db565b600a815269141bdbdb08195b99195960b21b602082015290565b5060009060405161259b6040826121db565b600b81526a141bdbdb0818db1bdcd95960aa1b602082015290565b6002600154146125c7576002600155565b633ee5aeb560e01b60005260046000fd5b60ff600254166125e457565b63d93c066560e01b60005260046000fd5b3360009081527fd30826e6d5fa6e2780de4f5ab578641daafb73060b36a45d03e63fea9a571190602052604090205460ff161561262e57565b63e2517d3f60e01b600052336004527f24e583e35a20f9ecfc1572e7cb66bcc18ad3cd1650ec40dbf6ad2290e553a9fa60245260446000fd5b60008181526020818152604080832033845290915290205460ff161561268a5750565b63e2517d3f60e01b6000523360045260245260446000fd5b6000818152602081815260408083206001600160a01b038616845290915290205460ff16612726576000818152602081815260408083206001600160a01b0395909516808452949091528120805460ff19166001179055339291907f2f8788117e7eff1d82e926ec794901d17c78024a50270940304540a733656f0d9080a4600190565b5050600090565b6000818152602081815260408083206001600160a01b038616845290915290205460ff1615612726576000818152602081815260408083206001600160a01b0395909516808452949091528120805460ff19169055339291907ff6391f5c32d9c69d2a47ea670b442974b53935d1edc7fd64eb21e047a839171b9080a4600190565b60065460ff811661284f5760ff198116600117600655600954600a54101561283657506201000062ff00001960065416176006556127eb612c6a565b6004547f1fac53a191157c168930e8243c9ef26bfeb54d57359284ff5e216a65cd227804606060ff60065460101c16600954600a5490604051921515835260208301526040820152a2565b62ff00ff191660011760065561284a612885565b6127eb565b60405162461bcd60e51b815260206004820152600e60248201526d105b1c9958591e4818db1bdcd95960921b6044820152606490fd5b600954906032820282810460321483151715611960576127109004918215159283612c08575b60009182600c54905b818110612b3c5750508215612aca5760005b600c54811015612ac2576128d9816122ad565b60018060a01b0391549060031b1c169081600052600f602052604060002054612907575b60019150016128c6565b81600052600e60205260ff604060002054169180600052600f602052604060002054921580612aba575b15612a4c57806000526014602052876064612951604060002054866123e5565b0482600052601360205287878760ff60406000205416612a26575b85946129c5858560019b9561299e6080986129996000805160206130858339815191529b6129df996123e5565b6123f8565b9460009015612a1c57506129b592612999916123e5565b915b6129ca836129c58388612427565b612427565b88600052601660205260406000205584612427565b908460005260146020526040600020549060405192835260208301528760408301526060820152a25b600052600f602052600060408120556128fd565b92505050916129b7565b5050509050604b810290808204604b14901517156119605788906064900487878761296c565b80600080516020613085833981519152608060019583600052601460205260c8612a7b604060002054836123e5565b049084600052601660205281604060002055846000526014602052604060002054906040519283526020830152600060408301526060820152a2612a08565b506001612931565b505050509050565b505050905060005b600c54811015612b395780612ae86001926122ad565b838060a01b0391549060031b1c1680600052600f602052604060002054612b11575b5001612ad2565b6000908152600f60208181526040808420805460168452918520919091559190525538612b0a565b50565b612b45816122ad565b905460039190911b1c6001600160a01b03166000818152600f6020526040902054151580612bef575b612b7c575b506001016128b4565b80600096929652600f6020526064612ba8604060002054836000526014602052604060002054906123e5565b0490600052601360205260ff60406000205416612bd3575b612bcc90600192612427565b9490612b73565b604b810290808204604b14901517156119605760649004612bc0565b5080600052600e60205260ff6040600020541615612b6e565b60025460081c6001600160a01b0316803b1561027d576040516340c10f1960e01b815230600482015260248101839052906000908290604490829084905af1801561078057612c58575b506128ab565b6000612c63916121db565b6000612c52565b600090600a549160328302838104603214841517156130705761271090049283151580612ffe575b829483600c54905b818110612f245750508515612eae57835b600c54811015612ea557612cbe816122ad565b905460039190911b1c6001600160a01b0316808652600f6020526040862054612ceb575b50600101612cab565b808652600e60205260ff604087205416818752600f602052600160408820549115151480612e9d575b15612e3457818752601460205286856064612d336040842054856123e5565b0484835260136020528b878a60ff604087205416612df6575b946129c5600080516020613085833981519152958585612db395612d7d8d9c9860019f9e9c60809b612999916123e5565b9315612ded57612d9092612999916123e5565b925b6040612da2856129c5858a612427565b918a81526016602052205584612427565b90848c52601460205260408c20549060405192835260208301528760408301526060820152a25b8652600f60205285604081205590612ce2565b50505082612d92565b505050809250604b91500290808204604b1490151715612e205787908690606490048b878a612d4c565b634e487b7160e01b88526011600452602488fd5b9080600080516020613085833981519152608060019594838b52601460205260c8612e6360408d2054836123e5565b0490848c5260166020528160408d2055848c52601460205260408c20549060405192835260208301528b60408301526060820152a2612dda565b506001612d14565b50505050509050565b505050809192505b600c54811015612f205780612ecc6001926122ad565b838060a01b0391549060031b1c16808452600f6020526040842054612ef3575b5001612eb6565b808452600f6020526040842054818552601660205260408520558352600f60205282604081205538612eec565b5050565b612f2d816122ad565b905460039190911b1c6001600160a01b0316808752600f6020526040872054151580612fe3575b612f62575b50600101612c9a565b808799929952600f6020526064612f8a6040892054838a52601460205260408a2054906123e5565b04908752601360205260ff604088205416612fb3575b612fac90600192612427565b9790612f59565b604b810290808204604b1490151715612fcf5760649004612fa0565b634e487b7160e01b87526011600452602487fd5b50808752600e602052600160ff604089205416151514612f54565b60025460081c6001600160a01b0316803b1561306c576040516340c10f1960e01b8152306004820152602481018790529084908290604490829084905af180156130615761304d575b50612c92565b8361305a919492946121db565b9138613047565b6040513d86823e3d90fd5b8380fd5b634e487b7160e01b82526011600452602482fdfe2b41c6b9ff2746050970522f8dd9f5824587212166cdb2b12f40a1068a616b49a2646970667358221220cfe2d6aa2c33a7c61b4c8a4cc06e1adf3d630dfa16c9aff2ccd73c2e260426f164736f6c634300081c00332f8788117e7eff1d82e926ec794901d17c78024a50270940304540a733656f0dd30826e6d5fa6e2780de4f5ab578641daafb73060b36a45d03e63fea9a571190aae065819044e7c1f6f3a25fcf56eec95d9ef9dcbfbb8eb1f8a4a273b3bd0146ad3228b676f7d3cd4284a5443f17f1962b36e491b30a40b2405849e597ba5fb5","opcodes":"PUSH1 0x80 PUSH1 0x40 MSTORE CALLVALUE PUSH2 0x313 JUMPI PUSH2 0x3644 DUP1 CODESIZE SUB DUP1 PUSH2 0x19 DUP2 PUSH2 0x318 JUMP JUMPDEST SWAP3 DUP4 CODECOPY DUP2 ADD PUSH1 0xA0 DUP3 DUP3 SUB SLT PUSH2 0x313 JUMPI DUP2 MLOAD PUSH1 0x1 PUSH1 0x1 PUSH1 0xA0 SHL SUB DUP2 AND SWAP3 SWAP1 DUP4 DUP2 SUB PUSH2 0x313 JUMPI PUSH1 0x20 DUP3 ADD MLOAD PUSH1 0x1 PUSH1 0x1 PUSH1 0xA0 SHL SUB DUP2 AND SWAP1 DUP2 SWAP1 SUB PUSH2 0x313 JUMPI PUSH1 0x40 DUP4 ADD MLOAD PUSH1 0x60 DUP5 ADD MLOAD PUSH1 0x80 DUP6 ADD MLOAD SWAP1 SWAP5 SWAP2 SWAP4 SWAP2 PUSH1 0x1 PUSH1 0x1 PUSH1 0x40 SHL SUB DUP3 GT PUSH2 0x313 JUMPI ADD SWAP6 DUP6 PUSH1 0x1F DUP9 ADD SLT ISZERO PUSH2 0x313 JUMPI DUP7 MLOAD SWAP6 PUSH1 0x1 PUSH1 0x1 PUSH1 0x40 SHL SUB DUP8 GT PUSH2 0x20D JUMPI DUP7 PUSH1 0x5 SHL SWAP8 PUSH1 0x20 PUSH2 0xA6 DUP2 DUP12 ADD PUSH2 0x318 JUMP JUMPDEST DUP1 SWAP10 DUP2 MSTORE ADD SWAP1 PUSH1 0x20 DUP3 SWAP11 DUP3 ADD ADD SWAP3 DUP4 GT PUSH2 0x313 JUMPI PUSH1 0x20 ADD SWAP1 JUMPDEST DUP3 DUP3 LT PUSH2 0x303 JUMPI POP POP POP PUSH1 0x1 DUP1 SSTORE PUSH3 0xFFFFFF NOT PUSH1 0x6 SLOAD AND PUSH1 0x6 SSTORE PUSH1 0x0 PUSH1 0x9 SSTORE PUSH1 0x0 PUSH1 0xA SSTORE PUSH1 0x0 PUSH1 0xB SSTORE ISZERO PUSH2 0x2CE JUMPI DUP2 ISZERO PUSH2 0x294 JUMPI DUP3 ISZERO PUSH2 0x25B JUMPI TIMESTAMP DUP5 GT ISZERO PUSH2 0x223 JUMPI PUSH1 0x2 DUP1 SLOAD PUSH2 0x100 PUSH1 0x1 PUSH1 0xA8 SHL SUB NOT AND PUSH1 0x8 SWAP3 SWAP1 SWAP3 SHL PUSH2 0x100 PUSH1 0x1 PUSH1 0xA8 SHL SUB AND SWAP2 SWAP1 SWAP2 OR SWAP1 SSTORE PUSH1 0x3 DUP1 SLOAD PUSH1 0x1 PUSH1 0x1 PUSH1 0xA0 SHL SUB NOT AND SWAP2 SWAP1 SWAP2 OR SWAP1 SSTORE PUSH1 0x4 SSTORE PUSH1 0x5 SSTORE MLOAD SWAP1 PUSH1 0x1 PUSH1 0x1 PUSH1 0x40 SHL SUB DUP3 GT PUSH2 0x20D JUMPI PUSH9 0x10000000000000000 DUP3 GT PUSH2 0x20D JUMPI PUSH1 0x7 SLOAD DUP3 PUSH1 0x7 SSTORE DUP1 DUP4 LT PUSH2 0x1C7 JUMPI JUMPDEST POP SWAP1 PUSH1 0x7 PUSH1 0x0 MSTORE PUSH1 0x20 PUSH1 0x0 KECCAK256 SWAP2 PUSH1 0x0 JUMPDEST DUP3 DUP2 LT PUSH2 0x1B3 JUMPI PUSH2 0x18F CALLER PUSH2 0x33D JUMP JUMPDEST POP PUSH2 0x199 CALLER PUSH2 0x3B9 JUMP JUMPDEST POP PUSH2 0x1A3 CALLER PUSH2 0x451 JUMP JUMPDEST POP PUSH1 0x40 MLOAD PUSH2 0x30DA SWAP1 DUP2 PUSH2 0x4EA DUP3 CODECOPY RETURN JUMPDEST PUSH1 0x1 SWAP1 PUSH1 0x20 DUP4 MLOAD SWAP4 ADD SWAP3 DUP2 DUP7 ADD SSTORE ADD PUSH2 0x17F JUMP JUMPDEST PUSH1 0x7 PUSH1 0x0 MSTORE PUSH32 0xA66CC928B5EDB82AF9BD49922954155AB7B0942694BEA4CE44661D9A8736C688 SWAP1 DUP2 ADD SWAP1 DUP4 ADD JUMPDEST DUP2 DUP2 LT PUSH2 0x201 JUMPI POP PUSH2 0x16F JUMP JUMPDEST PUSH1 0x0 DUP2 SSTORE PUSH1 0x1 ADD PUSH2 0x1F4 JUMP JUMPDEST PUSH4 0x4E487B71 PUSH1 0xE0 SHL PUSH1 0x0 MSTORE PUSH1 0x41 PUSH1 0x4 MSTORE PUSH1 0x24 PUSH1 0x0 REVERT JUMPDEST PUSH1 0x40 MLOAD PUSH3 0x461BCD PUSH1 0xE5 SHL DUP2 MSTORE PUSH1 0x20 PUSH1 0x4 DUP3 ADD MSTORE PUSH1 0x10 PUSH1 0x24 DUP3 ADD MSTORE PUSH16 0x496E76616C696420656E642074696D65 PUSH1 0x80 SHL PUSH1 0x44 DUP3 ADD MSTORE PUSH1 0x64 SWAP1 REVERT JUMPDEST PUSH1 0x40 MLOAD PUSH3 0x461BCD PUSH1 0xE5 SHL DUP2 MSTORE PUSH1 0x20 PUSH1 0x4 DUP3 ADD MSTORE PUSH1 0x11 PUSH1 0x24 DUP3 ADD MSTORE PUSH17 0x92DCECC2D8D2C840DCCAEEE640D0C2E6D PUSH1 0x7B SHL PUSH1 0x44 DUP3 ADD MSTORE PUSH1 0x64 SWAP1 REVERT JUMPDEST PUSH1 0x40 MLOAD PUSH3 0x461BCD PUSH1 0xE5 SHL DUP2 MSTORE PUSH1 0x20 PUSH1 0x4 DUP3 ADD MSTORE PUSH1 0x12 PUSH1 0x24 DUP3 ADD MSTORE PUSH18 0x24B73B30B634B2103D35AB32B934B334B2B9 PUSH1 0x71 SHL PUSH1 0x44 DUP3 ADD MSTORE PUSH1 0x64 SWAP1 REVERT JUMPDEST PUSH1 0x40 MLOAD PUSH3 0x461BCD PUSH1 0xE5 SHL DUP2 MSTORE PUSH1 0x20 PUSH1 0x4 DUP3 ADD MSTORE PUSH1 0xD PUSH1 0x24 DUP3 ADD MSTORE PUSH13 0x24B73B30B634B2103A37B5B2B7 PUSH1 0x99 SHL PUSH1 0x44 DUP3 ADD MSTORE PUSH1 0x64 SWAP1 REVERT JUMPDEST DUP2 MLOAD DUP2 MSTORE PUSH1 0x20 SWAP2 DUP3 ADD SWAP2 ADD PUSH2 0xBF JUMP JUMPDEST PUSH1 0x0 DUP1 REVERT JUMPDEST PUSH1 0x40 MLOAD SWAP2 SWAP1 PUSH1 0x1F ADD PUSH1 0x1F NOT AND DUP3 ADD PUSH1 0x1 PUSH1 0x1 PUSH1 0x40 SHL SUB DUP2 GT DUP4 DUP3 LT OR PUSH2 0x20D JUMPI PUSH1 0x40 MSTORE JUMP JUMPDEST PUSH1 0x1 PUSH1 0x1 PUSH1 0xA0 SHL SUB DUP2 AND PUSH1 0x0 SWAP1 DUP2 MSTORE PUSH1 0x0 DUP1 MLOAD PUSH1 0x20 PUSH2 0x3624 DUP4 CODECOPY DUP2 MLOAD SWAP2 MSTORE PUSH1 0x20 MSTORE PUSH1 0x40 SWAP1 KECCAK256 SLOAD PUSH1 0xFF AND PUSH2 0x3B3 JUMPI PUSH1 0x1 PUSH1 0x1 PUSH1 0xA0 SHL SUB AND PUSH1 0x0 DUP2 DUP2 MSTORE PUSH1 0x0 DUP1 MLOAD PUSH1 0x20 PUSH2 0x3624 DUP4 CODECOPY DUP2 MLOAD SWAP2 MSTORE PUSH1 0x20 MSTORE PUSH1 0x40 DUP2 KECCAK256 DUP1 SLOAD PUSH1 0xFF NOT AND PUSH1 0x1 OR SWAP1 SSTORE CALLER SWAP2 SWAP1 PUSH1 0x0 DUP1 MLOAD PUSH1 0x20 PUSH2 0x35C4 DUP4 CODECOPY DUP2 MLOAD SWAP2 MSTORE DUP2 DUP1 LOG4 PUSH1 0x1 SWAP1 JUMP JUMPDEST POP PUSH1 0x0 SWAP1 JUMP JUMPDEST PUSH1 0x1 PUSH1 0x1 PUSH1 0xA0 SHL SUB DUP2 AND PUSH1 0x0 SWAP1 DUP2 MSTORE PUSH1 0x0 DUP1 MLOAD PUSH1 0x20 PUSH2 0x35E4 DUP4 CODECOPY DUP2 MLOAD SWAP2 MSTORE PUSH1 0x20 MSTORE PUSH1 0x40 SWAP1 KECCAK256 SLOAD PUSH1 0xFF AND PUSH2 0x3B3 JUMPI PUSH1 0x1 PUSH1 0x1 PUSH1 0xA0 SHL SUB AND PUSH1 0x0 DUP2 DUP2 MSTORE PUSH1 0x0 DUP1 MLOAD PUSH1 0x20 PUSH2 0x35E4 DUP4 CODECOPY DUP2 MLOAD SWAP2 MSTORE PUSH1 0x20 MSTORE PUSH1 0x40 DUP2 KECCAK256 DUP1 SLOAD PUSH1 0xFF NOT AND PUSH1 0x1 OR SWAP1 SSTORE CALLER SWAP2 SWAP1 PUSH32 0x24E583E35A20F9ECFC1572E7CB66BCC18AD3CD1650EC40DBF6AD2290E553A9FA SWAP1 PUSH1 0x0 DUP1 MLOAD PUSH1 0x20 PUSH2 0x35C4 DUP4 CODECOPY DUP2 MLOAD SWAP2 MSTORE SWAP1 DUP1 LOG4 PUSH1 0x1 SWAP1 JUMP JUMPDEST PUSH1 0x1 PUSH1 0x1 PUSH1 0xA0 SHL SUB DUP2 AND PUSH1 0x0 SWAP1 DUP2 MSTORE PUSH1 0x0 DUP1 MLOAD PUSH1 0x20 PUSH2 0x3604 DUP4 CODECOPY DUP2 MLOAD SWAP2 MSTORE PUSH1 0x20 MSTORE PUSH1 0x40 SWAP1 KECCAK256 SLOAD PUSH1 0xFF AND PUSH2 0x3B3 JUMPI PUSH1 0x1 PUSH1 0x1 PUSH1 0xA0 SHL SUB AND PUSH1 0x0 DUP2 DUP2 MSTORE PUSH1 0x0 DUP1 MLOAD PUSH1 0x20 PUSH2 0x3604 DUP4 CODECOPY DUP2 MLOAD SWAP2 MSTORE PUSH1 0x20 MSTORE PUSH1 0x40 DUP2 KECCAK256 DUP1 SLOAD PUSH1 0xFF NOT AND PUSH1 0x1 OR SWAP1 SSTORE CALLER SWAP2 SWAP1 PUSH32 0xDFBEFBF47CFE66B701D8CFDBCE1DE81C821590819CB07E71CB01B6602FB0EE27 SWAP1 PUSH1 0x0 DUP1 MLOAD PUSH1 0x20 PUSH2 0x35C4 DUP4 CODECOPY DUP2 MLOAD SWAP2 MSTORE SWAP1 DUP1 LOG4 PUSH1 0x1 SWAP1 JUMP INVALID PUSH1 0x80 DUP1 PUSH1 0x40 MSTORE PUSH1 0x4 CALLDATASIZE LT ISZERO PUSH2 0x13 JUMPI PUSH1 0x0 DUP1 REVERT JUMPDEST PUSH1 0x0 CALLDATALOAD PUSH1 0xE0 SHR SWAP1 DUP2 PUSH4 0x1FFC9A7 EQ PUSH2 0x214F JUMPI POP DUP1 PUSH4 0x3BAC880 EQ PUSH2 0x1448 JUMPI DUP1 PUSH4 0x4A0FB17 EQ PUSH2 0x140D JUMPI DUP1 PUSH4 0xD15FD77 EQ PUSH2 0x13EF JUMPI DUP1 PUSH4 0xDE519B4 EQ PUSH2 0x13D1 JUMPI DUP1 PUSH4 0x168299F3 EQ PUSH2 0x13B3 JUMPI DUP1 PUSH4 0x1A411F4F EQ PUSH2 0x1379 JUMPI DUP1 PUSH4 0x1A55A2F5 EQ PUSH2 0x129E JUMPI DUP1 PUSH4 0x206137AA EQ PUSH2 0x126D JUMPI DUP1 PUSH4 0x248A9CA3 EQ PUSH2 0x1238 JUMPI DUP1 PUSH4 0x2D5B9F89 EQ PUSH2 0x11B7 JUMPI DUP1 PUSH4 0x2F2FF15D EQ PUSH2 0x1177 JUMPI DUP1 PUSH4 0x3197CBB6 EQ PUSH2 0x1159 JUMPI DUP1 PUSH4 0x31D7A262 EQ PUSH2 0xD9D JUMPI DUP1 PUSH4 0x35C1D349 EQ PUSH2 0x1117 JUMPI DUP1 PUSH4 0x36568ABE EQ PUSH2 0x10D1 JUMPI DUP1 PUSH4 0x3F4BA83A EQ PUSH2 0x1068 JUMPI DUP1 PUSH4 0x430B0077 EQ PUSH2 0xDD7 JUMPI DUP1 PUSH4 0x4DF9D6BA EQ PUSH2 0xD9D JUMPI DUP1 PUSH4 0x597E1FB5 EQ PUSH2 0xD7A JUMPI DUP1 PUSH4 0x5C975ABB EQ PUSH2 0xD57 JUMPI DUP1 PUSH4 0x6513E973 EQ PUSH2 0xD1F JUMPI DUP1 PUSH4 0x67CC910F EQ PUSH2 0xCE5 JUMPI DUP1 PUSH4 0x6AB3846B EQ PUSH2 0xC75 JUMPI DUP1 PUSH4 0x70259077 EQ PUSH2 0xC3B JUMPI DUP1 PUSH4 0x77678414 EQ PUSH2 0xC22 JUMPI DUP1 PUSH4 0x7AD24FE2 EQ PUSH2 0xBFC JUMPI DUP1 PUSH4 0x7F79496C EQ PUSH2 0xB93 JUMPI DUP1 PUSH4 0x8456CB59 EQ PUSH2 0xB39 JUMPI DUP1 PUSH4 0x8BA24B41 EQ PUSH2 0xAFF JUMPI DUP1 PUSH4 0x91D14854 EQ PUSH2 0xAB2 JUMPI DUP1 PUSH4 0x936CBCBE EQ PUSH2 0xA3C JUMPI DUP1 PUSH4 0x9DBE0A89 EQ PUSH2 0x8B1 JUMPI DUP1 PUSH4 0xA217FDDF EQ PUSH2 0x895 JUMPI DUP1 PUSH4 0xA7F4A356 EQ PUSH2 0x851 JUMPI DUP1 PUSH4 0xAD605729 EQ PUSH2 0x833 JUMPI DUP1 PUSH4 0xB4FB3EE3 EQ PUSH2 0x7F4 JUMPI DUP1 PUSH4 0xB88A802F EQ PUSH2 0x668 JUMPI DUP1 PUSH4 0xB8F6DBA7 EQ PUSH2 0x62D JUMPI DUP1 PUSH4 0xC610AB77 EQ PUSH2 0x60F JUMPI DUP1 PUSH4 0xC7473670 EQ PUSH2 0x5E9 JUMPI DUP1 PUSH4 0xCB1C2B5C EQ PUSH2 0x5C6 JUMPI DUP1 PUSH4 0xD547741F EQ PUSH2 0x57F JUMPI DUP1 PUSH4 0xD6DF096D EQ PUSH2 0x556 JUMPI DUP1 PUSH4 0xD8BFF5A5 EQ PUSH2 0x517 JUMPI DUP1 PUSH4 0xD97D44B1 EQ PUSH2 0x4DD JUMPI DUP1 PUSH4 0xDDF0A8B0 EQ PUSH2 0x4A0 JUMPI DUP1 PUSH4 0xE855DAA1 EQ PUSH2 0x461 JUMPI DUP1 PUSH4 0xF3BAF070 EQ PUSH2 0x444 JUMPI DUP1 PUSH4 0xFAB9AC1D EQ PUSH2 0x282 JUMPI PUSH4 0xFC0C546A EQ PUSH2 0x250 JUMPI PUSH1 0x0 DUP1 REVERT JUMPDEST CALLVALUE PUSH2 0x27D JUMPI PUSH1 0x0 CALLDATASIZE PUSH1 0x3 NOT ADD SLT PUSH2 0x27D JUMPI PUSH1 0x2 SLOAD PUSH1 0x40 MLOAD PUSH1 0x8 SWAP2 SWAP1 SWAP2 SHR PUSH1 0x1 PUSH1 0x1 PUSH1 0xA0 SHL SUB AND DUP2 MSTORE PUSH1 0x20 SWAP1 RETURN JUMPDEST PUSH1 0x0 DUP1 REVERT JUMPDEST CALLVALUE PUSH2 0x27D JUMPI PUSH1 0x0 CALLDATASIZE PUSH1 0x3 NOT ADD SLT PUSH2 0x27D JUMPI PUSH1 0x0 PUSH1 0xC0 PUSH1 0x40 MLOAD PUSH2 0x2A3 DUP2 PUSH2 0x21BF JUMP JUMPDEST DUP3 DUP2 MSTORE DUP3 PUSH1 0x20 DUP3 ADD MSTORE DUP3 PUSH1 0x40 DUP3 ADD MSTORE DUP3 PUSH1 0x60 DUP3 ADD MSTORE DUP3 PUSH1 0x80 DUP3 ADD MSTORE DUP3 PUSH1 0xA0 DUP3 ADD MSTORE ADD MSTORE PUSH1 0x5 SLOAD DUP1 TIMESTAMP LT PUSH1 0x0 EQ PUSH2 0x43C JUMPI PUSH2 0x2DE SWAP1 TIMESTAMP SWAP1 PUSH2 0x2434 JUMP JUMPDEST PUSH1 0xC SLOAD PUSH1 0x0 SWAP2 DUP3 DUP1 JUMPDEST DUP4 DUP2 LT PUSH2 0x38E JUMPI POP PUSH1 0xE0 SWAP4 DUP1 ISZERO PUSH2 0x384 JUMPI PUSH2 0x301 SWAP2 PUSH2 0x23F8 JUMP JUMPDEST SWAP1 JUMPDEST PUSH1 0x6 SLOAD SWAP3 PUSH1 0x9 SLOAD PUSH1 0xA SLOAD SWAP2 PUSH1 0x40 MLOAD SWAP6 PUSH2 0x31B DUP8 PUSH2 0x21BF JUMP JUMPDEST PUSH1 0xC0 PUSH1 0xFF DUP3 AND ISZERO ISZERO SWAP8 DUP9 DUP2 MSTORE PUSH1 0xFF PUSH1 0x20 DUP3 ADD SWAP4 PUSH1 0x10 SHR AND ISZERO ISZERO DUP4 MSTORE PUSH1 0x40 DUP2 ADD SWAP4 DUP5 MSTORE PUSH1 0x60 DUP2 ADD SWAP5 DUP6 MSTORE PUSH1 0x80 DUP2 ADD SWAP6 DUP7 MSTORE PUSH1 0xA0 DUP2 ADD SWAP7 DUP8 MSTORE ADD SWAP6 DUP7 MSTORE PUSH1 0x40 MLOAD SWAP7 DUP8 MSTORE MLOAD ISZERO ISZERO PUSH1 0x20 DUP8 ADD MSTORE MLOAD PUSH1 0x40 DUP7 ADD MSTORE MLOAD PUSH1 0x60 DUP6 ADD MSTORE MLOAD PUSH1 0x80 DUP5 ADD MSTORE MLOAD PUSH1 0xA0 DUP4 ADD MSTORE MLOAD PUSH1 0xC0 DUP3 ADD MSTORE RETURN JUMPDEST POP POP PUSH1 0x0 SWAP1 PUSH2 0x303 JUMP JUMPDEST PUSH2 0x397 DUP2 PUSH2 0x22AD JUMP JUMPDEST PUSH1 0x1 DUP1 PUSH1 0xA0 SHL SUB SWAP2 SLOAD SWAP1 PUSH1 0x3 SHL SHR AND PUSH1 0x0 MSTORE PUSH1 0xF PUSH1 0x20 MSTORE PUSH1 0x40 PUSH1 0x0 KECCAK256 SLOAD ISZERO DUP1 ISZERO SWAP1 PUSH2 0x40E JUMPI JUMPDEST PUSH2 0x3CA JUMPI JUMPDEST PUSH1 0x1 ADD PUSH2 0x2E7 JUMP JUMPDEST SWAP4 SWAP1 PUSH2 0x406 PUSH2 0x400 PUSH1 0x1 SWAP3 PUSH2 0x3DE DUP9 PUSH2 0x22AD JUMP JUMPDEST DUP6 DUP1 PUSH1 0xA0 SHL SUB SWAP2 SLOAD SWAP1 PUSH1 0x3 SHL SHR AND PUSH1 0x0 MSTORE PUSH1 0x14 PUSH1 0x20 MSTORE PUSH1 0x40 PUSH1 0x0 KECCAK256 SLOAD SWAP1 PUSH2 0x2427 JUMP JUMPDEST SWAP3 PUSH2 0x2418 JUMP JUMPDEST SWAP5 SWAP1 POP PUSH2 0x3C2 JUMP JUMPDEST POP PUSH2 0x418 DUP2 PUSH2 0x22AD JUMP JUMPDEST PUSH1 0x1 DUP1 PUSH1 0xA0 SHL SUB SWAP2 SLOAD SWAP1 PUSH1 0x3 SHL SHR AND PUSH1 0x0 MSTORE PUSH1 0x16 PUSH1 0x20 MSTORE PUSH1 0x40 PUSH1 0x0 KECCAK256 SLOAD ISZERO ISZERO PUSH2 0x3BD JUMP JUMPDEST POP PUSH1 0x0 PUSH2 0x2DE JUMP JUMPDEST CALLVALUE PUSH2 0x27D JUMPI PUSH1 0x0 CALLDATASIZE PUSH1 0x3 NOT ADD SLT PUSH2 0x27D JUMPI PUSH1 0x20 PUSH1 0x40 MLOAD PUSH2 0x3E8 DUP2 MSTORE RETURN JUMPDEST CALLVALUE PUSH2 0x27D JUMPI PUSH1 0x20 CALLDATASIZE PUSH1 0x3 NOT ADD SLT PUSH2 0x27D JUMPI PUSH1 0x1 PUSH1 0x1 PUSH1 0xA0 SHL SUB PUSH2 0x482 PUSH2 0x223A JUMP JUMPDEST AND PUSH1 0x0 MSTORE PUSH1 0x13 PUSH1 0x20 MSTORE PUSH1 0x20 PUSH1 0xFF PUSH1 0x40 PUSH1 0x0 KECCAK256 SLOAD AND PUSH1 0x40 MLOAD SWAP1 ISZERO ISZERO DUP2 MSTORE RETURN JUMPDEST CALLVALUE PUSH2 0x27D JUMPI PUSH1 0x20 CALLDATASIZE PUSH1 0x3 NOT ADD SLT PUSH2 0x27D JUMPI PUSH1 0x1 PUSH1 0x1 PUSH1 0xA0 SHL SUB PUSH2 0x4C1 PUSH2 0x223A JUMP JUMPDEST AND PUSH1 0x0 MSTORE PUSH1 0x10 PUSH1 0x20 MSTORE PUSH1 0x20 PUSH1 0xFF PUSH1 0x40 PUSH1 0x0 KECCAK256 SLOAD AND PUSH1 0x40 MLOAD SWAP1 DUP2 MSTORE RETURN JUMPDEST CALLVALUE PUSH2 0x27D JUMPI PUSH1 0x20 CALLDATASIZE PUSH1 0x3 NOT ADD SLT PUSH2 0x27D JUMPI PUSH1 0x1 PUSH1 0x1 PUSH1 0xA0 SHL SUB PUSH2 0x4FE PUSH2 0x223A JUMP JUMPDEST AND PUSH1 0x0 MSTORE PUSH1 0x12 PUSH1 0x20 MSTORE PUSH1 0x20 PUSH1 0x40 PUSH1 0x0 KECCAK256 SLOAD PUSH1 0x40 MLOAD SWAP1 DUP2 MSTORE RETURN JUMPDEST CALLVALUE PUSH2 0x27D JUMPI PUSH1 0x20 CALLDATASIZE PUSH1 0x3 NOT ADD SLT PUSH2 0x27D JUMPI PUSH1 0x1 PUSH1 0x1 PUSH1 0xA0 SHL SUB PUSH2 0x538 PUSH2 0x223A JUMP JUMPDEST AND PUSH1 0x0 MSTORE PUSH1 0xE PUSH1 0x20 MSTORE PUSH1 0x20 PUSH1 0xFF PUSH1 0x40 PUSH1 0x0 KECCAK256 SLOAD AND PUSH1 0x40 MLOAD SWAP1 ISZERO ISZERO DUP2 MSTORE RETURN JUMPDEST CALLVALUE PUSH2 0x27D JUMPI PUSH1 0x0 CALLDATASIZE PUSH1 0x3 NOT ADD SLT PUSH2 0x27D JUMPI PUSH1 0x3 SLOAD PUSH1 0x40 MLOAD PUSH1 0x1 PUSH1 0x1 PUSH1 0xA0 SHL SUB SWAP1 SWAP2 AND DUP2 MSTORE PUSH1 0x20 SWAP1 RETURN JUMPDEST CALLVALUE PUSH2 0x27D JUMPI PUSH1 0x40 CALLDATASIZE PUSH1 0x3 NOT ADD SLT PUSH2 0x27D JUMPI PUSH2 0x5C4 PUSH1 0x4 CALLDATALOAD PUSH2 0x59E PUSH2 0x2250 JUMP JUMPDEST SWAP1 PUSH2 0x5BF PUSH2 0x5BA DUP3 PUSH1 0x0 MSTORE PUSH1 0x0 PUSH1 0x20 MSTORE PUSH1 0x1 PUSH1 0x40 PUSH1 0x0 KECCAK256 ADD SLOAD SWAP1 JUMP JUMPDEST PUSH2 0x2667 JUMP JUMPDEST PUSH2 0x272D JUMP JUMPDEST STOP JUMPDEST CALLVALUE PUSH2 0x27D JUMPI PUSH1 0x0 CALLDATASIZE PUSH1 0x3 NOT ADD SLT PUSH2 0x27D JUMPI PUSH1 0x20 PUSH1 0x40 MLOAD PUSH8 0xDE0B6B3A7640000 DUP2 MSTORE RETURN JUMPDEST CALLVALUE PUSH2 0x27D JUMPI PUSH1 0x0 CALLDATASIZE PUSH1 0x3 NOT ADD SLT PUSH2 0x27D JUMPI PUSH1 0x20 PUSH1 0xFF PUSH1 0x6 SLOAD PUSH1 0x10 SHR AND PUSH1 0x40 MLOAD SWAP1 ISZERO ISZERO DUP2 MSTORE RETURN JUMPDEST CALLVALUE PUSH2 0x27D JUMPI PUSH1 0x0 CALLDATASIZE PUSH1 0x3 NOT ADD SLT PUSH2 0x27D JUMPI PUSH1 0x20 PUSH1 0x9 SLOAD PUSH1 0x40 MLOAD SWAP1 DUP2 MSTORE RETURN JUMPDEST CALLVALUE PUSH2 0x27D JUMPI PUSH1 0x0 CALLDATASIZE PUSH1 0x3 NOT ADD SLT PUSH2 0x27D JUMPI PUSH1 0x20 PUSH1 0x40 MLOAD PUSH32 0x24E583E35A20F9ECFC1572E7CB66BCC18AD3CD1650EC40DBF6AD2290E553A9FA DUP2 MSTORE RETURN JUMPDEST CALLVALUE PUSH2 0x27D JUMPI PUSH1 0x0 CALLDATASIZE PUSH1 0x3 NOT ADD SLT PUSH2 0x27D JUMPI PUSH2 0x681 PUSH2 0x25B6 JUMP JUMPDEST CALLER PUSH1 0x0 MSTORE PUSH1 0x16 PUSH1 0x20 MSTORE PUSH1 0x40 PUSH1 0x0 KECCAK256 SLOAD DUP1 ISZERO PUSH2 0x7C3 JUMPI PUSH1 0xFF PUSH1 0x6 SLOAD AND ISZERO PUSH2 0x78C JUMPI CALLER PUSH1 0x0 DUP2 DUP2 MSTORE PUSH1 0x16 PUSH1 0x20 SWAP1 DUP2 MSTORE PUSH1 0x40 DUP1 DUP4 KECCAK256 DUP4 SWAP1 SSTORE PUSH1 0x2 SLOAD SWAP1 MLOAD PUSH4 0xA9059CBB PUSH1 0xE0 SHL DUP2 MSTORE PUSH1 0x4 DUP2 ADD SWAP5 SWAP1 SWAP5 MSTORE PUSH1 0x24 DUP5 ADD SWAP5 SWAP1 SWAP5 MSTORE SWAP2 SWAP3 DUP4 SWAP2 PUSH1 0x44 SWAP2 DUP4 SWAP2 SWAP1 PUSH1 0x8 SHR PUSH1 0x1 PUSH1 0x1 PUSH1 0xA0 SHL SUB AND GAS CALL SWAP1 DUP2 ISZERO PUSH2 0x780 JUMPI PUSH1 0x0 SWAP2 PUSH2 0x746 JUMPI JUMPDEST POP ISZERO PUSH2 0x708 JUMPI PUSH1 0x1 DUP1 SSTORE STOP JUMPDEST PUSH1 0x40 MLOAD PUSH3 0x461BCD PUSH1 0xE5 SHL DUP2 MSTORE PUSH1 0x20 PUSH1 0x4 DUP3 ADD MSTORE PUSH1 0x16 PUSH1 0x24 DUP3 ADD MSTORE PUSH22 0x14995DD85C99081D1C985B9CD9995C8819985A5B1959 PUSH1 0x52 SHL PUSH1 0x44 DUP3 ADD MSTORE PUSH1 0x64 SWAP1 REVERT JUMPDEST SWAP1 POP PUSH1 0x20 DUP2 RETURNDATASIZE PUSH1 0x20 GT PUSH2 0x778 JUMPI JUMPDEST DUP2 PUSH2 0x761 PUSH1 0x20 SWAP4 DUP4 PUSH2 0x21DB JUMP JUMPDEST DUP2 ADD SUB SLT PUSH2 0x27D JUMPI PUSH2 0x772 SWAP1 PUSH2 0x23B0 JUMP JUMPDEST DUP2 PUSH2 0x6FC JUMP JUMPDEST RETURNDATASIZE SWAP2 POP PUSH2 0x754 JUMP JUMPDEST PUSH1 0x40 MLOAD RETURNDATASIZE PUSH1 0x0 DUP3 RETURNDATACOPY RETURNDATASIZE SWAP1 REVERT JUMPDEST PUSH1 0x40 MLOAD PUSH3 0x461BCD PUSH1 0xE5 SHL DUP2 MSTORE PUSH1 0x20 PUSH1 0x4 DUP3 ADD MSTORE PUSH1 0xF PUSH1 0x24 DUP3 ADD MSTORE PUSH15 0x141BDBDB081B9BDD0818DB1BDCD959 PUSH1 0x8A SHL PUSH1 0x44 DUP3 ADD MSTORE PUSH1 0x64 SWAP1 REVERT JUMPDEST PUSH1 0x40 MLOAD PUSH3 0x461BCD PUSH1 0xE5 SHL DUP2 MSTORE PUSH1 0x20 PUSH1 0x4 DUP3 ADD MSTORE PUSH1 0x9 PUSH1 0x24 DUP3 ADD MSTORE PUSH9 0x139BC81C995DD85C99 PUSH1 0xBA SHL PUSH1 0x44 DUP3 ADD MSTORE PUSH1 0x64 SWAP1 REVERT JUMPDEST CALLVALUE PUSH2 0x27D JUMPI PUSH1 0x20 CALLDATASIZE PUSH1 0x3 NOT ADD SLT PUSH2 0x27D JUMPI PUSH1 0x1 PUSH1 0x1 PUSH1 0xA0 SHL SUB PUSH2 0x815 PUSH2 0x223A JUMP JUMPDEST AND PUSH1 0x0 MSTORE PUSH1 0xD PUSH1 0x20 MSTORE PUSH1 0x20 PUSH1 0xFF PUSH1 0x40 PUSH1 0x0 KECCAK256 SLOAD AND PUSH1 0x40 MLOAD SWAP1 ISZERO ISZERO DUP2 MSTORE RETURN JUMPDEST CALLVALUE PUSH2 0x27D JUMPI PUSH1 0x0 CALLDATASIZE PUSH1 0x3 NOT ADD SLT PUSH2 0x27D JUMPI PUSH1 0x20 PUSH1 0xC SLOAD PUSH1 0x40 MLOAD SWAP1 DUP2 MSTORE RETURN JUMPDEST CALLVALUE PUSH2 0x27D JUMPI PUSH1 0x20 CALLDATASIZE PUSH1 0x3 NOT ADD SLT PUSH2 0x27D JUMPI PUSH2 0x872 PUSH2 0x86D PUSH2 0x223A JUMP JUMPDEST PUSH2 0x246D JUMP JUMPDEST SWAP1 PUSH2 0x891 PUSH1 0x40 MLOAD SWAP3 DUP4 SWAP3 ISZERO ISZERO DUP4 MSTORE PUSH1 0x40 PUSH1 0x20 DUP5 ADD MSTORE PUSH1 0x40 DUP4 ADD SWAP1 PUSH2 0x22C8 JUMP JUMPDEST SUB SWAP1 RETURN JUMPDEST CALLVALUE PUSH2 0x27D JUMPI PUSH1 0x0 CALLDATASIZE PUSH1 0x3 NOT ADD SLT PUSH2 0x27D JUMPI PUSH1 0x20 PUSH1 0x40 MLOAD PUSH1 0x0 DUP2 MSTORE RETURN JUMPDEST CALLVALUE PUSH2 0x27D JUMPI PUSH1 0x20 CALLDATASIZE PUSH1 0x3 NOT ADD SLT PUSH2 0x27D JUMPI PUSH1 0x4 CALLDATALOAD DUP1 ISZERO ISZERO DUP1 DUP3 SUB PUSH2 0x27D JUMPI CALLER PUSH1 0x0 SWAP1 DUP2 MSTORE PUSH32 0xAAE065819044E7C1F6F3A25FCF56EEC95D9EF9DCBFBB8EB1F8A4A273B3BD0146 PUSH1 0x20 MSTORE PUSH1 0x40 SWAP1 KECCAK256 SLOAD PUSH1 0xFF AND ISZERO PUSH2 0xA03 JUMPI PUSH2 0xFF00 PUSH1 0x6 SLOAD SWAP2 PUSH1 0x8 SHL AND PUSH2 0xFF00 NOT DUP3 AND OR PUSH1 0x6 SSTORE PUSH1 0x4 SLOAD PUSH1 0x0 DUP4 PUSH1 0x0 EQ PUSH2 0x9B8 JUMPI POP PUSH32 0x8C15467FF64C6763764FEDBDB94B2E371391605368E0B69BAF8F3702C27D67A9 PUSH2 0x98E PUSH1 0x40 MLOAD PUSH2 0x95B PUSH1 0x40 DUP3 PUSH2 0x21DB JUMP JUMPDEST PUSH1 0x11 DUP2 MSTORE PUSH17 0x656173696C795F76657269666961626C65 PUSH1 0x78 SHL PUSH1 0x20 DUP3 ADD MSTORE JUMPDEST PUSH1 0x40 MLOAD SWAP2 DUP3 SWAP2 PUSH1 0x40 DUP4 MSTORE PUSH1 0x40 DUP4 ADD SWAP1 PUSH2 0x22C8 JUMP JUMPDEST TIMESTAMP PUSH1 0x20 DUP4 ADD MSTORE SUB SWAP1 LOG2 DUP2 PUSH2 0x9AC JUMPI JUMPDEST POP PUSH2 0x9A4 JUMPI STOP JUMPDEST PUSH2 0x5C4 PUSH2 0x27AF JUMP JUMPDEST PUSH1 0xFF SWAP2 POP AND ISZERO DUP2 PUSH2 0x99D JUMP JUMPDEST POP PUSH32 0x8C15467FF64C6763764FEDBDB94B2E371391605368E0B69BAF8F3702C27D67A9 PUSH2 0x98E PUSH1 0x40 MLOAD PUSH2 0x9EB PUSH1 0x40 DUP3 PUSH2 0x21DB JUMP JUMPDEST PUSH1 0x6 DUP2 MSTORE PUSH6 0x616374697665 PUSH1 0xD0 SHL PUSH1 0x20 DUP3 ADD MSTORE PUSH2 0x97A JUMP JUMPDEST PUSH4 0xE2517D3F PUSH1 0xE0 SHL PUSH1 0x0 MSTORE CALLER PUSH1 0x4 MSTORE PUSH32 0xDFBEFBF47CFE66B701D8CFDBCE1DE81C821590819CB07E71CB01B6602FB0EE27 PUSH1 0x24 MSTORE PUSH1 0x44 PUSH1 0x0 REVERT JUMPDEST CALLVALUE PUSH2 0x27D JUMPI PUSH1 0x0 CALLDATASIZE PUSH1 0x3 NOT ADD SLT PUSH2 0x27D JUMPI PUSH2 0xA55 PUSH2 0x25F5 JUMP JUMPDEST PUSH1 0x5 SLOAD TIMESTAMP LT DUP1 ISZERO SWAP1 PUSH2 0xAA3 JUMPI JUMPDEST ISZERO PUSH2 0xA6F JUMPI PUSH2 0x5C4 PUSH2 0x27AF JUMP JUMPDEST PUSH1 0x40 MLOAD PUSH3 0x461BCD PUSH1 0xE5 SHL DUP2 MSTORE PUSH1 0x20 PUSH1 0x4 DUP3 ADD MSTORE PUSH1 0xC PUSH1 0x24 DUP3 ADD MSTORE PUSH12 0x4E6F7420636C6F7361626C65 PUSH1 0xA0 SHL PUSH1 0x44 DUP3 ADD MSTORE PUSH1 0x64 SWAP1 REVERT JUMPDEST POP PUSH1 0xFF PUSH1 0x6 SLOAD PUSH1 0x8 SHR AND PUSH2 0xA62 JUMP JUMPDEST CALLVALUE PUSH2 0x27D JUMPI PUSH1 0x40 CALLDATASIZE PUSH1 0x3 NOT ADD SLT PUSH2 0x27D JUMPI PUSH2 0xACB PUSH2 0x2250 JUMP JUMPDEST PUSH1 0x4 CALLDATALOAD PUSH1 0x0 MSTORE PUSH1 0x0 PUSH1 0x20 MSTORE PUSH1 0x40 PUSH1 0x0 KECCAK256 SWAP1 PUSH1 0x1 DUP1 PUSH1 0xA0 SHL SUB AND PUSH1 0x0 MSTORE PUSH1 0x20 MSTORE PUSH1 0x20 PUSH1 0xFF PUSH1 0x40 PUSH1 0x0 KECCAK256 SLOAD AND PUSH1 0x40 MLOAD SWAP1 ISZERO ISZERO DUP2 MSTORE RETURN JUMPDEST CALLVALUE PUSH2 0x27D JUMPI PUSH1 0x20 CALLDATASIZE PUSH1 0x3 NOT ADD SLT PUSH2 0x27D JUMPI PUSH1 0x1 PUSH1 0x1 PUSH1 0xA0 SHL SUB PUSH2 0xB20 PUSH2 0x223A JUMP JUMPDEST AND PUSH1 0x0 MSTORE PUSH1 0x14 PUSH1 0x20 MSTORE PUSH1 0x20 PUSH1 0x40 PUSH1 0x0 KECCAK256 SLOAD PUSH1 0x40 MLOAD SWAP1 DUP2 MSTORE RETURN JUMPDEST CALLVALUE PUSH2 0x27D JUMPI PUSH1 0x0 CALLDATASIZE PUSH1 0x3 NOT ADD SLT PUSH2 0x27D JUMPI PUSH2 0xB52 PUSH2 0x25F5 JUMP JUMPDEST PUSH2 0xB5A PUSH2 0x25D8 JUMP JUMPDEST PUSH1 0x1 PUSH1 0xFF NOT PUSH1 0x2 SLOAD AND OR PUSH1 0x2 SSTORE PUSH32 0x62E78CEA01BEE320CD4E420270B5EA74000D11B0C9F74754EBDBFC544B05A258 PUSH1 0x20 PUSH1 0x40 MLOAD CALLER DUP2 MSTORE LOG1 STOP JUMPDEST CALLVALUE PUSH2 0x27D JUMPI PUSH1 0x0 CALLDATASIZE PUSH1 0x3 NOT ADD SLT PUSH2 0x27D JUMPI PUSH1 0x5 SLOAD DUP1 TIMESTAMP LT PUSH1 0x0 EQ PUSH2 0xBF2 JUMPI PUSH2 0xBBE PUSH1 0xA0 SWAP2 TIMESTAMP SWAP1 PUSH2 0x2434 JUMP JUMPDEST PUSH1 0x6 SLOAD SWAP1 PUSH1 0x9 SLOAD PUSH1 0xA SLOAD SWAP1 PUSH1 0xFF PUSH1 0x40 MLOAD SWAP5 DUP2 DUP2 AND ISZERO ISZERO DUP7 MSTORE PUSH1 0x8 SHR AND ISZERO ISZERO PUSH1 0x20 DUP6 ADD MSTORE PUSH1 0x40 DUP5 ADD MSTORE PUSH1 0x60 DUP4 ADD MSTORE PUSH1 0x80 DUP3 ADD MSTORE RETURN JUMPDEST POP PUSH1 0xA0 PUSH1 0x0 PUSH2 0xBBE JUMP JUMPDEST CALLVALUE PUSH2 0x27D JUMPI PUSH1 0x0 CALLDATASIZE PUSH1 0x3 NOT ADD SLT PUSH2 0x27D JUMPI PUSH1 0x20 PUSH1 0xFF PUSH1 0x6 SLOAD PUSH1 0x8 SHR AND PUSH1 0x40 MLOAD SWAP1 ISZERO ISZERO DUP2 MSTORE RETURN JUMPDEST CALLVALUE PUSH2 0x27D JUMPI PUSH1 0x0 CALLDATASIZE PUSH1 0x3 NOT ADD SLT PUSH2 0x27D JUMPI PUSH2 0x9A4 PUSH2 0x25F5 JUMP JUMPDEST CALLVALUE PUSH2 0x27D JUMPI PUSH1 0x20 CALLDATASIZE PUSH1 0x3 NOT ADD SLT PUSH2 0x27D JUMPI PUSH1 0x1 PUSH1 0x1 PUSH1 0xA0 SHL SUB PUSH2 0xC5C PUSH2 0x223A JUMP JUMPDEST AND PUSH1 0x0 MSTORE PUSH1 0x15 PUSH1 0x20 MSTORE PUSH1 0x20 PUSH1 0x40 PUSH1 0x0 KECCAK256 SLOAD PUSH1 0x40 MLOAD SWAP1 DUP2 MSTORE RETURN JUMPDEST CALLVALUE PUSH2 0x27D JUMPI PUSH1 0x20 CALLDATASIZE PUSH1 0x3 NOT ADD SLT PUSH2 0x27D JUMPI PUSH1 0x4 CALLDATALOAD PUSH2 0xC91 PUSH2 0x25F5 JUMP JUMPDEST TIMESTAMP DUP2 GT ISZERO PUSH2 0xCAD JUMPI PUSH2 0xCA8 PUSH1 0xFF PUSH1 0x6 SLOAD AND ISZERO PUSH2 0x2309 JUMP JUMPDEST PUSH1 0x5 SSTORE STOP JUMPDEST PUSH1 0x40 MLOAD PUSH3 0x461BCD PUSH1 0xE5 SHL DUP2 MSTORE PUSH1 0x20 PUSH1 0x4 DUP3 ADD MSTORE PUSH1 0x10 PUSH1 0x24 DUP3 ADD MSTORE PUSH16 0x496E76616C696420656E642074696D65 PUSH1 0x80 SHL PUSH1 0x44 DUP3 ADD MSTORE PUSH1 0x64 SWAP1 REVERT JUMPDEST CALLVALUE PUSH2 0x27D JUMPI PUSH1 0x20 CALLDATASIZE PUSH1 0x3 NOT ADD SLT PUSH2 0x27D JUMPI PUSH1 0x1 PUSH1 0x1 PUSH1 0xA0 SHL SUB PUSH2 0xD06 PUSH2 0x223A JUMP JUMPDEST AND PUSH1 0x0 MSTORE PUSH1 0x11 PUSH1 0x20 MSTORE PUSH1 0x20 PUSH1 0x40 PUSH1 0x0 KECCAK256 SLOAD PUSH1 0x40 MLOAD SWAP1 DUP2 MSTORE RETURN JUMPDEST CALLVALUE PUSH2 0x27D JUMPI PUSH1 0x20 CALLDATASIZE PUSH1 0x3 NOT ADD SLT PUSH2 0x27D JUMPI PUSH1 0x4 CALLDATALOAD PUSH1 0x7 SLOAD DUP2 LT ISZERO PUSH2 0x27D JUMPI PUSH2 0xD48 PUSH1 0x20 SWAP2 PUSH2 0x227C JUMP JUMPDEST SWAP1 SLOAD SWAP1 PUSH1 0x3 SHL SHR PUSH1 0x40 MLOAD SWAP1 DUP2 MSTORE RETURN JUMPDEST CALLVALUE PUSH2 0x27D JUMPI PUSH1 0x0 CALLDATASIZE PUSH1 0x3 NOT ADD SLT PUSH2 0x27D JUMPI PUSH1 0x20 PUSH1 0xFF PUSH1 0x2 SLOAD AND PUSH1 0x40 MLOAD SWAP1 ISZERO ISZERO DUP2 MSTORE RETURN JUMPDEST CALLVALUE PUSH2 0x27D JUMPI PUSH1 0x0 CALLDATASIZE PUSH1 0x3 NOT ADD SLT PUSH2 0x27D JUMPI PUSH1 0x20 PUSH1 0xFF PUSH1 0x6 SLOAD AND PUSH1 0x40 MLOAD SWAP1 ISZERO ISZERO DUP2 MSTORE RETURN JUMPDEST CALLVALUE PUSH2 0x27D JUMPI PUSH1 0x20 CALLDATASIZE PUSH1 0x3 NOT ADD SLT PUSH2 0x27D JUMPI PUSH1 0x1 PUSH1 0x1 PUSH1 0xA0 SHL SUB PUSH2 0xDBE PUSH2 0x223A JUMP JUMPDEST AND PUSH1 0x0 MSTORE PUSH1 0x16 PUSH1 0x20 MSTORE PUSH1 0x20 PUSH1 0x40 PUSH1 0x0 KECCAK256 SLOAD PUSH1 0x40 MLOAD SWAP1 DUP2 MSTORE RETURN JUMPDEST CALLVALUE PUSH2 0x27D JUMPI PUSH2 0xDE5 CALLDATASIZE PUSH2 0x2266 JUMP JUMPDEST PUSH1 0xC SLOAD SWAP1 DUP2 DUP4 LT ISZERO PUSH2 0x102C JUMPI PUSH2 0xDFB SWAP1 DUP4 PUSH2 0x2427 JUMP JUMPDEST SWAP1 DUP1 DUP3 GT PUSH2 0x1024 JUMPI JUMPDEST POP PUSH2 0xE0F DUP3 DUP3 PUSH2 0x2434 JUMP JUMPDEST SWAP2 PUSH2 0xE19 DUP4 PUSH2 0x2441 JUMP JUMPDEST SWAP3 PUSH2 0xE27 PUSH1 0x40 MLOAD SWAP5 DUP6 PUSH2 0x21DB JUMP JUMPDEST DUP1 DUP5 MSTORE PUSH2 0xE36 PUSH1 0x1F NOT SWAP2 PUSH2 0x2441 JUMP JUMPDEST ADD PUSH1 0x0 JUMPDEST DUP2 DUP2 LT PUSH2 0xFD5 JUMPI POP POP DUP1 JUMPDEST DUP3 DUP2 LT PUSH2 0xEEA JUMPI DUP4 PUSH1 0x40 MLOAD DUP1 SWAP2 PUSH1 0x20 DUP3 ADD PUSH1 0x20 DUP4 MSTORE DUP2 MLOAD DUP1 SWAP2 MSTORE PUSH1 0x20 PUSH1 0x40 DUP5 ADD SWAP3 ADD SWAP1 PUSH1 0x0 JUMPDEST DUP2 DUP2 LT PUSH2 0xE79 JUMPI POP POP POP SUB SWAP1 RETURN JUMPDEST SWAP2 SWAP4 POP SWAP2 PUSH1 0x20 PUSH2 0x100 PUSH1 0x1 SWAP3 PUSH1 0xE0 DUP8 MLOAD DUP6 DUP1 PUSH1 0xA0 SHL SUB DUP2 MLOAD AND DUP4 MSTORE DUP5 DUP2 ADD MLOAD ISZERO ISZERO DUP6 DUP5 ADD MSTORE PUSH1 0x40 DUP2 ADD MLOAD PUSH1 0x40 DUP5 ADD MSTORE PUSH1 0xFF PUSH1 0x60 DUP3 ADD MLOAD AND PUSH1 0x60 DUP5 ADD MSTORE PUSH1 0x80 DUP2 ADD MLOAD PUSH1 0x80 DUP5 ADD MSTORE PUSH1 0xA0 DUP2 ADD MLOAD PUSH1 0xA0 DUP5 ADD MSTORE PUSH1 0xC0 DUP2 ADD MLOAD ISZERO ISZERO PUSH1 0xC0 DUP5 ADD MSTORE ADD MLOAD PUSH1 0xE0 DUP3 ADD MSTORE ADD SWAP5 ADD SWAP2 ADD SWAP2 DUP5 SWAP4 SWAP3 PUSH2 0xE6B JUMP JUMPDEST DUP1 PUSH2 0xFCE PUSH2 0xEF9 PUSH1 0x1 SWAP4 PUSH2 0x22AD JUMP JUMPDEST DUP5 DUP1 PUSH1 0xA0 SHL SUB SWAP2 SLOAD SWAP1 PUSH1 0x3 SHL SHR AND DUP1 PUSH1 0x0 MSTORE PUSH1 0xE PUSH1 0x20 MSTORE PUSH1 0xFF PUSH1 0x40 PUSH1 0x0 KECCAK256 SLOAD AND DUP2 PUSH1 0x0 MSTORE PUSH1 0xF PUSH1 0x20 MSTORE PUSH1 0x40 PUSH1 0x0 KECCAK256 SLOAD DUP3 PUSH1 0x0 MSTORE PUSH1 0x10 PUSH1 0x20 MSTORE PUSH1 0xFF PUSH1 0x40 PUSH1 0x0 KECCAK256 SLOAD AND DUP4 PUSH1 0x0 MSTORE PUSH1 0x11 PUSH1 0x20 MSTORE PUSH1 0x40 PUSH1 0x0 KECCAK256 SLOAD DUP5 PUSH1 0x0 MSTORE PUSH1 0x12 PUSH1 0x20 MSTORE PUSH1 0x40 PUSH1 0x0 KECCAK256 SLOAD SWAP2 DUP6 PUSH1 0x0 MSTORE PUSH1 0x13 PUSH1 0x20 MSTORE PUSH1 0xFF PUSH1 0x40 PUSH1 0x0 KECCAK256 SLOAD AND SWAP4 DUP7 PUSH1 0x0 MSTORE PUSH1 0x16 PUSH1 0x20 MSTORE PUSH1 0x40 PUSH1 0x0 KECCAK256 SLOAD SWAP6 PUSH1 0x40 MLOAD SWAP8 PUSH2 0xF89 DUP10 PUSH2 0x21A2 JUMP JUMPDEST DUP9 MSTORE ISZERO ISZERO PUSH1 0x20 DUP9 ADD MSTORE PUSH1 0x40 DUP8 ADD MSTORE PUSH1 0x60 DUP7 ADD MSTORE PUSH1 0x80 DUP6 ADD MSTORE PUSH1 0xA0 DUP5 ADD MSTORE ISZERO ISZERO PUSH1 0xC0 DUP4 ADD MSTORE PUSH1 0xE0 DUP3 ADD MSTORE PUSH2 0xFBC DUP6 DUP5 PUSH2 0x2434 JUMP JUMPDEST SWAP1 PUSH2 0xFC7 DUP3 DUP10 PUSH2 0x2459 JUMP JUMPDEST MSTORE DUP7 PUSH2 0x2459 JUMP JUMPDEST POP ADD PUSH2 0xE45 JUMP JUMPDEST PUSH1 0x20 SWAP1 PUSH1 0x40 MLOAD PUSH2 0xFE4 DUP2 PUSH2 0x21A2 JUMP JUMPDEST PUSH1 0x0 DUP2 MSTORE PUSH1 0x0 DUP4 DUP3 ADD MSTORE PUSH1 0x0 PUSH1 0x40 DUP3 ADD MSTORE PUSH1 0x0 PUSH1 0x60 DUP3 ADD MSTORE PUSH1 0x0 PUSH1 0x80 DUP3 ADD MSTORE PUSH1 0x0 PUSH1 0xA0 DUP3 ADD MSTORE PUSH1 0x0 PUSH1 0xC0 DUP3 ADD MSTORE PUSH1 0x0 PUSH1 0xE0 DUP3 ADD MSTORE DUP3 DUP3 DUP9 ADD ADD MSTORE ADD PUSH2 0xE3A JUMP JUMPDEST SWAP1 POP DUP3 PUSH2 0xE04 JUMP JUMPDEST PUSH1 0x40 MLOAD PUSH3 0x461BCD PUSH1 0xE5 SHL DUP2 MSTORE PUSH1 0x20 PUSH1 0x4 DUP3 ADD MSTORE PUSH1 0x14 PUSH1 0x24 DUP3 ADD MSTORE PUSH20 0x4F6666736574206F7574206F6620626F756E6473 PUSH1 0x60 SHL PUSH1 0x44 DUP3 ADD MSTORE PUSH1 0x64 SWAP1 REVERT JUMPDEST CALLVALUE PUSH2 0x27D JUMPI PUSH1 0x0 CALLDATASIZE PUSH1 0x3 NOT ADD SLT PUSH2 0x27D JUMPI PUSH2 0x1081 PUSH2 0x25F5 JUMP JUMPDEST PUSH1 0x2 SLOAD PUSH1 0xFF DUP2 AND ISZERO PUSH2 0x10C0 JUMPI PUSH1 0xFF NOT AND PUSH1 0x2 SSTORE PUSH32 0x5DB9EE0A495BF2E6FF9C91A7834C1BA4FDD244A5E8AA4E537BD38AEAE4B073AA PUSH1 0x20 PUSH1 0x40 MLOAD CALLER DUP2 MSTORE LOG1 STOP JUMPDEST PUSH4 0x8DFC202B PUSH1 0xE0 SHL PUSH1 0x0 MSTORE PUSH1 0x4 PUSH1 0x0 REVERT JUMPDEST CALLVALUE PUSH2 0x27D JUMPI PUSH1 0x40 CALLDATASIZE PUSH1 0x3 NOT ADD SLT PUSH2 0x27D JUMPI PUSH2 0x10EA PUSH2 0x2250 JUMP JUMPDEST CALLER PUSH1 0x1 PUSH1 0x1 PUSH1 0xA0 SHL SUB DUP3 AND SUB PUSH2 0x1106 JUMPI PUSH2 0x5C4 SWAP1 PUSH1 0x4 CALLDATALOAD PUSH2 0x272D JUMP JUMPDEST PUSH4 0x334BD919 PUSH1 0xE1 SHL PUSH1 0x0 MSTORE PUSH1 0x4 PUSH1 0x0 REVERT JUMPDEST CALLVALUE PUSH2 0x27D JUMPI PUSH1 0x20 CALLDATASIZE PUSH1 0x3 NOT ADD SLT PUSH2 0x27D JUMPI PUSH1 0x4 CALLDATALOAD PUSH1 0xC SLOAD DUP2 LT ISZERO PUSH2 0x27D JUMPI PUSH2 0x1140 PUSH1 0x20 SWAP2 PUSH2 0x22AD JUMP JUMPDEST SWAP1 SLOAD PUSH1 0x40 MLOAD PUSH1 0x3 SWAP3 SWAP1 SWAP3 SHL SHR PUSH1 0x1 PUSH1 0x1 PUSH1 0xA0 SHL SUB AND DUP2 MSTORE RETURN JUMPDEST CALLVALUE PUSH2 0x27D JUMPI PUSH1 0x0 CALLDATASIZE PUSH1 0x3 NOT ADD SLT PUSH2 0x27D JUMPI PUSH1 0x20 PUSH1 0x5 SLOAD PUSH1 0x40 MLOAD SWAP1 DUP2 MSTORE RETURN JUMPDEST CALLVALUE PUSH2 0x27D JUMPI PUSH1 0x40 CALLDATASIZE PUSH1 0x3 NOT ADD SLT PUSH2 0x27D JUMPI PUSH2 0x5C4 PUSH1 0x4 CALLDATALOAD PUSH2 0x1196 PUSH2 0x2250 JUMP JUMPDEST SWAP1 PUSH2 0x11B2 PUSH2 0x5BA DUP3 PUSH1 0x0 MSTORE PUSH1 0x0 PUSH1 0x20 MSTORE PUSH1 0x1 PUSH1 0x40 PUSH1 0x0 KECCAK256 ADD SLOAD SWAP1 JUMP JUMPDEST PUSH2 0x26A2 JUMP JUMPDEST CALLVALUE PUSH2 0x27D JUMPI PUSH1 0x0 CALLDATASIZE PUSH1 0x3 NOT ADD SLT PUSH2 0x27D JUMPI PUSH2 0x11D7 PUSH1 0xFF PUSH1 0x6 SLOAD AND ISZERO PUSH2 0x2309 JUMP JUMPDEST CALLER PUSH1 0x0 MSTORE PUSH1 0x15 PUSH1 0x20 MSTORE PUSH1 0x40 PUSH1 0x0 KECCAK256 SLOAD PUSH2 0x11FF JUMPI CALLER PUSH1 0x0 MSTORE PUSH1 0x15 PUSH1 0x20 MSTORE TIMESTAMP PUSH1 0x40 PUSH1 0x0 KECCAK256 SSTORE PUSH1 0x0 DUP1 RETURN JUMPDEST PUSH1 0x40 MLOAD PUSH3 0x461BCD PUSH1 0xE5 SHL DUP2 MSTORE PUSH1 0x20 PUSH1 0x4 DUP3 ADD MSTORE PUSH1 0x11 PUSH1 0x24 DUP3 ADD MSTORE PUSH17 0x105B1C9958591E4818DBDB5B5A5D1D1959 PUSH1 0x7A SHL PUSH1 0x44 DUP3 ADD MSTORE PUSH1 0x64 SWAP1 REVERT JUMPDEST CALLVALUE PUSH2 0x27D JUMPI PUSH1 0x20 CALLDATASIZE PUSH1 0x3 NOT ADD SLT PUSH2 0x27D JUMPI PUSH1 0x20 PUSH2 0x1265 PUSH1 0x4 CALLDATALOAD PUSH1 0x0 MSTORE PUSH1 0x0 PUSH1 0x20 MSTORE PUSH1 0x1 PUSH1 0x40 PUSH1 0x0 KECCAK256 ADD SLOAD SWAP1 JUMP JUMPDEST PUSH1 0x40 MLOAD SWAP1 DUP2 MSTORE RETURN JUMPDEST CALLVALUE PUSH2 0x27D JUMPI PUSH1 0x20 CALLDATASIZE PUSH1 0x3 NOT ADD SLT PUSH2 0x27D JUMPI PUSH1 0x4 CALLDATALOAD PUSH1 0x0 MSTORE PUSH1 0x8 PUSH1 0x20 MSTORE PUSH1 0x20 PUSH1 0xFF PUSH1 0x40 PUSH1 0x0 KECCAK256 SLOAD AND PUSH1 0x40 MLOAD SWAP1 ISZERO ISZERO DUP2 MSTORE RETURN JUMPDEST CALLVALUE PUSH2 0x27D JUMPI PUSH1 0x60 PUSH2 0x12AE CALLDATASIZE PUSH2 0x2266 JUMP JUMPDEST SWAP1 PUSH2 0x12CF PUSH2 0x12DD PUSH1 0x4 SLOAD SWAP4 PUSH1 0x40 MLOAD SWAP3 DUP4 SWAP2 PUSH1 0x20 DUP4 ADD SWAP6 DUP8 ADDRESS SWAP3 CALLER SWAP3 DUP10 PUSH2 0x2343 JUMP JUMPDEST SUB PUSH1 0x1F NOT DUP2 ADD DUP4 MSTORE DUP3 PUSH2 0x21DB JUMP JUMPDEST MLOAD SWAP1 KECCAK256 SWAP1 PUSH2 0x12CF PUSH2 0x132E PUSH1 0x5 SLOAD PUSH1 0x40 MLOAD SWAP3 DUP4 SWAP2 PUSH1 0x20 DUP4 ADD SWAP6 DUP8 DUP8 SWAP2 PUSH1 0x79 SWAP4 SWAP2 PUSH25 0x5452555448464F5247455F504F4F4C5F444F4D41494E5F5633 PUSH1 0x38 SHL DUP5 MSTORE PUSH1 0x19 DUP5 ADD MSTORE PUSH1 0x39 DUP4 ADD MSTORE PUSH1 0x59 DUP3 ADD MSTORE ADD SWAP1 JUMP JUMPDEST MLOAD SWAP1 KECCAK256 DUP2 PUSH1 0x0 MSTORE PUSH1 0x8 PUSH1 0x20 MSTORE PUSH1 0xFF PUSH1 0x40 PUSH1 0x0 KECCAK256 SLOAD AND SWAP1 DUP2 ISZERO PUSH2 0x135F JUMPI JUMPDEST PUSH1 0x40 MLOAD SWAP3 DUP4 MSTORE PUSH1 0x20 DUP4 ADD MSTORE ISZERO ISZERO PUSH1 0x40 DUP3 ADD MSTORE RETURN JUMPDEST DUP1 SWAP2 POP PUSH1 0x0 MSTORE PUSH1 0x8 PUSH1 0x20 MSTORE PUSH1 0xFF PUSH1 0x40 PUSH1 0x0 KECCAK256 SLOAD AND SWAP1 PUSH2 0x134B JUMP JUMPDEST CALLVALUE PUSH2 0x27D JUMPI PUSH1 0x20 CALLDATASIZE PUSH1 0x3 NOT ADD SLT PUSH2 0x27D JUMPI PUSH1 0x1 PUSH1 0x1 PUSH1 0xA0 SHL SUB PUSH2 0x139A PUSH2 0x223A JUMP JUMPDEST AND PUSH1 0x0 MSTORE PUSH1 0xF PUSH1 0x20 MSTORE PUSH1 0x20 PUSH1 0x40 PUSH1 0x0 KECCAK256 SLOAD PUSH1 0x40 MLOAD SWAP1 DUP2 MSTORE RETURN JUMPDEST CALLVALUE PUSH2 0x27D JUMPI PUSH1 0x0 CALLDATASIZE PUSH1 0x3 NOT ADD SLT PUSH2 0x27D JUMPI PUSH1 0x20 PUSH1 0x4 SLOAD PUSH1 0x40 MLOAD SWAP1 DUP2 MSTORE RETURN JUMPDEST CALLVALUE PUSH2 0x27D JUMPI PUSH1 0x0 CALLDATASIZE PUSH1 0x3 NOT ADD SLT PUSH2 0x27D JUMPI PUSH1 0x20 PUSH1 0xA SLOAD PUSH1 0x40 MLOAD SWAP1 DUP2 MSTORE RETURN JUMPDEST CALLVALUE PUSH2 0x27D JUMPI PUSH1 0x0 CALLDATASIZE PUSH1 0x3 NOT ADD SLT PUSH2 0x27D JUMPI PUSH1 0x20 PUSH1 0xB SLOAD PUSH1 0x40 MLOAD SWAP1 DUP2 MSTORE RETURN JUMPDEST CALLVALUE PUSH2 0x27D JUMPI PUSH1 0x0 CALLDATASIZE PUSH1 0x3 NOT ADD SLT PUSH2 0x27D JUMPI PUSH1 0x20 PUSH1 0x40 MLOAD PUSH32 0xDFBEFBF47CFE66B701D8CFDBCE1DE81C821590819CB07E71CB01B6602FB0EE27 DUP2 MSTORE RETURN JUMPDEST CALLVALUE PUSH2 0x27D JUMPI PUSH2 0x1C0 CALLDATASIZE PUSH1 0x3 NOT ADD SLT PUSH2 0x27D JUMPI CALLDATASIZE PUSH1 0x23 SLT ISZERO PUSH2 0x27D JUMPI PUSH2 0x146E CALLDATASIZE PUSH1 0x4 PUSH2 0x21FD JUMP JUMPDEST CALLDATASIZE PUSH1 0x63 SLT ISZERO PUSH2 0x27D JUMPI PUSH1 0x40 DUP1 MLOAD SWAP1 PUSH2 0x1486 DUP2 DUP4 PUSH2 0x21DB JUMP JUMPDEST DUP2 CALLDATASIZE PUSH1 0xC4 GT PUSH2 0x27D JUMPI PUSH1 0x44 SWAP1 JUMPDEST PUSH1 0xC4 DUP3 LT PUSH2 0x2128 JUMPI POP POP CALLDATASIZE PUSH1 0xE3 SLT ISZERO PUSH2 0x27D JUMPI PUSH2 0x14B1 CALLDATASIZE PUSH1 0xC4 PUSH2 0x21FD JUMP JUMPDEST SWAP3 CALLDATASIZE PUSH2 0x123 SLT ISZERO PUSH2 0x27D JUMPI DUP2 MLOAD SWAP1 PUSH2 0x14CA PUSH1 0xA0 DUP4 PUSH2 0x21DB JUMP JUMPDEST DUP2 CALLDATASIZE PUSH2 0x1A4 GT PUSH2 0x27D JUMPI PUSH2 0x104 SWAP1 JUMPDEST PUSH2 0x1A4 DUP3 LT PUSH2 0x2118 JUMPI POP POP PUSH2 0x1A4 CALLDATALOAD SWAP4 PUSH2 0x14F1 PUSH2 0x25B6 JUMP JUMPDEST PUSH2 0x14F9 PUSH2 0x25D8 JUMP JUMPDEST PUSH2 0x1508 PUSH1 0xFF PUSH1 0x6 SLOAD AND ISZERO PUSH2 0x2309 JUMP JUMPDEST PUSH1 0x5 SLOAD TIMESTAMP LT ISZERO PUSH2 0x20E7 JUMPI PUSH8 0xDE0B6B3A7640000 DUP6 LT PUSH2 0x20B3 JUMPI PUSH2 0x3E8 PUSH1 0xC SLOAD LT ISZERO PUSH2 0x2077 JUMPI CALLER PUSH1 0x0 MSTORE PUSH1 0x15 PUSH1 0x20 MSTORE DUP4 PUSH1 0x0 KECCAK256 SLOAD ISZERO PUSH2 0x2003 JUMPI JUMPDEST PUSH1 0x20 DUP4 ADD SWAP6 DUP7 MLOAD DUP6 DUP6 ADD SWAP1 DUP2 MLOAD SWAP1 PUSH2 0x12CF PUSH2 0x156E PUSH1 0x4 SLOAD SWAP4 DUP11 MLOAD SWAP3 DUP4 SWAP2 PUSH1 0x20 DUP4 ADD SWAP6 DUP8 ADDRESS SWAP3 CALLER SWAP3 DUP10 PUSH2 0x2343 JUMP JUMPDEST MLOAD SWAP1 KECCAK256 SWAP2 DUP3 PUSH1 0x0 MSTORE PUSH1 0x8 PUSH1 0x20 MSTORE PUSH1 0xFF DUP9 PUSH1 0x0 KECCAK256 SLOAD AND PUSH2 0x1FD1 JUMPI DUP10 MLOAD ISZERO PUSH2 0x1F97 JUMPI DUP1 MLOAD ISZERO PUSH2 0x1F5E JUMPI PUSH1 0x60 DUP8 ADD SWAP10 PUSH1 0x1 DUP12 MLOAD LT ISZERO DUP1 PUSH2 0x1F52 JUMPI JUMPDEST ISZERO PUSH2 0x1F1D JUMPI PUSH1 0x64 PUSH1 0x80 DUP10 ADD MLOAD GT PUSH2 0x1ED9 JUMPI MLOAD SWAP1 MLOAD DUP4 ISZERO PUSH2 0x1EA4 JUMPI PUSH2 0x3E7 DUP3 GT ISZERO PUSH2 0x1E61 JUMPI PUSH2 0x3E7 DUP2 GT ISZERO PUSH2 0x1E1D JUMPI DUP1 DUP3 EQ PUSH2 0x1D6E JUMPI PUSH1 0x64 DUP3 MOD ISZERO PUSH2 0x1CB3 JUMPI PUSH1 0x64 DUP2 MOD ISZERO PUSH2 0x1BF9 JUMPI POP POP PUSH2 0x12CF PUSH2 0x163B PUSH1 0x5 SLOAD DUP10 MLOAD SWAP3 DUP4 SWAP2 PUSH1 0x20 DUP4 ADD SWAP6 DUP8 DUP8 SWAP2 PUSH1 0x79 SWAP4 SWAP2 PUSH25 0x5452555448464F5247455F504F4F4C5F444F4D41494E5F5633 PUSH1 0x38 SHL DUP5 MSTORE PUSH1 0x19 DUP5 ADD MSTORE PUSH1 0x39 DUP4 ADD MSTORE PUSH1 0x59 DUP3 ADD MSTORE ADD SWAP1 JUMP JUMPDEST MLOAD SWAP1 KECCAK256 SWAP1 DUP1 PUSH1 0x0 MSTORE PUSH1 0x8 PUSH1 0x20 MSTORE PUSH1 0xFF DUP8 PUSH1 0x0 KECCAK256 SLOAD AND PUSH2 0x1BBC JUMPI DUP2 PUSH1 0x0 MSTORE PUSH1 0x8 PUSH1 0x20 MSTORE PUSH1 0xFF DUP8 PUSH1 0x0 KECCAK256 SLOAD AND PUSH2 0x1B78 JUMPI DUP1 PUSH1 0x0 MSTORE PUSH1 0x8 PUSH1 0x20 MSTORE DUP7 PUSH1 0x0 KECCAK256 PUSH1 0x1 PUSH1 0xFF NOT DUP3 SLOAD AND OR SWAP1 SSTORE DUP2 PUSH1 0x0 MSTORE PUSH1 0x8 PUSH1 0x20 MSTORE DUP7 PUSH1 0x0 KECCAK256 PUSH1 0x1 PUSH1 0xFF NOT DUP3 SLOAD AND OR SWAP1 SSTORE CALLER PUSH1 0x0 MSTORE PUSH1 0x15 PUSH1 0x20 MSTORE TIMESTAMP DUP8 PUSH1 0x0 KECCAK256 SSTORE DUP7 MLOAD SWAP2 CALLER SWAP2 PUSH32 0x8338CD7FC0A43668CC17E80CB2E7346731F7571425BA7BACDB6AC206579FCF47 PUSH1 0x0 DUP1 LOG4 PUSH1 0x20 DUP2 PUSH1 0x64 DUP2 PUSH1 0x0 PUSH1 0x1 DUP1 PUSH1 0xA0 SHL SUB PUSH1 0x2 SLOAD PUSH1 0x8 SHR AND PUSH4 0x23B872DD PUSH1 0xE0 SHL DUP4 MSTORE CALLER PUSH1 0x4 DUP5 ADD MSTORE ADDRESS PUSH1 0x24 DUP5 ADD MSTORE DUP13 PUSH1 0x44 DUP5 ADD MSTORE GAS CALL SWAP1 DUP2 ISZERO PUSH2 0x1B6D JUMPI PUSH1 0x0 SWAP2 PUSH2 0x1B33 JUMPI JUMPDEST POP ISZERO PUSH2 0x1AF7 JUMPI PUSH1 0x3 SLOAD DUP6 MLOAD PUSH4 0x88FAEFBF PUSH1 0xE0 SHL DUP2 MSTORE SWAP4 PUSH1 0x1 PUSH1 0x1 PUSH1 0xA0 SHL SUB SWAP1 SWAP2 AND SWAP3 SWAP1 PUSH2 0x1746 SWAP1 PUSH1 0x4 DUP7 ADD SWAP1 PUSH2 0x23BD JUMP JUMPDEST PUSH1 0x0 DUP7 PUSH1 0x44 DUP7 ADD JUMPDEST PUSH1 0x2 DUP4 LT PUSH2 0x1AD8 JUMPI POP POP POP POP PUSH2 0x1768 SWAP1 PUSH1 0xC4 DUP5 ADD SWAP1 PUSH2 0x23BD JUMP JUMPDEST DUP2 DUP4 PUSH1 0x0 PUSH2 0x104 DUP4 ADD JUMPDEST PUSH1 0x5 DUP3 LT PUSH2 0x1ABE JUMPI POP POP POP PUSH2 0x1A4 DUP2 PUSH1 0x0 PUSH1 0x80 SWAP5 GAS CALL SWAP2 DUP3 ISZERO PUSH2 0x1AB3 JUMPI PUSH1 0x0 DUP1 SWAP3 DUP2 SWAP1 DUP3 SWAP6 PUSH2 0x1A5F JUMPI JUMPDEST POP DUP2 SWAP3 DUP3 ISZERO PUSH2 0x1A2B JUMPI PUSH1 0x1 PUSH1 0xFF SWAP2 MLOAD EQ SWAP9 MLOAD AND SWAP2 PUSH1 0x7 SLOAD DUP1 ISZERO ISZERO SWAP1 DUP2 PUSH2 0x1A20 JUMPI JUMPDEST POP PUSH2 0x19EC JUMPI JUMPDEST POP CALLER PUSH1 0x0 MSTORE PUSH1 0xF PUSH1 0x20 MSTORE DUP7 DUP7 PUSH1 0x0 KECCAK256 SSTORE CALLER PUSH1 0x0 MSTORE PUSH1 0xE PUSH1 0x20 MSTORE PUSH2 0x17F5 DUP9 DUP8 PUSH1 0x0 KECCAK256 SWAP1 PUSH1 0xFF DUP1 NOT DUP4 SLOAD AND SWAP2 ISZERO ISZERO AND OR SWAP1 SSTORE JUMP JUMPDEST CALLER PUSH1 0x0 MSTORE PUSH1 0x10 PUSH1 0x20 MSTORE DUP6 PUSH1 0x0 KECCAK256 DUP3 PUSH1 0xFF NOT DUP3 SLOAD AND OR SWAP1 SSTORE CALLER PUSH1 0x0 MSTORE PUSH1 0x11 PUSH1 0x20 MSTORE DUP3 DUP7 PUSH1 0x0 KECCAK256 SSTORE CALLER PUSH1 0x0 MSTORE PUSH1 0x12 PUSH1 0x20 MSTORE DUP4 DUP7 PUSH1 0x0 KECCAK256 SSTORE CALLER PUSH1 0x0 MSTORE PUSH1 0x13 PUSH1 0x20 MSTORE PUSH2 0x184C DUP6 DUP8 PUSH1 0x0 KECCAK256 SWAP1 PUSH1 0xFF DUP1 NOT DUP4 SLOAD AND SWAP2 ISZERO ISZERO AND OR SWAP1 SSTORE JUMP JUMPDEST CALLER PUSH1 0x0 MSTORE PUSH1 0x14 PUSH1 0x20 MSTORE DUP1 DUP7 PUSH1 0x0 KECCAK256 SSTORE PUSH2 0x1866 PUSH1 0xB SLOAD PUSH2 0x2418 JUMP JUMPDEST PUSH1 0xB SSTORE CALLER PUSH1 0x0 MSTORE PUSH1 0xD PUSH1 0x20 MSTORE PUSH1 0xFF DUP7 PUSH1 0x0 KECCAK256 SLOAD AND ISZERO PUSH2 0x1976 JUMPI JUMPDEST PUSH2 0x188A SWAP1 DUP8 PUSH2 0x23E5 JUMP JUMPDEST PUSH8 0xDE0B6B3A7640000 DUP2 MUL SWAP1 DUP1 DUP3 DIV PUSH8 0xDE0B6B3A7640000 EQ SWAP1 ISZERO OR ISZERO PUSH2 0x1960 JUMPI PUSH9 0x56BC75E2D63100000 SWAP1 DIV DUP5 PUSH2 0x1944 JUMPI JUMPDEST DUP8 ISZERO PUSH2 0x1930 JUMPI PUSH2 0x18CF SWAP1 PUSH1 0x9 SLOAD PUSH2 0x2427 JUMP JUMPDEST PUSH1 0x9 SSTORE JUMPDEST PUSH1 0x9 SLOAD SWAP5 PUSH1 0xA SLOAD SWAP7 DUP2 MLOAD SWAP9 DUP10 MSTORE PUSH1 0x20 DUP10 ADD MSTORE DUP8 ADD MSTORE PUSH1 0x60 DUP7 ADD MSTORE PUSH1 0x80 DUP6 ADD MSTORE ISZERO ISZERO PUSH1 0xA0 DUP5 ADD MSTORE PUSH1 0xC0 DUP4 ADD MSTORE PUSH1 0xE0 DUP3 ADD MSTORE PUSH32 0xF4B2D5170CF44E4B42BB0F2013351902934868B9AA8B7A47D61DB9502918C623 PUSH2 0x100 CALLER SWAP3 LOG2 PUSH1 0x1 DUP1 SSTORE STOP JUMPDEST PUSH2 0x193C SWAP1 PUSH1 0xA SLOAD PUSH2 0x2427 JUMP JUMPDEST PUSH1 0xA SSTORE PUSH2 0x18D3 JUMP JUMPDEST PUSH1 0x4B DUP2 MUL SWAP1 DUP1 DUP3 DIV PUSH1 0x4B EQ SWAP1 ISZERO OR ISZERO PUSH2 0x1960 JUMPI PUSH1 0x64 SWAP1 DIV PUSH2 0x18BD JUMP JUMPDEST PUSH4 0x4E487B71 PUSH1 0xE0 SHL PUSH1 0x0 MSTORE PUSH1 0x11 PUSH1 0x4 MSTORE PUSH1 0x24 PUSH1 0x0 REVERT JUMPDEST PUSH1 0xC SLOAD SWAP1 PUSH9 0x10000000000000000 DUP3 LT ISZERO PUSH2 0x19D6 JUMPI PUSH2 0x199E DUP3 PUSH1 0x1 PUSH2 0x188A SWAP5 ADD PUSH1 0xC SSTORE PUSH2 0x22AD JUMP JUMPDEST DUP2 SLOAD SWAP1 PUSH1 0x3 SHL SWAP1 CALLER DUP3 SHL SWAP2 PUSH1 0x1 DUP1 PUSH1 0xA0 SHL SUB SWAP1 SHL NOT AND OR SWAP1 SSTORE CALLER PUSH1 0x0 MSTORE PUSH1 0xD PUSH1 0x20 MSTORE DUP7 PUSH1 0x0 KECCAK256 PUSH1 0x1 PUSH1 0xFF NOT DUP3 SLOAD AND OR SWAP1 SSTORE SWAP1 POP PUSH2 0x1880 JUMP JUMPDEST PUSH4 0x4E487B71 PUSH1 0xE0 SHL PUSH1 0x0 MSTORE PUSH1 0x41 PUSH1 0x4 MSTORE PUSH1 0x24 PUSH1 0x0 REVERT JUMPDEST SWAP1 SWAP3 POP PUSH1 0x0 NOT DUP3 ADD PUSH1 0xFF DUP2 GT PUSH2 0x1960 JUMPI PUSH1 0x64 SWAP2 PUSH2 0x1A0B PUSH2 0x1A18 SWAP3 PUSH2 0x227C JUMP JUMPDEST SWAP1 SLOAD SWAP1 PUSH1 0x3 SHL SHR SWAP1 PUSH2 0x23E5 JUMP JUMPDEST DIV SWAP2 DUP9 PUSH2 0x17C3 JUMP JUMPDEST SWAP1 POP DUP4 GT ISZERO DUP11 PUSH2 0x17BD JUMP JUMPDEST DUP7 MLOAD PUSH3 0x461BCD PUSH1 0xE5 SHL DUP2 MSTORE PUSH1 0x20 PUSH1 0x4 DUP3 ADD MSTORE PUSH1 0xD PUSH1 0x24 DUP3 ADD MSTORE PUSH13 0x24B73B30B634B210383937B7B3 PUSH1 0x99 SHL PUSH1 0x44 DUP3 ADD MSTORE PUSH1 0x64 SWAP1 REVERT JUMPDEST SWAP4 POP POP SWAP1 SWAP3 POP PUSH1 0x80 DUP3 RETURNDATASIZE PUSH1 0x80 GT PUSH2 0x1AAB JUMPI JUMPDEST DUP2 PUSH2 0x1A7E PUSH1 0x80 SWAP4 DUP4 PUSH2 0x21DB JUMP JUMPDEST DUP2 ADD SUB SLT PUSH2 0x1AA8 JUMPI POP DUP1 MLOAD SWAP2 PUSH1 0x20 DUP3 ADD MLOAD PUSH2 0x1A9F PUSH1 0x60 DUP7 DUP6 ADD MLOAD SWAP5 ADD PUSH2 0x23B0 JUMP JUMPDEST SWAP4 SWAP1 SWAP3 DUP9 PUSH2 0x179C JUMP JUMPDEST DUP1 REVERT JUMPDEST RETURNDATASIZE SWAP2 POP PUSH2 0x1A71 JUMP JUMPDEST DUP4 MLOAD RETURNDATASIZE PUSH1 0x0 DUP3 RETURNDATACOPY RETURNDATASIZE SWAP1 REVERT JUMPDEST DUP3 SWAP4 POP PUSH1 0x20 DUP1 SWAP2 PUSH1 0x1 SWAP4 SWAP5 MLOAD DUP2 MSTORE ADD SWAP4 ADD SWAP2 ADD DUP5 SWAP3 PUSH2 0x1772 JUMP JUMPDEST PUSH1 0x1 SWAP2 DUP2 PUSH2 0x1AE9 PUSH1 0x20 SWAP4 DUP8 MLOAD PUSH2 0x23BD JUMP JUMPDEST ADD SWAP4 ADD SWAP2 ADD SWAP1 SWAP2 DUP8 SWAP1 PUSH2 0x174E JUMP JUMPDEST DUP5 MLOAD PUSH3 0x461BCD PUSH1 0xE5 SHL DUP2 MSTORE PUSH1 0x20 PUSH1 0x4 DUP3 ADD MSTORE PUSH1 0x15 PUSH1 0x24 DUP3 ADD MSTORE PUSH21 0x14DD185AD9481D1C985B9CD9995C8819985A5B1959 PUSH1 0x5A SHL PUSH1 0x44 DUP3 ADD MSTORE PUSH1 0x64 SWAP1 REVERT JUMPDEST SWAP1 POP PUSH1 0x20 DUP2 RETURNDATASIZE PUSH1 0x20 GT PUSH2 0x1B65 JUMPI JUMPDEST DUP2 PUSH2 0x1B4E PUSH1 0x20 SWAP4 DUP4 PUSH2 0x21DB JUMP JUMPDEST DUP2 ADD SUB SLT PUSH2 0x27D JUMPI PUSH2 0x1B5F SWAP1 PUSH2 0x23B0 JUMP JUMPDEST DUP9 PUSH2 0x1715 JUMP JUMPDEST RETURNDATASIZE SWAP2 POP PUSH2 0x1B41 JUMP JUMPDEST DUP7 MLOAD RETURNDATASIZE PUSH1 0x0 DUP3 RETURNDATACOPY RETURNDATASIZE SWAP1 REVERT JUMPDEST DUP7 MLOAD PUSH3 0x461BCD PUSH1 0xE5 SHL DUP2 MSTORE PUSH1 0x20 PUSH1 0x4 DUP3 ADD MSTORE PUSH1 0x1D PUSH1 0x24 DUP3 ADD MSTORE PUSH32 0x446F6D61696E206E756C6C696669657220616C72656164792075736564000000 PUSH1 0x44 DUP3 ADD MSTORE PUSH1 0x64 SWAP1 REVERT JUMPDEST DUP7 MLOAD PUSH3 0x461BCD PUSH1 0xE5 SHL DUP2 MSTORE PUSH1 0x20 PUSH1 0x4 DUP3 ADD MSTORE PUSH1 0x16 PUSH1 0x24 DUP3 ADD MSTORE PUSH22 0x139D5B1B1A599A595C88185B1C9958591E481D5CD959 PUSH1 0x52 SHL PUSH1 0x44 DUP3 ADD MSTORE PUSH1 0x64 SWAP1 REVERT JUMPDEST PUSH1 0x84 SWAP2 DUP10 SWAP2 DUP3 MLOAD SWAP2 DUP3 MSTORE PUSH1 0x20 DUP3 ADD MSTORE PUSH1 0x60 DUP3 DUP3 ADD MSTORE PUSH1 0x1B PUSH1 0x60 DUP3 ADD MSTORE PUSH32 0x4576656E74206861736820646976697369626C65206279203130300000000000 PUSH1 0x80 DUP3 ADD MSTORE PUSH32 0xA1C909AA653DEB2BACA6C9F1E43FE5D6CD72BECD8D9CC18203703A840320D0EC PUSH1 0xA0 CALLER SWAP3 LOG2 MLOAD PUSH3 0x461BCD PUSH1 0xE5 SHL DUP2 MSTORE PUSH1 0x20 PUSH1 0x4 DUP3 ADD MSTORE PUSH1 0x29 PUSH1 0x24 DUP3 ADD MSTORE PUSH32 0x4576656E7420686173682061707065617273206172746966696369616C6C7920 PUSH1 0x44 DUP3 ADD MSTORE PUSH9 0x19D95B995C985D1959 PUSH1 0xBA SHL PUSH1 0x64 DUP3 ADD MSTORE REVERT JUMPDEST PUSH1 0x84 SWAP2 DUP10 SWAP2 DUP3 MLOAD SWAP2 DUP3 MSTORE PUSH1 0x20 DUP3 ADD MSTORE PUSH1 0x60 DUP3 DUP3 ADD MSTORE PUSH1 0x1C PUSH1 0x60 DUP3 ADD MSTORE PUSH32 0x536F6369616C206861736820646976697369626C652062792031303000000000 PUSH1 0x80 DUP3 ADD MSTORE PUSH32 0xA1C909AA653DEB2BACA6C9F1E43FE5D6CD72BECD8D9CC18203703A840320D0EC PUSH1 0xA0 CALLER SWAP3 LOG2 MLOAD PUSH3 0x461BCD PUSH1 0xE5 SHL DUP2 MSTORE PUSH1 0x20 PUSH1 0x4 DUP3 ADD MSTORE PUSH1 0x2A PUSH1 0x24 DUP3 ADD MSTORE PUSH32 0x536F6369616C20686173682061707065617273206172746966696369616C6C79 PUSH1 0x44 DUP3 ADD MSTORE PUSH10 0x819D95B995C985D1959 PUSH1 0xB2 SHL PUSH1 0x64 DUP3 ADD MSTORE REVERT JUMPDEST PUSH1 0x84 SWAP2 DUP10 SWAP2 DUP3 MLOAD SWAP2 DUP3 MSTORE PUSH1 0x20 DUP3 ADD MSTORE PUSH1 0x60 DUP3 DUP3 ADD MSTORE PUSH1 0x10 PUSH1 0x60 DUP3 ADD MSTORE PUSH16 0x4964656E746963616C20686173686573 PUSH1 0x80 SHL PUSH1 0x80 DUP3 ADD MSTORE PUSH32 0xA1C909AA653DEB2BACA6C9F1E43FE5D6CD72BECD8D9CC18203703A840320D0EC PUSH1 0xA0 CALLER SWAP3 LOG2 MLOAD PUSH3 0x461BCD PUSH1 0xE5 SHL DUP2 MSTORE PUSH1 0x20 PUSH1 0x4 DUP3 ADD MSTORE PUSH1 0x2B PUSH1 0x24 DUP3 ADD MSTORE PUSH32 0x536F6369616C20616E64206576656E74206861736865732063616E6E6F742062 PUSH1 0x44 DUP3 ADD MSTORE PUSH11 0x19481A59195B9D1A58D85B PUSH1 0xAA SHL PUSH1 0x64 DUP3 ADD MSTORE REVERT JUMPDEST DUP9 MLOAD PUSH3 0x461BCD PUSH1 0xE5 SHL DUP2 MSTORE PUSH1 0x20 PUSH1 0x4 DUP3 ADD MSTORE PUSH1 0x1F PUSH1 0x24 DUP3 ADD MSTORE PUSH32 0x4576656E74206861736820656E74726F707920696E73756666696369656E7400 PUSH1 0x44 DUP3 ADD MSTORE PUSH1 0x64 SWAP1 REVERT JUMPDEST PUSH1 0x64 DUP10 MLOAD PUSH3 0x461BCD PUSH1 0xE5 SHL DUP2 MSTORE PUSH1 0x20 PUSH1 0x4 DUP3 ADD MSTORE PUSH1 0x20 PUSH1 0x24 DUP3 ADD MSTORE PUSH32 0x536F6369616C206861736820656E74726F707920696E73756666696369656E74 PUSH1 0x44 DUP3 ADD MSTORE REVERT JUMPDEST DUP9 MLOAD PUSH3 0x461BCD PUSH1 0xE5 SHL DUP2 MSTORE PUSH1 0x20 PUSH1 0x4 DUP3 ADD MSTORE PUSH1 0xE PUSH1 0x24 DUP3 ADD MSTORE PUSH14 0x273AB63610373AB63634B334B2B9 PUSH1 0x91 SHL PUSH1 0x44 DUP3 ADD MSTORE PUSH1 0x64 SWAP1 REVERT JUMPDEST DUP9 MLOAD PUSH3 0x461BCD PUSH1 0xE5 SHL DUP2 MSTORE PUSH1 0x20 PUSH1 0x4 DUP3 ADD MSTORE PUSH1 0x17 PUSH1 0x24 DUP3 ADD MSTORE PUSH32 0x496E76616C6964206576656E742072656C6576616E6365000000000000000000 PUSH1 0x44 DUP3 ADD MSTORE PUSH1 0x64 SWAP1 REVERT JUMPDEST DUP9 MLOAD PUSH3 0x461BCD PUSH1 0xE5 SHL DUP2 MSTORE PUSH1 0x20 PUSH1 0x4 DUP3 ADD MSTORE PUSH1 0xE PUSH1 0x24 DUP3 ADD MSTORE PUSH14 0x496E76616C696420646567726565 PUSH1 0x90 SHL PUSH1 0x44 DUP3 ADD MSTORE PUSH1 0x64 SWAP1 REVERT JUMPDEST POP PUSH1 0x4 DUP12 MLOAD GT ISZERO PUSH2 0x15A6 JUMP JUMPDEST DUP8 MLOAD PUSH3 0x461BCD PUSH1 0xE5 SHL DUP2 MSTORE PUSH1 0x20 PUSH1 0x4 DUP3 ADD MSTORE PUSH1 0x12 PUSH1 0x24 DUP3 ADD MSTORE PUSH18 0x92DCECC2D8D2C840CAECCADCE840D0C2E6D PUSH1 0x73 SHL PUSH1 0x44 DUP3 ADD MSTORE PUSH1 0x64 SWAP1 REVERT JUMPDEST DUP8 MLOAD PUSH3 0x461BCD PUSH1 0xE5 SHL DUP2 MSTORE PUSH1 0x20 PUSH1 0x4 DUP3 ADD MSTORE PUSH1 0x13 PUSH1 0x24 DUP3 ADD MSTORE PUSH19 0x92DCECC2D8D2C840E6DEC6D2C2D840D0C2E6D PUSH1 0x6B SHL PUSH1 0x44 DUP3 ADD MSTORE PUSH1 0x64 SWAP1 REVERT JUMPDEST DUP8 MLOAD PUSH3 0x461BCD PUSH1 0xE5 SHL DUP2 MSTORE PUSH1 0x20 PUSH1 0x4 DUP3 ADD MSTORE PUSH1 0xB PUSH1 0x24 DUP3 ADD MSTORE PUSH11 0x446F75626C6520766F7465 PUSH1 0xA8 SHL PUSH1 0x44 DUP3 ADD MSTORE PUSH1 0x64 SWAP1 REVERT JUMPDEST PUSH4 0x77359400 TIMESTAMP LT ISZERO PUSH2 0x206C JUMPI PUSH2 0xFFFF PUSH1 0x0 JUMPDEST AND TIMESTAMP LT PUSH2 0x2030 JUMPI CALLER PUSH1 0x0 MSTORE PUSH1 0x15 PUSH1 0x20 MSTORE TIMESTAMP DUP5 PUSH1 0x0 KECCAK256 SSTORE PUSH2 0x1541 JUMP JUMPDEST DUP4 MLOAD PUSH3 0x461BCD PUSH1 0xE5 SHL DUP2 MSTORE PUSH1 0x20 PUSH1 0x4 DUP3 ADD MSTORE PUSH1 0x15 PUSH1 0x24 DUP3 ADD MSTORE PUSH21 0x233630B9B4103637B0B710383937BA32B1BA34B7B7 PUSH1 0x59 SHL PUSH1 0x44 DUP3 ADD MSTORE PUSH1 0x64 SWAP1 REVERT JUMPDEST PUSH2 0xFFFF PUSH2 0xE10 PUSH2 0x2015 JUMP JUMPDEST DUP4 MLOAD PUSH3 0x461BCD PUSH1 0xE5 SHL DUP2 MSTORE PUSH1 0x20 PUSH1 0x4 DUP3 ADD MSTORE PUSH1 0x15 PUSH1 0x24 DUP3 ADD MSTORE PUSH21 0x546F6F206D616E79207061727469636970616E7473 PUSH1 0x58 SHL PUSH1 0x44 DUP3 ADD MSTORE PUSH1 0x64 SWAP1 REVERT JUMPDEST DUP4 MLOAD PUSH3 0x461BCD PUSH1 0xE5 SHL DUP2 MSTORE PUSH1 0x20 PUSH1 0x4 DUP3 ADD MSTORE PUSH1 0xD PUSH1 0x24 DUP3 ADD MSTORE PUSH13 0x5374616B6520746F6F206C6F77 PUSH1 0x98 SHL PUSH1 0x44 DUP3 ADD MSTORE PUSH1 0x64 SWAP1 REVERT JUMPDEST DUP4 MLOAD PUSH3 0x461BCD PUSH1 0xE5 SHL DUP2 MSTORE PUSH1 0x20 PUSH1 0x4 DUP3 ADD MSTORE PUSH1 0xA PUSH1 0x24 DUP3 ADD MSTORE PUSH10 0x141BDBDB08195B991959 PUSH1 0xB2 SHL PUSH1 0x44 DUP3 ADD MSTORE PUSH1 0x64 SWAP1 REVERT JUMPDEST DUP2 CALLDATALOAD DUP2 MSTORE PUSH1 0x20 SWAP2 DUP3 ADD SWAP2 ADD PUSH2 0x14D9 JUMP JUMPDEST PUSH1 0x0 CALLDATASIZE PUSH1 0x1F DUP5 ADD SLT ISZERO PUSH2 0x1AA8 JUMPI POP PUSH1 0x20 DUP4 SWAP2 PUSH2 0x2144 CALLDATASIZE DUP6 PUSH2 0x21FD JUMP JUMPDEST DUP2 MSTORE ADD SWAP2 ADD SWAP1 PUSH2 0x1493 JUMP JUMPDEST CALLVALUE PUSH2 0x27D JUMPI PUSH1 0x20 CALLDATASIZE PUSH1 0x3 NOT ADD SLT PUSH2 0x27D JUMPI PUSH1 0x4 CALLDATALOAD SWAP1 PUSH4 0xFFFFFFFF PUSH1 0xE0 SHL DUP3 AND DUP1 SWAP3 SUB PUSH2 0x27D JUMPI PUSH1 0x20 SWAP2 PUSH4 0x7965DB0B PUSH1 0xE0 SHL DUP2 EQ SWAP1 DUP2 ISZERO PUSH2 0x2191 JUMPI JUMPDEST POP ISZERO ISZERO DUP2 MSTORE RETURN JUMPDEST PUSH4 0x1FFC9A7 PUSH1 0xE0 SHL EQ SWAP1 POP DUP4 PUSH2 0x218A JUMP JUMPDEST PUSH2 0x100 DUP2 ADD SWAP1 DUP2 LT PUSH8 0xFFFFFFFFFFFFFFFF DUP3 GT OR PUSH2 0x19D6 JUMPI PUSH1 0x40 MSTORE JUMP JUMPDEST PUSH1 0xE0 DUP2 ADD SWAP1 DUP2 LT PUSH8 0xFFFFFFFFFFFFFFFF DUP3 GT OR PUSH2 0x19D6 JUMPI PUSH1 0x40 MSTORE JUMP JUMPDEST SWAP1 PUSH1 0x1F DUP1 NOT SWAP2 ADD AND DUP2 ADD SWAP1 DUP2 LT PUSH8 0xFFFFFFFFFFFFFFFF DUP3 GT OR PUSH2 0x19D6 JUMPI PUSH1 0x40 MSTORE JUMP JUMPDEST SWAP2 SWAP1 PUSH1 0x40 DUP1 MLOAD SWAP4 SWAP1 PUSH2 0x220F SWAP1 DUP6 PUSH2 0x21DB JUMP JUMPDEST DUP4 SWAP1 PUSH1 0x40 DUP2 ADD SWAP3 DUP4 GT PUSH2 0x27D JUMPI SWAP1 JUMPDEST DUP3 DUP3 LT PUSH2 0x222A JUMPI POP POP POP JUMP JUMPDEST DUP2 CALLDATALOAD DUP2 MSTORE PUSH1 0x20 SWAP2 DUP3 ADD SWAP2 ADD PUSH2 0x221E JUMP JUMPDEST PUSH1 0x4 CALLDATALOAD SWAP1 PUSH1 0x1 PUSH1 0x1 PUSH1 0xA0 SHL SUB DUP3 AND DUP3 SUB PUSH2 0x27D JUMPI JUMP JUMPDEST PUSH1 0x24 CALLDATALOAD SWAP1 PUSH1 0x1 PUSH1 0x1 PUSH1 0xA0 SHL SUB DUP3 AND DUP3 SUB PUSH2 0x27D JUMPI JUMP JUMPDEST PUSH1 0x40 SWAP1 PUSH1 0x3 NOT ADD SLT PUSH2 0x27D JUMPI PUSH1 0x4 CALLDATALOAD SWAP1 PUSH1 0x24 CALLDATALOAD SWAP1 JUMP JUMPDEST PUSH1 0x7 SLOAD DUP2 LT ISZERO PUSH2 0x2297 JUMPI PUSH1 0x7 PUSH1 0x0 MSTORE PUSH1 0x20 PUSH1 0x0 KECCAK256 ADD SWAP1 PUSH1 0x0 SWAP1 JUMP JUMPDEST PUSH4 0x4E487B71 PUSH1 0xE0 SHL PUSH1 0x0 MSTORE PUSH1 0x32 PUSH1 0x4 MSTORE PUSH1 0x24 PUSH1 0x0 REVERT JUMPDEST PUSH1 0xC SLOAD DUP2 LT ISZERO PUSH2 0x2297 JUMPI PUSH1 0xC PUSH1 0x0 MSTORE PUSH1 0x20 PUSH1 0x0 KECCAK256 ADD SWAP1 PUSH1 0x0 SWAP1 JUMP JUMPDEST SWAP2 SWAP1 DUP3 MLOAD SWAP3 DUP4 DUP3 MSTORE PUSH1 0x0 JUMPDEST DUP5 DUP2 LT PUSH2 0x22F4 JUMPI POP POP DUP3 PUSH1 0x0 PUSH1 0x20 DUP1 SWAP5 SWAP6 DUP5 ADD ADD MSTORE PUSH1 0x1F DUP1 NOT SWAP2 ADD AND ADD ADD SWAP1 JUMP JUMPDEST DUP1 PUSH1 0x20 DUP1 SWAP3 DUP5 ADD ADD MLOAD DUP3 DUP3 DUP7 ADD ADD MSTORE ADD PUSH2 0x22D3 JUMP JUMPDEST ISZERO PUSH2 0x2310 JUMPI JUMP JUMPDEST PUSH1 0x40 MLOAD PUSH3 0x461BCD PUSH1 0xE5 SHL DUP2 MSTORE PUSH1 0x20 PUSH1 0x4 DUP3 ADD MSTORE PUSH1 0xB PUSH1 0x24 DUP3 ADD MSTORE PUSH11 0x141BDBDB0818DB1BDCD959 PUSH1 0xAA SHL PUSH1 0x44 DUP3 ADD MSTORE PUSH1 0x64 SWAP1 REVERT JUMPDEST SWAP4 SWAP2 PUSH1 0x9F SWAP6 SWAP4 SWAP2 PUSH32 0x5452555448464F5247455F4E554C4C49464945525F5633000000000000000000 DUP7 MSTORE PUSH1 0x17 DUP7 ADD MSTORE PUSH1 0x37 DUP6 ADD MSTORE PUSH1 0x57 DUP5 ADD MSTORE PUSH12 0xFFFFFFFFFFFFFFFFFFFFFFFF NOT SWAP1 PUSH1 0x60 SHL AND PUSH1 0x77 DUP4 ADD MSTORE PUSH12 0xFFFFFFFFFFFFFFFFFFFFFFFF NOT SWAP1 PUSH1 0x60 SHL AND PUSH1 0x8B DUP3 ADD MSTORE ADD SWAP1 JUMP JUMPDEST MLOAD SWAP1 DUP2 ISZERO ISZERO DUP3 SUB PUSH2 0x27D JUMPI JUMP JUMPDEST SWAP1 PUSH1 0x0 SWAP1 JUMPDEST PUSH1 0x2 DUP3 LT PUSH2 0x23CF JUMPI POP POP POP JUMP JUMPDEST PUSH1 0x20 DUP1 PUSH1 0x1 SWAP3 DUP6 MLOAD DUP2 MSTORE ADD SWAP4 ADD SWAP2 ADD SWAP1 SWAP2 PUSH2 0x23C2 JUMP JUMPDEST DUP2 DUP2 MUL SWAP3 SWAP2 DUP2 ISZERO SWAP2 DUP5 DIV EQ OR ISZERO PUSH2 0x1960 JUMPI JUMP JUMPDEST DUP2 ISZERO PUSH2 0x2402 JUMPI DIV SWAP1 JUMP JUMPDEST PUSH4 0x4E487B71 PUSH1 0xE0 SHL PUSH1 0x0 MSTORE PUSH1 0x12 PUSH1 0x4 MSTORE PUSH1 0x24 PUSH1 0x0 REVERT JUMPDEST PUSH1 0x0 NOT DUP2 EQ PUSH2 0x1960 JUMPI PUSH1 0x1 ADD SWAP1 JUMP JUMPDEST SWAP2 SWAP1 DUP3 ADD DUP1 SWAP3 GT PUSH2 0x1960 JUMPI JUMP JUMPDEST SWAP2 SWAP1 DUP3 SUB SWAP2 DUP3 GT PUSH2 0x1960 JUMPI JUMP JUMPDEST PUSH8 0xFFFFFFFFFFFFFFFF DUP2 GT PUSH2 0x19D6 JUMPI PUSH1 0x5 SHL PUSH1 0x20 ADD SWAP1 JUMP JUMPDEST DUP1 MLOAD DUP3 LT ISZERO PUSH2 0x2297 JUMPI PUSH1 0x20 SWAP2 PUSH1 0x5 SHL ADD ADD SWAP1 JUMP JUMPDEST PUSH1 0xFF PUSH1 0x6 SLOAD AND PUSH2 0x2589 JUMPI PUSH1 0x5 SLOAD TIMESTAMP LT ISZERO PUSH2 0x255D JUMPI PUSH2 0x3E8 PUSH1 0xC SLOAD LT ISZERO PUSH2 0x2526 JUMPI PUSH1 0x1 PUSH1 0x1 PUSH1 0xA0 SHL SUB AND PUSH1 0x0 SWAP1 DUP2 MSTORE PUSH1 0x15 PUSH1 0x20 MSTORE PUSH1 0x40 SWAP1 KECCAK256 SLOAD ISZERO PUSH2 0x24C3 JUMPI JUMPDEST PUSH1 0x1 SWAP1 PUSH1 0x40 MLOAD PUSH2 0x24BC PUSH1 0x20 DUP3 PUSH2 0x21DB JUMP JUMPDEST PUSH1 0x0 DUP2 MSTORE SWAP1 JUMP JUMPDEST PUSH4 0x77359400 TIMESTAMP LT ISZERO PUSH2 0x251B JUMPI PUSH2 0xFFFF PUSH1 0x0 JUMPDEST AND TIMESTAMP LT ISZERO PUSH2 0x24AB JUMPI PUSH1 0x0 SWAP1 PUSH1 0x40 MLOAD PUSH2 0x24EE PUSH1 0x40 DUP3 PUSH2 0x21DB JUMP JUMPDEST PUSH1 0x1C DUP2 MSTORE PUSH32 0x466C617368206C6F616E2070726F74656374696F6E2061637469766500000000 PUSH1 0x20 DUP3 ADD MSTORE SWAP1 JUMP JUMPDEST PUSH2 0xFFFF PUSH2 0xE10 PUSH2 0x24D5 JUMP JUMPDEST POP PUSH1 0x0 SWAP1 PUSH1 0x40 MLOAD PUSH2 0x2538 PUSH1 0x40 DUP3 PUSH2 0x21DB JUMP JUMPDEST PUSH1 0x15 DUP2 MSTORE PUSH21 0x546F6F206D616E79207061727469636970616E7473 PUSH1 0x58 SHL PUSH1 0x20 DUP3 ADD MSTORE SWAP1 JUMP JUMPDEST POP PUSH1 0x0 SWAP1 PUSH1 0x40 MLOAD PUSH2 0x256F PUSH1 0x40 DUP3 PUSH2 0x21DB JUMP JUMPDEST PUSH1 0xA DUP2 MSTORE PUSH10 0x141BDBDB08195B991959 PUSH1 0xB2 SHL PUSH1 0x20 DUP3 ADD MSTORE SWAP1 JUMP JUMPDEST POP PUSH1 0x0 SWAP1 PUSH1 0x40 MLOAD PUSH2 0x259B PUSH1 0x40 DUP3 PUSH2 0x21DB JUMP JUMPDEST PUSH1 0xB DUP2 MSTORE PUSH11 0x141BDBDB0818DB1BDCD959 PUSH1 0xAA SHL PUSH1 0x20 DUP3 ADD MSTORE SWAP1 JUMP JUMPDEST PUSH1 0x2 PUSH1 0x1 SLOAD EQ PUSH2 0x25C7 JUMPI PUSH1 0x2 PUSH1 0x1 SSTORE JUMP JUMPDEST PUSH4 0x3EE5AEB5 PUSH1 0xE0 SHL PUSH1 0x0 MSTORE PUSH1 0x4 PUSH1 0x0 REVERT JUMPDEST PUSH1 0xFF PUSH1 0x2 SLOAD AND PUSH2 0x25E4 JUMPI JUMP JUMPDEST PUSH4 0xD93C0665 PUSH1 0xE0 SHL PUSH1 0x0 MSTORE PUSH1 0x4 PUSH1 0x0 REVERT JUMPDEST CALLER PUSH1 0x0 SWAP1 DUP2 MSTORE PUSH32 0xD30826E6D5FA6E2780DE4F5AB578641DAAFB73060B36A45D03E63FEA9A571190 PUSH1 0x20 MSTORE PUSH1 0x40 SWAP1 KECCAK256 SLOAD PUSH1 0xFF AND ISZERO PUSH2 0x262E JUMPI JUMP JUMPDEST PUSH4 0xE2517D3F PUSH1 0xE0 SHL PUSH1 0x0 MSTORE CALLER PUSH1 0x4 MSTORE PUSH32 0x24E583E35A20F9ECFC1572E7CB66BCC18AD3CD1650EC40DBF6AD2290E553A9FA PUSH1 0x24 MSTORE PUSH1 0x44 PUSH1 0x0 REVERT JUMPDEST PUSH1 0x0 DUP2 DUP2 MSTORE PUSH1 0x20 DUP2 DUP2 MSTORE PUSH1 0x40 DUP1 DUP4 KECCAK256 CALLER DUP5 MSTORE SWAP1 SWAP2 MSTORE SWAP1 KECCAK256 SLOAD PUSH1 0xFF AND ISZERO PUSH2 0x268A JUMPI POP JUMP JUMPDEST PUSH4 0xE2517D3F PUSH1 0xE0 SHL PUSH1 0x0 MSTORE CALLER PUSH1 0x4 MSTORE PUSH1 0x24 MSTORE PUSH1 0x44 PUSH1 0x0 REVERT JUMPDEST PUSH1 0x0 DUP2 DUP2 MSTORE PUSH1 0x20 DUP2 DUP2 MSTORE PUSH1 0x40 DUP1 DUP4 KECCAK256 PUSH1 0x1 PUSH1 0x1 PUSH1 0xA0 SHL SUB DUP7 AND DUP5 MSTORE SWAP1 SWAP2 MSTORE SWAP1 KECCAK256 SLOAD PUSH1 0xFF AND PUSH2 0x2726 JUMPI PUSH1 0x0 DUP2 DUP2 MSTORE PUSH1 0x20 DUP2 DUP2 MSTORE PUSH1 0x40 DUP1 DUP4 KECCAK256 PUSH1 0x1 PUSH1 0x1 PUSH1 0xA0 SHL SUB SWAP6 SWAP1 SWAP6 AND DUP1 DUP5 MSTORE SWAP5 SWAP1 SWAP2 MSTORE DUP2 KECCAK256 DUP1 SLOAD PUSH1 0xFF NOT AND PUSH1 0x1 OR SWAP1 SSTORE CALLER SWAP3 SWAP2 SWAP1 PUSH32 0x2F8788117E7EFF1D82E926EC794901D17C78024A50270940304540A733656F0D SWAP1 DUP1 LOG4 PUSH1 0x1 SWAP1 JUMP JUMPDEST POP POP PUSH1 0x0 SWAP1 JUMP JUMPDEST PUSH1 0x0 DUP2 DUP2 MSTORE PUSH1 0x20 DUP2 DUP2 MSTORE PUSH1 0x40 DUP1 DUP4 KECCAK256 PUSH1 0x1 PUSH1 0x1 PUSH1 0xA0 SHL SUB DUP7 AND DUP5 MSTORE SWAP1 SWAP2 MSTORE SWAP1 KECCAK256 SLOAD PUSH1 0xFF AND ISZERO PUSH2 0x2726 JUMPI PUSH1 0x0 DUP2 DUP2 MSTORE PUSH1 0x20 DUP2 DUP2 MSTORE PUSH1 0x40 DUP1 DUP4 KECCAK256 PUSH1 0x1 PUSH1 0x1 PUSH1 0xA0 SHL SUB SWAP6 SWAP1 SWAP6 AND DUP1 DUP5 MSTORE SWAP5 SWAP1 SWAP2 MSTORE DUP2 KECCAK256 DUP1 SLOAD PUSH1 0xFF NOT AND SWAP1 SSTORE CALLER SWAP3 SWAP2 SWAP1 PUSH32 0xF6391F5C32D9C69D2A47EA670B442974B53935D1EDC7FD64EB21E047A839171B SWAP1 DUP1 LOG4 PUSH1 0x1 SWAP1 JUMP JUMPDEST PUSH1 0x6 SLOAD PUSH1 0xFF DUP2 AND PUSH2 0x284F JUMPI PUSH1 0xFF NOT DUP2 AND PUSH1 0x1 OR PUSH1 0x6 SSTORE PUSH1 0x9 SLOAD PUSH1 0xA SLOAD LT ISZERO PUSH2 0x2836 JUMPI POP PUSH3 0x10000 PUSH3 0xFF0000 NOT PUSH1 0x6 SLOAD AND OR PUSH1 0x6 SSTORE PUSH2 0x27EB PUSH2 0x2C6A JUMP JUMPDEST PUSH1 0x4 SLOAD PUSH32 0x1FAC53A191157C168930E8243C9EF26BFEB54D57359284FF5E216A65CD227804 PUSH1 0x60 PUSH1 0xFF PUSH1 0x6 SLOAD PUSH1 0x10 SHR AND PUSH1 0x9 SLOAD PUSH1 0xA SLOAD SWAP1 PUSH1 0x40 MLOAD SWAP3 ISZERO ISZERO DUP4 MSTORE PUSH1 0x20 DUP4 ADD MSTORE PUSH1 0x40 DUP3 ADD MSTORE LOG2 JUMP JUMPDEST PUSH3 0xFF00FF NOT AND PUSH1 0x1 OR PUSH1 0x6 SSTORE PUSH2 0x284A PUSH2 0x2885 JUMP JUMPDEST PUSH2 0x27EB JUMP JUMPDEST PUSH1 0x40 MLOAD PUSH3 0x461BCD PUSH1 0xE5 SHL DUP2 MSTORE PUSH1 0x20 PUSH1 0x4 DUP3 ADD MSTORE PUSH1 0xE PUSH1 0x24 DUP3 ADD MSTORE PUSH14 0x105B1C9958591E4818DB1BDCD959 PUSH1 0x92 SHL PUSH1 0x44 DUP3 ADD MSTORE PUSH1 0x64 SWAP1 REVERT JUMPDEST PUSH1 0x9 SLOAD SWAP1 PUSH1 0x32 DUP3 MUL DUP3 DUP2 DIV PUSH1 0x32 EQ DUP4 ISZERO OR ISZERO PUSH2 0x1960 JUMPI PUSH2 0x2710 SWAP1 DIV SWAP2 DUP3 ISZERO ISZERO SWAP3 DUP4 PUSH2 0x2C08 JUMPI JUMPDEST PUSH1 0x0 SWAP2 DUP3 PUSH1 0xC SLOAD SWAP1 JUMPDEST DUP2 DUP2 LT PUSH2 0x2B3C JUMPI POP POP DUP3 ISZERO PUSH2 0x2ACA JUMPI PUSH1 0x0 JUMPDEST PUSH1 0xC SLOAD DUP2 LT ISZERO PUSH2 0x2AC2 JUMPI PUSH2 0x28D9 DUP2 PUSH2 0x22AD JUMP JUMPDEST PUSH1 0x1 DUP1 PUSH1 0xA0 SHL SUB SWAP2 SLOAD SWAP1 PUSH1 0x3 SHL SHR AND SWAP1 DUP2 PUSH1 0x0 MSTORE PUSH1 0xF PUSH1 0x20 MSTORE PUSH1 0x40 PUSH1 0x0 KECCAK256 SLOAD PUSH2 0x2907 JUMPI JUMPDEST PUSH1 0x1 SWAP2 POP ADD PUSH2 0x28C6 JUMP JUMPDEST DUP2 PUSH1 0x0 MSTORE PUSH1 0xE PUSH1 0x20 MSTORE PUSH1 0xFF PUSH1 0x40 PUSH1 0x0 KECCAK256 SLOAD AND SWAP2 DUP1 PUSH1 0x0 MSTORE PUSH1 0xF PUSH1 0x20 MSTORE PUSH1 0x40 PUSH1 0x0 KECCAK256 SLOAD SWAP3 ISZERO DUP1 PUSH2 0x2ABA JUMPI JUMPDEST ISZERO PUSH2 0x2A4C JUMPI DUP1 PUSH1 0x0 MSTORE PUSH1 0x14 PUSH1 0x20 MSTORE DUP8 PUSH1 0x64 PUSH2 0x2951 PUSH1 0x40 PUSH1 0x0 KECCAK256 SLOAD DUP7 PUSH2 0x23E5 JUMP JUMPDEST DIV DUP3 PUSH1 0x0 MSTORE PUSH1 0x13 PUSH1 0x20 MSTORE DUP8 DUP8 DUP8 PUSH1 0xFF PUSH1 0x40 PUSH1 0x0 KECCAK256 SLOAD AND PUSH2 0x2A26 JUMPI JUMPDEST DUP6 SWAP5 PUSH2 0x29C5 DUP6 DUP6 PUSH1 0x1 SWAP12 SWAP6 PUSH2 0x299E PUSH1 0x80 SWAP9 PUSH2 0x2999 PUSH1 0x0 DUP1 MLOAD PUSH1 0x20 PUSH2 0x3085 DUP4 CODECOPY DUP2 MLOAD SWAP2 MSTORE SWAP12 PUSH2 0x29DF SWAP10 PUSH2 0x23E5 JUMP JUMPDEST PUSH2 0x23F8 JUMP JUMPDEST SWAP5 PUSH1 0x0 SWAP1 ISZERO PUSH2 0x2A1C JUMPI POP PUSH2 0x29B5 SWAP3 PUSH2 0x2999 SWAP2 PUSH2 0x23E5 JUMP JUMPDEST SWAP2 JUMPDEST PUSH2 0x29CA DUP4 PUSH2 0x29C5 DUP4 DUP9 PUSH2 0x2427 JUMP JUMPDEST PUSH2 0x2427 JUMP JUMPDEST DUP9 PUSH1 0x0 MSTORE PUSH1 0x16 PUSH1 0x20 MSTORE PUSH1 0x40 PUSH1 0x0 KECCAK256 SSTORE DUP5 PUSH2 0x2427 JUMP JUMPDEST SWAP1 DUP5 PUSH1 0x0 MSTORE PUSH1 0x14 PUSH1 0x20 MSTORE PUSH1 0x40 PUSH1 0x0 KECCAK256 SLOAD SWAP1 PUSH1 0x40 MLOAD SWAP3 DUP4 MSTORE PUSH1 0x20 DUP4 ADD MSTORE DUP8 PUSH1 0x40 DUP4 ADD MSTORE PUSH1 0x60 DUP3 ADD MSTORE LOG2 JUMPDEST PUSH1 0x0 MSTORE PUSH1 0xF PUSH1 0x20 MSTORE PUSH1 0x0 PUSH1 0x40 DUP2 KECCAK256 SSTORE PUSH2 0x28FD JUMP JUMPDEST SWAP3 POP POP POP SWAP2 PUSH2 0x29B7 JUMP JUMPDEST POP POP POP SWAP1 POP PUSH1 0x4B DUP2 MUL SWAP1 DUP1 DUP3 DIV PUSH1 0x4B EQ SWAP1 ISZERO OR ISZERO PUSH2 0x1960 JUMPI DUP9 SWAP1 PUSH1 0x64 SWAP1 DIV DUP8 DUP8 DUP8 PUSH2 0x296C JUMP JUMPDEST DUP1 PUSH1 0x0 DUP1 MLOAD PUSH1 0x20 PUSH2 0x3085 DUP4 CODECOPY DUP2 MLOAD SWAP2 MSTORE PUSH1 0x80 PUSH1 0x1 SWAP6 DUP4 PUSH1 0x0 MSTORE PUSH1 0x14 PUSH1 0x20 MSTORE PUSH1 0xC8 PUSH2 0x2A7B PUSH1 0x40 PUSH1 0x0 KECCAK256 SLOAD DUP4 PUSH2 0x23E5 JUMP JUMPDEST DIV SWAP1 DUP5 PUSH1 0x0 MSTORE PUSH1 0x16 PUSH1 0x20 MSTORE DUP2 PUSH1 0x40 PUSH1 0x0 KECCAK256 SSTORE DUP5 PUSH1 0x0 MSTORE PUSH1 0x14 PUSH1 0x20 MSTORE PUSH1 0x40 PUSH1 0x0 KECCAK256 SLOAD SWAP1 PUSH1 0x40 MLOAD SWAP3 DUP4 MSTORE PUSH1 0x20 DUP4 ADD MSTORE PUSH1 0x0 PUSH1 0x40 DUP4 ADD MSTORE PUSH1 0x60 DUP3 ADD MSTORE LOG2 PUSH2 0x2A08 JUMP JUMPDEST POP PUSH1 0x1 PUSH2 0x2931 JUMP JUMPDEST POP POP POP POP SWAP1 POP JUMP JUMPDEST POP POP POP SWAP1 POP PUSH1 0x0 JUMPDEST PUSH1 0xC SLOAD DUP2 LT ISZERO PUSH2 0x2B39 JUMPI DUP1 PUSH2 0x2AE8 PUSH1 0x1 SWAP3 PUSH2 0x22AD JUMP JUMPDEST DUP4 DUP1 PUSH1 0xA0 SHL SUB SWAP2 SLOAD SWAP1 PUSH1 0x3 SHL SHR AND DUP1 PUSH1 0x0 MSTORE PUSH1 0xF PUSH1 0x20 MSTORE PUSH1 0x40 PUSH1 0x0 KECCAK256 SLOAD PUSH2 0x2B11 JUMPI JUMPDEST POP ADD PUSH2 0x2AD2 JUMP JUMPDEST PUSH1 0x0 SWAP1 DUP2 MSTORE PUSH1 0xF PUSH1 0x20 DUP2 DUP2 MSTORE PUSH1 0x40 DUP1 DUP5 KECCAK256 DUP1 SLOAD PUSH1 0x16 DUP5 MSTORE SWAP2 DUP6 KECCAK256 SWAP2 SWAP1 SWAP2 SSTORE SWAP2 SWAP1 MSTORE SSTORE CODESIZE PUSH2 0x2B0A JUMP JUMPDEST POP JUMP JUMPDEST PUSH2 0x2B45 DUP2 PUSH2 0x22AD JUMP JUMPDEST SWAP1 SLOAD PUSH1 0x3 SWAP2 SWAP1 SWAP2 SHL SHR PUSH1 0x1 PUSH1 0x1 PUSH1 0xA0 SHL SUB AND PUSH1 0x0 DUP2 DUP2 MSTORE PUSH1 0xF PUSH1 0x20 MSTORE PUSH1 0x40 SWAP1 KECCAK256 SLOAD ISZERO ISZERO DUP1 PUSH2 0x2BEF JUMPI JUMPDEST PUSH2 0x2B7C JUMPI JUMPDEST POP PUSH1 0x1 ADD PUSH2 0x28B4 JUMP JUMPDEST DUP1 PUSH1 0x0 SWAP7 SWAP3 SWAP7 MSTORE PUSH1 0xF PUSH1 0x20 MSTORE PUSH1 0x64 PUSH2 0x2BA8 PUSH1 0x40 PUSH1 0x0 KECCAK256 SLOAD DUP4 PUSH1 0x0 MSTORE PUSH1 0x14 PUSH1 0x20 MSTORE PUSH1 0x40 PUSH1 0x0 KECCAK256 SLOAD SWAP1 PUSH2 0x23E5 JUMP JUMPDEST DIV SWAP1 PUSH1 0x0 MSTORE PUSH1 0x13 PUSH1 0x20 MSTORE PUSH1 0xFF PUSH1 0x40 PUSH1 0x0 KECCAK256 SLOAD AND PUSH2 0x2BD3 JUMPI JUMPDEST PUSH2 0x2BCC SWAP1 PUSH1 0x1 SWAP3 PUSH2 0x2427 JUMP JUMPDEST SWAP5 SWAP1 PUSH2 0x2B73 JUMP JUMPDEST PUSH1 0x4B DUP2 MUL SWAP1 DUP1 DUP3 DIV PUSH1 0x4B EQ SWAP1 ISZERO OR ISZERO PUSH2 0x1960 JUMPI PUSH1 0x64 SWAP1 DIV PUSH2 0x2BC0 JUMP JUMPDEST POP DUP1 PUSH1 0x0 MSTORE PUSH1 0xE PUSH1 0x20 MSTORE PUSH1 0xFF PUSH1 0x40 PUSH1 0x0 KECCAK256 SLOAD AND ISZERO PUSH2 0x2B6E JUMP JUMPDEST PUSH1 0x2 SLOAD PUSH1 0x8 SHR PUSH1 0x1 PUSH1 0x1 PUSH1 0xA0 SHL SUB AND DUP1 EXTCODESIZE ISZERO PUSH2 0x27D JUMPI PUSH1 0x40 MLOAD PUSH4 0x40C10F19 PUSH1 0xE0 SHL DUP2 MSTORE ADDRESS PUSH1 0x4 DUP3 ADD MSTORE PUSH1 0x24 DUP2 ADD DUP4 SWAP1 MSTORE SWAP1 PUSH1 0x0 SWAP1 DUP3 SWAP1 PUSH1 0x44 SWAP1 DUP3 SWAP1 DUP5 SWAP1 GAS CALL DUP1 ISZERO PUSH2 0x780 JUMPI PUSH2 0x2C58 JUMPI JUMPDEST POP PUSH2 0x28AB JUMP JUMPDEST PUSH1 0x0 PUSH2 0x2C63 SWAP2 PUSH2 0x21DB JUMP JUMPDEST PUSH1 0x0 PUSH2 0x2C52 JUMP JUMPDEST PUSH1 0x0 SWAP1 PUSH1 0xA SLOAD SWAP2 PUSH1 0x32 DUP4 MUL DUP4 DUP2 DIV PUSH1 0x32 EQ DUP5 ISZERO OR ISZERO PUSH2 0x3070 JUMPI PUSH2 0x2710 SWAP1 DIV SWAP3 DUP4 ISZERO ISZERO DUP1 PUSH2 0x2FFE JUMPI JUMPDEST DUP3 SWAP5 DUP4 PUSH1 0xC SLOAD SWAP1 JUMPDEST DUP2 DUP2 LT PUSH2 0x2F24 JUMPI POP POP DUP6 ISZERO PUSH2 0x2EAE JUMPI DUP4 JUMPDEST PUSH1 0xC SLOAD DUP2 LT ISZERO PUSH2 0x2EA5 JUMPI PUSH2 0x2CBE DUP2 PUSH2 0x22AD JUMP JUMPDEST SWAP1 SLOAD PUSH1 0x3 SWAP2 SWAP1 SWAP2 SHL SHR PUSH1 0x1 PUSH1 0x1 PUSH1 0xA0 SHL SUB AND DUP1 DUP7 MSTORE PUSH1 0xF PUSH1 0x20 MSTORE PUSH1 0x40 DUP7 KECCAK256 SLOAD PUSH2 0x2CEB JUMPI JUMPDEST POP PUSH1 0x1 ADD PUSH2 0x2CAB JUMP JUMPDEST DUP1 DUP7 MSTORE PUSH1 0xE PUSH1 0x20 MSTORE PUSH1 0xFF PUSH1 0x40 DUP8 KECCAK256 SLOAD AND DUP2 DUP8 MSTORE PUSH1 0xF PUSH1 0x20 MSTORE PUSH1 0x1 PUSH1 0x40 DUP9 KECCAK256 SLOAD SWAP2 ISZERO ISZERO EQ DUP1 PUSH2 0x2E9D JUMPI JUMPDEST ISZERO PUSH2 0x2E34 JUMPI DUP2 DUP8 MSTORE PUSH1 0x14 PUSH1 0x20 MSTORE DUP7 DUP6 PUSH1 0x64 PUSH2 0x2D33 PUSH1 0x40 DUP5 KECCAK256 SLOAD DUP6 PUSH2 0x23E5 JUMP JUMPDEST DIV DUP5 DUP4 MSTORE PUSH1 0x13 PUSH1 0x20 MSTORE DUP12 DUP8 DUP11 PUSH1 0xFF PUSH1 0x40 DUP8 KECCAK256 SLOAD AND PUSH2 0x2DF6 JUMPI JUMPDEST SWAP5 PUSH2 0x29C5 PUSH1 0x0 DUP1 MLOAD PUSH1 0x20 PUSH2 0x3085 DUP4 CODECOPY DUP2 MLOAD SWAP2 MSTORE SWAP6 DUP6 DUP6 PUSH2 0x2DB3 SWAP6 PUSH2 0x2D7D DUP14 SWAP13 SWAP9 PUSH1 0x1 SWAP16 SWAP15 SWAP13 PUSH1 0x80 SWAP12 PUSH2 0x2999 SWAP2 PUSH2 0x23E5 JUMP JUMPDEST SWAP4 ISZERO PUSH2 0x2DED JUMPI PUSH2 0x2D90 SWAP3 PUSH2 0x2999 SWAP2 PUSH2 0x23E5 JUMP JUMPDEST SWAP3 JUMPDEST PUSH1 0x40 PUSH2 0x2DA2 DUP6 PUSH2 0x29C5 DUP6 DUP11 PUSH2 0x2427 JUMP JUMPDEST SWAP2 DUP11 DUP2 MSTORE PUSH1 0x16 PUSH1 0x20 MSTORE KECCAK256 SSTORE DUP5 PUSH2 0x2427 JUMP JUMPDEST SWAP1 DUP5 DUP13 MSTORE PUSH1 0x14 PUSH1 0x20 MSTORE PUSH1 0x40 DUP13 KECCAK256 SLOAD SWAP1 PUSH1 0x40 MLOAD SWAP3 DUP4 MSTORE PUSH1 0x20 DUP4 ADD MSTORE DUP8 PUSH1 0x40 DUP4 ADD MSTORE PUSH1 0x60 DUP3 ADD MSTORE LOG2 JUMPDEST DUP7 MSTORE PUSH1 0xF PUSH1 0x20 MSTORE DUP6 PUSH1 0x40 DUP2 KECCAK256 SSTORE SWAP1 PUSH2 0x2CE2 JUMP JUMPDEST POP POP POP DUP3 PUSH2 0x2D92 JUMP JUMPDEST POP POP POP DUP1 SWAP3 POP PUSH1 0x4B SWAP2 POP MUL SWAP1 DUP1 DUP3 DIV PUSH1 0x4B EQ SWAP1 ISZERO OR ISZERO PUSH2 0x2E20 JUMPI DUP8 SWAP1 DUP7 SWAP1 PUSH1 0x64 SWAP1 DIV DUP12 DUP8 DUP11 PUSH2 0x2D4C JUMP JUMPDEST PUSH4 0x4E487B71 PUSH1 0xE0 SHL DUP9 MSTORE PUSH1 0x11 PUSH1 0x4 MSTORE PUSH1 0x24 DUP9 REVERT JUMPDEST SWAP1 DUP1 PUSH1 0x0 DUP1 MLOAD PUSH1 0x20 PUSH2 0x3085 DUP4 CODECOPY DUP2 MLOAD SWAP2 MSTORE PUSH1 0x80 PUSH1 0x1 SWAP6 SWAP5 DUP4 DUP12 MSTORE PUSH1 0x14 PUSH1 0x20 MSTORE PUSH1 0xC8 PUSH2 0x2E63 PUSH1 0x40 DUP14 KECCAK256 SLOAD DUP4 PUSH2 0x23E5 JUMP JUMPDEST DIV SWAP1 DUP5 DUP13 MSTORE PUSH1 0x16 PUSH1 0x20 MSTORE DUP2 PUSH1 0x40 DUP14 KECCAK256 SSTORE DUP5 DUP13 MSTORE PUSH1 0x14 PUSH1 0x20 MSTORE PUSH1 0x40 DUP13 KECCAK256 SLOAD SWAP1 PUSH1 0x40 MLOAD SWAP3 DUP4 MSTORE PUSH1 0x20 DUP4 ADD MSTORE DUP12 PUSH1 0x40 DUP4 ADD MSTORE PUSH1 0x60 DUP3 ADD MSTORE LOG2 PUSH2 0x2DDA JUMP JUMPDEST POP PUSH1 0x1 PUSH2 0x2D14 JUMP JUMPDEST POP POP POP POP POP SWAP1 POP JUMP JUMPDEST POP POP POP DUP1 SWAP2 SWAP3 POP JUMPDEST PUSH1 0xC SLOAD DUP2 LT ISZERO PUSH2 0x2F20 JUMPI DUP1 PUSH2 0x2ECC PUSH1 0x1 SWAP3 PUSH2 0x22AD JUMP JUMPDEST DUP4 DUP1 PUSH1 0xA0 SHL SUB SWAP2 SLOAD SWAP1 PUSH1 0x3 SHL SHR AND DUP1 DUP5 MSTORE PUSH1 0xF PUSH1 0x20 MSTORE PUSH1 0x40 DUP5 KECCAK256 SLOAD PUSH2 0x2EF3 JUMPI JUMPDEST POP ADD PUSH2 0x2EB6 JUMP JUMPDEST DUP1 DUP5 MSTORE PUSH1 0xF PUSH1 0x20 MSTORE PUSH1 0x40 DUP5 KECCAK256 SLOAD DUP2 DUP6 MSTORE PUSH1 0x16 PUSH1 0x20 MSTORE PUSH1 0x40 DUP6 KECCAK256 SSTORE DUP4 MSTORE PUSH1 0xF PUSH1 0x20 MSTORE DUP3 PUSH1 0x40 DUP2 KECCAK256 SSTORE CODESIZE PUSH2 0x2EEC JUMP JUMPDEST POP POP JUMP JUMPDEST PUSH2 0x2F2D DUP2 PUSH2 0x22AD JUMP JUMPDEST SWAP1 SLOAD PUSH1 0x3 SWAP2 SWAP1 SWAP2 SHL SHR PUSH1 0x1 PUSH1 0x1 PUSH1 0xA0 SHL SUB AND DUP1 DUP8 MSTORE PUSH1 0xF PUSH1 0x20 MSTORE PUSH1 0x40 DUP8 KECCAK256 SLOAD ISZERO ISZERO DUP1 PUSH2 0x2FE3 JUMPI JUMPDEST PUSH2 0x2F62 JUMPI JUMPDEST POP PUSH1 0x1 ADD PUSH2 0x2C9A JUMP JUMPDEST DUP1 DUP8 SWAP10 SWAP3 SWAP10 MSTORE PUSH1 0xF PUSH1 0x20 MSTORE PUSH1 0x64 PUSH2 0x2F8A PUSH1 0x40 DUP10 KECCAK256 SLOAD DUP4 DUP11 MSTORE PUSH1 0x14 PUSH1 0x20 MSTORE PUSH1 0x40 DUP11 KECCAK256 SLOAD SWAP1 PUSH2 0x23E5 JUMP JUMPDEST DIV SWAP1 DUP8 MSTORE PUSH1 0x13 PUSH1 0x20 MSTORE PUSH1 0xFF PUSH1 0x40 DUP9 KECCAK256 SLOAD AND PUSH2 0x2FB3 JUMPI JUMPDEST PUSH2 0x2FAC SWAP1 PUSH1 0x1 SWAP3 PUSH2 0x2427 JUMP JUMPDEST SWAP8 SWAP1 PUSH2 0x2F59 JUMP JUMPDEST PUSH1 0x4B DUP2 MUL SWAP1 DUP1 DUP3 DIV PUSH1 0x4B EQ SWAP1 ISZERO OR ISZERO PUSH2 0x2FCF JUMPI PUSH1 0x64 SWAP1 DIV PUSH2 0x2FA0 JUMP JUMPDEST PUSH4 0x4E487B71 PUSH1 0xE0 SHL DUP8 MSTORE PUSH1 0x11 PUSH1 0x4 MSTORE PUSH1 0x24 DUP8 REVERT JUMPDEST POP DUP1 DUP8 MSTORE PUSH1 0xE PUSH1 0x20 MSTORE PUSH1 0x1 PUSH1 0xFF PUSH1 0x40 DUP10 KECCAK256 SLOAD AND ISZERO ISZERO EQ PUSH2 0x2F54 JUMP JUMPDEST PUSH1 0x2 SLOAD PUSH1 0x8 SHR PUSH1 0x1 PUSH1 0x1 PUSH1 0xA0 SHL SUB AND DUP1 EXTCODESIZE ISZERO PUSH2 0x306C JUMPI PUSH1 0x40 MLOAD PUSH4 0x40C10F19 PUSH1 0xE0 SHL DUP2 MSTORE ADDRESS PUSH1 0x4 DUP3 ADD MSTORE PUSH1 0x24 DUP2 ADD DUP8 SWAP1 MSTORE SWAP1 DUP5 SWAP1 DUP3 SWAP1 PUSH1 0x44 SWAP1 DUP3 SWAP1 DUP5 SWAP1 GAS CALL DUP1 ISZERO PUSH2 0x3061 JUMPI PUSH2 0x304D JUMPI JUMPDEST POP PUSH2 0x2C92 JUMP JUMPDEST DUP4 PUSH2 0x305A SWAP2 SWAP5 SWAP3 SWAP5 PUSH2 0x21DB JUMP JUMPDEST SWAP2 CODESIZE PUSH2 0x3047 JUMP JUMPDEST PUSH1 0x40 MLOAD RETURNDATASIZE DUP7 DUP3 RETURNDATACOPY RETURNDATASIZE SWAP1 REVERT JUMPDEST DUP4 DUP1 REVERT JUMPDEST PUSH4 0x4E487B71 PUSH1 0xE0 SHL DUP3 MSTORE PUSH1 0x11 PUSH1 0x4 MSTORE PUSH1 0x24 DUP3 REVERT INVALID 0x2B COINBASE 0xC6 0xB9 SELFDESTRUCT 0x27 CHAINID SDIV MULMOD PUSH17 0x522F8DD9F5824587212166CDB2B12F40A1 MOD DUP11 PUSH2 0x6B49 LOG2 PUSH5 0x6970667358 0x22 SLT KECCAK256 0xCF 0xE2 0xD6 0xAA 0x2C CALLER 0xA7 0xC6 SHL 0x4C DUP11 0x4C 0xC0 PUSH15 0x1ADF3D630DFA16C9AFF2CCD73C2E26 DIV 0x26 CALL PUSH5 0x736F6C6343 STOP ADDMOD SHR STOP CALLER 0x2F DUP8 DUP9 GT PUSH31 0x7EFF1D82E926EC794901D17C78024A50270940304540A733656F0DD30826E6 0xD5 STATICCALL PUSH15 0x2780DE4F5AB578641DAAFB73060B36 LOG4 TSTORE SUB 0xE6 EXTCODEHASH 0xEA SWAP11 JUMPI GT SWAP1 0xAA 0xE0 PUSH6 0x819044E7C1F6 RETURN LOG2 PUSH0 0xCF JUMP 0xEE 0xC9 TSTORE SWAP15 0xF9 0xDC 0xBF 0xBB DUP15 0xB1 0xF8 LOG4 LOG2 PUSH20 0xB3BD0146AD3228B676F7D3CD4284A5443F17F196 0x2B CALLDATASIZE 0xE4 SWAP2 0xB3 EXP BLOCKHASH 0xB2 BLOCKHASH PC BLOBHASH 0xE5 SWAP8 0xBA PUSH0 0xB5 "},"methodIdentifiers":{"DEFAULT_ADMIN_ROLE()":"a217fddf","FACTORY_ROLE()":"04a0fb17","MAX_PARTICIPANTS()":"f3baf070","MIN_STAKE()":"cb1c2b5c","POOL_ADMIN_ROLE()":"b8f6dba7","biasFlagged(address)":"e855daa1","canUserVote(address)":"a7f4a356","castVote(uint256[2],uint256[2][2],uint256[2],uint256[5],uint256)":"03bac880","claimReward()":"b88a802f","closeAndDistribute()":"936cbcbe","closed()":"597e1fb5","easilyVerifiable()":"7ad24fe2","endTime()":"3197cbb6","finalConsensus()":"c7473670","forceClose()":"77678414","getNullifierInfo(uint256,uint256)":"1a55a2f5","getParticipantCount()":"ad605729","getParticipantsBatch(uint256,uint256)":"430b0077","getPendingReward(address)":"4df9d6ba","getPoolStatus()":"7f79496c","getPoolSummary()":"fab9ac1d","getRoleAdmin(bytes32)":"248a9ca3","grantRole(bytes32,address)":"2f2ff15d","gravityScores(address)":"d97d44b1","hasParticipated(address)":"b4fb3ee3","hasRole(bytes32,address)":"91d14854","newsHash()":"168299f3","participants(uint256)":"35c1d349","pause()":"8456cb59","paused()":"5c975abb","pendingRewards(address)":"31d7a262","posteriorTrust(address)":"8ba24b41","preCommit()":"2d5b9f89","proximityDegrees(address)":"ddf0a8b0","renounceRole(bytes32,address)":"36568abe","revokeRole(bytes32,address)":"d547741f","setEasilyVerifiable(bool)":"9dbe0a89","stakeTimestamp(address)":"70259077","stakesInPool(address)":"1a411f4f","storyFlagWeights(uint256)":"6513e973","supportsInterface(bytes4)":"01ffc9a7","token()":"fc0c546a","totalDiscountStake()":"0de519b4","totalVerifyStake()":"c610ab77","totalVotes()":"0d15fd77","unpause()":"3f4ba83a","updateEndTime(uint256)":"6ab3846b","usedNullifiers(bytes32)":"206137aa","voteWeights(address)":"67cc910f","votes(address)":"d8bff5a5","zkVerifier()":"d6df096d"}}}}}