{
  "_format": "hh-sol-artifact-1",
  "contractName": "ZKVerifier",
  "sourceName": "contracts/ZKVerifier.sol",
  "abi": [
    {
      "inputs": [],
      "stateMutability": "nonpayable",
      "type": "constructor"
    },
    {
      "inputs": [],
      "name": "AccessControlBadConfirmation",
      "type": "error"
    },
    {
      "inputs": [
        {
          "internalType": "address",
          "name": "account",
          "type": "address"
        },
        {
          "internalType": "bytes32",
          "name": "neededRole",
          "type": "bytes32"
        }
      ],
      "name": "AccessControlUnauthorizedAccount",
      "type": "error"
    },
    {
      "inputs": [],
      "name": "EnforcedPause",
      "type": "error"
    },
    {
      "inputs": [],
      "name": "ExpectedPause",
      "type": "error"
    },
    {
      "inputs": [],
      "name": "ReentrancyGuardReentrantCall",
      "type": "error"
    },
    {
      "anonymous": false,
      "inputs": [
        {
          "indexed": true,
          "internalType": "address",
          "name": "verifier",
          "type": "address"
        },
        {
          "indexed": false,
          "internalType": "uint256",
          "name": "posterior",
          "type": "uint256"
        },
        {
          "indexed": false,
          "internalType": "uint256",
          "name": "priorTrust",
          "type": "uint256"
        }
      ],
      "name": "BayesianUpdate",
      "type": "event"
    },
    {
      "anonymous": false,
      "inputs": [
        {
          "indexed": true,
          "internalType": "address",
          "name": "user",
          "type": "address"
        },
        {
          "indexed": true,
          "internalType": "address",
          "name": "pool",
          "type": "address"
        },
        {
          "indexed": false,
          "internalType": "uint256",
          "name": "socialHash",
          "type": "uint256"
        },
        {
          "indexed": false,
          "internalType": "uint256",
          "name": "eventHash",
          "type": "uint256"
        },
        {
          "indexed": false,
          "internalType": "uint256",
          "name": "bias",
          "type": "uint256"
        },
        {
          "indexed": false,
          "internalType": "uint256",
          "name": "entropy",
          "type": "uint256"
        }
      ],
      "name": "BiasCalculated",
      "type": "event"
    },
    {
      "anonymous": false,
      "inputs": [
        {
          "indexed": true,
          "internalType": "address",
          "name": "verifier",
          "type": "address"
        },
        {
          "indexed": false,
          "internalType": "bytes32",
          "name": "proofHash",
          "type": "bytes32"
        },
        {
          "indexed": false,
          "internalType": "uint256",
          "name": "weight",
          "type": "uint256"
        },
        {
          "indexed": false,
          "internalType": "uint256",
          "name": "gravityScore",
          "type": "uint256"
        },
        {
          "indexed": false,
          "internalType": "bool",
          "name": "biasFlagged",
          "type": "bool"
        }
      ],
      "name": "ClaimVerified",
      "type": "event"
    },
    {
      "anonymous": false,
      "inputs": [
        {
          "indexed": false,
          "internalType": "string",
          "name": "version",
          "type": "string"
        },
        {
          "indexed": false,
          "internalType": "uint256",
          "name": "timestamp",
          "type": "uint256"
        },
        {
          "indexed": false,
          "internalType": "bool",
          "name": "betaDistributionEnabled",
          "type": "bool"
        }
      ],
      "name": "MEVResistantBiasUpdate",
      "type": "event"
    },
    {
      "anonymous": false,
      "inputs": [
        {
          "indexed": false,
          "internalType": "address",
          "name": "account",
          "type": "address"
        }
      ],
      "name": "Paused",
      "type": "event"
    },
    {
      "anonymous": false,
      "inputs": [
        {
          "indexed": true,
          "internalType": "address",
          "name": "user",
          "type": "address"
        },
        {
          "indexed": false,
          "internalType": "uint256",
          "name": "attemptsUsed",
          "type": "uint256"
        },
        {
          "indexed": false,
          "internalType": "uint256",
          "name": "windowEnd",
          "type": "uint256"
        }
      ],
      "name": "RateLimitExceeded",
      "type": "event"
    },
    {
      "anonymous": false,
      "inputs": [
        {
          "indexed": true,
          "internalType": "bytes32",
          "name": "role",
          "type": "bytes32"
        },
        {
          "indexed": true,
          "internalType": "bytes32",
          "name": "previousAdminRole",
          "type": "bytes32"
        },
        {
          "indexed": true,
          "internalType": "bytes32",
          "name": "newAdminRole",
          "type": "bytes32"
        }
      ],
      "name": "RoleAdminChanged",
      "type": "event"
    },
    {
      "anonymous": false,
      "inputs": [
        {
          "indexed": true,
          "internalType": "bytes32",
          "name": "role",
          "type": "bytes32"
        },
        {
          "indexed": true,
          "internalType": "address",
          "name": "account",
          "type": "address"
        },
        {
          "indexed": true,
          "internalType": "address",
          "name": "sender",
          "type": "address"
        }
      ],
      "name": "RoleGranted",
      "type": "event"
    },
    {
      "anonymous": false,
      "inputs": [
        {
          "indexed": true,
          "internalType": "bytes32",
          "name": "role",
          "type": "bytes32"
        },
        {
          "indexed": true,
          "internalType": "address",
          "name": "account",
          "type": "address"
        },
        {
          "indexed": true,
          "internalType": "address",
          "name": "sender",
          "type": "address"
        }
      ],
      "name": "RoleRevoked",
      "type": "event"
    },
    {
      "anonymous": false,
      "inputs": [
        {
          "indexed": false,
          "internalType": "address",
          "name": "account",
          "type": "address"
        }
      ],
      "name": "Unpaused",
      "type": "event"
    },
    {
      "anonymous": false,
      "inputs": [
        {
          "indexed": false,
          "internalType": "string",
          "name": "reason",
          "type": "string"
        },
        {
          "indexed": false,
          "internalType": "bytes32",
          "name": "proofHash",
          "type": "bytes32"
        }
      ],
      "name": "ZKProofValidationFailed",
      "type": "event"
    },
    {
      "inputs": [],
      "name": "DEFAULT_ADMIN_ROLE",
      "outputs": [
        {
          "internalType": "bytes32",
          "name": "",
          "type": "bytes32"
        }
      ],
      "stateMutability": "view",
      "type": "function"
    },
    {
      "inputs": [],
      "name": "KEY_ADMIN_ROLE",
      "outputs": [
        {
          "internalType": "bytes32",
          "name": "",
          "type": "bytes32"
        }
      ],
      "stateMutability": "view",
      "type": "function"
    },
    {
      "inputs": [],
      "name": "MAX_INPUT_SIZE",
      "outputs": [
        {
          "internalType": "uint256",
          "name": "",
          "type": "uint256"
        }
      ],
      "stateMutability": "view",
      "type": "function"
    },
    {
      "inputs": [],
      "name": "MAX_VERIFICATIONS_PER_WINDOW",
      "outputs": [
        {
          "internalType": "uint256",
          "name": "",
          "type": "uint256"
        }
      ],
      "stateMutability": "view",
      "type": "function"
    },
    {
      "inputs": [],
      "name": "RATE_LIMIT_WINDOW",
      "outputs": [
        {
          "internalType": "uint256",
          "name": "",
          "type": "uint256"
        }
      ],
      "stateMutability": "view",
      "type": "function"
    },
    {
      "inputs": [],
      "name": "VERIFIER_ROLE",
      "outputs": [
        {
          "internalType": "bytes32",
          "name": "",
          "type": "bytes32"
        }
      ],
      "stateMutability": "view",
      "type": "function"
    },
    {
      "inputs": [
        {
          "internalType": "bytes32",
          "name": "nullifier",
          "type": "bytes32"
        },
        {
          "internalType": "uint256",
          "name": "socialHash",
          "type": "uint256"
        },
        {
          "internalType": "uint256",
          "name": "eventHash",
          "type": "uint256"
        }
      ],
      "name": "_validateNullifierEntropyExternal",
      "outputs": [],
      "stateMutability": "pure",
      "type": "function"
    },
    {
      "inputs": [
        {
          "internalType": "uint256",
          "name": "sampleSize",
          "type": "uint256"
        },
        {
          "internalType": "uint256",
          "name": "baseSeed",
          "type": "uint256"
        }
      ],
      "name": "analyzeBiasDistribution",
      "outputs": [
        {
          "internalType": "uint256",
          "name": "mean",
          "type": "uint256"
        },
        {
          "internalType": "uint256",
          "name": "median",
          "type": "uint256"
        },
        {
          "internalType": "uint256",
          "name": "percentile95",
          "type": "uint256"
        },
        {
          "internalType": "uint256",
          "name": "entropy",
          "type": "uint256"
        }
      ],
      "stateMutability": "pure",
      "type": "function"
    },
    {
      "inputs": [
        {
          "internalType": "uint256[]",
          "name": "socialHashes",
          "type": "uint256[]"
        },
        {
          "internalType": "uint256[]",
          "name": "eventHashes",
          "type": "uint256[]"
        },
        {
          "internalType": "address[]",
          "name": "users",
          "type": "address[]"
        }
      ],
      "name": "batchCalculateBias",
      "outputs": [
        {
          "internalType": "uint256[]",
          "name": "biases",
          "type": "uint256[]"
        }
      ],
      "stateMutability": "pure",
      "type": "function"
    },
    {
      "inputs": [
        {
          "internalType": "address",
          "name": "user",
          "type": "address"
        }
      ],
      "name": "canUserVerify",
      "outputs": [
        {
          "internalType": "bool",
          "name": "canVerify",
          "type": "bool"
        },
        {
          "internalType": "uint256",
          "name": "verificationsRemaining",
          "type": "uint256"
        },
        {
          "internalType": "uint256",
          "name": "windowResetTime",
          "type": "uint256"
        }
      ],
      "stateMutability": "view",
      "type": "function"
    },
    {
      "inputs": [
        {
          "internalType": "address",
          "name": "user",
          "type": "address"
        }
      ],
      "name": "getRateLimitInfo",
      "outputs": [
        {
          "internalType": "uint256",
          "name": "verificationsUsed",
          "type": "uint256"
        },
        {
          "internalType": "uint256",
          "name": "windowStart",
          "type": "uint256"
        },
        {
          "internalType": "uint256",
          "name": "windowEnd",
          "type": "uint256"
        }
      ],
      "stateMutability": "view",
      "type": "function"
    },
    {
      "inputs": [
        {
          "internalType": "bytes32",
          "name": "role",
          "type": "bytes32"
        }
      ],
      "name": "getRoleAdmin",
      "outputs": [
        {
          "internalType": "bytes32",
          "name": "",
          "type": "bytes32"
        }
      ],
      "stateMutability": "view",
      "type": "function"
    },
    {
      "inputs": [],
      "name": "getVkAlpha",
      "outputs": [
        {
          "internalType": "uint256[2]",
          "name": "",
          "type": "uint256[2]"
        }
      ],
      "stateMutability": "view",
      "type": "function"
    },
    {
      "inputs": [],
      "name": "getVkBeta",
      "outputs": [
        {
          "internalType": "uint256[2][2]",
          "name": "",
          "type": "uint256[2][2]"
        }
      ],
      "stateMutability": "view",
      "type": "function"
    },
    {
      "inputs": [
        {
          "internalType": "uint256",
          "name": "index",
          "type": "uint256"
        }
      ],
      "name": "getVkIc",
      "outputs": [
        {
          "internalType": "uint256",
          "name": "",
          "type": "uint256"
        }
      ],
      "stateMutability": "view",
      "type": "function"
    },
    {
      "inputs": [
        {
          "internalType": "bytes32",
          "name": "role",
          "type": "bytes32"
        },
        {
          "internalType": "address",
          "name": "account",
          "type": "address"
        }
      ],
      "name": "grantRole",
      "outputs": [],
      "stateMutability": "nonpayable",
      "type": "function"
    },
    {
      "inputs": [
        {
          "internalType": "bytes32",
          "name": "role",
          "type": "bytes32"
        },
        {
          "internalType": "address",
          "name": "account",
          "type": "address"
        }
      ],
      "name": "hasRole",
      "outputs": [
        {
          "internalType": "bool",
          "name": "",
          "type": "bool"
        }
      ],
      "stateMutability": "view",
      "type": "function"
    },
    {
      "inputs": [
        {
          "internalType": "bytes32",
          "name": "nullifierHash",
          "type": "bytes32"
        }
      ],
      "name": "isNullifierUsed",
      "outputs": [
        {
          "internalType": "bool",
          "name": "",
          "type": "bool"
        }
      ],
      "stateMutability": "view",
      "type": "function"
    },
    {
      "inputs": [
        {
          "internalType": "address",
          "name": "",
          "type": "address"
        }
      ],
      "name": "lastVerificationTime",
      "outputs": [
        {
          "internalType": "uint256",
          "name": "",
          "type": "uint256"
        }
      ],
      "stateMutability": "view",
      "type": "function"
    },
    {
      "inputs": [],
      "name": "pause",
      "outputs": [],
      "stateMutability": "nonpayable",
      "type": "function"
    },
    {
      "inputs": [],
      "name": "paused",
      "outputs": [
        {
          "internalType": "bool",
          "name": "",
          "type": "bool"
        }
      ],
      "stateMutability": "view",
      "type": "function"
    },
    {
      "inputs": [
        {
          "internalType": "uint256",
          "name": "socialHash",
          "type": "uint256"
        },
        {
          "internalType": "uint256",
          "name": "eventHash",
          "type": "uint256"
        },
        {
          "internalType": "address",
          "name": "user",
          "type": "address"
        },
        {
          "internalType": "address",
          "name": "pool",
          "type": "address"
        }
      ],
      "name": "previewBias",
      "outputs": [
        {
          "internalType": "uint256",
          "name": "bias",
          "type": "uint256"
        },
        {
          "internalType": "uint256",
          "name": "entropy",
          "type": "uint256"
        },
        {
          "internalType": "string",
          "name": "distribution",
          "type": "string"
        }
      ],
      "stateMutability": "pure",
      "type": "function"
    },
    {
      "inputs": [
        {
          "internalType": "uint256",
          "name": "socialHash",
          "type": "uint256"
        },
        {
          "internalType": "uint256",
          "name": "eventHash",
          "type": "uint256"
        }
      ],
      "name": "previewNullifier",
      "outputs": [
        {
          "internalType": "bytes32",
          "name": "nullifierHash",
          "type": "bytes32"
        },
        {
          "internalType": "bytes32",
          "name": "domainNullifier",
          "type": "bytes32"
        },
        {
          "internalType": "bool",
          "name": "wouldBeValid",
          "type": "bool"
        }
      ],
      "stateMutability": "view",
      "type": "function"
    },
    {
      "inputs": [
        {
          "internalType": "bytes32",
          "name": "role",
          "type": "bytes32"
        },
        {
          "internalType": "address",
          "name": "callerConfirmation",
          "type": "address"
        }
      ],
      "name": "renounceRole",
      "outputs": [],
      "stateMutability": "nonpayable",
      "type": "function"
    },
    {
      "inputs": [
        {
          "internalType": "bytes32",
          "name": "role",
          "type": "bytes32"
        },
        {
          "internalType": "address",
          "name": "account",
          "type": "address"
        }
      ],
      "name": "revokeRole",
      "outputs": [],
      "stateMutability": "nonpayable",
      "type": "function"
    },
    {
      "inputs": [
        {
          "internalType": "bytes4",
          "name": "interfaceId",
          "type": "bytes4"
        }
      ],
      "name": "supportsInterface",
      "outputs": [
        {
          "internalType": "bool",
          "name": "",
          "type": "bool"
        }
      ],
      "stateMutability": "view",
      "type": "function"
    },
    {
      "inputs": [],
      "name": "unpause",
      "outputs": [],
      "stateMutability": "nonpayable",
      "type": "function"
    },
    {
      "inputs": [
        {
          "internalType": "uint256[2]",
          "name": "newAlpha",
          "type": "uint256[2]"
        },
        {
          "internalType": "uint256[2][2]",
          "name": "newBeta",
          "type": "uint256[2][2]"
        },
        {
          "internalType": "uint256[2]",
          "name": "newGamma",
          "type": "uint256[2]"
        },
        {
          "internalType": "uint256[2]",
          "name": "newDelta",
          "type": "uint256[2]"
        },
        {
          "internalType": "uint256[]",
          "name": "newIC",
          "type": "uint256[]"
        }
      ],
      "name": "updateVerifyingKey",
      "outputs": [],
      "stateMutability": "nonpayable",
      "type": "function"
    },
    {
      "inputs": [
        {
          "internalType": "bytes32",
          "name": "",
          "type": "bytes32"
        }
      ],
      "name": "usedDomainNullifiers",
      "outputs": [
        {
          "internalType": "bool",
          "name": "",
          "type": "bool"
        }
      ],
      "stateMutability": "view",
      "type": "function"
    },
    {
      "inputs": [
        {
          "internalType": "bytes32",
          "name": "",
          "type": "bytes32"
        }
      ],
      "name": "usedNullifiers",
      "outputs": [
        {
          "internalType": "bool",
          "name": "",
          "type": "bool"
        }
      ],
      "stateMutability": "view",
      "type": "function"
    },
    {
      "inputs": [
        {
          "internalType": "address",
          "name": "",
          "type": "address"
        }
      ],
      "name": "verificationsInWindow",
      "outputs": [
        {
          "internalType": "uint256",
          "name": "",
          "type": "uint256"
        }
      ],
      "stateMutability": "view",
      "type": "function"
    },
    {
      "inputs": [
        {
          "internalType": "uint256[2]",
          "name": "a",
          "type": "uint256[2]"
        },
        {
          "internalType": "uint256[2][2]",
          "name": "b",
          "type": "uint256[2][2]"
        },
        {
          "internalType": "uint256[2]",
          "name": "c",
          "type": "uint256[2]"
        },
        {
          "internalType": "uint256[5]",
          "name": "input",
          "type": "uint256[5]"
        }
      ],
      "name": "verifyClaim",
      "outputs": [
        {
          "internalType": "uint256",
          "name": "weight",
          "type": "uint256"
        },
        {
          "internalType": "uint256",
          "name": "gravityScore",
          "type": "uint256"
        },
        {
          "internalType": "uint256",
          "name": "posterior",
          "type": "uint256"
        },
        {
          "internalType": "bool",
          "name": "biasFlagged",
          "type": "bool"
        }
      ],
      "stateMutability": "nonpayable",
      "type": "function"
    },
    {
      "inputs": [
        {
          "internalType": "uint256[2]",
          "name": "a",
          "type": "uint256[2]"
        },
        {
          "internalType": "uint256[2][2]",
          "name": "b",
          "type": "uint256[2][2]"
        },
        {
          "internalType": "uint256[2]",
          "name": "c",
          "type": "uint256[2]"
        },
        {
          "internalType": "uint256[5]",
          "name": "input",
          "type": "uint256[5]"
        }
      ],
      "name": "verifyTx",
      "outputs": [
        {
          "internalType": "bool",
          "name": "",
          "type": "bool"
        }
      ],
      "stateMutability": "view",
      "type": "function"
    },
    {
      "inputs": [
        {
          "internalType": "uint256",
          "name": "",
          "type": "uint256"
        }
      ],
      "name": "vk_alpha",
      "outputs": [
        {
          "internalType": "uint256",
          "name": "",
          "type": "uint256"
        }
      ],
      "stateMutability": "view",
      "type": "function"
    },
    {
      "inputs": [
        {
          "internalType": "uint256",
          "name": "",
          "type": "uint256"
        },
        {
          "internalType": "uint256",
          "name": "",
          "type": "uint256"
        }
      ],
      "name": "vk_beta",
      "outputs": [
        {
          "internalType": "uint256",
          "name": "",
          "type": "uint256"
        }
      ],
      "stateMutability": "view",
      "type": "function"
    },
    {
      "inputs": [
        {
          "internalType": "uint256",
          "name": "",
          "type": "uint256"
        }
      ],
      "name": "vk_delta",
      "outputs": [
        {
          "internalType": "uint256",
          "name": "",
          "type": "uint256"
        }
      ],
      "stateMutability": "view",
      "type": "function"
    },
    {
      "inputs": [
        {
          "internalType": "uint256",
          "name": "",
          "type": "uint256"
        }
      ],
      "name": "vk_gamma",
      "outputs": [
        {
          "internalType": "uint256",
          "name": "",
          "type": "uint256"
        }
      ],
      "stateMutability": "view",
      "type": "function"
    },
    {
      "inputs": [
        {
          "internalType": "uint256",
          "name": "",
          "type": "uint256"
        }
      ],
      "name": "vk_ic",
      "outputs": [
        {
          "internalType": "uint256",
          "name": "",
          "type": "uint256"
        }
      ],
      "stateMutability": "view",
      "type": "function"
    }
  ],
  "bytecode": "0x60806040523461050a576001805561001561050f565b600181526002602082015260005b600281106104f25761003361050f565b61003b61050f565b6001815260026020820152815261005061050f565b6003815260046020820152602082015260056000915b600283106104b95761007661050f565b600181526002602082015260005b600281106104a15761009461050f565b600181526002602082015260005b60028110610489576100b33361052e565b506100bd336105aa565b506100c733610642565b506040516101a0908082016001600160401b0381118282101761047357604052600c81526020810191601f190136833751906001600160401b0382116104735768010000000000000000821161047357600d5482600d5580831061042d575b5090600d60005260206000209160005b828110610419577f548feaf6f6b38cae903592bb3de37378acefb4ba9308300e88aa1b956c5c52b260c060405160608152602260608201527f434f525245435445445f4c494e4541525f50434849505f424554415f325f355f608082015261563160f01b60a082015242602082015260016040820152a16000600d54156104055780600d6020925220600160009155600d546001101561040557600d80825260027fd7b6990105719101dabeb77144f2a3385c8033acd3af97e9423a695e81ad1eb68190559054111561040557600d80825260037fd7b6990105719101dabeb77144f2a3385c8033acd3af97e9423a695e81ad1eb78190559054111561040557600d80825260047fd7b6990105719101dabeb77144f2a3385c8033acd3af97e9423a695e81ad1eb88190559054111561040557600d80825260057fd7b6990105719101dabeb77144f2a3385c8033acd3af97e9423a695e81ad1eb98190559054111561040557600d80825260067fd7b6990105719101dabeb77144f2a3385c8033acd3af97e9423a695e81ad1eba8190559054111561040557600d80825260077fd7b6990105719101dabeb77144f2a3385c8033acd3af97e9423a695e81ad1ebb8190559054111561040557600d80825260087fd7b6990105719101dabeb77144f2a3385c8033acd3af97e9423a695e81ad1ebc8190559054111561040557600d80825260097fd7b6990105719101dabeb77144f2a3385c8033acd3af97e9423a695e81ad1ebd8190559054111561040557600d808252600a7fd7b6990105719101dabeb77144f2a3385c8033acd3af97e9423a695e81ad1ebe8190559054111561040557600d808252600b7fd7b6990105719101dabeb77144f2a3385c8033acd3af97e9423a695e81ad1ebf8190559054111561040557600d9052600c7fd7b6990105719101dabeb77144f2a3385c8033acd3af97e9423a695e81ad1ec055604051613ae990816106db8239f35b634e487b7160e01b81526032600452602490fd5b600190602083519301928186015501610136565b600d6000527fd7b6990105719101dabeb77144f2a3385c8033acd3af97e9423a695e81ad1eb59081019083015b8181106104675750610126565b6000815560010161045a565b634e487b7160e01b600052604160045260246000fd5b600190602060ff84511693019281600b0155016100a2565b600190602060ff845116930192816009015501610084565b805160005b600281106104db5750506002602060019201920192019190610066565b815160ff16848201556020909101906001016104be565b600190602060ff845116930192816003015501610023565b600080fd5b60408051919082016001600160401b0381118382101761047357604052565b6001600160a01b0381166000908152600080516020614224833981519152602052604090205460ff166105a4576001600160a01b0316600081815260008051602061422483398151915260205260408120805460ff191660011790553391906000805160206141c48339815191528180a4600190565b50600090565b6001600160a01b03811660009081526000805160206141e4833981519152602052604090205460ff166105a4576001600160a01b031660008181526000805160206141e483398151915260205260408120805460ff191660011790553391907f460de93bc770bad3bedb94b9a38b09df8ac71a47512a218a7cb89bfe8008abdc906000805160206141c48339815191529080a4600190565b6001600160a01b0381166000908152600080516020614204833981519152602052604090205460ff166105a4576001600160a01b0316600081815260008051602061420483398151915260205260408120805460ff191660011790553391907f0ce23c3e399818cfee81a7ab0880f714e53d7672b08df0fa62f2843416e1ea09906000805160206141c48339815191529080a460019056fe6080604052600436101561001257600080fd5b60003560e01c806301ffc9a71461027257806309fe03871461026d5780631204adfa14610268578063147c21881461026357806319e528861461025e5780631a050ad5146102595780631cc6944d146102545780631fecf4711461024f578063206137aa1461024a57806322dc7b4c1461024a578063248a9ca3146102455780632e6feab3146102405780632f2ff15d1461023b578063310bf4831461023657806333a5bae41461023157806336568abe1461022c5780633f4ba83a146102275780634844a098146102225780634996b4011461021d5780635c975abb14610218578063650b6753146102135780637130dfc91461020e5780638456cb591461020957806388faefbf146102045780638b9dc51e146101ff5780638ca2ee98146101fa578063905371c2146101f557806391d14854146101f057806394581f0f146101eb578063a0b26411146101e6578063a217fddf146101e1578063b3ad5c9c146101dc578063b8d9a487146101d7578063bbee78fe146101d2578063d4524e7c146101cd578063d547741f146101c8578063e7705db6146101c35763ecd8d4af146101be57600080fd5b6117be565b611718565b6116d5565b61159c565b611469565b611447565b6113d3565b6113b7565b611366565b6112c7565b611271565b611019565b610f8e565b610f0f565b610b21565b610ac7565b610aaa565b610a1e565b6109fb565b6109cf565b61094f565b6108f8565b6108ae565b610888565b6107ca565b610782565b610745565b610710565b6106df565b61067b565b61064f565b610584565b610392565b610361565b610324565b6102d8565b346102c85760203660031901126102c85760043563ffffffff60e01b81168091036102c857602090637965db0b60e01b81149081156102b7575b506040519015158152f35b6301ffc9a760e01b149050386102ac565b600080fd5b60009103126102c857565b346102c85760003660031901126102c85760206040517f460de93bc770bad3bedb94b9a38b09df8ac71a47512a218a7cb89bfe8008abdc8152f35b6001600160a01b038116036102c857565b346102c85760203660031901126102c85760043561034181610313565b60018060a01b0316600052600f6020526020604060002054604051908152f35b346102c85760203660031901126102c8576004356000526011602052602060ff604060002054166040519015158152f35b346102c85760203660031901126102c85760606103b96004356103b481610313565b611b02565b90604051921515835260208301526040820152f35b634e487b7160e01b600052604160045260246000fd5b6040810190811067ffffffffffffffff82111761040057604052565b6103ce565b60a0810190811067ffffffffffffffff82111761040057604052565b90601f8019910116810190811067ffffffffffffffff82111761040057604052565b906104516040519283610421565b565b919060408051936104648286610421565b849181019283116102c857905b82821061047d57505050565b8135815260209182019101610471565b91906040519261049e60a085610421565b839060a081019283116102c857905b8282106104b957505050565b81358152602091820191016104ad565b80602312156102c8576104dd906004610453565b90565b8060e312156102c8576104dd9060c4610453565b8061012312156102c8576104dd90610104610453565b9080601f830112156102c8576104dd91610453565b80606312156102c85760408051916105378284610421565b828160c4116102c8576044905b60c48210610553575050505090565b60208491610561858561050a565b815201910190610544565b67ffffffffffffffff81116104005760051b60200190565b346102c8576101603660031901126102c85761059f366104c9565b6105a83661051f565b6105b1366104e0565b6105ba366104f4565b90610144359267ffffffffffffffff84116102c857366023850112156102c8578360040135946105e98661056c565b946105f76040519687610421565b8686526024602087019760051b820101903682116102c857602401965b8188106106295750506106279550611bc4565b005b8735815260209788019701610614565b634e487b7160e01b600052603260045260246000fd5b346102c85760203660031901126102c85760043560028110156102c85760209060090154604051908152f35b346102c85760403660031901126102c85760043560243560028210156102c85760009060028110156106db5760028110156106d6576106d29260011b60050101549060031b1c604051918291829190602083019252565b0390f35b610639565b5080fd5b346102c85760203660031901126102c8576004356000526010602052602060ff604060002054166040519015158152f35b346102c85760203660031901126102c857602061073d600435600052600060205260016040600020015490565b604051908152f35b346102c85760203660031901126102c85760043561076281610313565b60018060a01b0316600052600e6020526020604060002054604051908152f35b346102c85760403660031901126102c8576106276024356004356107a582610313565b6107c56107c082600052600060205260016040600020015490565b61294d565b6129a6565b346102c85760003660031901126102c857602060405160648152f35b906101a06003198301126102c85781602312156102c857610808826004610453565b9160006063821315610885576040805191610824604084610421565b60c490839085831161088557506044905b82821061086c5750505050918160e312156102c8576108558260c4610453565b918061012312156102c8576104dd9061010461048d565b6020849161087a888561050a565b815201910190610835565b80fd5b346102c85760206108a461089b366107e6565b92919091612243565b6040519015158152f35b346102c85760403660031901126102c8576004356024356108ce81610313565b336001600160a01b038216036108e757610627916130cd565b63334bd91960e11b60005260046000fd5b346102c85760003660031901126102c857610911612888565b610919612988565b60ff19600254166002557f5db9ee0a495bf2e6ff9c91a7834c1ba4fdd244a5e8aa4e537bd38aeae4b073aa6020604051338152a1005b346102c85760003660031901126102c857604080805161096f8282610421565b369037805160036000825b600282106109b95750505061098f8282610421565b8151906000825b600282106109a357505050f35b6020806001928551815201930191019091610996565b600160208192855481520193019101909161097a565b346102c85760203660031901126102c85760043560028110156102c85760209060030154604051908152f35b346102c85760003660031901126102c857602060ff600254166040519015158152f35b346102c85760203660031901126102c857600435600d54811015610a6f57600d6000527fd7b6990105719101dabeb77144f2a3385c8033acd3af97e9423a695e81ad1eb50154604051908152602090f35b60405162461bcd60e51b8152602060048201526013602482015272496e646578206f7574206f6620626f756e647360681b6044820152606490fd5b346102c85760003660031901126102c8576020604051610e108152f35b346102c85760003660031901126102c857610ae0612888565b610ae8613154565b600160ff1960025416176002557f62e78cea01bee320cd4e420270b5ea74000d11b0c9f74754ebdbfc544b05a2586020604051338152a1005b346102c857610b2f366107e6565b60026001949293945414610efe576002600155610b4a613154565b610b5333613180565b8051926020820151946040830151926060810151926080820151936040516020810190610b9581610b878d8b3391876124a1565b03601f198101835282610421565b51902095610ba660018a11156124ea565b610bb18a151561252b565b610bbc81151561256d565b600182101580610ef3575b610bd0906125ae565b610bdd60648711156125eb565b610be8818b896134e1565b610c15610c10610c0c610c058a6000526010602052604060002090565b5460ff1690565b1590565b612637565b6040516020810190610c2c81610b87308c86612670565b51902098610c52610c4d610c0c610c058d6000526011602052604060002090565b6126b4565b610c61610c0c8686898d612243565b610e3c57610c7033838d613615565b9a8b92610c7e3382846137c7565b604080519384526020840192909252908201849052606082015260009033907f13a8999f04f94d3309df63fad05cdfb97292782c6c46978f33c31c95143bfd3290608090a36040805160608082526029908201527f434f525245435445445f4c494e4541525f56315f43525950544f475241504849608082015268435f454e54524f505960b81b60a08201524260208201526001918101919091527f548feaf6f6b38cae903592bb3de37378acefb4ba9308300e88aa1b956c5c52b29060c090a1610d489261390e565b95610d5487958a6139a5565b97610d5f868a613a51565b9960321096610d78906000526010602052604060002090565b805460ff19166001179055610d97906000526011602052604060002090565b805460ff191660011790556040519283926020840195610db79387612720565b03601f1981018252610dc99082610421565b519020604080519182526020820192909252908101849052811515606082015233907f2bfd7005fc33b3e62e4ed779be304a1e8f57a6ab418b4951101635f813b8035790608090a2610e1a60018055565b6040805192835260208301939093529181019290925215156060820152608090f35b7f86299f5a51f997bfedc5e81c02dbc806b5c3d3228ef5c417c9aada95a9c2e087610ebb8a86610e7b8a610b878b604051948593602085019788612720565b51902060405191829182919060408352601560408401527424b73b30b634b21023b937ba34189b10383937b7b360591b6060840152602060808401930152565b0390a160405162461bcd60e51b815260206004820152600d60248201526c24b73b30b634b210383937b7b360991b6044820152606490fd5b506004821115610bc7565b633ee5aeb560e01b60005260046000fd5b346102c85760203660031901126102c85760043560028110156102c857602090600b0154604051908152f35b919060808301926000905b60028210610f5357505050565b8251600090825b60028310610f78575050506020604060019201930191019091610f46565b6020806001928451815201920192019190610f5a565b346102c85760003660031901126102c85760408051610fad8282610421565b60005b828110610ffc57828051610fc3816103e4565b60056000825b60028210610fde578451806106d28682610f3b565b60026020600192610fee8661245b565b815201930191019091610fc9565b602090835161100b8582610421565b843682378184015201610fb0565b346102c85760403660031901126102c85760243560043580151580611265575b6110429061279c565b61104b816127de565b600080936000905b8482106111695750508261106a8161107093612810565b94612810565b6000905b61107d84611a22565b82101561110e5760005b6110996110948487611af5565b611a22565b81101561110257806110ad60019286611f0f565b516110c06110ba83611913565b87611f0f565b51106110cd575b01611087565b6110d78186611f0f565b516110e46110ba83611913565b516110ef8388611f0f565b526110fc6110ba83611913565b526110c7565b50600190910190611074565b6106d29150611145859361113f61113861113161112b8960011c90565b84611f0f565b5197611f64565b6064900490565b90611f0f565b51604051948594859094939260609260808301968352602083015260408201520152565b909461125d60019161125761124e896040516111a881610b8760208201948b86909160469282526020820152651cdbd8da585b60d21b60408201520190565b5190209661123c8b6112356112298a610b8761121a60405160208101906111ed81610b878a888690916045928252602082015264195d995b9d60da1b60408201520190565b51902095604051928391602083019586909160449282526020820152633ab9b2b960e11b60408201520190565b5190206001600160a01b031690565b6001600160a01b031690565b908a613615565b90816112488d8c611f0f565b52611a15565b95612710900690565b90611a15565b950190611053565b506103e8811115611039565b346102c85760403660031901126102c857602060ff6112bb60243560043561129882610313565b6000526000845260406000209060018060a01b0316600052602052604060002090565b54166040519015158152f35b346102c85760003660031901126102c8576020604051818152f35b600d54156106d657600d60009081527fd7b6990105719101dabeb77144f2a3385c8033acd3af97e9423a695e81ad1eb591565b600d54600110156106d657600d60009081527fd7b6990105719101dabeb77144f2a3385c8033acd3af97e9423a695e81ad1eb691565b600d548110156106d657600d60005260206000200190600090565b346102c85760203660031901126102c857600435600d548110156102c857602090600d6000527fd7b6990105719101dabeb77144f2a3385c8033acd3af97e9423a695e81ad1eb50154604051908152f35b346102c85760003660031901126102c857602060405160008152f35b346102c85760203660031901126102c8576004356113f081610313565b6001600160a01b03166000908152600f6020908152604080832054600e9092529091205490610e108201808311611442576106d290604051938493846040919493926060820195825260208201520152565b6118fd565b346102c85760603660031901126102c8576106276044356024356004356134e1565b346102c85760403660031901126102c85760043560243590604051602081019061149981610b87338787876124a1565b5190209060405160208101906114b481610b87308786612670565b51902092600191303b156102c85760405163b8d9a48760e01b81526004810185905260248101919091526044810191909152600081606481305afa908161152c575b5061152357506106d260005b60405193849384919260409194936060840195845260208401521515910152565b6106d290611502565b8061153b600061154193610421565b806102cd565b386114f6565b91909392938252602082015260606040820152825180606083015260005b818110611586575060809293506000838284010152601f8019910116010190565b8060208092870101516080828601015201611565565b346102c85760803660031901126102c85760043561161e6024356044356115c281610313565b606435916115cf83610313565b60405160208101908682528260408201526001600160601b03198460601b1660608201526001600160601b03198560601b16607482015260688152611615608882610421565b519020946137a9565b6106d260405161162d81610405565b607e81527f436f72726563746564204c696e656172205043484950204265746128322c352960208201527f205631202d204d65616e3a20312e373325206572726f722c2050656e616c747960408201527f3a20302e3120707473206572726f722c2050657266656374206d6f6e6f746f6e60608201527f69636974792c20313030252076616c69646174696f6e20737563636573730000608082015260405193849384611547565b346102c85760403660031901126102c8576106276024356004356116f882610313565b6117136107c082600052600060205260016040600020015490565b6130cd565b346102c85760003660031901126102c85760206040517f0ce23c3e399818cfee81a7ab0880f714e53d7672b08df0fa62f2843416e1ea098152f35b9181601f840112156102c85782359167ffffffffffffffff83116102c8576020808501948460051b0101116102c857565b602060408183019282815284518094520192019060005b8181106117a85750505090565b825184526020938401939092019160010161179b565b346102c85760603660031901126102c85760043567ffffffffffffffff81116102c8576117ef903690600401611753565b9060243567ffffffffffffffff81116102c857611810903690600401611753565b60443567ffffffffffffffff81116102c857611830903690600401611753565b9091808614806118f4575b156118b75761184d6064871115612830565b611856866127de565b9560005b81811061186f57604051806106d28a82611784565b806118a6611880600193858b61286e565b3561188c83878b61286e565b356118a061189b858a8c61286e565b61287e565b91613615565b6118b0828b611f0f565b520161185a565b60405162461bcd60e51b8152602060048201526015602482015274082e4e4c2f240d8cadccee8d040dad2e6dac2e8c6d605b1b6044820152606490fd5b5081861461183b565b634e487b7160e01b600052601160045260246000fd5b906001820180921161144257565b90610e10820180921161144257565b640f5392f3a8019081640f5392f3a81161144257565b640b62da35a0019081640b62da35a01161144257565b6409117a89c80190816409117a89c81161144257565b6406ab25a5d80190816406ab25a5d81161144257565b6404b517c8c00190816404b517c8c01161144257565b64030d3cdf3801908164030d3cdf381161144257565b6401e62fd6300190816401e62fd6301161144257565b63e530320801908163e53032081161144257565b6322ae5b600190816322ae5b601161144257565b90673c6ef372fe94f82b820180921161144257565b606401908160641161144257565b9190820180921161144257565b60001981019190821161144257565b606403906064821161144257565b600080516020613a748339815191520390600080516020613a74833981519152821161144257565b6126471981019190821161144257565b61225f1981019190821161144257565b611d4b1981019190821161144257565b61157b1981019190821161144257565b610dab1981019190821161144257565b6107071981019190821161144257565b61031f1981019190821161144257565b60c71981019190821161144257565b60041981019190821161144257565b9190820391821161144257565b9060018060a01b038216600052600e602052604060002054610e10810180911161144257421015611bad576001600160a01b0382166000908152600f60205260409020546064811091908215611b8957611b7d611b61611b8392611a31565b6001600160a01b039095166000908152600e6020526040902090565b54611921565b91929190565b50611b83611b7d6000946001600160a01b03166000908152600e6020526040902090565b9050610e1042018042116114425760019160649190565b93929190611bd06128db565b611bd8612988565b611bed84518015159081611d93575b50611d9f565b600080516020613a9483398151915285511080611d78575b611c0e90611ddf565b600080516020613a948339815191528151511080611d51575b611c3090611e1b565b611c5760208201600080516020613a94833981519152815151109081611d34575b50611e59565b600080516020613a9483398151915282511080611d19575b611c7890611e97565b600080516020613a9483398151915283511080611cfe575b611c9990611ed3565b60005b8451811015611cd15780611ccb600080516020613a94833981519152611cc460019489611f0f565b5110611f23565b01611c9c565b50611cf99291611cef611cf492611cea610451986120c0565b61212c565b6120e4565b612108565b612176565b506020830151600080516020613a9483398151915211611c90565b506020820151600080516020613a9483398151915211611c6f565b51600080516020613a948339815191529150602001511038611c51565b50611c30600080516020613a94833981519152611d6f835160200190565b51109050611c27565b506020850151600080516020613a9483398151915211611c05565b60219150111538611be7565b15611da657565b60405162461bcd60e51b8152602060048201526011602482015270092dcecc2d8d2c840928640d8cadccee8d607b1b6044820152606490fd5b15611de657565b60405162461bcd60e51b815260206004820152600d60248201526c496e76616c696420616c70686160981b6044820152606490fd5b15611e2257565b60405162461bcd60e51b815260206004820152600f60248201526e496e76616c696420626574615b305d60881b6044820152606490fd5b15611e6057565b60405162461bcd60e51b815260206004820152600f60248201526e496e76616c696420626574615b315d60881b6044820152606490fd5b15611e9e57565b60405162461bcd60e51b815260206004820152600d60248201526c496e76616c69642067616d6d6160981b6044820152606490fd5b15611eda57565b60405162461bcd60e51b815260206004820152600d60248201526c496e76616c69642064656c746160981b6044820152606490fd5b80518210156106d65760209160051b010190565b15611f2a57565b60405162461bcd60e51b8152602060048201526012602482015271125b9d985b1a59081250c8195b195b595b9d60721b6044820152606490fd5b90605f820291808304605f149015171561144257565b908160011b918083046002149015171561144257565b600181901b91906001600160ff1b0381160361144257565b9081630a2f383e0291630a2f383e83040361144257565b90816301023b9402916301023b9483040361144257565b90816274d95202916274d95283040361144257565b9081624ea26e0291624ea26e83040361144257565b90816240435402916240435483040361144257565b9081623fd3e20291623fd3e283040361144257565b9081624b88720291624b887283040361144257565b9081626da7180291626da71883040361144257565b908162ff5a5a029162ff5a5a83040361144257565b90816306efac1202916306efac1283040361144257565b9060648202918083046064149015171561144257565b8181029291811591840414171561144257565b8181106120b4575050565b600081556001016120a9565b60005b600281106120cf575050565b600190602083519301928160030155016120c3565b60005b600281106120f3575050565b600190602083519301928160090155016120e7565b60005b60028110612117575050565b6001906020835193019281600b01550161210b565b6005906000905b6002821061214057505050565b805160005b600281106121625750506002602060019201930191019091612133565b600190602083519301928187015501612145565b80519067ffffffffffffffff82116104005768010000000000000000821161040057602090600d5483600d558084106121da575b5001600d600052602060002060005b8381106121c65750505050565b6001906020845194019381840155016121b9565b6121f290600d600052848460002091820191016120a9565b386121aa565b156121ff57565b606460405162461bcd60e51b815260206004820152602060248201527f494320617272617920746f6f20736d616c6c20666f7220473120706f696e74736044820152fd5b919061225c600d546122556006611f7a565b11156121f8565b61226b610c0c85848487612a36565b61241c5761227b610c0c85612c75565b61241c57612298610c0c84516122918660200190565b5190612d16565b61241c576040936122e6610c0c6122ae87610443565b845151815284516020015160208201526122c788610443565b906122db6020870180515184525160200190565b516020830152612d80565b612412576122fc610c0c84516122918660200190565b612412576003546004546000969161231a91610c0c91905b90612d16565b61240a57610c0c8161235f61233161238794610443565b916123418a6005549060031b1c90565b8352612355600660005b90549060031b1c90565b6020840152610443565b9061236f896007549060031b1c90565b825261237d6008600061234b565b6020830152612d80565b612403576123ae610c0c6123a0876009549060031b1c90565b600a54600389901b1c612314565b612403576123d5610c0c6123c787600b549060031b1c90565b600c54600389901b1c612314565b612403576123e290612e7a565b926123f5610c0c85516122918760200190565b612403576104dd9450612f58565b5050505090565b505050505090565b5050505050600090565b50505050600090565b6040908151916124358184610421565b368337565b604051906103006124358184610421565b6040519060206124358184610421565b60405191906000835b6002821061247a57505050610451604083610421565b6001602081928554815201930191019091612464565b9060058110156106d65760051b0190565b91606b93917f5452555448464f5247455f4e554c4c49464945525f56330000000000000000008452601784015260378301526001600160601b03199060601b1660578201520190565b156124f157565b60405162461bcd60e51b8152602060048201526012602482015271496e76616c696420666c61672076616c756560701b6044820152606490fd5b1561253257565b60405162461bcd60e51b8152602060048201526013602482015272092dcecc2d8d2c840e6dec6d2c2d840d0c2e6d606b1b6044820152606490fd5b1561257457565b60405162461bcd60e51b8152602060048201526012602482015271092dcecc2d8d2c840caeccadce840d0c2e6d60731b6044820152606490fd5b156125b557565b60405162461bcd60e51b815260206004820152600e60248201526d496e76616c69642064656772656560901b6044820152606490fd5b156125f257565b60405162461bcd60e51b815260206004820152601760248201527f496e76616c6964206576656e742072656c6576616e63650000000000000000006044820152606490fd5b1561263e57565b60405162461bcd60e51b815260206004820152600a602482015269141c9bdbd9881d5cd95960b21b6044820152606490fd5b9091604c927f5452555448464f5247455f5a4b56455249464945525f56330000000000000000835260188301526001600160601b03199060601b1660388201520190565b156126bb57565b60405162461bcd60e51b8152602060048201526015602482015274111bdb585a5b881b9d5b1b1a599a595c881d5cd959605a1b6044820152606490fd5b906000905b6002821061270a57505050565b60208060019285518152019301910190916126fd565b939291908461272e916126f8565b6000604085015b6002821061277e5750505061274e9060c08401906126f8565b600061010083015b60058210612768575050506101a00190565b6020806001928551815201930191019091612756565b602060408261279060019487516126f8565b01930191019091612735565b156127a357565b60405162461bcd60e51b8152602060048201526013602482015272496e76616c69642073616d706c652073697a6560681b6044820152606490fd5b906127e88261056c565b6127f56040519182610421565b8281528092612806601f199161056c565b0190602036910137565b811561281a570490565b634e487b7160e01b600052601260045260246000fd5b1561283757565b60405162461bcd60e51b815260206004820152600f60248201526e426174636820746f6f206c6172676560881b6044820152606490fd5b91908110156106d65760051b0190565b356104dd81610313565b3360009081527fad3228b676f7d3cd4284a5443f17f1962b36e491b30a40b2405849e597ba5fb5602052604090205460ff16156128c157565b63e2517d3f60e01b60005233600452600060245260446000fd5b3360009081527f4f39ad2d49660849ded16eb618fd35bd782bc9826b29c3464c6dd0a5826c2046602052604090205460ff161561291457565b63e2517d3f60e01b600052336004527f460de93bc770bad3bedb94b9a38b09df8ac71a47512a218a7cb89bfe8008abdc60245260446000fd5b60008181526020818152604080832033845290915290205460ff16156129705750565b63e2517d3f60e01b6000523360045260245260446000fd5b60ff600254161561299557565b638dfc202b60e01b60005260046000fd5b6000818152602081815260408083206001600160a01b038616845290915290205460ff16612a2f576000818152602081815260408083206001600160a01b03861684529091529020805460ff1916600117905533916001600160a01b0316907f2f8788117e7eff1d82e926ec794901d17c78024a50270940304540a733656f0d600080a4600190565b5050600090565b90929181511580612c69575b8015612c53575b61241c578351511580612c46575b80612c39575b80612c2a575b61241c57600080516020613a74833981519152825110801590612c0e575b61241c57600080516020613a74833981519152815110801590612bf2575b61241c57600080516020613a7483398151915284515110801590612bcf575b61241c576020840192600080516020613a7483398151915284515110801590612bac575b61241257600181511161241257602081015115612412576040810151156124125760608101805115908115612ba0575b5061241257606490608001511161241c5781516020830151149182612b94575b82612b85575b5050612a2f57815180519060200151149182612b77575b82612b65575b5050612b6057600190565b600090565b51519051602001511490503880612b55565b805151825151149250612b4f565b51915060200151143880612b38565b80518251149250612b32565b60049150511138612b12565b50600080516020613a74833981519152612bc7855160200190565b511015612ae2565b50600080516020613a74833981519152612bea855160200190565b511015612abe565b50600080516020613a7483398151915260208201511015612a9f565b50600080516020613a7483398151915260208301511015612a81565b50602084810151015115612a63565b5060208401515115612a5d565b5083516020015115612a57565b508051158015612a495750602081015115612a49565b50602082015115612a42565b8051906020810151916040820151612c9260608401519360800190565b51918015159081612d0a575b5061241c576103e88410908115612cfe575b50612cec57600182108015612cf4575b612cec57606410612a2f57600311159081612ce0575b50612b6057600190565b61271091501038612cd6565b505050600090565b5060048211612cc0565b6103e891501038612cb0565b60019150141538612c9e565b801580612d78575b612a2f57600080516020613a748339815191528110801590612d60575b612a2f57600080516020613a7483398151915260038183818181960909089180091490565b50600080516020613a74833981519152821015612d3b565b508115612d1e565b9081511580612e6e575b80612e65575b80612e59575b612a2f57600080516020613a74833981519152825110801590612e3d575b8015612e24575b8015612e08575b612a2f5781511591821592612dfa575b508115612def575b8115612de4575090565b602001905051151590565b805115159150612dda565b602001511515915038612dd2565b50600080516020613a7483398151915260208201511015612dc2565b50600080516020613a7483398151915281511015612dbb565b50600080516020613a7483398151915260208301511015612db4565b50602081015115612d96565b50805115612d90565b50602082015115612d8a565b612e82612425565b50612e93600d546122556006611f7a565b612e9e61234b6112e2565b90612eaa61234b611315565b9060005b60058110612ecd575050612ec26040610443565b918252602082015290565b612ed78183612490565b51612ee5575b600101612eae565b91600080516020613a748339815191526001918180612f1661234b612f11612f0c8a611913565b611f90565b61134b565b9781612f3261234b612f11612f2d612f0c8d611913565b611913565b99612f3d8a8a612490565b5109900896612f4c8787612490565b51099008929050612edd565b6103009293612faa612f9b602094612f7c612f7161243a565b958051875260200190565b5160208601528051516040860152805160200151606086015260200190565b80515160808501525160200190565b5160a083015260045460009590612fc090611a3f565b612fcf876003549060031b1c90565b60c085015260e0840152600554600387901b1c610100840152612ff46006600061234b565b610120840152600754600387901b1c6101408401526130156008600061234b565b610160840152613029602082015b51611a3f565b90516101808401526101a0830152600954600386901b1c6101c0830152600a54600386901b1c6101e0830152846102008301528461022083015261306f60208201613023565b9051610240830152610260820152600b54600385901b1c610280820152600c54600385901b1c6102a0820152836102c0820152836102e08201526130b161244b565b92839160085afa91826130c357505090565b6001925050511490565b6000818152602081815260408083206001600160a01b038616845290915290205460ff1615612a2f576000818152602081815260408083206001600160a01b03861684529091529020805460ff1916905533916001600160a01b0316907ff6391f5c32d9c69d2a47ea670b442974b53935d1edc7fd64eb21e047a839171b600080a4600190565b60ff6002541661316057565b63d93c066560e01b60005260046000fd5b60001981146114425760010190565b6001600160a01b0381166000908152600e602052604090206131a190611b7d565b421015613298575b6001600160a01b0381166000908152600f602052604090206064905410156131f0576001600160a01b03166000908152600f602052604090206131ec8154613171565b9055565b6001600160a01b0381166000908152600f6020908152604080832054600e90925290912090917f853d8bc84624b52a1a6244e2d8e0961ad8035ee7ed75d6054cd4d49a2c247a429161324190611b7d565b6040805194855260208501919091526001600160a01b0390911692a260405162461bcd60e51b815260206004820152601360248201527214985d19481b1a5b5a5d08195e18d959591959606a1b6044820152606490fd5b6001600160a01b0381166000908152600f60209081526040808320839055600e90915290204290556131a9565b156132cc57565b60405162461bcd60e51b815260206004820152601f60248201527f4576656e74206861736820656e74726f707920696e73756666696369656e74006044820152606490fd5b1561331857565b60405162461bcd60e51b815260206004820152602160248201527f4964656e746963616c20736f6369616c20616e64206576656e742068617368656044820152607360f81b6064820152608490fd5b1561336e57565b60405162461bcd60e51b815260206004820152602a60248201527f536f6369616c20686173682061707065617273206172746966696369616c6c796044820152690819d95b995c985d195960b21b6064820152608490fd5b156133cd57565b60405162461bcd60e51b815260206004820152602960248201527f4576656e7420686173682061707065617273206172746966696369616c6c792060448201526819d95b995c985d195960ba1b6064820152608490fd5b1561342b57565b60405162461bcd60e51b815260206004820152602a60248201527f536f6369616c20686173682068617320696e73756666696369656e74206269746044820152692064697665727369747960b01b6064820152608490fd5b1561348a57565b60405162461bcd60e51b815260206004820152602960248201527f4576656e7420686173682068617320696e73756666696369656e74206269742060448201526864697665727369747960b81b6064820152608490fd5b15613581576103e781111561353d578161353761ffff80936135096103e761045197116132c5565b61351584821415613311565b613523606482061515613367565b6135316064850615156133c6565b11613424565b11613483565b606460405162461bcd60e51b815260206004820152602060248201527f536f6369616c206861736820656e74726f707920696e73756666696369656e746044820152fd5b60405162461bcd60e51b815260206004820152600e60248201526d273ab63610373ab63634b334b2b960911b6044820152606490fd5b929091608694927f5452555448464f5247455f434f525245435445445f4c494e4541525f563100008552601e850152603e8401526001600160601b03199060601b16605e8301526001600160601b03199060601b1660728201520190565b909161363461363f93610b8760006040519485936020850197886135b7565b519020612710900690565b600581101561365e576136546104dd91612069565b633b9aca00900490565b60c88110156136835761365461367e6136796104dd93611ae6565b612054565b6119de565b6103208110156136a9576136546136a461369f6104dd93611ad7565b61203f565b6119ca565b6107088110156136cf576136546136ca6136c56104dd93611ac7565b61202a565b6119b4565b610dac8110156136f5576136546136f06136eb6104dd93611ab7565b612015565b61199e565b61157c81101561371b576136546137166137116104dd93611aa7565b612000565b611988565b611d4c8110156137415761365461373c6137376104dd93611a97565b611feb565b611972565b6122608110156137675761365461376261375d6104dd93611a87565b611fd6565b61195c565b61264881101561378d576136546137886137836104dd93611a77565b611fbf565b611946565b6136546137a461379f6104dd93611a67565b611fa8565b611930565b919061363490610b8761363f956040519485936020850197886135b7565b6040805160208101838152918101849052606085811b6bffffffffffffffffffffffff19169082015260006074820152676a09e667f3bcc90860888201526104dd94613906946138fe946138f4949093610b87936138e7936138c19391929091613872916138368160a881018a565b51902096610b87604051938492602084019660018060a01b03161867bb67ae8584caa73b8b188791606093918352602083015260408201520190565b51902093610b876138b7613885876119f2565b9261389a61389382600d1b90565b9160f31c90565b176040519283916020830195869091604092825260208201520190565b5190208094611a15565b60405192839167a54ff53a5f1d36f1602084019618869091604092825260208201520190565b519020633b9aca07900690565b633a8f05c5900690565b612717900690565b612710900690565b9190600161393091818510158061399a575b613929906125ae565b11156124ea565b606481116139665761395561394f61394a61395b94612080565b612080565b91611a07565b90612810565b806104dd5750600190565b60405162461bcd60e51b815260206004820152600c60248201526b496e76616c6964206269617360a01b6044820152606490fd5b506004851115613920565b60648111613a1857606482116139d3576111386139ce916139c86104dd94611a31565b90612096565b611a31565b60405162461bcd60e51b815260206004820152601c60248201527f4576656e742072656c6576616e6365206f7574206f662072616e6765000000006044820152606490fd5b60405162461bcd60e51b815260206004820152601160248201527042696173206f7574206f662072616e676560781b6044820152606490fd5b906064811115613a6e575060645b81018091116114425760011c90565b613a5f56fe30644e72e131a029b85045b68181585d97816a916871ca8d3c208c16d87cfd4730644e72e131a029b85045b68181585d2833e84879b9709143e1f593f0000001a26469706673582212208371383ca7c41943e70327900bb9027d1b43148b87588e3784bb2c70161ced9564736f6c634300081c00332f8788117e7eff1d82e926ec794901d17c78024a50270940304540a733656f0d4f39ad2d49660849ded16eb618fd35bd782bc9826b29c3464c6dd0a5826c20461da0b5176dfe03406af5a6eed66ca01dda9b45ac4da671c3fa379cb93717ef81ad3228b676f7d3cd4284a5443f17f1962b36e491b30a40b2405849e597ba5fb5",
  "linkReferences": {},
  "deployedLinkReferences": {}
}