{
  "_format": "hh-sol-artifact-1",
  "contractName": "ZKVerifier",
  "sourceName": "contracts/ZKVerifier.sol",
  "abi": [
    {
      "inputs": [],
      "stateMutability": "nonpayable",
      "type": "constructor"
    },
    {
      "inputs": [],
      "name": "AccessControlBadConfirmation",
      "type": "error"
    },
    {
      "inputs": [
        {
          "internalType": "address",
          "name": "account",
          "type": "address"
        },
        {
          "internalType": "bytes32",
          "name": "neededRole",
          "type": "bytes32"
        }
      ],
      "name": "AccessControlUnauthorizedAccount",
      "type": "error"
    },
    {
      "inputs": [],
      "name": "EnforcedPause",
      "type": "error"
    },
    {
      "inputs": [],
      "name": "ExpectedPause",
      "type": "error"
    },
    {
      "inputs": [],
      "name": "ReentrancyGuardReentrantCall",
      "type": "error"
    },
    {
      "anonymous": false,
      "inputs": [
        {
          "indexed": true,
          "internalType": "address",
          "name": "verifier",
          "type": "address"
        },
        {
          "indexed": false,
          "internalType": "uint256",
          "name": "posterior",
          "type": "uint256"
        },
        {
          "indexed": false,
          "internalType": "uint256",
          "name": "priorTrust",
          "type": "uint256"
        }
      ],
      "name": "BayesianUpdate",
      "type": "event"
    },
    {
      "anonymous": false,
      "inputs": [
        {
          "indexed": true,
          "internalType": "address",
          "name": "user",
          "type": "address"
        },
        {
          "indexed": true,
          "internalType": "address",
          "name": "pool",
          "type": "address"
        },
        {
          "indexed": false,
          "internalType": "uint256",
          "name": "socialHash",
          "type": "uint256"
        },
        {
          "indexed": false,
          "internalType": "uint256",
          "name": "eventHash",
          "type": "uint256"
        },
        {
          "indexed": false,
          "internalType": "uint256",
          "name": "bias",
          "type": "uint256"
        },
        {
          "indexed": false,
          "internalType": "uint256",
          "name": "entropy",
          "type": "uint256"
        }
      ],
      "name": "BiasCalculated",
      "type": "event"
    },
    {
      "anonymous": false,
      "inputs": [
        {
          "indexed": true,
          "internalType": "address",
          "name": "verifier",
          "type": "address"
        },
        {
          "indexed": false,
          "internalType": "bytes32",
          "name": "proofHash",
          "type": "bytes32"
        },
        {
          "indexed": false,
          "internalType": "uint256",
          "name": "weight",
          "type": "uint256"
        },
        {
          "indexed": false,
          "internalType": "uint256",
          "name": "gravityScore",
          "type": "uint256"
        },
        {
          "indexed": false,
          "internalType": "bool",
          "name": "biasFlagged",
          "type": "bool"
        }
      ],
      "name": "ClaimVerified",
      "type": "event"
    },
    {
      "anonymous": false,
      "inputs": [
        {
          "indexed": false,
          "internalType": "string",
          "name": "version",
          "type": "string"
        },
        {
          "indexed": false,
          "internalType": "uint256",
          "name": "timestamp",
          "type": "uint256"
        },
        {
          "indexed": false,
          "internalType": "bool",
          "name": "betaDistributionEnabled",
          "type": "bool"
        }
      ],
      "name": "MEVResistantBiasUpdate",
      "type": "event"
    },
    {
      "anonymous": false,
      "inputs": [
        {
          "indexed": false,
          "internalType": "address",
          "name": "account",
          "type": "address"
        }
      ],
      "name": "Paused",
      "type": "event"
    },
    {
      "anonymous": false,
      "inputs": [
        {
          "indexed": true,
          "internalType": "address",
          "name": "user",
          "type": "address"
        },
        {
          "indexed": false,
          "internalType": "uint256",
          "name": "attemptsUsed",
          "type": "uint256"
        },
        {
          "indexed": false,
          "internalType": "uint256",
          "name": "windowEnd",
          "type": "uint256"
        }
      ],
      "name": "RateLimitExceeded",
      "type": "event"
    },
    {
      "anonymous": false,
      "inputs": [
        {
          "indexed": true,
          "internalType": "bytes32",
          "name": "role",
          "type": "bytes32"
        },
        {
          "indexed": true,
          "internalType": "bytes32",
          "name": "previousAdminRole",
          "type": "bytes32"
        },
        {
          "indexed": true,
          "internalType": "bytes32",
          "name": "newAdminRole",
          "type": "bytes32"
        }
      ],
      "name": "RoleAdminChanged",
      "type": "event"
    },
    {
      "anonymous": false,
      "inputs": [
        {
          "indexed": true,
          "internalType": "bytes32",
          "name": "role",
          "type": "bytes32"
        },
        {
          "indexed": true,
          "internalType": "address",
          "name": "account",
          "type": "address"
        },
        {
          "indexed": true,
          "internalType": "address",
          "name": "sender",
          "type": "address"
        }
      ],
      "name": "RoleGranted",
      "type": "event"
    },
    {
      "anonymous": false,
      "inputs": [
        {
          "indexed": true,
          "internalType": "bytes32",
          "name": "role",
          "type": "bytes32"
        },
        {
          "indexed": true,
          "internalType": "address",
          "name": "account",
          "type": "address"
        },
        {
          "indexed": true,
          "internalType": "address",
          "name": "sender",
          "type": "address"
        }
      ],
      "name": "RoleRevoked",
      "type": "event"
    },
    {
      "anonymous": false,
      "inputs": [
        {
          "indexed": false,
          "internalType": "address",
          "name": "account",
          "type": "address"
        }
      ],
      "name": "Unpaused",
      "type": "event"
    },
    {
      "anonymous": false,
      "inputs": [
        {
          "indexed": false,
          "internalType": "string",
          "name": "reason",
          "type": "string"
        },
        {
          "indexed": false,
          "internalType": "bytes32",
          "name": "proofHash",
          "type": "bytes32"
        }
      ],
      "name": "ZKProofValidationFailed",
      "type": "event"
    },
    {
      "inputs": [],
      "name": "DEFAULT_ADMIN_ROLE",
      "outputs": [
        {
          "internalType": "bytes32",
          "name": "",
          "type": "bytes32"
        }
      ],
      "stateMutability": "view",
      "type": "function"
    },
    {
      "inputs": [],
      "name": "KEY_ADMIN_ROLE",
      "outputs": [
        {
          "internalType": "bytes32",
          "name": "",
          "type": "bytes32"
        }
      ],
      "stateMutability": "view",
      "type": "function"
    },
    {
      "inputs": [],
      "name": "MAX_INPUT_SIZE",
      "outputs": [
        {
          "internalType": "uint256",
          "name": "",
          "type": "uint256"
        }
      ],
      "stateMutability": "view",
      "type": "function"
    },
    {
      "inputs": [],
      "name": "MAX_VERIFICATIONS_PER_WINDOW",
      "outputs": [
        {
          "internalType": "uint256",
          "name": "",
          "type": "uint256"
        }
      ],
      "stateMutability": "view",
      "type": "function"
    },
    {
      "inputs": [],
      "name": "RATE_LIMIT_WINDOW",
      "outputs": [
        {
          "internalType": "uint256",
          "name": "",
          "type": "uint256"
        }
      ],
      "stateMutability": "view",
      "type": "function"
    },
    {
      "inputs": [],
      "name": "VERIFIER_ROLE",
      "outputs": [
        {
          "internalType": "bytes32",
          "name": "",
          "type": "bytes32"
        }
      ],
      "stateMutability": "view",
      "type": "function"
    },
    {
      "inputs": [
        {
          "internalType": "bytes32",
          "name": "nullifier",
          "type": "bytes32"
        },
        {
          "internalType": "uint256",
          "name": "socialHash",
          "type": "uint256"
        },
        {
          "internalType": "uint256",
          "name": "eventHash",
          "type": "uint256"
        }
      ],
      "name": "_validateNullifierEntropyExternal",
      "outputs": [],
      "stateMutability": "pure",
      "type": "function"
    },
    {
      "inputs": [
        {
          "internalType": "uint256",
          "name": "sampleSize",
          "type": "uint256"
        },
        {
          "internalType": "uint256",
          "name": "baseSeed",
          "type": "uint256"
        }
      ],
      "name": "analyzeBiasDistribution",
      "outputs": [
        {
          "internalType": "uint256",
          "name": "mean",
          "type": "uint256"
        },
        {
          "internalType": "uint256",
          "name": "median",
          "type": "uint256"
        },
        {
          "internalType": "uint256",
          "name": "percentile95",
          "type": "uint256"
        },
        {
          "internalType": "uint256",
          "name": "entropy",
          "type": "uint256"
        }
      ],
      "stateMutability": "pure",
      "type": "function"
    },
    {
      "inputs": [
        {
          "internalType": "uint256[]",
          "name": "socialHashes",
          "type": "uint256[]"
        },
        {
          "internalType": "uint256[]",
          "name": "eventHashes",
          "type": "uint256[]"
        },
        {
          "internalType": "address[]",
          "name": "users",
          "type": "address[]"
        }
      ],
      "name": "batchCalculateBias",
      "outputs": [
        {
          "internalType": "uint256[]",
          "name": "biases",
          "type": "uint256[]"
        }
      ],
      "stateMutability": "pure",
      "type": "function"
    },
    {
      "inputs": [
        {
          "internalType": "address",
          "name": "user",
          "type": "address"
        }
      ],
      "name": "canUserVerify",
      "outputs": [
        {
          "internalType": "bool",
          "name": "canVerify",
          "type": "bool"
        },
        {
          "internalType": "uint256",
          "name": "verificationsRemaining",
          "type": "uint256"
        },
        {
          "internalType": "uint256",
          "name": "windowResetTime",
          "type": "uint256"
        }
      ],
      "stateMutability": "view",
      "type": "function"
    },
    {
      "inputs": [
        {
          "internalType": "address",
          "name": "user",
          "type": "address"
        }
      ],
      "name": "getRateLimitInfo",
      "outputs": [
        {
          "internalType": "uint256",
          "name": "verificationsUsed",
          "type": "uint256"
        },
        {
          "internalType": "uint256",
          "name": "windowStart",
          "type": "uint256"
        },
        {
          "internalType": "uint256",
          "name": "windowEnd",
          "type": "uint256"
        }
      ],
      "stateMutability": "view",
      "type": "function"
    },
    {
      "inputs": [
        {
          "internalType": "bytes32",
          "name": "role",
          "type": "bytes32"
        }
      ],
      "name": "getRoleAdmin",
      "outputs": [
        {
          "internalType": "bytes32",
          "name": "",
          "type": "bytes32"
        }
      ],
      "stateMutability": "view",
      "type": "function"
    },
    {
      "inputs": [],
      "name": "getVkAlpha",
      "outputs": [
        {
          "internalType": "uint256[2]",
          "name": "",
          "type": "uint256[2]"
        }
      ],
      "stateMutability": "view",
      "type": "function"
    },
    {
      "inputs": [],
      "name": "getVkBeta",
      "outputs": [
        {
          "internalType": "uint256[2][2]",
          "name": "",
          "type": "uint256[2][2]"
        }
      ],
      "stateMutability": "view",
      "type": "function"
    },
    {
      "inputs": [
        {
          "internalType": "uint256",
          "name": "index",
          "type": "uint256"
        }
      ],
      "name": "getVkIc",
      "outputs": [
        {
          "internalType": "uint256",
          "name": "",
          "type": "uint256"
        }
      ],
      "stateMutability": "view",
      "type": "function"
    },
    {
      "inputs": [
        {
          "internalType": "bytes32",
          "name": "role",
          "type": "bytes32"
        },
        {
          "internalType": "address",
          "name": "account",
          "type": "address"
        }
      ],
      "name": "grantRole",
      "outputs": [],
      "stateMutability": "nonpayable",
      "type": "function"
    },
    {
      "inputs": [
        {
          "internalType": "bytes32",
          "name": "role",
          "type": "bytes32"
        },
        {
          "internalType": "address",
          "name": "account",
          "type": "address"
        }
      ],
      "name": "hasRole",
      "outputs": [
        {
          "internalType": "bool",
          "name": "",
          "type": "bool"
        }
      ],
      "stateMutability": "view",
      "type": "function"
    },
    {
      "inputs": [
        {
          "internalType": "bytes32",
          "name": "nullifierHash",
          "type": "bytes32"
        }
      ],
      "name": "isNullifierUsed",
      "outputs": [
        {
          "internalType": "bool",
          "name": "",
          "type": "bool"
        }
      ],
      "stateMutability": "view",
      "type": "function"
    },
    {
      "inputs": [
        {
          "internalType": "address",
          "name": "",
          "type": "address"
        }
      ],
      "name": "lastVerificationTime",
      "outputs": [
        {
          "internalType": "uint256",
          "name": "",
          "type": "uint256"
        }
      ],
      "stateMutability": "view",
      "type": "function"
    },
    {
      "inputs": [],
      "name": "pause",
      "outputs": [],
      "stateMutability": "nonpayable",
      "type": "function"
    },
    {
      "inputs": [],
      "name": "paused",
      "outputs": [
        {
          "internalType": "bool",
          "name": "",
          "type": "bool"
        }
      ],
      "stateMutability": "view",
      "type": "function"
    },
    {
      "inputs": [
        {
          "internalType": "uint256",
          "name": "socialHash",
          "type": "uint256"
        },
        {
          "internalType": "uint256",
          "name": "eventHash",
          "type": "uint256"
        },
        {
          "internalType": "address",
          "name": "user",
          "type": "address"
        },
        {
          "internalType": "address",
          "name": "pool",
          "type": "address"
        }
      ],
      "name": "previewBias",
      "outputs": [
        {
          "internalType": "uint256",
          "name": "bias",
          "type": "uint256"
        },
        {
          "internalType": "uint256",
          "name": "entropy",
          "type": "uint256"
        },
        {
          "internalType": "string",
          "name": "distribution",
          "type": "string"
        }
      ],
      "stateMutability": "pure",
      "type": "function"
    },
    {
      "inputs": [
        {
          "internalType": "uint256",
          "name": "socialHash",
          "type": "uint256"
        },
        {
          "internalType": "uint256",
          "name": "eventHash",
          "type": "uint256"
        }
      ],
      "name": "previewNullifier",
      "outputs": [
        {
          "internalType": "bytes32",
          "name": "nullifierHash",
          "type": "bytes32"
        },
        {
          "internalType": "bytes32",
          "name": "domainNullifier",
          "type": "bytes32"
        },
        {
          "internalType": "bool",
          "name": "wouldBeValid",
          "type": "bool"
        }
      ],
      "stateMutability": "view",
      "type": "function"
    },
    {
      "inputs": [
        {
          "internalType": "bytes32",
          "name": "role",
          "type": "bytes32"
        },
        {
          "internalType": "address",
          "name": "callerConfirmation",
          "type": "address"
        }
      ],
      "name": "renounceRole",
      "outputs": [],
      "stateMutability": "nonpayable",
      "type": "function"
    },
    {
      "inputs": [
        {
          "internalType": "bytes32",
          "name": "role",
          "type": "bytes32"
        },
        {
          "internalType": "address",
          "name": "account",
          "type": "address"
        }
      ],
      "name": "revokeRole",
      "outputs": [],
      "stateMutability": "nonpayable",
      "type": "function"
    },
    {
      "inputs": [
        {
          "internalType": "bytes4",
          "name": "interfaceId",
          "type": "bytes4"
        }
      ],
      "name": "supportsInterface",
      "outputs": [
        {
          "internalType": "bool",
          "name": "",
          "type": "bool"
        }
      ],
      "stateMutability": "view",
      "type": "function"
    },
    {
      "inputs": [],
      "name": "unpause",
      "outputs": [],
      "stateMutability": "nonpayable",
      "type": "function"
    },
    {
      "inputs": [
        {
          "internalType": "uint256[2]",
          "name": "newAlpha",
          "type": "uint256[2]"
        },
        {
          "internalType": "uint256[2][2]",
          "name": "newBeta",
          "type": "uint256[2][2]"
        },
        {
          "internalType": "uint256[2]",
          "name": "newGamma",
          "type": "uint256[2]"
        },
        {
          "internalType": "uint256[2]",
          "name": "newDelta",
          "type": "uint256[2]"
        },
        {
          "internalType": "uint256[]",
          "name": "newIC",
          "type": "uint256[]"
        }
      ],
      "name": "updateVerifyingKey",
      "outputs": [],
      "stateMutability": "nonpayable",
      "type": "function"
    },
    {
      "inputs": [
        {
          "internalType": "bytes32",
          "name": "",
          "type": "bytes32"
        }
      ],
      "name": "usedDomainNullifiers",
      "outputs": [
        {
          "internalType": "bool",
          "name": "",
          "type": "bool"
        }
      ],
      "stateMutability": "view",
      "type": "function"
    },
    {
      "inputs": [
        {
          "internalType": "bytes32",
          "name": "",
          "type": "bytes32"
        }
      ],
      "name": "usedNullifiers",
      "outputs": [
        {
          "internalType": "bool",
          "name": "",
          "type": "bool"
        }
      ],
      "stateMutability": "view",
      "type": "function"
    },
    {
      "inputs": [
        {
          "internalType": "address",
          "name": "",
          "type": "address"
        }
      ],
      "name": "verificationsInWindow",
      "outputs": [
        {
          "internalType": "uint256",
          "name": "",
          "type": "uint256"
        }
      ],
      "stateMutability": "view",
      "type": "function"
    },
    {
      "inputs": [
        {
          "internalType": "uint256[2]",
          "name": "a",
          "type": "uint256[2]"
        },
        {
          "internalType": "uint256[2][2]",
          "name": "b",
          "type": "uint256[2][2]"
        },
        {
          "internalType": "uint256[2]",
          "name": "c",
          "type": "uint256[2]"
        },
        {
          "internalType": "uint256[5]",
          "name": "input",
          "type": "uint256[5]"
        }
      ],
      "name": "verifyClaim",
      "outputs": [
        {
          "internalType": "uint256",
          "name": "weight",
          "type": "uint256"
        },
        {
          "internalType": "uint256",
          "name": "gravityScore",
          "type": "uint256"
        },
        {
          "internalType": "uint256",
          "name": "posterior",
          "type": "uint256"
        },
        {
          "internalType": "bool",
          "name": "biasFlagged",
          "type": "bool"
        }
      ],
      "stateMutability": "nonpayable",
      "type": "function"
    },
    {
      "inputs": [
        {
          "internalType": "uint256[2]",
          "name": "a",
          "type": "uint256[2]"
        },
        {
          "internalType": "uint256[2][2]",
          "name": "b",
          "type": "uint256[2][2]"
        },
        {
          "internalType": "uint256[2]",
          "name": "c",
          "type": "uint256[2]"
        },
        {
          "internalType": "uint256[5]",
          "name": "input",
          "type": "uint256[5]"
        }
      ],
      "name": "verifyTx",
      "outputs": [
        {
          "internalType": "bool",
          "name": "",
          "type": "bool"
        }
      ],
      "stateMutability": "view",
      "type": "function"
    },
    {
      "inputs": [
        {
          "internalType": "uint256",
          "name": "",
          "type": "uint256"
        }
      ],
      "name": "vk_alpha",
      "outputs": [
        {
          "internalType": "uint256",
          "name": "",
          "type": "uint256"
        }
      ],
      "stateMutability": "view",
      "type": "function"
    },
    {
      "inputs": [
        {
          "internalType": "uint256",
          "name": "",
          "type": "uint256"
        },
        {
          "internalType": "uint256",
          "name": "",
          "type": "uint256"
        }
      ],
      "name": "vk_beta",
      "outputs": [
        {
          "internalType": "uint256",
          "name": "",
          "type": "uint256"
        }
      ],
      "stateMutability": "view",
      "type": "function"
    },
    {
      "inputs": [
        {
          "internalType": "uint256",
          "name": "",
          "type": "uint256"
        }
      ],
      "name": "vk_delta",
      "outputs": [
        {
          "internalType": "uint256",
          "name": "",
          "type": "uint256"
        }
      ],
      "stateMutability": "view",
      "type": "function"
    },
    {
      "inputs": [
        {
          "internalType": "uint256",
          "name": "",
          "type": "uint256"
        }
      ],
      "name": "vk_gamma",
      "outputs": [
        {
          "internalType": "uint256",
          "name": "",
          "type": "uint256"
        }
      ],
      "stateMutability": "view",
      "type": "function"
    },
    {
      "inputs": [
        {
          "internalType": "uint256",
          "name": "",
          "type": "uint256"
        }
      ],
      "name": "vk_ic",
      "outputs": [
        {
          "internalType": "uint256",
          "name": "",
          "type": "uint256"
        }
      ],
      "stateMutability": "view",
      "type": "function"
    }
  ],
  "bytecode": "0x60806040523461049a576001805561001561049f565b600181526002602082015260005b600281106104825761003361049f565b61003b61049f565b6001815260026020820152815261005061049f565b6003815260046020820152602082015260056000915b600283106104495761007661049f565b600181526002602082015260005b600281106104315761009461049f565b600181526002602082015260005b60028110610419576100b3336104be565b506100bd3361053a565b506100c7336105d2565b506040516101a0908082016001600160401b0381118282101761040357604052600c81526020810191601f190136833751906001600160401b0382116104035768010000000000000000821161040357600d5482600d558083106103bd575b5090600d60005260206000209160005b8281106103a9576000600d54156103955780600d6020925220600160009155600d546001101561039557600d80825260027fd7b6990105719101dabeb77144f2a3385c8033acd3af97e9423a695e81ad1eb68190559054111561039557600d80825260037fd7b6990105719101dabeb77144f2a3385c8033acd3af97e9423a695e81ad1eb78190559054111561039557600d80825260047fd7b6990105719101dabeb77144f2a3385c8033acd3af97e9423a695e81ad1eb88190559054111561039557600d80825260057fd7b6990105719101dabeb77144f2a3385c8033acd3af97e9423a695e81ad1eb98190559054111561039557600d80825260067fd7b6990105719101dabeb77144f2a3385c8033acd3af97e9423a695e81ad1eba8190559054111561039557600d80825260077fd7b6990105719101dabeb77144f2a3385c8033acd3af97e9423a695e81ad1ebb8190559054111561039557600d80825260087fd7b6990105719101dabeb77144f2a3385c8033acd3af97e9423a695e81ad1ebc8190559054111561039557600d80825260097fd7b6990105719101dabeb77144f2a3385c8033acd3af97e9423a695e81ad1ebd8190559054111561039557600d808252600a7fd7b6990105719101dabeb77144f2a3385c8033acd3af97e9423a695e81ad1ebe8190559054111561039557600d808252600b7fd7b6990105719101dabeb77144f2a3385c8033acd3af97e9423a695e81ad1ebf8190559054111561039557600d9052600c7fd7b6990105719101dabeb77144f2a3385c8033acd3af97e9423a695e81ad1ec05560405161359d908161066b8239f35b634e487b7160e01b81526032600452602490fd5b600190602083519301928186015501610136565b600d6000527fd7b6990105719101dabeb77144f2a3385c8033acd3af97e9423a695e81ad1eb59081019083015b8181106103f75750610126565b600081556001016103ea565b634e487b7160e01b600052604160045260246000fd5b600190602060ff84511693019281600b0155016100a2565b600190602060ff845116930192816009015501610084565b805160005b6002811061046b5750506002602060019201920192019190610066565b815160ff168482015560209091019060010161044e565b600190602060ff845116930192816003015501610023565b600080fd5b60408051919082016001600160401b0381118382101761040357604052565b6001600160a01b0381166000908152600080516020613c68833981519152602052604090205460ff16610534576001600160a01b03166000818152600080516020613c6883398151915260205260408120805460ff19166001179055339190600080516020613c088339815191528180a4600190565b50600090565b6001600160a01b0381166000908152600080516020613c28833981519152602052604090205460ff16610534576001600160a01b03166000818152600080516020613c2883398151915260205260408120805460ff191660011790553391907f460de93bc770bad3bedb94b9a38b09df8ac71a47512a218a7cb89bfe8008abdc90600080516020613c088339815191529080a4600190565b6001600160a01b0381166000908152600080516020613c48833981519152602052604090205460ff16610534576001600160a01b03166000818152600080516020613c4883398151915260205260408120805460ff191660011790553391907f0ce23c3e399818cfee81a7ab0880f714e53d7672b08df0fa62f2843416e1ea0990600080516020613c088339815191529080a460019056fe6080604052600436101561001257600080fd5b60003560e01c806301ffc9a71461027257806309fe03871461026d5780631204adfa14610268578063147c21881461026357806319e528861461025e5780631a050ad5146102595780631cc6944d146102545780631fecf4711461024f578063206137aa1461024a57806322dc7b4c1461024a578063248a9ca3146102455780632e6feab3146102405780632f2ff15d1461023b578063310bf4831461023657806333a5bae41461023157806336568abe1461022c5780633f4ba83a146102275780634844a098146102225780634996b4011461021d5780635c975abb14610218578063650b6753146102135780637130dfc91461020e5780638456cb591461020957806388faefbf146102045780638b9dc51e146101ff5780638ca2ee98146101fa578063905371c2146101f557806391d14854146101f057806394581f0f146101eb578063a0b26411146101e6578063a217fddf146101e1578063b3ad5c9c146101dc578063b8d9a487146101d7578063bbee78fe146101d2578063d4524e7c146101cd578063d547741f146101c8578063e7705db6146101c35763ecd8d4af146101be57600080fd5b611677565b6115d1565b61158e565b6114ce565b61139b565b611379565b611305565b6112e9565b611298565b6111f9565b6111a3565b610f4b565b610ec0565b610e41565b610b21565b610ac7565b610aaa565b610a1e565b6109fb565b6109cf565b61094f565b6108f8565b6108ae565b610888565b6107ca565b610782565b610745565b610710565b6106df565b61067b565b61064f565b610584565b610392565b610361565b610324565b6102d8565b346102c85760203660031901126102c85760043563ffffffff60e01b81168091036102c857602090637965db0b60e01b81149081156102b7575b506040519015158152f35b6301ffc9a760e01b149050386102ac565b600080fd5b60009103126102c857565b346102c85760003660031901126102c85760206040517f460de93bc770bad3bedb94b9a38b09df8ac71a47512a218a7cb89bfe8008abdc8152f35b6001600160a01b038116036102c857565b346102c85760203660031901126102c85760043561034181610313565b60018060a01b0316600052600f6020526020604060002054604051908152f35b346102c85760203660031901126102c8576004356000526011602052602060ff604060002054166040519015158152f35b346102c85760203660031901126102c85760606103b96004356103b481610313565b611892565b90604051921515835260208301526040820152f35b634e487b7160e01b600052604160045260246000fd5b6040810190811067ffffffffffffffff82111761040057604052565b6103ce565b6060810190811067ffffffffffffffff82111761040057604052565b90601f8019910116810190811067ffffffffffffffff82111761040057604052565b906104516040519283610421565b565b919060408051936104648286610421565b849181019283116102c857905b82821061047d57505050565b8135815260209182019101610471565b91906040519261049e60a085610421565b839060a081019283116102c857905b8282106104b957505050565b81358152602091820191016104ad565b80602312156102c8576104dd906004610453565b90565b8060e312156102c8576104dd9060c4610453565b8061012312156102c8576104dd90610104610453565b9080601f830112156102c8576104dd91610453565b80606312156102c85760408051916105378284610421565b828160c4116102c8576044905b60c48210610553575050505090565b60208491610561858561050a565b815201910190610544565b67ffffffffffffffff81116104005760051b60200190565b346102c8576101603660031901126102c85761059f366104c9565b6105a83661051f565b6105b1366104e0565b6105ba366104f4565b90610144359267ffffffffffffffff84116102c857366023850112156102c8578360040135946105e98661056c565b946105f76040519687610421565b8686526024602087019760051b820101903682116102c857602401965b8188106106295750506106279550611954565b005b8735815260209788019701610614565b634e487b7160e01b600052603260045260246000fd5b346102c85760203660031901126102c85760043560028110156102c85760209060090154604051908152f35b346102c85760403660031901126102c85760043560243560028210156102c85760009060028110156106db5760028110156106d6576106d29260011b60050101549060031b1c604051918291829190602083019252565b0390f35b610639565b5080fd5b346102c85760203660031901126102c8576004356000526010602052602060ff604060002054166040519015158152f35b346102c85760203660031901126102c857602061073d600435600052600060205260016040600020015490565b604051908152f35b346102c85760203660031901126102c85760043561076281610313565b60018060a01b0316600052600e6020526020604060002054604051908152f35b346102c85760403660031901126102c8576106276024356004356107a582610313565b6107c56107c082600052600060205260016040600020015490565b612669565b6126c2565b346102c85760003660031901126102c857602060405160648152f35b906101a06003198301126102c85781602312156102c857610808826004610453565b9160006063821315610885576040805191610824604084610421565b60c490839085831161088557506044905b82821061086c5750505050918160e312156102c8576108558260c4610453565b918061012312156102c8576104dd9061010461048d565b6020849161087a888561050a565b815201910190610835565b80fd5b346102c85760206108a461089b366107e6565b92919091611f27565b6040519015158152f35b346102c85760403660031901126102c8576004356024356108ce81610313565b336001600160a01b038216036108e75761062791612de9565b63334bd91960e11b60005260046000fd5b346102c85760003660031901126102c8576109116125a4565b6109196126a4565b60ff19600254166002557f5db9ee0a495bf2e6ff9c91a7834c1ba4fdd244a5e8aa4e537bd38aeae4b073aa6020604051338152a1005b346102c85760003660031901126102c857604080805161096f8282610421565b369037805160036000825b600282106109b95750505061098f8282610421565b8151906000825b600282106109a357505050f35b6020806001928551815201930191019091610996565b600160208192855481520193019101909161097a565b346102c85760203660031901126102c85760043560028110156102c85760209060030154604051908152f35b346102c85760003660031901126102c857602060ff600254166040519015158152f35b346102c85760203660031901126102c857600435600d54811015610a6f57600d6000527fd7b6990105719101dabeb77144f2a3385c8033acd3af97e9423a695e81ad1eb50154604051908152602090f35b60405162461bcd60e51b8152602060048201526013602482015272496e646578206f7574206f6620626f756e647360681b6044820152606490fd5b346102c85760003660031901126102c8576020604051610e108152f35b346102c85760003660031901126102c857610ae06125a4565b610ae8612e70565b600160ff1960025416176002557f62e78cea01bee320cd4e420270b5ea74000d11b0c9f74754ebdbfc544b05a2586020604051338152a1005b346102c857610b2f366107e6565b91600260019492945414610e30576002600155610b4a612e70565b610b5333612e9c565b8251936020840151916040850151946060810151926080820151936040516020810190610b9481610b86338d8c87612185565b03601f198101835282610421565b51902095610ba560018b11156121ce565b610bb081151561220f565b610bbb891515612251565b600182101580610e25575b610bcf90612292565b610bdc60648711156122cf565b610be78982896131fd565b610c14610c0f610c0b610c048a6000526010602052604060002090565b5460ff1690565b1590565b61231b565b6040516020810190610c2b81610b86308c86612354565b51902098610c51610c4c610c0b610c048d6000526011602052604060002090565b612398565b610c60610c0b8686898d611f27565b610d6e573390610c6f926132d3565b8099610c7a926133c2565b95610c8687958a613459565b97610c91868a613505565b9960321096610caa906000526010602052604060002090565b805460ff19166001179055610cc9906000526011602052604060002090565b805460ff191660011790556040519283926020840195610ce99387612404565b03601f1981018252610cfb9082610421565b519020604080519182526020820192909252908101849052811515606082015233907f2bfd7005fc33b3e62e4ed779be304a1e8f57a6ab418b4951101635f813b8035790608090a2610d4c60018055565b6040805192835260208301939093529181019290925215156060820152608090f35b7f86299f5a51f997bfedc5e81c02dbc806b5c3d3228ef5c417c9aada95a9c2e087610ded8a86610dad8a610b868b604051948593602085019788612404565b51902060405191829182919060408352601560408401527424b73b30b634b21023b937ba34189b10383937b7b360591b6060840152602060808401930152565b0390a160405162461bcd60e51b815260206004820152600d60248201526c24b73b30b634b210383937b7b360991b6044820152606490fd5b506004821115610bc6565b633ee5aeb560e01b60005260046000fd5b346102c85760203660031901126102c85760043560028110156102c857602090600b0154604051908152f35b919060808301926000905b60028210610e8557505050565b8251600090825b60028310610eaa575050506020604060019201930191019091610e78565b6020806001928451815201920192019190610e8c565b346102c85760003660031901126102c85760408051610edf8282610421565b60005b828110610f2e57828051610ef5816103e4565b60056000825b60028210610f10578451806106d28682610e6d565b60026020600192610f208661213f565b815201930191019091610efb565b6020908351610f3d8582610421565b843682378184015201610ee2565b346102c85760403660031901126102c85760243560043580151580611197575b610f7490612480565b610f7d816124c2565b600080936000905b84821061109b57505082610f9c81610fa2936124f4565b946124f4565b6000905b610faf84611820565b8210156110405760005b610fcb610fc68487611885565b611820565b8110156110345780610fdf60019286611c9f565b51610ff2610fec836117cc565b87611c9f565b5110610fff575b01610fb9565b6110098186611c9f565b51611016610fec836117cc565b516110218388611c9f565b5261102e610fec836117cc565b52610ff9565b50600190910190610fa6565b6106d29150611077859361107161106a61106361105d8960011c90565b84611c9f565b5197611cf4565b6064900490565b90611c9f565b51604051948594859094939260609260808301968352602083015260408201520152565b909461118f600191611189611180896040516110da81610b8660208201948b86909160469282526020820152651cdbd8da585b60d21b60408201520190565b5190209661116e8b61116761115b8a610b8661114c604051602081019061111f81610b868a888690916045928252602082015264195d995b9d60da1b60408201520190565b51902095604051928391602083019586909160449282526020820152633ab9b2b960e11b60408201520190565b5190206001600160a01b031690565b6001600160a01b031690565b908a6132d3565b908161117a8d8c611c9f565b52611813565b95612710900690565b90611813565b950190610f85565b506103e8811115610f6b565b346102c85760403660031901126102c857602060ff6111ed6024356004356111ca82610313565b6000526000845260406000209060018060a01b0316600052602052604060002090565b54166040519015158152f35b346102c85760003660031901126102c8576020604051818152f35b600d54156106d657600d60009081527fd7b6990105719101dabeb77144f2a3385c8033acd3af97e9423a695e81ad1eb591565b600d54600110156106d657600d60009081527fd7b6990105719101dabeb77144f2a3385c8033acd3af97e9423a695e81ad1eb691565b600d548110156106d657600d60005260206000200190600090565b346102c85760203660031901126102c857600435600d548110156102c857602090600d6000527fd7b6990105719101dabeb77144f2a3385c8033acd3af97e9423a695e81ad1eb50154604051908152f35b346102c85760003660031901126102c857602060405160008152f35b346102c85760203660031901126102c85760043561132281610313565b6001600160a01b03166000908152600f6020908152604080832054600e9092529091205490610e108201808311611374576106d290604051938493846040919493926060820195825260208201520152565b6117b6565b346102c85760603660031901126102c8576106276044356024356004356131fd565b346102c85760403660031901126102c8576004356024359060405160208101906113cb81610b8633878787612185565b5190209060405160208101906113e681610b86308786612354565b51902092600191303b156102c85760405163b8d9a48760e01b81526004810185905260248101919091526044810191909152600081606481305afa908161145e575b5061145557506106d260005b60405193849384919260409194936060840195845260208401521515910152565b6106d290611434565b8061146d600061147393610421565b806102cd565b38611428565b91909392938252602082015260606040820152825180606083015260005b8181106114b8575060809293506000838284010152601f8019910116010190565b8060208092870101516080828601015201611497565b346102c85760803660031901126102c8576004356115236024356044356114f481610313565b6064359161150183610313565b604051602081019061151a81610b868787878c88612514565b519020946133a4565b6106d260405161153281610405565b604081527f4265746128322c3529202d204d65616e3a2032382e35252c204d6f64653a207e60208201527f3134252c204f7074696d616c20666f7220686f6e657374206265686176696f72604082015260405193849384611479565b346102c85760403660031901126102c8576106276024356004356115b182610313565b6115cc6107c082600052600060205260016040600020015490565b612de9565b346102c85760003660031901126102c85760206040517f0ce23c3e399818cfee81a7ab0880f714e53d7672b08df0fa62f2843416e1ea098152f35b9181601f840112156102c85782359167ffffffffffffffff83116102c8576020808501948460051b0101116102c857565b602060408183019282815284518094520192019060005b8181106116615750505090565b8251845260209384019390920191600101611654565b346102c85760603660031901126102c85760043567ffffffffffffffff81116102c8576116a890369060040161160c565b9060243567ffffffffffffffff81116102c8576116c990369060040161160c565b60443567ffffffffffffffff81116102c8576116e990369060040161160c565b9091808614806117ad575b1561177057611706606487111561254c565b61170f866124c2565b9560005b81811061172857604051806106d28a8261163d565b8061175f611739600193858b61258a565b3561174583878b61258a565b35611759611754858a8c61258a565b61259a565b916132d3565b611769828b611c9f565b5201611713565b60405162461bcd60e51b8152602060048201526015602482015274082e4e4c2f240d8cadccee8d040dad2e6dac2e8c6d605b1b6044820152606490fd5b508186146116f4565b634e487b7160e01b600052601160045260246000fd5b906001820180921161137457565b90610e10820180921161137457565b603301908160331161137457565b601001908160101161137457565b606401908160641161137457565b9190820180921161137457565b60001981019190821161137457565b606403906064821161137457565b6000805160206135288339815191520390600080516020613528833981519152821161137457565b6113871981019190821161137457565b6106321981019190821161137457565b9190820391821161137457565b9060018060a01b038216600052600e602052604060002054610e1081018091116113745742101561193d576001600160a01b0382166000908152600f602052604090205460648110919082156119195761190d6118f16119139261182f565b6001600160a01b039095166000908152600e6020526040902090565b546117da565b91929190565b5061191361190d6000946001600160a01b03166000908152600e6020526040902090565b9050610e1042018042116113745760019160649190565b939291906119606125f7565b6119686126a4565b61197d84518015159081611b23575b50611b2f565b60008051602061354883398151915285511080611b08575b61199e90611b6f565b6000805160206135488339815191528151511080611ae1575b6119c090611bab565b6119e760208201600080516020613548833981519152815151109081611ac4575b50611be9565b60008051602061354883398151915282511080611aa9575b611a0890611c27565b60008051602061354883398151915283511080611a8e575b611a2990611c63565b60005b8451811015611a615780611a5b600080516020613548833981519152611a5460019489611c9f565b5110611cb3565b01611a2c565b50611a899291611a7f611a8492611a7a61045198611da4565b611e10565b611dc8565b611dec565b611e5a565b50602083015160008051602061354883398151915211611a20565b506020820151600080516020613548833981519152116119ff565b5160008051602061354883398151915291506020015110386119e1565b506119c0600080516020613548833981519152611aff835160200190565b511090506119b7565b50602085015160008051602061354883398151915211611995565b60219150111538611977565b15611b3657565b60405162461bcd60e51b8152602060048201526011602482015270092dcecc2d8d2c840928640d8cadccee8d607b1b6044820152606490fd5b15611b7657565b60405162461bcd60e51b815260206004820152600d60248201526c496e76616c696420616c70686160981b6044820152606490fd5b15611bb257565b60405162461bcd60e51b815260206004820152600f60248201526e496e76616c696420626574615b305d60881b6044820152606490fd5b15611bf057565b60405162461bcd60e51b815260206004820152600f60248201526e496e76616c696420626574615b315d60881b6044820152606490fd5b15611c2e57565b60405162461bcd60e51b815260206004820152600d60248201526c496e76616c69642067616d6d6160981b6044820152606490fd5b15611c6a57565b60405162461bcd60e51b815260206004820152600d60248201526c496e76616c69642064656c746160981b6044820152606490fd5b80518210156106d65760209160051b010190565b15611cba57565b60405162461bcd60e51b8152602060048201526012602482015271125b9d985b1a59081250c8195b195b595b9d60721b6044820152606490fd5b90605f820291808304605f149015171561137457565b908160011b918083046002149015171561137457565b600181901b91906001600160ff1b0381160361137457565b9060318202918083046031149015171561137457565b9060228202918083046022149015171561137457565b9060648202918083046064149015171561137457565b8181029291811591840414171561137457565b818110611d98575050565b60008155600101611d8d565b60005b60028110611db3575050565b60019060208351930192816003015501611da7565b60005b60028110611dd7575050565b60019060208351930192816009015501611dcb565b60005b60028110611dfb575050565b6001906020835193019281600b015501611def565b6005906000905b60028210611e2457505050565b805160005b60028110611e465750506002602060019201930191019091611e17565b600190602083519301928187015501611e29565b80519067ffffffffffffffff82116104005768010000000000000000821161040057602090600d5483600d55808410611ebe575b5001600d600052602060002060005b838110611eaa5750505050565b600190602084519401938184015501611e9d565b611ed690600d60005284846000209182019101611d8d565b38611e8e565b15611ee357565b606460405162461bcd60e51b815260206004820152602060248201527f494320617272617920746f6f20736d616c6c20666f7220473120706f696e74736044820152fd5b9190611f40600d54611f396006611d0a565b1115611edc565b611f4f610c0b85848487612752565b61210057611f5f610c0b85612991565b61210057611f7c610c0b8451611f758660200190565b5190612a32565b61210057604093611fca610c0b611f9287610443565b84515181528451602001516020820152611fab88610443565b90611fbf6020870180515184525160200190565b516020830152612a9c565b6120f657611fe0610c0b8451611f758660200190565b6120f65760035460045460009691611ffe91610c0b91905b90612a32565b6120ee57610c0b8161204361201561206b94610443565b916120258a6005549060031b1c90565b8352612039600660005b90549060031b1c90565b6020840152610443565b90612053896007549060031b1c90565b82526120616008600061202f565b6020830152612a9c565b6120e757612092610c0b612084876009549060031b1c90565b600a54600389901b1c611ff8565b6120e7576120b9610c0b6120ab87600b549060031b1c90565b600c54600389901b1c611ff8565b6120e7576120c690612b96565b926120d9610c0b8551611f758760200190565b6120e7576104dd9450612c74565b5050505090565b505050505090565b5050505050600090565b50505050600090565b6040908151916121198184610421565b368337565b604051906103006121198184610421565b6040519060206121198184610421565b60405191906000835b6002821061215e57505050610451604083610421565b6001602081928554815201930191019091612148565b9060058110156106d65760051b0190565b91606b93917f5452555448464f5247455f4e554c4c49464945525f56330000000000000000008452601784015260378301526001600160601b03199060601b1660578201520190565b156121d557565b60405162461bcd60e51b8152602060048201526012602482015271496e76616c696420666c61672076616c756560701b6044820152606490fd5b1561221657565b60405162461bcd60e51b8152602060048201526013602482015272092dcecc2d8d2c840e6dec6d2c2d840d0c2e6d606b1b6044820152606490fd5b1561225857565b60405162461bcd60e51b8152602060048201526012602482015271092dcecc2d8d2c840caeccadce840d0c2e6d60731b6044820152606490fd5b1561229957565b60405162461bcd60e51b815260206004820152600e60248201526d496e76616c69642064656772656560901b6044820152606490fd5b156122d657565b60405162461bcd60e51b815260206004820152601760248201527f496e76616c6964206576656e742072656c6576616e63650000000000000000006044820152606490fd5b1561232257565b60405162461bcd60e51b815260206004820152600a602482015269141c9bdbd9881d5cd95960b21b6044820152606490fd5b9091604c927f5452555448464f5247455f5a4b56455249464945525f56330000000000000000835260188301526001600160601b03199060601b1660388201520190565b1561239f57565b60405162461bcd60e51b8152602060048201526015602482015274111bdb585a5b881b9d5b1b1a599a595c881d5cd959605a1b6044820152606490fd5b906000905b600282106123ee57505050565b60208060019285518152019301910190916123e1565b9392919084612412916123dc565b6000604085015b60028210612462575050506124329060c08401906123dc565b600061010083015b6005821061244c575050506101a00190565b602080600192855181520193019101909161243a565b602060408261247460019487516123dc565b01930191019091612419565b1561248757565b60405162461bcd60e51b8152602060048201526013602482015272496e76616c69642073616d706c652073697a6560681b6044820152606490fd5b906124cc8261056c565b6124d96040519182610421565b82815280926124ea601f199161056c565b0190602036910137565b81156124fe570490565b634e487b7160e01b600052601260045260246000fd5b92909160689492845260208401526001600160601b03199060601b1660408301526001600160601b03199060601b1660548201520190565b1561255357565b60405162461bcd60e51b815260206004820152600f60248201526e426174636820746f6f206c6172676560881b6044820152606490fd5b91908110156106d65760051b0190565b356104dd81610313565b3360009081527fad3228b676f7d3cd4284a5443f17f1962b36e491b30a40b2405849e597ba5fb5602052604090205460ff16156125dd57565b63e2517d3f60e01b60005233600452600060245260446000fd5b3360009081527f4f39ad2d49660849ded16eb618fd35bd782bc9826b29c3464c6dd0a5826c2046602052604090205460ff161561263057565b63e2517d3f60e01b600052336004527f460de93bc770bad3bedb94b9a38b09df8ac71a47512a218a7cb89bfe8008abdc60245260446000fd5b60008181526020818152604080832033845290915290205460ff161561268c5750565b63e2517d3f60e01b6000523360045260245260446000fd5b60ff60025416156126b157565b638dfc202b60e01b60005260046000fd5b6000818152602081815260408083206001600160a01b038616845290915290205460ff1661274b576000818152602081815260408083206001600160a01b03861684529091529020805460ff1916600117905533916001600160a01b0316907f2f8788117e7eff1d82e926ec794901d17c78024a50270940304540a733656f0d600080a4600190565b5050600090565b90929181511580612985575b801561296f575b612100578351511580612962575b80612955575b80612946575b6121005760008051602061352883398151915282511080159061292a575b6121005760008051602061352883398151915281511080159061290e575b61210057600080516020613528833981519152845151108015906128eb575b612100576020840192600080516020613528833981519152845151108015906128c8575b6120f65760018151116120f6576020810151156120f6576040810151156120f657606081018051159081156128bc575b506120f657606490608001511161210057815160208301511491826128b0575b826128a1575b505061274b57815180519060200151149182612893575b82612881575b505061287c57600190565b600090565b51519051602001511490503880612871565b80515182515114925061286b565b51915060200151143880612854565b8051825114925061284e565b6004915051113861282e565b506000805160206135288339815191526128e3855160200190565b5110156127fe565b50600080516020613528833981519152612906855160200190565b5110156127da565b50600080516020613528833981519152602082015110156127bb565b506000805160206135288339815191526020830151101561279d565b5060208481015101511561277f565b5060208401515115612779565b5083516020015115612773565b5080511580156127655750602081015115612765565b5060208201511561275e565b80519060208101519160408201516129ae60608401519360800190565b51918015159081612a26575b50612100576103e88410908115612a1a575b50612a0857600182108015612a10575b612a085760641061274b576003111590816129fc575b5061287c57600190565b612710915010386129f2565b505050600090565b50600482116129dc565b6103e8915010386129cc565b600191501415386129ba565b801580612a94575b61274b576000805160206135288339815191528110801590612a7c575b61274b5760008051602061352883398151915260038183818181960909089180091490565b50600080516020613528833981519152821015612a57565b508115612a3a565b9081511580612b8a575b80612b81575b80612b75575b61274b57600080516020613528833981519152825110801590612b59575b8015612b40575b8015612b24575b61274b5781511591821592612b16575b508115612b0b575b8115612b00575090565b602001905051151590565b805115159150612af6565b602001511515915038612aee565b5060008051602061352883398151915260208201511015612ade565b5060008051602061352883398151915281511015612ad7565b5060008051602061352883398151915260208301511015612ad0565b50602081015115612ab2565b50805115612aac565b50602082015115612aa6565b612b9e612109565b50612baf600d54611f396006611d0a565b612bba61202f611214565b90612bc661202f611247565b9060005b60058110612be9575050612bde6040610443565b918252602082015290565b612bf38183612174565b51612c01575b600101612bca565b916000805160206135288339815191526001918180612c3261202f612c2d612c288a6117cc565b611d20565b61127d565b9781612c4e61202f612c2d612c49612c288d6117cc565b6117cc565b99612c598a8a612174565b5109900896612c688787612174565b51099008929050612bf9565b6103009293612cc6612cb7602094612c98612c8d61211e565b958051875260200190565b5160208601528051516040860152805160200151606086015260200190565b80515160808501525160200190565b5160a083015260045460009590612cdc9061183d565b612ceb876003549060031b1c90565b60c085015260e0840152600554600387901b1c610100840152612d106006600061202f565b610120840152600754600387901b1c610140840152612d316008600061202f565b610160840152612d45602082015b5161183d565b90516101808401526101a0830152600954600386901b1c6101c0830152600a54600386901b1c6101e08301528461020083015284610220830152612d8b60208201612d3f565b9051610240830152610260820152600b54600385901b1c610280820152600c54600385901b1c6102a0820152836102c0820152836102e0820152612dcd61212f565b92839160085afa9182612ddf57505090565b6001925050511490565b6000818152602081815260408083206001600160a01b038616845290915290205460ff161561274b576000818152602081815260408083206001600160a01b03861684529091529020805460ff1916905533916001600160a01b0316907ff6391f5c32d9c69d2a47ea670b442974b53935d1edc7fd64eb21e047a839171b600080a4600190565b60ff60025416612e7c57565b63d93c066560e01b60005260046000fd5b60001981146113745760010190565b6001600160a01b0381166000908152600e60205260409020612ebd9061190d565b421015612fb4575b6001600160a01b0381166000908152600f60205260409020606490541015612f0c576001600160a01b03166000908152600f60205260409020612f088154612e8d565b9055565b6001600160a01b0381166000908152600f6020908152604080832054600e90925290912090917f853d8bc84624b52a1a6244e2d8e0961ad8035ee7ed75d6054cd4d49a2c247a4291612f5d9061190d565b6040805194855260208501919091526001600160a01b0390911692a260405162461bcd60e51b815260206004820152601360248201527214985d19481b1a5b5a5d08195e18d959591959606a1b6044820152606490fd5b6001600160a01b0381166000908152600f60209081526040808320839055600e9091529020429055612ec5565b15612fe857565b60405162461bcd60e51b815260206004820152601f60248201527f4576656e74206861736820656e74726f707920696e73756666696369656e74006044820152606490fd5b1561303457565b60405162461bcd60e51b815260206004820152602160248201527f4964656e746963616c20736f6369616c20616e64206576656e742068617368656044820152607360f81b6064820152608490fd5b1561308a57565b60405162461bcd60e51b815260206004820152602a60248201527f536f6369616c20686173682061707065617273206172746966696369616c6c796044820152690819d95b995c985d195960b21b6064820152608490fd5b156130e957565b60405162461bcd60e51b815260206004820152602960248201527f4576656e7420686173682061707065617273206172746966696369616c6c792060448201526819d95b995c985d195960ba1b6064820152608490fd5b1561314757565b60405162461bcd60e51b815260206004820152602a60248201527f536f6369616c20686173682068617320696e73756666696369656e74206269746044820152692064697665727369747960b01b6064820152608490fd5b156131a657565b60405162461bcd60e51b815260206004820152602960248201527f4576656e7420686173682068617320696e73756666696369656e74206269742060448201526864697665727369747960b81b6064820152608490fd5b1561329d576103e7811115613259578161325361ffff80936132256103e76104519711612fe1565b6132318482141561302d565b61323f606482061515613083565b61324d6064850615156130e2565b11613140565b1161319f565b606460405162461bcd60e51b815260206004820152602060248201527f536f6369616c206861736820656e74726f707920696e73756666696369656e746044820152fd5b60405162461bcd60e51b815260206004820152600e60248201526d273ab63610373ab63634b334b2b960911b6044820152606490fd5b90916132f261333493610b866000604051948593602085019788612514565b51902060405161332981610b866020820194856032918152712a292aaa242327a923a2afa124a0a9afab1960711b60208201520190565b519020612710900690565b6106338110156133525761334a6104dd91611d64565b610633900490565b6113888110156133805761337b61337361336e6104dd93611875565b611d4e565b610d55900490565b6117f7565b61339f6133976133926104dd93611865565b611d38565b611388900490565b6117e9565b91906132f290610b8661333495604051948593602085019788612514565b919060016133e491818510158061344e575b6133dd90612292565b11156121ce565b6064811161341a576134096134036133fe61340f94611d64565b611d64565b91611805565b906124f4565b806104dd5750600190565b60405162461bcd60e51b815260206004820152600c60248201526b496e76616c6964206269617360a01b6044820152606490fd5b5060048511156133d4565b606481116134cc57606482116134875761106a6134829161347c6104dd9461182f565b90611d7a565b61182f565b60405162461bcd60e51b815260206004820152601c60248201527f4576656e742072656c6576616e6365206f7574206f662072616e6765000000006044820152606490fd5b60405162461bcd60e51b815260206004820152601160248201527042696173206f7574206f662072616e676560781b6044820152606490fd5b906064811115613522575060645b81018091116113745760011c90565b61351356fe30644e72e131a029b85045b68181585d97816a916871ca8d3c208c16d87cfd4730644e72e131a029b85045b68181585d2833e84879b9709143e1f593f0000001a264697066735822122067c3dccd584bd390539f520380509b1d3b27d4264eb97fa6b4218d0ac510604764736f6c634300081c00332f8788117e7eff1d82e926ec794901d17c78024a50270940304540a733656f0d4f39ad2d49660849ded16eb618fd35bd782bc9826b29c3464c6dd0a5826c20461da0b5176dfe03406af5a6eed66ca01dda9b45ac4da671c3fa379cb93717ef81ad3228b676f7d3cd4284a5443f17f1962b36e491b30a40b2405849e597ba5fb5",
  "linkReferences": {},
  "deployedLinkReferences": {}
}