{
  "_format": "hh-sol-artifact-1",
  "contractName": "ValidationPool",
  "sourceName": "contracts/ValidationPool.sol",
  "abi": [
    {
      "inputs": [
        {
          "internalType": "contract TruthForgeToken",
          "name": "_token",
          "type": "address"
        },
        {
          "internalType": "contract ZKVerifier",
          "name": "_zkVerifier",
          "type": "address"
        },
        {
          "internalType": "bytes32",
          "name": "_newsHash",
          "type": "bytes32"
        },
        {
          "internalType": "uint256",
          "name": "_endTime",
          "type": "uint256"
        },
        {
          "internalType": "uint256[]",
          "name": "_storyFlagWeights",
          "type": "uint256[]"
        }
      ],
      "stateMutability": "nonpayable",
      "type": "constructor"
    },
    {
      "inputs": [],
      "name": "AccessControlBadConfirmation",
      "type": "error"
    },
    {
      "inputs": [
        {
          "internalType": "address",
          "name": "account",
          "type": "address"
        },
        {
          "internalType": "bytes32",
          "name": "neededRole",
          "type": "bytes32"
        }
      ],
      "name": "AccessControlUnauthorizedAccount",
      "type": "error"
    },
    {
      "inputs": [],
      "name": "EnforcedPause",
      "type": "error"
    },
    {
      "inputs": [],
      "name": "ExpectedPause",
      "type": "error"
    },
    {
      "inputs": [],
      "name": "ReentrancyGuardReentrantCall",
      "type": "error"
    },
    {
      "anonymous": false,
      "inputs": [
        {
          "indexed": true,
          "internalType": "bytes32",
          "name": "nullifierHash",
          "type": "bytes32"
        },
        {
          "indexed": true,
          "internalType": "bytes32",
          "name": "domainNullifier",
          "type": "bytes32"
        },
        {
          "indexed": true,
          "internalType": "address",
          "name": "user",
          "type": "address"
        }
      ],
      "name": "NullifierGenerated",
      "type": "event"
    },
    {
      "anonymous": false,
      "inputs": [
        {
          "indexed": false,
          "internalType": "address",
          "name": "account",
          "type": "address"
        }
      ],
      "name": "Paused",
      "type": "event"
    },
    {
      "anonymous": false,
      "inputs": [
        {
          "indexed": true,
          "internalType": "bytes32",
          "name": "newsHash",
          "type": "bytes32"
        },
        {
          "indexed": false,
          "internalType": "bool",
          "name": "consensus",
          "type": "bool"
        },
        {
          "indexed": false,
          "internalType": "uint256",
          "name": "verifyStake",
          "type": "uint256"
        },
        {
          "indexed": false,
          "internalType": "uint256",
          "name": "discountStake",
          "type": "uint256"
        }
      ],
      "name": "PoolClosed",
      "type": "event"
    },
    {
      "anonymous": false,
      "inputs": [
        {
          "indexed": true,
          "internalType": "bytes32",
          "name": "newsHash",
          "type": "bytes32"
        },
        {
          "indexed": false,
          "internalType": "string",
          "name": "newState",
          "type": "string"
        },
        {
          "indexed": false,
          "internalType": "uint256",
          "name": "timestamp",
          "type": "uint256"
        }
      ],
      "name": "PoolStateChanged",
      "type": "event"
    },
    {
      "anonymous": false,
      "inputs": [
        {
          "indexed": true,
          "internalType": "address",
          "name": "participant",
          "type": "address"
        },
        {
          "indexed": false,
          "internalType": "uint256",
          "name": "reward",
          "type": "uint256"
        },
        {
          "indexed": false,
          "internalType": "uint256",
          "name": "originalStake",
          "type": "uint256"
        },
        {
          "indexed": false,
          "internalType": "bool",
          "name": "wasWinner",
          "type": "bool"
        },
        {
          "indexed": false,
          "internalType": "uint256",
          "name": "trustScore",
          "type": "uint256"
        }
      ],
      "name": "RewardCalculated",
      "type": "event"
    },
    {
      "anonymous": false,
      "inputs": [
        {
          "indexed": true,
          "internalType": "bytes32",
          "name": "role",
          "type": "bytes32"
        },
        {
          "indexed": true,
          "internalType": "bytes32",
          "name": "previousAdminRole",
          "type": "bytes32"
        },
        {
          "indexed": true,
          "internalType": "bytes32",
          "name": "newAdminRole",
          "type": "bytes32"
        }
      ],
      "name": "RoleAdminChanged",
      "type": "event"
    },
    {
      "anonymous": false,
      "inputs": [
        {
          "indexed": true,
          "internalType": "bytes32",
          "name": "role",
          "type": "bytes32"
        },
        {
          "indexed": true,
          "internalType": "address",
          "name": "account",
          "type": "address"
        },
        {
          "indexed": true,
          "internalType": "address",
          "name": "sender",
          "type": "address"
        }
      ],
      "name": "RoleGranted",
      "type": "event"
    },
    {
      "anonymous": false,
      "inputs": [
        {
          "indexed": true,
          "internalType": "bytes32",
          "name": "role",
          "type": "bytes32"
        },
        {
          "indexed": true,
          "internalType": "address",
          "name": "account",
          "type": "address"
        },
        {
          "indexed": true,
          "internalType": "address",
          "name": "sender",
          "type": "address"
        }
      ],
      "name": "RoleRevoked",
      "type": "event"
    },
    {
      "anonymous": false,
      "inputs": [
        {
          "indexed": false,
          "internalType": "address",
          "name": "account",
          "type": "address"
        }
      ],
      "name": "Unpaused",
      "type": "event"
    },
    {
      "anonymous": false,
      "inputs": [
        {
          "indexed": true,
          "internalType": "address",
          "name": "verifier",
          "type": "address"
        },
        {
          "indexed": false,
          "internalType": "bool",
          "name": "vote",
          "type": "bool"
        },
        {
          "indexed": false,
          "internalType": "uint256",
          "name": "stake",
          "type": "uint256"
        },
        {
          "indexed": false,
          "internalType": "uint8",
          "name": "degree",
          "type": "uint8"
        },
        {
          "indexed": false,
          "internalType": "uint256",
          "name": "weight",
          "type": "uint256"
        },
        {
          "indexed": false,
          "internalType": "uint256",
          "name": "gravity",
          "type": "uint256"
        },
        {
          "indexed": false,
          "internalType": "bool",
          "name": "flagged",
          "type": "bool"
        },
        {
          "indexed": false,
          "internalType": "uint256",
          "name": "totalVerifyStake",
          "type": "uint256"
        },
        {
          "indexed": false,
          "internalType": "uint256",
          "name": "totalDiscountStake",
          "type": "uint256"
        }
      ],
      "name": "VoteCast",
      "type": "event"
    },
    {
      "anonymous": false,
      "inputs": [
        {
          "indexed": true,
          "internalType": "address",
          "name": "user",
          "type": "address"
        },
        {
          "indexed": false,
          "internalType": "uint256",
          "name": "socialHash",
          "type": "uint256"
        },
        {
          "indexed": false,
          "internalType": "uint256",
          "name": "eventHash",
          "type": "uint256"
        },
        {
          "indexed": false,
          "internalType": "string",
          "name": "reason",
          "type": "string"
        }
      ],
      "name": "WeakEntropyDetected",
      "type": "event"
    },
    {
      "inputs": [],
      "name": "DEFAULT_ADMIN_ROLE",
      "outputs": [
        {
          "internalType": "bytes32",
          "name": "",
          "type": "bytes32"
        }
      ],
      "stateMutability": "view",
      "type": "function"
    },
    {
      "inputs": [],
      "name": "FACTORY_ROLE",
      "outputs": [
        {
          "internalType": "bytes32",
          "name": "",
          "type": "bytes32"
        }
      ],
      "stateMutability": "view",
      "type": "function"
    },
    {
      "inputs": [],
      "name": "MAX_PARTICIPANTS",
      "outputs": [
        {
          "internalType": "uint256",
          "name": "",
          "type": "uint256"
        }
      ],
      "stateMutability": "view",
      "type": "function"
    },
    {
      "inputs": [],
      "name": "MIN_STAKE",
      "outputs": [
        {
          "internalType": "uint256",
          "name": "",
          "type": "uint256"
        }
      ],
      "stateMutability": "view",
      "type": "function"
    },
    {
      "inputs": [],
      "name": "POOL_ADMIN_ROLE",
      "outputs": [
        {
          "internalType": "bytes32",
          "name": "",
          "type": "bytes32"
        }
      ],
      "stateMutability": "view",
      "type": "function"
    },
    {
      "inputs": [
        {
          "internalType": "address",
          "name": "",
          "type": "address"
        }
      ],
      "name": "biasFlagged",
      "outputs": [
        {
          "internalType": "bool",
          "name": "",
          "type": "bool"
        }
      ],
      "stateMutability": "view",
      "type": "function"
    },
    {
      "inputs": [
        {
          "internalType": "address",
          "name": "user",
          "type": "address"
        }
      ],
      "name": "canUserVote",
      "outputs": [
        {
          "internalType": "bool",
          "name": "canVote",
          "type": "bool"
        },
        {
          "internalType": "string",
          "name": "reason",
          "type": "string"
        }
      ],
      "stateMutability": "view",
      "type": "function"
    },
    {
      "inputs": [
        {
          "internalType": "uint256[2]",
          "name": "a",
          "type": "uint256[2]"
        },
        {
          "internalType": "uint256[2][2]",
          "name": "b",
          "type": "uint256[2][2]"
        },
        {
          "internalType": "uint256[2]",
          "name": "c",
          "type": "uint256[2]"
        },
        {
          "internalType": "uint256[5]",
          "name": "input",
          "type": "uint256[5]"
        },
        {
          "internalType": "uint256",
          "name": "stakeAmount",
          "type": "uint256"
        }
      ],
      "name": "castVote",
      "outputs": [],
      "stateMutability": "nonpayable",
      "type": "function"
    },
    {
      "inputs": [],
      "name": "claimReward",
      "outputs": [],
      "stateMutability": "nonpayable",
      "type": "function"
    },
    {
      "inputs": [],
      "name": "closeAndDistribute",
      "outputs": [],
      "stateMutability": "nonpayable",
      "type": "function"
    },
    {
      "inputs": [],
      "name": "closed",
      "outputs": [
        {
          "internalType": "bool",
          "name": "",
          "type": "bool"
        }
      ],
      "stateMutability": "view",
      "type": "function"
    },
    {
      "inputs": [],
      "name": "easilyVerifiable",
      "outputs": [
        {
          "internalType": "bool",
          "name": "",
          "type": "bool"
        }
      ],
      "stateMutability": "view",
      "type": "function"
    },
    {
      "inputs": [],
      "name": "endTime",
      "outputs": [
        {
          "internalType": "uint256",
          "name": "",
          "type": "uint256"
        }
      ],
      "stateMutability": "view",
      "type": "function"
    },
    {
      "inputs": [],
      "name": "finalConsensus",
      "outputs": [
        {
          "internalType": "bool",
          "name": "",
          "type": "bool"
        }
      ],
      "stateMutability": "view",
      "type": "function"
    },
    {
      "inputs": [],
      "name": "forceClose",
      "outputs": [],
      "stateMutability": "nonpayable",
      "type": "function"
    },
    {
      "inputs": [
        {
          "internalType": "uint256",
          "name": "socialHash",
          "type": "uint256"
        },
        {
          "internalType": "uint256",
          "name": "eventHash",
          "type": "uint256"
        }
      ],
      "name": "getNullifierInfo",
      "outputs": [
        {
          "internalType": "bytes32",
          "name": "nullifierHash",
          "type": "bytes32"
        },
        {
          "internalType": "bytes32",
          "name": "domainNullifier",
          "type": "bytes32"
        },
        {
          "internalType": "bool",
          "name": "isUsed",
          "type": "bool"
        }
      ],
      "stateMutability": "view",
      "type": "function"
    },
    {
      "inputs": [],
      "name": "getParticipantCount",
      "outputs": [
        {
          "internalType": "uint256",
          "name": "",
          "type": "uint256"
        }
      ],
      "stateMutability": "view",
      "type": "function"
    },
    {
      "inputs": [
        {
          "internalType": "uint256",
          "name": "offset",
          "type": "uint256"
        },
        {
          "internalType": "uint256",
          "name": "limit",
          "type": "uint256"
        }
      ],
      "name": "getParticipantsBatch",
      "outputs": [
        {
          "components": [
            {
              "internalType": "address",
              "name": "participant",
              "type": "address"
            },
            {
              "internalType": "bool",
              "name": "vote",
              "type": "bool"
            },
            {
              "internalType": "uint256",
              "name": "stake",
              "type": "uint256"
            },
            {
              "internalType": "uint8",
              "name": "proximity",
              "type": "uint8"
            },
            {
              "internalType": "uint256",
              "name": "weight",
              "type": "uint256"
            },
            {
              "internalType": "uint256",
              "name": "gravity",
              "type": "uint256"
            },
            {
              "internalType": "bool",
              "name": "biasFlag",
              "type": "bool"
            },
            {
              "internalType": "uint256",
              "name": "pendingReward",
              "type": "uint256"
            }
          ],
          "internalType": "struct ValidationPool.ParticipantInfo[]",
          "name": "",
          "type": "tuple[]"
        }
      ],
      "stateMutability": "view",
      "type": "function"
    },
    {
      "inputs": [
        {
          "internalType": "address",
          "name": "user",
          "type": "address"
        }
      ],
      "name": "getPendingReward",
      "outputs": [
        {
          "internalType": "uint256",
          "name": "",
          "type": "uint256"
        }
      ],
      "stateMutability": "view",
      "type": "function"
    },
    {
      "inputs": [],
      "name": "getPoolStatus",
      "outputs": [
        {
          "internalType": "bool",
          "name": "isClosed",
          "type": "bool"
        },
        {
          "internalType": "bool",
          "name": "isVerifiable",
          "type": "bool"
        },
        {
          "internalType": "uint256",
          "name": "verifyStake",
          "type": "uint256"
        },
        {
          "internalType": "uint256",
          "name": "discountStake",
          "type": "uint256"
        },
        {
          "internalType": "uint256",
          "name": "remainingTime",
          "type": "uint256"
        }
      ],
      "stateMutability": "view",
      "type": "function"
    },
    {
      "inputs": [],
      "name": "getPoolSummary",
      "outputs": [
        {
          "components": [
            {
              "internalType": "bool",
              "name": "closed",
              "type": "bool"
            },
            {
              "internalType": "bool",
              "name": "consensus",
              "type": "bool"
            },
            {
              "internalType": "uint256",
              "name": "totalParticipants",
              "type": "uint256"
            },
            {
              "internalType": "uint256",
              "name": "verifyStake",
              "type": "uint256"
            },
            {
              "internalType": "uint256",
              "name": "discountStake",
              "type": "uint256"
            },
            {
              "internalType": "uint256",
              "name": "timeRemaining",
              "type": "uint256"
            },
            {
              "internalType": "uint256",
              "name": "avgTrustScore",
              "type": "uint256"
            }
          ],
          "internalType": "struct ValidationPool.PoolSummary",
          "name": "",
          "type": "tuple"
        }
      ],
      "stateMutability": "view",
      "type": "function"
    },
    {
      "inputs": [
        {
          "internalType": "bytes32",
          "name": "role",
          "type": "bytes32"
        }
      ],
      "name": "getRoleAdmin",
      "outputs": [
        {
          "internalType": "bytes32",
          "name": "",
          "type": "bytes32"
        }
      ],
      "stateMutability": "view",
      "type": "function"
    },
    {
      "inputs": [
        {
          "internalType": "bytes32",
          "name": "role",
          "type": "bytes32"
        },
        {
          "internalType": "address",
          "name": "account",
          "type": "address"
        }
      ],
      "name": "grantRole",
      "outputs": [],
      "stateMutability": "nonpayable",
      "type": "function"
    },
    {
      "inputs": [
        {
          "internalType": "address",
          "name": "",
          "type": "address"
        }
      ],
      "name": "gravityScores",
      "outputs": [
        {
          "internalType": "uint256",
          "name": "",
          "type": "uint256"
        }
      ],
      "stateMutability": "view",
      "type": "function"
    },
    {
      "inputs": [
        {
          "internalType": "address",
          "name": "",
          "type": "address"
        }
      ],
      "name": "hasParticipated",
      "outputs": [
        {
          "internalType": "bool",
          "name": "",
          "type": "bool"
        }
      ],
      "stateMutability": "view",
      "type": "function"
    },
    {
      "inputs": [
        {
          "internalType": "bytes32",
          "name": "role",
          "type": "bytes32"
        },
        {
          "internalType": "address",
          "name": "account",
          "type": "address"
        }
      ],
      "name": "hasRole",
      "outputs": [
        {
          "internalType": "bool",
          "name": "",
          "type": "bool"
        }
      ],
      "stateMutability": "view",
      "type": "function"
    },
    {
      "inputs": [],
      "name": "newsHash",
      "outputs": [
        {
          "internalType": "bytes32",
          "name": "",
          "type": "bytes32"
        }
      ],
      "stateMutability": "view",
      "type": "function"
    },
    {
      "inputs": [
        {
          "internalType": "uint256",
          "name": "",
          "type": "uint256"
        }
      ],
      "name": "participants",
      "outputs": [
        {
          "internalType": "address",
          "name": "",
          "type": "address"
        }
      ],
      "stateMutability": "view",
      "type": "function"
    },
    {
      "inputs": [],
      "name": "pause",
      "outputs": [],
      "stateMutability": "nonpayable",
      "type": "function"
    },
    {
      "inputs": [],
      "name": "paused",
      "outputs": [
        {
          "internalType": "bool",
          "name": "",
          "type": "bool"
        }
      ],
      "stateMutability": "view",
      "type": "function"
    },
    {
      "inputs": [
        {
          "internalType": "address",
          "name": "",
          "type": "address"
        }
      ],
      "name": "pendingRewards",
      "outputs": [
        {
          "internalType": "uint256",
          "name": "",
          "type": "uint256"
        }
      ],
      "stateMutability": "view",
      "type": "function"
    },
    {
      "inputs": [
        {
          "internalType": "address",
          "name": "",
          "type": "address"
        }
      ],
      "name": "posteriorTrust",
      "outputs": [
        {
          "internalType": "uint256",
          "name": "",
          "type": "uint256"
        }
      ],
      "stateMutability": "view",
      "type": "function"
    },
    {
      "inputs": [],
      "name": "preCommit",
      "outputs": [],
      "stateMutability": "nonpayable",
      "type": "function"
    },
    {
      "inputs": [
        {
          "internalType": "address",
          "name": "",
          "type": "address"
        }
      ],
      "name": "proximityDegrees",
      "outputs": [
        {
          "internalType": "uint8",
          "name": "",
          "type": "uint8"
        }
      ],
      "stateMutability": "view",
      "type": "function"
    },
    {
      "inputs": [
        {
          "internalType": "bytes32",
          "name": "role",
          "type": "bytes32"
        },
        {
          "internalType": "address",
          "name": "callerConfirmation",
          "type": "address"
        }
      ],
      "name": "renounceRole",
      "outputs": [],
      "stateMutability": "nonpayable",
      "type": "function"
    },
    {
      "inputs": [
        {
          "internalType": "bytes32",
          "name": "role",
          "type": "bytes32"
        },
        {
          "internalType": "address",
          "name": "account",
          "type": "address"
        }
      ],
      "name": "revokeRole",
      "outputs": [],
      "stateMutability": "nonpayable",
      "type": "function"
    },
    {
      "inputs": [
        {
          "internalType": "bool",
          "name": "_flag",
          "type": "bool"
        }
      ],
      "name": "setEasilyVerifiable",
      "outputs": [],
      "stateMutability": "nonpayable",
      "type": "function"
    },
    {
      "inputs": [
        {
          "internalType": "address",
          "name": "",
          "type": "address"
        }
      ],
      "name": "stakeTimestamp",
      "outputs": [
        {
          "internalType": "uint256",
          "name": "",
          "type": "uint256"
        }
      ],
      "stateMutability": "view",
      "type": "function"
    },
    {
      "inputs": [
        {
          "internalType": "address",
          "name": "",
          "type": "address"
        }
      ],
      "name": "stakesInPool",
      "outputs": [
        {
          "internalType": "uint256",
          "name": "",
          "type": "uint256"
        }
      ],
      "stateMutability": "view",
      "type": "function"
    },
    {
      "inputs": [
        {
          "internalType": "uint256",
          "name": "",
          "type": "uint256"
        }
      ],
      "name": "storyFlagWeights",
      "outputs": [
        {
          "internalType": "uint256",
          "name": "",
          "type": "uint256"
        }
      ],
      "stateMutability": "view",
      "type": "function"
    },
    {
      "inputs": [
        {
          "internalType": "bytes4",
          "name": "interfaceId",
          "type": "bytes4"
        }
      ],
      "name": "supportsInterface",
      "outputs": [
        {
          "internalType": "bool",
          "name": "",
          "type": "bool"
        }
      ],
      "stateMutability": "view",
      "type": "function"
    },
    {
      "inputs": [],
      "name": "token",
      "outputs": [
        {
          "internalType": "contract TruthForgeToken",
          "name": "",
          "type": "address"
        }
      ],
      "stateMutability": "view",
      "type": "function"
    },
    {
      "inputs": [],
      "name": "totalDiscountStake",
      "outputs": [
        {
          "internalType": "uint256",
          "name": "",
          "type": "uint256"
        }
      ],
      "stateMutability": "view",
      "type": "function"
    },
    {
      "inputs": [],
      "name": "totalVerifyStake",
      "outputs": [
        {
          "internalType": "uint256",
          "name": "",
          "type": "uint256"
        }
      ],
      "stateMutability": "view",
      "type": "function"
    },
    {
      "inputs": [],
      "name": "totalVotes",
      "outputs": [
        {
          "internalType": "uint256",
          "name": "",
          "type": "uint256"
        }
      ],
      "stateMutability": "view",
      "type": "function"
    },
    {
      "inputs": [],
      "name": "unpause",
      "outputs": [],
      "stateMutability": "nonpayable",
      "type": "function"
    },
    {
      "inputs": [
        {
          "internalType": "uint256",
          "name": "_newEndTime",
          "type": "uint256"
        }
      ],
      "name": "updateEndTime",
      "outputs": [],
      "stateMutability": "nonpayable",
      "type": "function"
    },
    {
      "inputs": [
        {
          "internalType": "bytes32",
          "name": "",
          "type": "bytes32"
        }
      ],
      "name": "usedNullifiers",
      "outputs": [
        {
          "internalType": "bool",
          "name": "",
          "type": "bool"
        }
      ],
      "stateMutability": "view",
      "type": "function"
    },
    {
      "inputs": [
        {
          "internalType": "address",
          "name": "",
          "type": "address"
        }
      ],
      "name": "voteWeights",
      "outputs": [
        {
          "internalType": "uint256",
          "name": "",
          "type": "uint256"
        }
      ],
      "stateMutability": "view",
      "type": "function"
    },
    {
      "inputs": [
        {
          "internalType": "address",
          "name": "",
          "type": "address"
        }
      ],
      "name": "votes",
      "outputs": [
        {
          "internalType": "bool",
          "name": "",
          "type": "bool"
        }
      ],
      "stateMutability": "view",
      "type": "function"
    },
    {
      "inputs": [],
      "name": "zkVerifier",
      "outputs": [
        {
          "internalType": "contract ZKVerifier",
          "name": "",
          "type": "address"
        }
      ],
      "stateMutability": "view",
      "type": "function"
    }
  ],
  "bytecode": "0x608060405234610313576136448038038061001981610318565b928339810160a0828203126103135781516001600160a01b03811692908381036103135760208201516001600160a01b038116908190036103135760408301516060840151608085015190949193916001600160401b03821161031357019585601f88011215610313578651956001600160401b03871161020d578660051b9760206100a6818b01610318565b8099815201906020829a82010192831161031357602001905b828210610303575050506001805562ffffff196006541660065560006009556000600a556000600b55156102ce57811561029457821561025b57428411156102235760028054610100600160a81b03191660089290921b610100600160a81b0316919091179055600380546001600160a01b03191691909117905560045560055551906001600160401b03821161020d5768010000000000000000821161020d57600754826007558083106101c7575b5090600760005260206000209160005b8281106101b35761018f3361033d565b50610199336103b9565b506101a333610451565b506040516130da90816104ea8239f35b60019060208351930192818601550161017f565b60076000527fa66cc928b5edb82af9bd49922954155ab7b0942694bea4ce44661d9a8736c6889081019083015b818110610201575061016f565b600081556001016101f4565b634e487b7160e01b600052604160045260246000fd5b60405162461bcd60e51b815260206004820152601060248201526f496e76616c696420656e642074696d6560801b6044820152606490fd5b60405162461bcd60e51b8152602060048201526011602482015270092dcecc2d8d2c840dccaeee640d0c2e6d607b1b6044820152606490fd5b60405162461bcd60e51b815260206004820152601260248201527124b73b30b634b2103d35ab32b934b334b2b960711b6044820152606490fd5b60405162461bcd60e51b815260206004820152600d60248201526c24b73b30b634b2103a37b5b2b760991b6044820152606490fd5b81518152602091820191016100bf565b600080fd5b6040519190601f01601f191682016001600160401b0381118382101761020d57604052565b6001600160a01b0381166000908152600080516020613624833981519152602052604090205460ff166103b3576001600160a01b0316600081815260008051602061362483398151915260205260408120805460ff191660011790553391906000805160206135c48339815191528180a4600190565b50600090565b6001600160a01b03811660009081526000805160206135e4833981519152602052604090205460ff166103b3576001600160a01b031660008181526000805160206135e483398151915260205260408120805460ff191660011790553391907f24e583e35a20f9ecfc1572e7cb66bcc18ad3cd1650ec40dbf6ad2290e553a9fa906000805160206135c48339815191529080a4600190565b6001600160a01b0381166000908152600080516020613604833981519152602052604090205460ff166103b3576001600160a01b0316600081815260008051602061360483398151915260205260408120805460ff191660011790553391907fdfbefbf47cfe66b701d8cfdbce1de81c821590819cb07e71cb01b6602fb0ee27906000805160206135c48339815191529080a460019056fe608080604052600436101561001357600080fd5b60003560e01c90816301ffc9a71461214f5750806303bac8801461144857806304a0fb171461140d5780630d15fd77146113ef5780630de519b4146113d1578063168299f3146113b35780631a411f4f146113795780631a55a2f51461129e578063206137aa1461126d578063248a9ca3146112385780632d5b9f89146111b75780632f2ff15d146111775780633197cbb61461115957806331d7a26214610d9d57806335c1d3491461111757806336568abe146110d15780633f4ba83a14611068578063430b007714610dd75780634df9d6ba14610d9d578063597e1fb514610d7a5780635c975abb14610d575780636513e97314610d1f57806367cc910f14610ce55780636ab3846b14610c755780637025907714610c3b5780637767841414610c225780637ad24fe214610bfc5780637f79496c14610b935780638456cb5914610b395780638ba24b4114610aff57806391d1485414610ab2578063936cbcbe14610a3c5780639dbe0a89146108b1578063a217fddf14610895578063a7f4a35614610851578063ad60572914610833578063b4fb3ee3146107f4578063b88a802f14610668578063b8f6dba71461062d578063c610ab771461060f578063c7473670146105e9578063cb1c2b5c146105c6578063d547741f1461057f578063d6df096d14610556578063d8bff5a514610517578063d97d44b1146104dd578063ddf0a8b0146104a0578063e855daa114610461578063f3baf07014610444578063fab9ac1d146102825763fc0c546a1461025057600080fd5b3461027d57600036600319011261027d5760025460405160089190911c6001600160a01b03168152602090f35b600080fd5b3461027d57600036600319011261027d57600060c06040516102a3816121bf565b8281528260208201528260408201528260608201528260808201528260a0820152015260055480421060001461043c576102de904290612434565b600c5460009182805b83811061038e575060e093801561038457610301916123f8565b905b60065492600954600a54916040519561031b876121bf565b60c060ff821615159788815260ff602082019360101c161515835260408101938452606081019485526080810195865260a081019687520195865260405196875251151560208701525160408601525160608501525160808401525160a08301525160c0820152f35b5050600090610303565b610397816122ad565b60018060a01b0391549060031b1c16600052600f6020526040600020541580159061040e575b6103ca575b6001016102e7565b93906104066104006001926103de886122ad565b858060a01b0391549060031b1c16600052601460205260406000205490612427565b92612418565b9490506103c2565b50610418816122ad565b60018060a01b0391549060031b1c16600052601660205260406000205415156103bd565b5060006102de565b3461027d57600036600319011261027d5760206040516103e88152f35b3461027d57602036600319011261027d576001600160a01b0361048261223a565b166000526013602052602060ff604060002054166040519015158152f35b3461027d57602036600319011261027d576001600160a01b036104c161223a565b166000526010602052602060ff60406000205416604051908152f35b3461027d57602036600319011261027d576001600160a01b036104fe61223a565b1660005260126020526020604060002054604051908152f35b3461027d57602036600319011261027d576001600160a01b0361053861223a565b16600052600e602052602060ff604060002054166040519015158152f35b3461027d57600036600319011261027d576003546040516001600160a01b039091168152602090f35b3461027d57604036600319011261027d576105c460043561059e612250565b906105bf6105ba82600052600060205260016040600020015490565b612667565b61272d565b005b3461027d57600036600319011261027d576020604051670de0b6b3a76400008152f35b3461027d57600036600319011261027d57602060ff60065460101c166040519015158152f35b3461027d57600036600319011261027d576020600954604051908152f35b3461027d57600036600319011261027d5760206040517f24e583e35a20f9ecfc1572e7cb66bcc18ad3cd1650ec40dbf6ad2290e553a9fa8152f35b3461027d57600036600319011261027d576106816125b6565b33600052601660205260406000205480156107c35760ff600654161561078c57336000818152601660209081526040808320839055600254905163a9059cbb60e01b8152600481019490945260248401949094529192839160449183919060081c6001600160a01b03165af190811561078057600091610746575b50156107085760018055005b60405162461bcd60e51b815260206004820152601660248201527514995dd85c99081d1c985b9cd9995c8819985a5b195960521b6044820152606490fd5b90506020813d602011610778575b81610761602093836121db565b8101031261027d57610772906123b0565b816106fc565b3d9150610754565b6040513d6000823e3d90fd5b60405162461bcd60e51b815260206004820152600f60248201526e141bdbdb081b9bdd0818db1bdcd959608a1b6044820152606490fd5b60405162461bcd60e51b8152602060048201526009602482015268139bc81c995dd85c9960ba1b6044820152606490fd5b3461027d57602036600319011261027d576001600160a01b0361081561223a565b16600052600d602052602060ff604060002054166040519015158152f35b3461027d57600036600319011261027d576020600c54604051908152f35b3461027d57602036600319011261027d5761087261086d61223a565b61246d565b90610891604051928392151583526040602084015260408301906122c8565b0390f35b3461027d57600036600319011261027d57602060405160008152f35b3461027d57602036600319011261027d5760043580151580820361027d573360009081527faae065819044e7c1f6f3a25fcf56eec95d9ef9dcbfbb8eb1f8a4a273b3bd0146602052604090205460ff1615610a035761ff006006549160081b1661ff00198216176006556004546000836000146109b857507f8c15467ff64c6763764fedbdb94b2e371391605368e0b69baf8f3702c27d67a961098e60405161095b6040826121db565b6011815270656173696c795f76657269666961626c6560781b60208201525b6040519182916040835260408301906122c8565b4260208301520390a2816109ac575b506109a457005b6105c46127af565b60ff915016158161099d565b507f8c15467ff64c6763764fedbdb94b2e371391605368e0b69baf8f3702c27d67a961098e6040516109eb6040826121db565b600681526561637469766560d01b602082015261097a565b63e2517d3f60e01b600052336004527fdfbefbf47cfe66b701d8cfdbce1de81c821590819cb07e71cb01b6602fb0ee2760245260446000fd5b3461027d57600036600319011261027d57610a556125f5565b6005544210801590610aa3575b15610a6f576105c46127af565b60405162461bcd60e51b815260206004820152600c60248201526b4e6f7420636c6f7361626c6560a01b6044820152606490fd5b5060ff60065460081c16610a62565b3461027d57604036600319011261027d57610acb612250565b600435600052600060205260406000209060018060a01b0316600052602052602060ff604060002054166040519015158152f35b3461027d57602036600319011261027d576001600160a01b03610b2061223a565b1660005260146020526020604060002054604051908152f35b3461027d57600036600319011261027d57610b526125f5565b610b5a6125d8565b600160ff1960025416176002557f62e78cea01bee320cd4e420270b5ea74000d11b0c9f74754ebdbfc544b05a2586020604051338152a1005b3461027d57600036600319011261027d57600554804210600014610bf257610bbe60a0914290612434565b60065490600954600a549060ff604051948181161515865260081c1615156020850152604084015260608301526080820152f35b5060a06000610bbe565b3461027d57600036600319011261027d57602060ff60065460081c166040519015158152f35b3461027d57600036600319011261027d576109a46125f5565b3461027d57602036600319011261027d576001600160a01b03610c5c61223a565b1660005260156020526020604060002054604051908152f35b3461027d57602036600319011261027d57600435610c916125f5565b42811115610cad57610ca860ff6006541615612309565b600555005b60405162461bcd60e51b815260206004820152601060248201526f496e76616c696420656e642074696d6560801b6044820152606490fd5b3461027d57602036600319011261027d576001600160a01b03610d0661223a565b1660005260116020526020604060002054604051908152f35b3461027d57602036600319011261027d5760043560075481101561027d57610d4860209161227c565b90549060031b1c604051908152f35b3461027d57600036600319011261027d57602060ff600254166040519015158152f35b3461027d57600036600319011261027d57602060ff600654166040519015158152f35b3461027d57602036600319011261027d576001600160a01b03610dbe61223a565b1660005260166020526020604060002054604051908152f35b3461027d57610de536612266565b600c54908183101561102c57610dfb9083612427565b90808211611024575b50610e0f8282612434565b91610e1983612441565b92610e2760405194856121db565b808452610e36601f1991612441565b0160005b818110610fd5575050805b828110610eea578360405180916020820160208352815180915260206040840192019060005b818110610e79575050500390f35b91935091602061010060019260e08751858060a01b038151168352848101511515858401526040810151604084015260ff60608201511660608401526080810151608084015260a081015160a084015260c0810151151560c0840152015160e0820152019401910191849392610e6b565b80610fce610ef96001936122ad565b848060a01b0391549060031b1c1680600052600e60205260ff6040600020541681600052600f60205260406000205482600052601060205260ff604060002054168360005260116020526040600020548460005260126020526040600020549185600052601360205260ff60406000205416938660005260166020526040600020549560405197610f89896121a2565b88521515602088015260408701526060860152608085015260a0840152151560c083015260e0820152610fbc8584612434565b90610fc78289612459565b5286612459565b5001610e45565b602090604051610fe4816121a2565b60008152600083820152600060408201526000606082015260006080820152600060a0820152600060c0820152600060e082015282828801015201610e3a565b905082610e04565b60405162461bcd60e51b81526020600482015260146024820152734f6666736574206f7574206f6620626f756e647360601b6044820152606490fd5b3461027d57600036600319011261027d576110816125f5565b60025460ff8116156110c05760ff19166002557f5db9ee0a495bf2e6ff9c91a7834c1ba4fdd244a5e8aa4e537bd38aeae4b073aa6020604051338152a1005b638dfc202b60e01b60005260046000fd5b3461027d57604036600319011261027d576110ea612250565b336001600160a01b03821603611106576105c49060043561272d565b63334bd91960e11b60005260046000fd5b3461027d57602036600319011261027d57600435600c5481101561027d576111406020916122ad565b905460405160039290921b1c6001600160a01b03168152f35b3461027d57600036600319011261027d576020600554604051908152f35b3461027d57604036600319011261027d576105c4600435611196612250565b906111b26105ba82600052600060205260016040600020015490565b6126a2565b3461027d57600036600319011261027d576111d760ff6006541615612309565b3360005260156020526040600020546111ff5733600052601560205242604060002055600080f35b60405162461bcd60e51b8152602060048201526011602482015270105b1c9958591e4818dbdb5b5a5d1d1959607a1b6044820152606490fd5b3461027d57602036600319011261027d576020611265600435600052600060205260016040600020015490565b604051908152f35b3461027d57602036600319011261027d576004356000526008602052602060ff604060002054166040519015158152f35b3461027d5760606112ae36612266565b906112cf6112dd600454936040519283916020830195873092339289612343565b03601f1981018352826121db565b519020906112cf61132e600554604051928391602083019587879160799391785452555448464f5247455f504f4f4c5f444f4d41494e5f563360381b84526019840152603983015260598201520190565b51902081600052600860205260ff6040600020541690811561135f575b604051928352602083015215156040820152f35b809150600052600860205260ff604060002054169061134b565b3461027d57602036600319011261027d576001600160a01b0361139a61223a565b16600052600f6020526020604060002054604051908152f35b3461027d57600036600319011261027d576020600454604051908152f35b3461027d57600036600319011261027d576020600a54604051908152f35b3461027d57600036600319011261027d576020600b54604051908152f35b3461027d57600036600319011261027d5760206040517fdfbefbf47cfe66b701d8cfdbce1de81c821590819cb07e71cb01b6602fb0ee278152f35b3461027d576101c036600319011261027d57366023121561027d5761146e3660046121fd565b366063121561027d57604080519061148681836121db565b813660c41161027d576044905b60c482106121285750503660e3121561027d576114b13660c46121fd565b9236610123121561027d578151906114ca60a0836121db565b81366101a41161027d57610104905b6101a482106121185750506101a435936114f16125b6565b6114f96125d8565b61150860ff6006541615612309565b6005544210156120e757670de0b6b3a764000085106120b3576103e8600c54101561207757336000526015602052836000205415612003575b60208301958651858501908151906112cf61156e600454938a519283916020830195873092339289612343565b5190209182600052600860205260ff886000205416611fd157895115611f9757805115611f5e57606087019960018b51101580611f52575b15611f1d576064608089015111611ed9575190518315611ea4576103e7821115611e61576103e7811115611e1d57808214611d6e576064820615611cb3576064810615611bf95750506112cf61163b6005548951928391602083019587879160799391785452555448464f5247455f504f4f4c5f444f4d41494e5f563360381b84526019840152603983015260598201520190565b5190209080600052600860205260ff876000205416611bbc5781600052600860205260ff876000205416611b785780600052600860205286600020600160ff1982541617905581600052600860205286600020600160ff1982541617905533600052601560205242876000205586519133917f8338cd7fc0a43668cc17e80cb2e7346731f7571425ba7bacdb6ac206579fcf47600080a4602081606481600060018060a01b0360025460081c166323b872dd60e01b83523360048401523060248401528c60448401525af1908115611b6d57600091611b33575b5015611af75760035485516388faefbf60e01b8152936001600160a01b0390911692906117469060048601906123bd565b600086604486015b60028310611ad857505050506117689060c48401906123bd565b8183600061010483015b60058210611abe575050506101a48160006080945af1918215611ab3576000809281908295611a5f575b5081928215611a2b57600160ff915114985116916007548015159081611a20575b506119ec575b5033600052600f60205286866000205533600052600e6020526117f588876000209060ff801983541691151516179055565b336000526010602052856000208260ff1982541617905533600052601160205282866000205533600052601260205283866000205533600052601360205261184c85876000209060ff801983541691151516179055565b336000526014602052808660002055611866600b54612418565b600b5533600052600d60205260ff86600020541615611976575b61188a90876123e5565b670de0b6b3a7640000810290808204670de0b6b3a764000014901517156119605768056bc75e2d63100000900484611944575b8715611930576118cf90600954612427565b6009555b60095494600a54968151988952602089015287015260608601526080850152151560a084015260c083015260e08201527ff4b2d5170cf44e4b42bb0f2013351902934868b9aa8b7a47d61db9502918c6236101003392a260018055005b61193c90600a54612427565b600a556118d3565b604b810290808204604b149015171561196057606490046118bd565b634e487b7160e01b600052601160045260246000fd5b600c5490680100000000000000008210156119d65761199e82600161188a9401600c556122ad565b81549060031b9033821b9160018060a01b03901b191617905533600052600d60205286600020600160ff198254161790559050611880565b634e487b7160e01b600052604160045260246000fd5b909250600019820160ff811161196057606491611a0b611a189261227c565b90549060031b1c906123e5565b0491886117c3565b90508311158a6117bd565b865162461bcd60e51b815260206004820152600d60248201526c24b73b30b634b210383937b7b360991b6044820152606490fd5b9350509092506080823d608011611aab575b81611a7e608093836121db565b81010312611aa857508051916020820151611a9f60608685015194016123b0565b9390928861179c565b80fd5b3d9150611a71565b83513d6000823e3d90fd5b829350602080916001939451815201930191018492611772565b60019181611ae960209387516123bd565b01930191019091879061174e565b845162461bcd60e51b815260206004820152601560248201527414dd185ad9481d1c985b9cd9995c8819985a5b1959605a1b6044820152606490fd5b90506020813d602011611b65575b81611b4e602093836121db565b8101031261027d57611b5f906123b0565b88611715565b3d9150611b41565b86513d6000823e3d90fd5b865162461bcd60e51b815260206004820152601d60248201527f446f6d61696e206e756c6c696669657220616c726561647920757365640000006044820152606490fd5b865162461bcd60e51b8152602060048201526016602482015275139d5b1b1a599a595c88185b1c9958591e481d5cd95960521b6044820152606490fd5b608491899182519182526020820152606082820152601b60608201527f4576656e74206861736820646976697369626c6520627920313030000000000060808201527fa1c909aa653deb2baca6c9f1e43fe5d6cd72becd8d9cc18203703a840320d0ec60a03392a25162461bcd60e51b815260206004820152602960248201527f4576656e7420686173682061707065617273206172746966696369616c6c792060448201526819d95b995c985d195960ba1b6064820152fd5b608491899182519182526020820152606082820152601c60608201527f536f6369616c206861736820646976697369626c65206279203130300000000060808201527fa1c909aa653deb2baca6c9f1e43fe5d6cd72becd8d9cc18203703a840320d0ec60a03392a25162461bcd60e51b815260206004820152602a60248201527f536f6369616c20686173682061707065617273206172746966696369616c6c796044820152690819d95b995c985d195960b21b6064820152fd5b608491899182519182526020820152606082820152601060608201526f4964656e746963616c2068617368657360801b60808201527fa1c909aa653deb2baca6c9f1e43fe5d6cd72becd8d9cc18203703a840320d0ec60a03392a25162461bcd60e51b815260206004820152602b60248201527f536f6369616c20616e64206576656e74206861736865732063616e6e6f74206260448201526a19481a59195b9d1a58d85b60aa1b6064820152fd5b885162461bcd60e51b815260206004820152601f60248201527f4576656e74206861736820656e74726f707920696e73756666696369656e74006044820152606490fd5b6064895162461bcd60e51b815260206004820152602060248201527f536f6369616c206861736820656e74726f707920696e73756666696369656e746044820152fd5b885162461bcd60e51b815260206004820152600e60248201526d273ab63610373ab63634b334b2b960911b6044820152606490fd5b885162461bcd60e51b815260206004820152601760248201527f496e76616c6964206576656e742072656c6576616e63650000000000000000006044820152606490fd5b885162461bcd60e51b815260206004820152600e60248201526d496e76616c69642064656772656560901b6044820152606490fd5b5060048b5111156115a6565b875162461bcd60e51b8152602060048201526012602482015271092dcecc2d8d2c840caeccadce840d0c2e6d60731b6044820152606490fd5b875162461bcd60e51b8152602060048201526013602482015272092dcecc2d8d2c840e6dec6d2c2d840d0c2e6d606b1b6044820152606490fd5b875162461bcd60e51b815260206004820152600b60248201526a446f75626c6520766f746560a81b6044820152606490fd5b637735940042101561206c5761ffff60005b16421061203057336000526015602052428460002055611541565b835162461bcd60e51b8152602060048201526015602482015274233630b9b4103637b0b710383937ba32b1ba34b7b760591b6044820152606490fd5b61ffff610e10612015565b835162461bcd60e51b8152602060048201526015602482015274546f6f206d616e79207061727469636970616e747360581b6044820152606490fd5b835162461bcd60e51b815260206004820152600d60248201526c5374616b6520746f6f206c6f7760981b6044820152606490fd5b835162461bcd60e51b815260206004820152600a602482015269141bdbdb08195b99195960b21b6044820152606490fd5b81358152602091820191016114d9565b600036601f84011215611aa857506020839161214436856121fd565b815201910190611493565b3461027d57602036600319011261027d576004359063ffffffff60e01b821680920361027d57602091637965db0b60e01b8114908115612191575b5015158152f35b6301ffc9a760e01b1490508361218a565b610100810190811067ffffffffffffffff8211176119d657604052565b60e0810190811067ffffffffffffffff8211176119d657604052565b90601f8019910116810190811067ffffffffffffffff8211176119d657604052565b919060408051939061220f90856121db565b83906040810192831161027d57905b82821061222a57505050565b813581526020918201910161221e565b600435906001600160a01b038216820361027d57565b602435906001600160a01b038216820361027d57565b604090600319011261027d576004359060243590565b60075481101561229757600760005260206000200190600090565b634e487b7160e01b600052603260045260246000fd5b600c5481101561229757600c60005260206000200190600090565b919082519283825260005b8481106122f4575050826000602080949584010152601f8019910116010190565b806020809284010151828286010152016122d3565b1561231057565b60405162461bcd60e51b815260206004820152600b60248201526a141bdbdb0818db1bdcd95960aa1b6044820152606490fd5b9391609f9593917f5452555448464f5247455f4e554c4c49464945525f563300000000000000000086526017860152603785015260578401526bffffffffffffffffffffffff199060601b1660778301526bffffffffffffffffffffffff199060601b16608b8201520190565b5190811515820361027d57565b906000905b600282106123cf57505050565b60208060019285518152019301910190916123c2565b8181029291811591840414171561196057565b8115612402570490565b634e487b7160e01b600052601260045260246000fd5b60001981146119605760010190565b9190820180921161196057565b9190820391821161196057565b67ffffffffffffffff81116119d65760051b60200190565b80518210156122975760209160051b010190565b60ff600654166125895760055442101561255d576103e8600c541015612526576001600160a01b0316600090815260156020526040902054156124c3575b6001906040516124bc6020826121db565b6000815290565b637735940042101561251b5761ffff60005b164210156124ab576000906040516124ee6040826121db565b601c81527f466c617368206c6f616e2070726f74656374696f6e2061637469766500000000602082015290565b61ffff610e106124d5565b506000906040516125386040826121db565b6015815274546f6f206d616e79207061727469636970616e747360581b602082015290565b5060009060405161256f6040826121db565b600a815269141bdbdb08195b99195960b21b602082015290565b5060009060405161259b6040826121db565b600b81526a141bdbdb0818db1bdcd95960aa1b602082015290565b6002600154146125c7576002600155565b633ee5aeb560e01b60005260046000fd5b60ff600254166125e457565b63d93c066560e01b60005260046000fd5b3360009081527fd30826e6d5fa6e2780de4f5ab578641daafb73060b36a45d03e63fea9a571190602052604090205460ff161561262e57565b63e2517d3f60e01b600052336004527f24e583e35a20f9ecfc1572e7cb66bcc18ad3cd1650ec40dbf6ad2290e553a9fa60245260446000fd5b60008181526020818152604080832033845290915290205460ff161561268a5750565b63e2517d3f60e01b6000523360045260245260446000fd5b6000818152602081815260408083206001600160a01b038616845290915290205460ff16612726576000818152602081815260408083206001600160a01b0395909516808452949091528120805460ff19166001179055339291907f2f8788117e7eff1d82e926ec794901d17c78024a50270940304540a733656f0d9080a4600190565b5050600090565b6000818152602081815260408083206001600160a01b038616845290915290205460ff1615612726576000818152602081815260408083206001600160a01b0395909516808452949091528120805460ff19169055339291907ff6391f5c32d9c69d2a47ea670b442974b53935d1edc7fd64eb21e047a839171b9080a4600190565b60065460ff811661284f5760ff198116600117600655600954600a54101561283657506201000062ff00001960065416176006556127eb612c6a565b6004547f1fac53a191157c168930e8243c9ef26bfeb54d57359284ff5e216a65cd227804606060ff60065460101c16600954600a5490604051921515835260208301526040820152a2565b62ff00ff191660011760065561284a612885565b6127eb565b60405162461bcd60e51b815260206004820152600e60248201526d105b1c9958591e4818db1bdcd95960921b6044820152606490fd5b600954906032820282810460321483151715611960576127109004918215159283612c08575b60009182600c54905b818110612b3c5750508215612aca5760005b600c54811015612ac2576128d9816122ad565b60018060a01b0391549060031b1c169081600052600f602052604060002054612907575b60019150016128c6565b81600052600e60205260ff604060002054169180600052600f602052604060002054921580612aba575b15612a4c57806000526014602052876064612951604060002054866123e5565b0482600052601360205287878760ff60406000205416612a26575b85946129c5858560019b9561299e6080986129996000805160206130858339815191529b6129df996123e5565b6123f8565b9460009015612a1c57506129b592612999916123e5565b915b6129ca836129c58388612427565b612427565b88600052601660205260406000205584612427565b908460005260146020526040600020549060405192835260208301528760408301526060820152a25b600052600f602052600060408120556128fd565b92505050916129b7565b5050509050604b810290808204604b14901517156119605788906064900487878761296c565b80600080516020613085833981519152608060019583600052601460205260c8612a7b604060002054836123e5565b049084600052601660205281604060002055846000526014602052604060002054906040519283526020830152600060408301526060820152a2612a08565b506001612931565b505050509050565b505050905060005b600c54811015612b395780612ae86001926122ad565b838060a01b0391549060031b1c1680600052600f602052604060002054612b11575b5001612ad2565b6000908152600f60208181526040808420805460168452918520919091559190525538612b0a565b50565b612b45816122ad565b905460039190911b1c6001600160a01b03166000818152600f6020526040902054151580612bef575b612b7c575b506001016128b4565b80600096929652600f6020526064612ba8604060002054836000526014602052604060002054906123e5565b0490600052601360205260ff60406000205416612bd3575b612bcc90600192612427565b9490612b73565b604b810290808204604b14901517156119605760649004612bc0565b5080600052600e60205260ff6040600020541615612b6e565b60025460081c6001600160a01b0316803b1561027d576040516340c10f1960e01b815230600482015260248101839052906000908290604490829084905af1801561078057612c58575b506128ab565b6000612c63916121db565b6000612c52565b600090600a549160328302838104603214841517156130705761271090049283151580612ffe575b829483600c54905b818110612f245750508515612eae57835b600c54811015612ea557612cbe816122ad565b905460039190911b1c6001600160a01b0316808652600f6020526040862054612ceb575b50600101612cab565b808652600e60205260ff604087205416818752600f602052600160408820549115151480612e9d575b15612e3457818752601460205286856064612d336040842054856123e5565b0484835260136020528b878a60ff604087205416612df6575b946129c5600080516020613085833981519152958585612db395612d7d8d9c9860019f9e9c60809b612999916123e5565b9315612ded57612d9092612999916123e5565b925b6040612da2856129c5858a612427565b918a81526016602052205584612427565b90848c52601460205260408c20549060405192835260208301528760408301526060820152a25b8652600f60205285604081205590612ce2565b50505082612d92565b505050809250604b91500290808204604b1490151715612e205787908690606490048b878a612d4c565b634e487b7160e01b88526011600452602488fd5b9080600080516020613085833981519152608060019594838b52601460205260c8612e6360408d2054836123e5565b0490848c5260166020528160408d2055848c52601460205260408c20549060405192835260208301528b60408301526060820152a2612dda565b506001612d14565b50505050509050565b505050809192505b600c54811015612f205780612ecc6001926122ad565b838060a01b0391549060031b1c16808452600f6020526040842054612ef3575b5001612eb6565b808452600f6020526040842054818552601660205260408520558352600f60205282604081205538612eec565b5050565b612f2d816122ad565b905460039190911b1c6001600160a01b0316808752600f6020526040872054151580612fe3575b612f62575b50600101612c9a565b808799929952600f6020526064612f8a6040892054838a52601460205260408a2054906123e5565b04908752601360205260ff604088205416612fb3575b612fac90600192612427565b9790612f59565b604b810290808204604b1490151715612fcf5760649004612fa0565b634e487b7160e01b87526011600452602487fd5b50808752600e602052600160ff604089205416151514612f54565b60025460081c6001600160a01b0316803b1561306c576040516340c10f1960e01b8152306004820152602481018790529084908290604490829084905af180156130615761304d575b50612c92565b8361305a919492946121db565b9138613047565b6040513d86823e3d90fd5b8380fd5b634e487b7160e01b82526011600452602482fdfe2b41c6b9ff2746050970522f8dd9f5824587212166cdb2b12f40a1068a616b49a2646970667358221220cfe2d6aa2c33a7c61b4c8a4cc06e1adf3d630dfa16c9aff2ccd73c2e260426f164736f6c634300081c00332f8788117e7eff1d82e926ec794901d17c78024a50270940304540a733656f0dd30826e6d5fa6e2780de4f5ab578641daafb73060b36a45d03e63fea9a571190aae065819044e7c1f6f3a25fcf56eec95d9ef9dcbfbb8eb1f8a4a273b3bd0146ad3228b676f7d3cd4284a5443f17f1962b36e491b30a40b2405849e597ba5fb5",
  "linkReferences": {},
  "deployedLinkReferences": {}
}