{
  "_format": "hh-sol-artifact-1",
  "contractName": "TruthForgeToken",
  "sourceName": "contracts/TruthForgeToken.sol",
  "abi": [
    {
      "inputs": [
        {
          "internalType": "address",
          "name": "initialOwner",
          "type": "address"
        },
        {
          "internalType": "address",
          "name": "_treasury",
          "type": "address"
        }
      ],
      "stateMutability": "nonpayable",
      "type": "constructor"
    },
    {
      "inputs": [],
      "name": "AccessControlBadConfirmation",
      "type": "error"
    },
    {
      "inputs": [
        {
          "internalType": "address",
          "name": "account",
          "type": "address"
        },
        {
          "internalType": "bytes32",
          "name": "neededRole",
          "type": "bytes32"
        }
      ],
      "name": "AccessControlUnauthorizedAccount",
      "type": "error"
    },
    {
      "inputs": [
        {
          "internalType": "address",
          "name": "spender",
          "type": "address"
        },
        {
          "internalType": "uint256",
          "name": "allowance",
          "type": "uint256"
        },
        {
          "internalType": "uint256",
          "name": "needed",
          "type": "uint256"
        }
      ],
      "name": "ERC20InsufficientAllowance",
      "type": "error"
    },
    {
      "inputs": [
        {
          "internalType": "address",
          "name": "sender",
          "type": "address"
        },
        {
          "internalType": "uint256",
          "name": "balance",
          "type": "uint256"
        },
        {
          "internalType": "uint256",
          "name": "needed",
          "type": "uint256"
        }
      ],
      "name": "ERC20InsufficientBalance",
      "type": "error"
    },
    {
      "inputs": [
        {
          "internalType": "address",
          "name": "approver",
          "type": "address"
        }
      ],
      "name": "ERC20InvalidApprover",
      "type": "error"
    },
    {
      "inputs": [
        {
          "internalType": "address",
          "name": "receiver",
          "type": "address"
        }
      ],
      "name": "ERC20InvalidReceiver",
      "type": "error"
    },
    {
      "inputs": [
        {
          "internalType": "address",
          "name": "sender",
          "type": "address"
        }
      ],
      "name": "ERC20InvalidSender",
      "type": "error"
    },
    {
      "inputs": [
        {
          "internalType": "address",
          "name": "spender",
          "type": "address"
        }
      ],
      "name": "ERC20InvalidSpender",
      "type": "error"
    },
    {
      "inputs": [],
      "name": "EnforcedPause",
      "type": "error"
    },
    {
      "inputs": [],
      "name": "ExpectedPause",
      "type": "error"
    },
    {
      "inputs": [],
      "name": "ReentrancyGuardReentrantCall",
      "type": "error"
    },
    {
      "anonymous": false,
      "inputs": [
        {
          "indexed": true,
          "internalType": "address",
          "name": "owner",
          "type": "address"
        },
        {
          "indexed": true,
          "internalType": "address",
          "name": "spender",
          "type": "address"
        },
        {
          "indexed": false,
          "internalType": "uint256",
          "name": "value",
          "type": "uint256"
        }
      ],
      "name": "Approval",
      "type": "event"
    },
    {
      "anonymous": false,
      "inputs": [
        {
          "indexed": true,
          "internalType": "address",
          "name": "token",
          "type": "address"
        },
        {
          "indexed": false,
          "internalType": "uint256",
          "name": "amount",
          "type": "uint256"
        },
        {
          "indexed": true,
          "internalType": "address",
          "name": "recipient",
          "type": "address"
        }
      ],
      "name": "EmergencyWithdrawalExecuted",
      "type": "event"
    },
    {
      "anonymous": false,
      "inputs": [
        {
          "indexed": true,
          "internalType": "address",
          "name": "token",
          "type": "address"
        },
        {
          "indexed": false,
          "internalType": "uint256",
          "name": "amount",
          "type": "uint256"
        },
        {
          "indexed": false,
          "internalType": "uint256",
          "name": "executeAfter",
          "type": "uint256"
        }
      ],
      "name": "EmergencyWithdrawalInitiated",
      "type": "event"
    },
    {
      "anonymous": false,
      "inputs": [
        {
          "indexed": false,
          "internalType": "address",
          "name": "account",
          "type": "address"
        }
      ],
      "name": "Paused",
      "type": "event"
    },
    {
      "anonymous": false,
      "inputs": [
        {
          "indexed": true,
          "internalType": "bytes32",
          "name": "role",
          "type": "bytes32"
        },
        {
          "indexed": true,
          "internalType": "bytes32",
          "name": "previousAdminRole",
          "type": "bytes32"
        },
        {
          "indexed": true,
          "internalType": "bytes32",
          "name": "newAdminRole",
          "type": "bytes32"
        }
      ],
      "name": "RoleAdminChanged",
      "type": "event"
    },
    {
      "anonymous": false,
      "inputs": [
        {
          "indexed": true,
          "internalType": "bytes32",
          "name": "role",
          "type": "bytes32"
        },
        {
          "indexed": true,
          "internalType": "address",
          "name": "account",
          "type": "address"
        },
        {
          "indexed": true,
          "internalType": "address",
          "name": "sender",
          "type": "address"
        }
      ],
      "name": "RoleGranted",
      "type": "event"
    },
    {
      "anonymous": false,
      "inputs": [
        {
          "indexed": true,
          "internalType": "bytes32",
          "name": "role",
          "type": "bytes32"
        },
        {
          "indexed": true,
          "internalType": "address",
          "name": "account",
          "type": "address"
        },
        {
          "indexed": true,
          "internalType": "address",
          "name": "sender",
          "type": "address"
        }
      ],
      "name": "RoleRevoked",
      "type": "event"
    },
    {
      "anonymous": false,
      "inputs": [
        {
          "indexed": true,
          "internalType": "address",
          "name": "to",
          "type": "address"
        },
        {
          "indexed": false,
          "internalType": "uint256",
          "name": "amount",
          "type": "uint256"
        },
        {
          "indexed": false,
          "internalType": "uint256",
          "name": "newTotalSupply",
          "type": "uint256"
        },
        {
          "indexed": true,
          "internalType": "address",
          "name": "minter",
          "type": "address"
        }
      ],
      "name": "TokenMinted",
      "type": "event"
    },
    {
      "anonymous": false,
      "inputs": [
        {
          "indexed": true,
          "internalType": "address",
          "name": "from",
          "type": "address"
        },
        {
          "indexed": true,
          "internalType": "address",
          "name": "to",
          "type": "address"
        },
        {
          "indexed": false,
          "internalType": "uint256",
          "name": "value",
          "type": "uint256"
        }
      ],
      "name": "Transfer",
      "type": "event"
    },
    {
      "anonymous": false,
      "inputs": [
        {
          "indexed": false,
          "internalType": "address",
          "name": "account",
          "type": "address"
        }
      ],
      "name": "Unpaused",
      "type": "event"
    },
    {
      "inputs": [],
      "name": "DEFAULT_ADMIN_ROLE",
      "outputs": [
        {
          "internalType": "bytes32",
          "name": "",
          "type": "bytes32"
        }
      ],
      "stateMutability": "view",
      "type": "function"
    },
    {
      "inputs": [],
      "name": "EMERGENCY_ROLE",
      "outputs": [
        {
          "internalType": "bytes32",
          "name": "",
          "type": "bytes32"
        }
      ],
      "stateMutability": "view",
      "type": "function"
    },
    {
      "inputs": [],
      "name": "EMERGENCY_TIMELOCK",
      "outputs": [
        {
          "internalType": "uint256",
          "name": "",
          "type": "uint256"
        }
      ],
      "stateMutability": "view",
      "type": "function"
    },
    {
      "inputs": [],
      "name": "MINTER_ROLE",
      "outputs": [
        {
          "internalType": "bytes32",
          "name": "",
          "type": "bytes32"
        }
      ],
      "stateMutability": "view",
      "type": "function"
    },
    {
      "inputs": [],
      "name": "PAUSER_ROLE",
      "outputs": [
        {
          "internalType": "bytes32",
          "name": "",
          "type": "bytes32"
        }
      ],
      "stateMutability": "view",
      "type": "function"
    },
    {
      "inputs": [],
      "name": "TOTAL_SUPPLY_CAP",
      "outputs": [
        {
          "internalType": "uint256",
          "name": "",
          "type": "uint256"
        }
      ],
      "stateMutability": "view",
      "type": "function"
    },
    {
      "inputs": [
        {
          "internalType": "address",
          "name": "owner",
          "type": "address"
        },
        {
          "internalType": "address",
          "name": "spender",
          "type": "address"
        }
      ],
      "name": "allowance",
      "outputs": [
        {
          "internalType": "uint256",
          "name": "",
          "type": "uint256"
        }
      ],
      "stateMutability": "view",
      "type": "function"
    },
    {
      "inputs": [
        {
          "internalType": "address",
          "name": "spender",
          "type": "address"
        },
        {
          "internalType": "uint256",
          "name": "value",
          "type": "uint256"
        }
      ],
      "name": "approve",
      "outputs": [
        {
          "internalType": "bool",
          "name": "",
          "type": "bool"
        }
      ],
      "stateMutability": "nonpayable",
      "type": "function"
    },
    {
      "inputs": [
        {
          "internalType": "address",
          "name": "account",
          "type": "address"
        }
      ],
      "name": "balanceOf",
      "outputs": [
        {
          "internalType": "uint256",
          "name": "",
          "type": "uint256"
        }
      ],
      "stateMutability": "view",
      "type": "function"
    },
    {
      "inputs": [
        {
          "internalType": "uint256",
          "name": "value",
          "type": "uint256"
        }
      ],
      "name": "burn",
      "outputs": [],
      "stateMutability": "nonpayable",
      "type": "function"
    },
    {
      "inputs": [
        {
          "internalType": "address",
          "name": "account",
          "type": "address"
        },
        {
          "internalType": "uint256",
          "name": "value",
          "type": "uint256"
        }
      ],
      "name": "burnFrom",
      "outputs": [],
      "stateMutability": "nonpayable",
      "type": "function"
    },
    {
      "inputs": [],
      "name": "decimals",
      "outputs": [
        {
          "internalType": "uint8",
          "name": "",
          "type": "uint8"
        }
      ],
      "stateMutability": "view",
      "type": "function"
    },
    {
      "inputs": [],
      "name": "executeEmergencyWithdraw",
      "outputs": [],
      "stateMutability": "nonpayable",
      "type": "function"
    },
    {
      "inputs": [
        {
          "internalType": "bytes32",
          "name": "role",
          "type": "bytes32"
        }
      ],
      "name": "getRoleAdmin",
      "outputs": [
        {
          "internalType": "bytes32",
          "name": "",
          "type": "bytes32"
        }
      ],
      "stateMutability": "view",
      "type": "function"
    },
    {
      "inputs": [],
      "name": "getSupplyInfo",
      "outputs": [
        {
          "internalType": "uint256",
          "name": "minted",
          "type": "uint256"
        },
        {
          "internalType": "uint256",
          "name": "cap",
          "type": "uint256"
        },
        {
          "internalType": "uint256",
          "name": "remaining",
          "type": "uint256"
        }
      ],
      "stateMutability": "view",
      "type": "function"
    },
    {
      "inputs": [],
      "name": "getSupplyPercentage",
      "outputs": [
        {
          "internalType": "uint256",
          "name": "",
          "type": "uint256"
        }
      ],
      "stateMutability": "view",
      "type": "function"
    },
    {
      "inputs": [
        {
          "internalType": "bytes32",
          "name": "role",
          "type": "bytes32"
        },
        {
          "internalType": "address",
          "name": "account",
          "type": "address"
        }
      ],
      "name": "grantRole",
      "outputs": [],
      "stateMutability": "nonpayable",
      "type": "function"
    },
    {
      "inputs": [
        {
          "internalType": "bytes32",
          "name": "role",
          "type": "bytes32"
        },
        {
          "internalType": "address",
          "name": "account",
          "type": "address"
        }
      ],
      "name": "hasRole",
      "outputs": [
        {
          "internalType": "bool",
          "name": "",
          "type": "bool"
        }
      ],
      "stateMutability": "view",
      "type": "function"
    },
    {
      "inputs": [
        {
          "internalType": "address",
          "name": "_token",
          "type": "address"
        },
        {
          "internalType": "uint256",
          "name": "_amount",
          "type": "uint256"
        }
      ],
      "name": "initiateEmergencyWithdraw",
      "outputs": [],
      "stateMutability": "nonpayable",
      "type": "function"
    },
    {
      "inputs": [
        {
          "internalType": "address",
          "name": "to",
          "type": "address"
        },
        {
          "internalType": "uint256",
          "name": "amount",
          "type": "uint256"
        }
      ],
      "name": "mint",
      "outputs": [],
      "stateMutability": "nonpayable",
      "type": "function"
    },
    {
      "inputs": [],
      "name": "mintedSupply",
      "outputs": [
        {
          "internalType": "uint256",
          "name": "",
          "type": "uint256"
        }
      ],
      "stateMutability": "view",
      "type": "function"
    },
    {
      "inputs": [],
      "name": "name",
      "outputs": [
        {
          "internalType": "string",
          "name": "",
          "type": "string"
        }
      ],
      "stateMutability": "view",
      "type": "function"
    },
    {
      "inputs": [],
      "name": "pause",
      "outputs": [],
      "stateMutability": "nonpayable",
      "type": "function"
    },
    {
      "inputs": [],
      "name": "paused",
      "outputs": [
        {
          "internalType": "bool",
          "name": "",
          "type": "bool"
        }
      ],
      "stateMutability": "view",
      "type": "function"
    },
    {
      "inputs": [],
      "name": "pendingWithdrawal",
      "outputs": [
        {
          "internalType": "address",
          "name": "token",
          "type": "address"
        },
        {
          "internalType": "uint256",
          "name": "amount",
          "type": "uint256"
        },
        {
          "internalType": "uint256",
          "name": "executeAfter",
          "type": "uint256"
        },
        {
          "internalType": "bool",
          "name": "active",
          "type": "bool"
        }
      ],
      "stateMutability": "view",
      "type": "function"
    },
    {
      "inputs": [
        {
          "internalType": "bytes32",
          "name": "role",
          "type": "bytes32"
        },
        {
          "internalType": "address",
          "name": "callerConfirmation",
          "type": "address"
        }
      ],
      "name": "renounceRole",
      "outputs": [],
      "stateMutability": "nonpayable",
      "type": "function"
    },
    {
      "inputs": [
        {
          "internalType": "bytes32",
          "name": "role",
          "type": "bytes32"
        },
        {
          "internalType": "address",
          "name": "account",
          "type": "address"
        }
      ],
      "name": "revokeRole",
      "outputs": [],
      "stateMutability": "nonpayable",
      "type": "function"
    },
    {
      "inputs": [
        {
          "internalType": "bytes4",
          "name": "interfaceId",
          "type": "bytes4"
        }
      ],
      "name": "supportsInterface",
      "outputs": [
        {
          "internalType": "bool",
          "name": "",
          "type": "bool"
        }
      ],
      "stateMutability": "view",
      "type": "function"
    },
    {
      "inputs": [],
      "name": "symbol",
      "outputs": [
        {
          "internalType": "string",
          "name": "",
          "type": "string"
        }
      ],
      "stateMutability": "view",
      "type": "function"
    },
    {
      "inputs": [],
      "name": "totalSupply",
      "outputs": [
        {
          "internalType": "uint256",
          "name": "",
          "type": "uint256"
        }
      ],
      "stateMutability": "view",
      "type": "function"
    },
    {
      "inputs": [
        {
          "internalType": "address",
          "name": "to",
          "type": "address"
        },
        {
          "internalType": "uint256",
          "name": "value",
          "type": "uint256"
        }
      ],
      "name": "transfer",
      "outputs": [
        {
          "internalType": "bool",
          "name": "",
          "type": "bool"
        }
      ],
      "stateMutability": "nonpayable",
      "type": "function"
    },
    {
      "inputs": [
        {
          "internalType": "address",
          "name": "from",
          "type": "address"
        },
        {
          "internalType": "address",
          "name": "to",
          "type": "address"
        },
        {
          "internalType": "uint256",
          "name": "value",
          "type": "uint256"
        }
      ],
      "name": "transferFrom",
      "outputs": [
        {
          "internalType": "bool",
          "name": "",
          "type": "bool"
        }
      ],
      "stateMutability": "nonpayable",
      "type": "function"
    },
    {
      "inputs": [],
      "name": "treasury",
      "outputs": [
        {
          "internalType": "address",
          "name": "",
          "type": "address"
        }
      ],
      "stateMutability": "view",
      "type": "function"
    },
    {
      "inputs": [],
      "name": "unpause",
      "outputs": [],
      "stateMutability": "nonpayable",
      "type": "function"
    },
    {
      "stateMutability": "payable",
      "type": "receive"
    }
  ],
  "bytecode": "0x60a0604052346103eb57611e566040813803918261001c816103f0565b9384928339810103126103eb5761003e602061003783610415565b9201610415565b9061004960406103f0565b91601083526f2a393aba342337b933b2902a37b5b2b760811b602084015261007160406103f0565b600681526556455249465960d01b602082015283519092906001600160401b0381116102f457600354600181811c911680156103e1575b60208210146102d457601f811161037c575b50602094601f82116001146103155794819293949560009261030a575b50508160011b916000199060031b1c1916176003555b82516001600160401b0381116102f457600454600181811c911680156102ea575b60208210146102d457601f811161026f575b506020601f821160011461020857819293946000926101fd575b50508160011b916000199060031b1c1916176004555b600160075560006008556001600160a01b038216156101b8576101939160805261017981610429565b50610183816104a5565b5061018d81610561565b506105f9565b506000600855604051611744908161069282396080518181816105e60152610b670152f35b60405162461bcd60e51b815260206004820152601f60248201527f54726561737572792063616e6e6f74206265207a65726f2061646472657373006044820152606490fd5b01519050388061013a565b601f198216906004600052806000209160005b8181106102575750958360019596971061023e575b505050811b01600455610150565b015160001960f88460031b161c19169055388080610230565b9192602060018192868b01518155019401920161021b565b60046000527f8a35acfbc15ff81a39ae7d344fd709f28e8600b4aa8c65c6b64bfe7fe36bd19b601f830160051c810191602084106102ca575b601f0160051c01905b8181106102be5750610120565b600081556001016102b1565b90915081906102a8565b634e487b7160e01b600052602260045260246000fd5b90607f169061010e565b634e487b7160e01b600052604160045260246000fd5b0151905038806100d7565b601f198216956003600052806000209160005b8881106103645750836001959697981061034b575b505050811b016003556100ed565b015160001960f88460031b161c1916905538808061033d565b91926020600181928685015181550194019201610328565b60036000527fc2575a0e9e593c00f959f8c92f12db2869c3395a3b0502d05e2516446f71f85b601f830160051c810191602084106103d7575b601f0160051c01905b8181106103cb57506100ba565b600081556001016103be565b90915081906103b5565b90607f16906100a8565b600080fd5b6040519190601f01601f191682016001600160401b038111838210176102f457604052565b51906001600160a01b03821682036103eb57565b6001600160a01b0381166000908152600080516020611e36833981519152602052604090205460ff1661049f576001600160a01b03166000818152600080516020611e3683398151915260205260408120805460ff19166001179055339190600080516020611dd68339815191528180a4600190565b50600090565b6001600160a01b03811660009081527f3195c024b2ddd6d9b8f6c836aa52f67fe69376c8903d009b80229b3ce4425f51602052604090205460ff1661049f576001600160a01b031660008181527f3195c024b2ddd6d9b8f6c836aa52f67fe69376c8903d009b80229b3ce4425f5160205260408120805460ff191660011790553391907f9f2df0fed2c77648de5860a4cc508cd0818c85b8b8a1ab4ceeef8d981c8956a690600080516020611dd68339815191529080a4600190565b6001600160a01b0381166000908152600080516020611e16833981519152602052604090205460ff1661049f576001600160a01b03166000818152600080516020611e1683398151915260205260408120805460ff191660011790553391907f65d7a28e3265b37a6474929f336521b332c1681b933f6cb9f3376673440d862a90600080516020611dd68339815191529080a4600190565b6001600160a01b0381166000908152600080516020611df6833981519152602052604090205460ff1661049f576001600160a01b03166000818152600080516020611df683398151915260205260408120805460ff191660011790553391907fbf233dd2aafeb4d50879c4aa5c81e96d92f6e6945c906a58f9f2d1c1631b4b2690600080516020611dd68339815191529080a460019056fe608080604052600436101561001d575b50361561001b57600080fd5b005b60003560e01c90816301ffc9a7146111555750806306fdde0314611096578063095ea7b314610fe457806318160ddd14610fc657806320df435914610f8b57806320edeaf314610f2f57806323b872dd14610ef7578063248a9ca314610ec25780632a8821cc14610b0d5780632f2ff15d14610acd5780632f89695a14610991578063313ce5671461097557806336568abe1461092f5780633f4ba83a146108c657806340c10f191461069b57806342966c681461067e57806348931352146106565780635c975abb1461063357806360d7442b1461061557806361d027b3146105d057806370a082311461059657806379cc6790146105665780637e288822146105225780638456cb59146104c857806391d148541461047b57806395d89b4114610373578063a217fddf14610357578063a9059cbb14610326578063c1bd8cf914610308578063d5391393146102cd578063d547741f14610288578063dd62ed3e14610237578063e63ab1e9146101fc5763eed55238146101a0573861000f565b346101f75760003660031901126101f7576008546064810290808204606414901517156101e1576020906c01431e0fae6d7217caa000000060405191048152f35b634e487b7160e01b600052601160045260246000fd5b600080fd5b346101f75760003660031901126101f75760206040517f65d7a28e3265b37a6474929f336521b332c1681b933f6cb9f3376673440d862a8152f35b346101f75760403660031901126101f7576102506111f1565b610258611207565b6001600160a01b039182166000908152600160209081526040808320949093168252928352819020549051908152f35b346101f75760403660031901126101f75761001b6004356102a7611207565b906102c86102c382600052600660205260016040600020015490565b6114f4565b6115e2565b346101f75760003660031901126101f75760206040517f9f2df0fed2c77648de5860a4cc508cd0818c85b8b8a1ab4ceeef8d981c8956a68152f35b346101f75760003660031901126101f7576020600854604051908152f35b346101f75760403660031901126101f75761034c6103426111f1565b6024359033611343565b602060405160018152f35b346101f75760003660031901126101f757602060405160008152f35b346101f75760003660031901126101f75760405160006004548060011c90600181168015610471575b60208310811461045d5782855290811561043957506001146103d9575b6103d5836103c98185038261121d565b604051918291826111a8565b0390f35b91905060046000527f8a35acfbc15ff81a39ae7d344fd709f28e8600b4aa8c65c6b64bfe7fe36bd19b916000905b80821061041f575090915081016020016103c96103b9565b919260018160209254838588010152019101909291610407565b60ff191660208086019190915291151560051b840190910191506103c990506103b9565b634e487b7160e01b84526022600452602484fd5b91607f169161039c565b346101f75760403660031901126101f757610494611207565b600435600052600660205260406000209060018060a01b0316600052602052602060ff604060002054166040519015158152f35b346101f75760003660031901126101f7576104e1611482565b6104e96116f1565b600160ff1960055416176005557f62e78cea01bee320cd4e420270b5ea74000d11b0c9f74754ebdbfc544b05a2586020604051338152a1005b346101f75760003660031901126101f757608060018060a01b0360095416600a54600b5460ff600c5416916040519384526020840152604083015215156060820152f35b346101f75760403660031901126101f75761001b6105826111f1565b60243590610591823383611298565b611668565b346101f75760203660031901126101f7576001600160a01b036105b76111f1565b1660005260006020526020604060002054604051908152f35b346101f75760003660031901126101f7576040517f00000000000000000000000000000000000000000000000000000000000000006001600160a01b03168152602090f35b346101f75760003660031901126101f7576020604051620151808152f35b346101f75760003660031901126101f757602060ff600554166040519015158152f35b346101f75760003660031901126101f75760206040516c01431e0fae6d7217caa00000008152f35b346101f75760203660031901126101f75761001b60043533611668565b346101f75760403660031901126101f7576106b46111f1565b3360009081527f3195c024b2ddd6d9b8f6c836aa52f67fe69376c8903d009b80229b3ce4425f516020526040902054602435919060ff161561088d576106f8611531565b6001600160a01b031680156108485761071282151561123f565b60085461071f838261128b565b906c01431e0fae6d7217caa0000000821161080e5781106107d0576008556107456116f1565b6107518260025461128b565b60025580600052600060205260406000208281540190558060007fddf252ad1be2c89b69c2b068fc378daa952ba7f163c4a11628f55a4df523b3ef6020604051868152a360085460405192835260208301527f6a1a369ef3c3eebe428c993f6eb79fb1438544741070bc7a4388c801fa08463d60403393a36001600755005b60405162461bcd60e51b8152602060048201526016602482015275135a5b9d081bdd995c999b1bddc819195d1958dd195960521b6044820152606490fd5b60405162461bcd60e51b815260206004820152601260248201527104578636565647320737570706c79206361760741b6044820152606490fd5b60405162461bcd60e51b815260206004820152601b60248201527f43616e6e6f74206d696e7420746f207a65726f206164647265737300000000006044820152606490fd5b63e2517d3f60e01b600052336004527f9f2df0fed2c77648de5860a4cc508cd0818c85b8b8a1ab4ceeef8d981c8956a660245260446000fd5b346101f75760003660031901126101f7576108df611482565b60055460ff81161561091e5760ff19166005557f5db9ee0a495bf2e6ff9c91a7834c1ba4fdd244a5e8aa4e537bd38aeae4b073aa6020604051338152a1005b638dfc202b60e01b60005260046000fd5b346101f75760403660031901126101f757610948611207565b336001600160a01b038216036109645761001b906004356115e2565b63334bd91960e11b60005260046000fd5b346101f75760003660031901126101f757602060405160128152f35b346101f75760403660031901126101f7576109aa6111f1565b602435906109b6611410565b60ff600c5416610a88576109cb82151561123f565b6201518042018042116101e15760405192608084019184831067ffffffffffffffff841117610a7257600160607f73fe14d80afdfd5946f00733b5813bbdc0fce376a904c501b8b95daf37d58893956040958652828060a01b03169687815284602082015283868201520152846bffffffffffffffffffffffff60a01b600954161760095581600a5580600b55600160ff19600c541617600c5582519182526020820152a2005b634e487b7160e01b600052604160045260246000fd5b60405162461bcd60e51b815260206004820152601a60248201527f5769746864726177616c20616c72656164792070656e64696e670000000000006044820152606490fd5b346101f75760403660031901126101f75761001b600435610aec611207565b90610b086102c382600052600660205260016040600020015490565b611553565b346101f75760003660031901126101f757610b26611410565b610b2e611531565b60ff600c541615610e8557600b544210610e4d5760018060a01b0360095416600a549060006009556000600a556000600b556000600c557f00000000000000000000000000000000000000000000000000000000000000008115600014610caa57824710610c65576000808080866001600160a01b0386165af13d15610c60573d67ffffffffffffffff8111610a725760405190610bd6601f8201601f19166020018361121d565b8152600060203d92013e5b15610c235760207f0ba9f45e9291388211e3bdb9807c3559bfebe2973e09bd042c034f662fef42b2915b6040519485526001600160a01b031693a36001600755005b60405162461bcd60e51b8152602060048201526015602482015274115512081dda5d1a191c985dd85b0819985a5b1959605a1b6044820152606490fd5b610be1565b60405162461bcd60e51b815260206004820152601860248201527f496e73756666696369656e74204554482062616c616e636500000000000000006044820152606490fd5b6040516370a0823160e01b8152306004820152602081602481865afa8015610dc7578491600091610e18575b5010610dd35760405163a9059cbb60e01b81526001600160a01b0382166004820152602481018490526020816044816000875af1908115610dc757600091610d85575b5015610d485760207f0ba9f45e9291388211e3bdb9807c3559bfebe2973e09bd042c034f662fef42b291610c0b565b60405162461bcd60e51b8152602060048201526015602482015274151bdad95b881d1c985b9cd9995c8819985a5b1959605a1b6044820152606490fd5b6020813d602011610dbf575b81610d9e6020938361121d565b81010312610dbb5751908115158203610db8575084610d19565b80fd5b5080fd5b3d9150610d91565b6040513d6000823e3d90fd5b60405162461bcd60e51b815260206004820152601a60248201527f496e73756666696369656e7420746f6b656e2062616c616e63650000000000006044820152606490fd5b9150506020813d602011610e45575b81610e346020938361121d565b810103126101f75783905185610cd6565b3d9150610e27565b60405162461bcd60e51b815260206004820152601060248201526f151a5b595b1bd8dac81b9bdd081b595d60821b6044820152606490fd5b60405162461bcd60e51b81526020600482015260156024820152744e6f207769746864726177616c2070656e64696e6760581b6044820152606490fd5b346101f75760203660031901126101f7576020610eef600435600052600660205260016040600020015490565b604051908152f35b346101f75760603660031901126101f75761034c610f136111f1565b610f1b611207565b60443591610f2a833383611298565b611343565b346101f75760003660031901126101f757600854806c01431e0fae6d7217caa000000003906c01431e0fae6d7217caa000000082116101e1576060916040519182526c01431e0fae6d7217caa000000060208301526040820152f35b346101f75760003660031901126101f75760206040517fbf233dd2aafeb4d50879c4aa5c81e96d92f6e6945c906a58f9f2d1c1631b4b268152f35b346101f75760003660031901126101f7576020600254604051908152f35b346101f75760403660031901126101f757610ffd6111f1565b602435903315611080576001600160a01b031690811561106a57336000526001602052604060002082600052602052806040600020556040519081527f8c5be1e5ebec7d5bd14f71427d1e84f3dd0314c0f7b2291e5b200ac8c7c3b92560203392a3602060405160018152f35b634a1406b160e11b600052600060045260246000fd5b63e602df0560e01b600052600060045260246000fd5b346101f75760003660031901126101f75760405160006003548060011c9060018116801561114b575b60208310811461045d5782855290811561043957506001146110eb576103d5836103c98185038261121d565b91905060036000527fc2575a0e9e593c00f959f8c92f12db2869c3395a3b0502d05e2516446f71f85b916000905b808210611131575090915081016020016103c96103b9565b919260018160209254838588010152019101909291611119565b91607f16916110bf565b346101f75760203660031901126101f7576004359063ffffffff60e01b82168092036101f757602091637965db0b60e01b8114908115611197575b5015158152f35b6301ffc9a760e01b14905083611190565b91909160208152825180602083015260005b8181106111db575060409293506000838284010152601f8019910116010190565b80602080928701015160408286010152016111ba565b600435906001600160a01b03821682036101f757565b602435906001600160a01b03821682036101f757565b90601f8019910116810190811067ffffffffffffffff821117610a7257604052565b1561124657565b60405162461bcd60e51b815260206004820152601760248201527f416d6f756e74206d75737420626520706f7369746976650000000000000000006044820152606490fd5b919082018092116101e157565b6001600160a01b0390811660008181526001602090815260408083209486168352939052919091205492919060001984106112d4575b50505050565b82841061131e578015611080576001600160a01b0382161561106a57600052600160205260406000209060018060a01b0316600052602052604060002091039055388080806112ce565b508290637dc7a0d960e11b60005260018060a01b031660045260245260445260646000fd5b6001600160a01b03169081156113fa576001600160a01b03169182156113e45761136b6116f1565b60008281528060205260408120548281106113ca5791604082827fddf252ad1be2c89b69c2b068fc378daa952ba7f163c4a11628f55a4df523b3ef958760209652828652038282205586815280845220818154019055604051908152a3565b916064928463391434e360e21b8452600452602452604452fd5b63ec442f0560e01b600052600060045260246000fd5b634b637e8f60e11b600052600060045260246000fd5b3360009081527f7aca5d7f7c0d5c6c775e2a7e40239a4d6963361b3df3b07df46432786460eb57602052604090205460ff161561144957565b63e2517d3f60e01b600052336004527fbf233dd2aafeb4d50879c4aa5c81e96d92f6e6945c906a58f9f2d1c1631b4b2660245260446000fd5b3360009081527fe09f975e15f8f53f24cbbc282b13c40b84df485fcdb8d3997fa103dc5a4ef841602052604090205460ff16156114bb57565b63e2517d3f60e01b600052336004527f65d7a28e3265b37a6474929f336521b332c1681b933f6cb9f3376673440d862a60245260446000fd5b600081815260066020908152604080832033845290915290205460ff16156115195750565b63e2517d3f60e01b6000523360045260245260446000fd5b600260075414611542576002600755565b633ee5aeb560e01b60005260046000fd5b60008181526006602090815260408083206001600160a01b038616845290915290205460ff166115db5760008181526006602090815260408083206001600160a01b0395909516808452949091528120805460ff19166001179055339291907f2f8788117e7eff1d82e926ec794901d17c78024a50270940304540a733656f0d9080a4600190565b5050600090565b60008181526006602090815260408083206001600160a01b038616845290915290205460ff16156115db5760008181526006602090815260408083206001600160a01b0395909516808452949091528120805460ff19169055339291907ff6391f5c32d9c69d2a47ea670b442974b53935d1edc7fd64eb21e047a839171b9080a4600190565b6001600160a01b031680156113fa5761167f6116f1565b6000918183528260205260408320548181106116d857817fddf252ad1be2c89b69c2b068fc378daa952ba7f163c4a11628f55a4df523b3ef926020928587528684520360408620558060025403600255604051908152a3565b6064939263391434e360e21b8452600452602452604452fd5b60ff600554166116fd57565b63d93c066560e01b60005260046000fdfea2646970667358221220816b7ab8742b59561c66803351f1f990aca219164d779db98f4944623d3d832764736f6c634300081c00332f8788117e7eff1d82e926ec794901d17c78024a50270940304540a733656f0d7aca5d7f7c0d5c6c775e2a7e40239a4d6963361b3df3b07df46432786460eb57e09f975e15f8f53f24cbbc282b13c40b84df485fcdb8d3997fa103dc5a4ef84154cdd369e4e8a8515e52ca72ec816c2101831ad1f18bf44102ed171459c9b4f8",
  "linkReferences": {},
  "deployedLinkReferences": {}
}